{
  "contractName": "Paymaster",
  "abi": [
    {
      "inputs": [
        {
          "internalType": "address",
          "name": "_signDocuProxy",
          "type": "address"
        },
        {
          "internalType": "address",
          "name": "_relayHub",
          "type": "address"
        }
      ],
      "stateMutability": "nonpayable",
      "type": "constructor"
    },
    {
      "anonymous": false,
      "inputs": [
        {
          "indexed": true,
          "internalType": "address",
          "name": "previousOwner",
          "type": "address"
        },
        {
          "indexed": true,
          "internalType": "address",
          "name": "newOwner",
          "type": "address"
        }
      ],
      "name": "OwnershipTransferred",
      "type": "event"
    },
    {
      "inputs": [],
      "name": "FORWARDER_HUB_OVERHEAD",
      "outputs": [
        {
          "internalType": "uint256",
          "name": "",
          "type": "uint256"
        }
      ],
      "stateMutability": "view",
      "type": "function",
      "constant": true
    },
    {
      "inputs": [],
      "name": "PAYMASTER_ACCEPTANCE_BUDGET",
      "outputs": [
        {
          "internalType": "uint256",
          "name": "",
          "type": "uint256"
        }
      ],
      "stateMutability": "view",
      "type": "function",
      "constant": true
    },
    {
      "inputs": [],
      "name": "POST_RELAYED_CALL_GAS_LIMIT",
      "outputs": [
        {
          "internalType": "uint256",
          "name": "",
          "type": "uint256"
        }
      ],
      "stateMutability": "view",
      "type": "function",
      "constant": true
    },
    {
      "inputs": [],
      "name": "PRE_RELAYED_CALL_GAS_LIMIT",
      "outputs": [
        {
          "internalType": "uint256",
          "name": "",
          "type": "uint256"
        }
      ],
      "stateMutability": "view",
      "type": "function",
      "constant": true
    },
    {
      "inputs": [
        {
          "components": [
            {
              "components": [
                {
                  "internalType": "address",
                  "name": "from",
                  "type": "address"
                },
                {
                  "internalType": "address",
                  "name": "to",
                  "type": "address"
                },
                {
                  "internalType": "uint256",
                  "name": "value",
                  "type": "uint256"
                },
                {
                  "internalType": "uint256",
                  "name": "gas",
                  "type": "uint256"
                },
                {
                  "internalType": "uint256",
                  "name": "nonce",
                  "type": "uint256"
                },
                {
                  "internalType": "bytes",
                  "name": "data",
                  "type": "bytes"
                }
              ],
              "internalType": "struct IForwarder.ForwardRequest",
              "name": "request",
              "type": "tuple"
            },
            {
              "components": [
                {
                  "internalType": "uint256",
                  "name": "gasPrice",
                  "type": "uint256"
                },
                {
                  "internalType": "uint256",
                  "name": "pctRelayFee",
                  "type": "uint256"
                },
                {
                  "internalType": "uint256",
                  "name": "baseRelayFee",
                  "type": "uint256"
                },
                {
                  "internalType": "address",
                  "name": "relayWorker",
                  "type": "address"
                },
                {
                  "internalType": "address",
                  "name": "paymaster",
                  "type": "address"
                },
                {
                  "internalType": "bytes",
                  "name": "paymasterData",
                  "type": "bytes"
                },
                {
                  "internalType": "uint256",
                  "name": "clientId",
                  "type": "uint256"
                },
                {
                  "internalType": "address",
                  "name": "forwarder",
                  "type": "address"
                }
              ],
              "internalType": "struct GsnTypes.RelayData",
              "name": "relayData",
              "type": "tuple"
            }
          ],
          "internalType": "struct GsnTypes.RelayRequest",
          "name": "relayRequest",
          "type": "tuple"
        }
      ],
      "name": "_verifyForwarder",
      "outputs": [],
      "stateMutability": "view",
      "type": "function",
      "constant": true
    },
    {
      "inputs": [],
      "name": "getGasLimits",
      "outputs": [
        {
          "components": [
            {
              "internalType": "uint256",
              "name": "acceptanceBudget",
              "type": "uint256"
            },
            {
              "internalType": "uint256",
              "name": "preRelayedCallGasLimit",
              "type": "uint256"
            },
            {
              "internalType": "uint256",
              "name": "postRelayedCallGasLimit",
              "type": "uint256"
            }
          ],
          "internalType": "struct IPaymaster.GasLimits",
          "name": "limits",
          "type": "tuple"
        }
      ],
      "stateMutability": "view",
      "type": "function",
      "constant": true
    },
    {
      "inputs": [],
      "name": "getHubAddr",
      "outputs": [
        {
          "internalType": "address",
          "name": "",
          "type": "address"
        }
      ],
      "stateMutability": "view",
      "type": "function",
      "constant": true
    },
    {
      "inputs": [],
      "name": "getRelayHubDeposit",
      "outputs": [
        {
          "internalType": "uint256",
          "name": "",
          "type": "uint256"
        }
      ],
      "stateMutability": "view",
      "type": "function",
      "constant": true
    },
    {
      "inputs": [],
      "name": "owner",
      "outputs": [
        {
          "internalType": "address",
          "name": "",
          "type": "address"
        }
      ],
      "stateMutability": "view",
      "type": "function",
      "constant": true
    },
    {
      "inputs": [],
      "name": "renounceOwnership",
      "outputs": [],
      "stateMutability": "nonpayable",
      "type": "function"
    },
    {
      "inputs": [
        {
          "internalType": "contract IRelayHub",
          "name": "hub",
          "type": "address"
        }
      ],
      "name": "setRelayHub",
      "outputs": [],
      "stateMutability": "nonpayable",
      "type": "function"
    },
    {
      "inputs": [
        {
          "internalType": "contract IForwarder",
          "name": "forwarder",
          "type": "address"
        }
      ],
      "name": "setTrustedForwarder",
      "outputs": [],
      "stateMutability": "nonpayable",
      "type": "function"
    },
    {
      "inputs": [
        {
          "internalType": "address",
          "name": "newOwner",
          "type": "address"
        }
      ],
      "name": "transferOwnership",
      "outputs": [],
      "stateMutability": "nonpayable",
      "type": "function"
    },
    {
      "inputs": [
        {
          "internalType": "uint256",
          "name": "amount",
          "type": "uint256"
        },
        {
          "internalType": "address payable",
          "name": "target",
          "type": "address"
        }
      ],
      "name": "withdrawRelayHubDepositTo",
      "outputs": [],
      "stateMutability": "nonpayable",
      "type": "function"
    },
    {
      "stateMutability": "payable",
      "type": "receive",
      "payable": true
    },
    {
      "inputs": [
        {
          "components": [
            {
              "components": [
                {
                  "internalType": "address",
                  "name": "from",
                  "type": "address"
                },
                {
                  "internalType": "address",
                  "name": "to",
                  "type": "address"
                },
                {
                  "internalType": "uint256",
                  "name": "value",
                  "type": "uint256"
                },
                {
                  "internalType": "uint256",
                  "name": "gas",
                  "type": "uint256"
                },
                {
                  "internalType": "uint256",
                  "name": "nonce",
                  "type": "uint256"
                },
                {
                  "internalType": "bytes",
                  "name": "data",
                  "type": "bytes"
                }
              ],
              "internalType": "struct IForwarder.ForwardRequest",
              "name": "request",
              "type": "tuple"
            },
            {
              "components": [
                {
                  "internalType": "uint256",
                  "name": "gasPrice",
                  "type": "uint256"
                },
                {
                  "internalType": "uint256",
                  "name": "pctRelayFee",
                  "type": "uint256"
                },
                {
                  "internalType": "uint256",
                  "name": "baseRelayFee",
                  "type": "uint256"
                },
                {
                  "internalType": "address",
                  "name": "relayWorker",
                  "type": "address"
                },
                {
                  "internalType": "address",
                  "name": "paymaster",
                  "type": "address"
                },
                {
                  "internalType": "bytes",
                  "name": "paymasterData",
                  "type": "bytes"
                },
                {
                  "internalType": "uint256",
                  "name": "clientId",
                  "type": "uint256"
                },
                {
                  "internalType": "address",
                  "name": "forwarder",
                  "type": "address"
                }
              ],
              "internalType": "struct GsnTypes.RelayData",
              "name": "relayData",
              "type": "tuple"
            }
          ],
          "internalType": "struct GsnTypes.RelayRequest",
          "name": "relayRequest",
          "type": "tuple"
        },
        {
          "internalType": "bytes",
          "name": "signature",
          "type": "bytes"
        },
        {
          "internalType": "bytes",
          "name": "approvalData",
          "type": "bytes"
        },
        {
          "internalType": "uint256",
          "name": "maxPossibleGas",
          "type": "uint256"
        }
      ],
      "name": "preRelayedCall",
      "outputs": [
        {
          "internalType": "bytes",
          "name": "context",
          "type": "bytes"
        },
        {
          "internalType": "bool",
          "name": "rejectOnRecipientRevert",
          "type": "bool"
        }
      ],
      "stateMutability": "nonpayable",
      "type": "function"
    },
    {
      "inputs": [
        {
          "internalType": "bytes",
          "name": "approvalData",
          "type": "bytes"
        }
      ],
      "name": "canRelay",
      "outputs": [
        {
          "internalType": "bytes",
          "name": "context",
          "type": "bytes"
        },
        {
          "internalType": "bool",
          "name": "rejectOnRecipientRevert",
          "type": "bool"
        }
      ],
      "stateMutability": "nonpayable",
      "type": "function"
    },
    {
      "inputs": [
        {
          "internalType": "address",
          "name": "_sender",
          "type": "address"
        },
        {
          "internalType": "uint256",
          "name": "_gasEstimate",
          "type": "uint256"
        }
      ],
      "name": "accountCreationApproveCheck",
      "outputs": [
        {
          "internalType": "bytes",
          "name": "context",
          "type": "bytes"
        },
        {
          "internalType": "bool",
          "name": "rejectOnRecipientRevert",
          "type": "bool"
        }
      ],
      "stateMutability": "view",
      "type": "function",
      "constant": true
    },
    {
      "inputs": [
        {
          "internalType": "address",
          "name": "_sender",
          "type": "address"
        },
        {
          "internalType": "uint256",
          "name": "_gasEstimate",
          "type": "uint256"
        }
      ],
      "name": "accountCreationCheck",
      "outputs": [
        {
          "internalType": "bytes",
          "name": "context",
          "type": "bytes"
        },
        {
          "internalType": "bool",
          "name": "rejectOnRecipientRevert",
          "type": "bool"
        }
      ],
      "stateMutability": "view",
      "type": "function",
      "constant": true
    },
    {
      "inputs": [
        {
          "internalType": "string",
          "name": "_cid",
          "type": "string"
        },
        {
          "internalType": "address",
          "name": "_sender",
          "type": "address"
        },
        {
          "internalType": "uint256",
          "name": "_gasEstimate",
          "type": "uint256"
        }
      ],
      "name": "documentCreationCheck",
      "outputs": [
        {
          "internalType": "bytes",
          "name": "context",
          "type": "bytes"
        },
        {
          "internalType": "bool",
          "name": "rejectOnRecipientRevert",
          "type": "bool"
        }
      ],
      "stateMutability": "view",
      "type": "function",
      "constant": true
    },
    {
      "inputs": [
        {
          "internalType": "string",
          "name": "_cid",
          "type": "string"
        },
        {
          "internalType": "uint256",
          "name": "_gasEstimate",
          "type": "uint256"
        }
      ],
      "name": "documentActionCheck",
      "outputs": [
        {
          "internalType": "bytes",
          "name": "context",
          "type": "bytes"
        },
        {
          "internalType": "bool",
          "name": "rejectOnRecipientRevert",
          "type": "bool"
        }
      ],
      "stateMutability": "view",
      "type": "function",
      "constant": true
    },
    {
      "inputs": [
        {
          "internalType": "bytes",
          "name": "context",
          "type": "bytes"
        },
        {
          "internalType": "bool",
          "name": "success",
          "type": "bool"
        },
        {
          "internalType": "uint256",
          "name": "gasUseWithoutPost",
          "type": "uint256"
        },
        {
          "components": [
            {
              "internalType": "uint256",
              "name": "gasPrice",
              "type": "uint256"
            },
            {
              "internalType": "uint256",
              "name": "pctRelayFee",
              "type": "uint256"
            },
            {
              "internalType": "uint256",
              "name": "baseRelayFee",
              "type": "uint256"
            },
            {
              "internalType": "address",
              "name": "relayWorker",
              "type": "address"
            },
            {
              "internalType": "address",
              "name": "paymaster",
              "type": "address"
            },
            {
              "internalType": "bytes",
              "name": "paymasterData",
              "type": "bytes"
            },
            {
              "internalType": "uint256",
              "name": "clientId",
              "type": "uint256"
            },
            {
              "internalType": "address",
              "name": "forwarder",
              "type": "address"
            }
          ],
          "internalType": "struct GsnTypes.RelayData",
          "name": "relayData",
          "type": "tuple"
        }
      ],
      "name": "postRelayedCall",
      "outputs": [],
      "stateMutability": "nonpayable",
      "type": "function"
    },
    {
      "inputs": [
        {
          "internalType": "uint256",
          "name": "_balance",
          "type": "uint256"
        },
        {
          "internalType": "uint256",
          "name": "_gasPrice",
          "type": "uint256"
        },
        {
          "internalType": "uint256",
          "name": "_gasEstimate",
          "type": "uint256"
        }
      ],
      "name": "balanceIsBiggerThanGasCost",
      "outputs": [
        {
          "internalType": "bool",
          "name": "",
          "type": "bool"
        }
      ],
      "stateMutability": "view",
      "type": "function",
      "constant": true
    },
    {
      "inputs": [
        {
          "internalType": "address",
          "name": "_accountToPayFees",
          "type": "address"
        }
      ],
      "name": "convertAddressToBytes",
      "outputs": [
        {
          "internalType": "bytes",
          "name": "",
          "type": "bytes"
        }
      ],
      "stateMutability": "pure",
      "type": "function",
      "constant": true
    },
    {
      "inputs": [
        {
          "internalType": "bytes",
          "name": "data",
          "type": "bytes"
        }
      ],
      "name": "convertBytesToAddress",
      "outputs": [
        {
          "internalType": "address",
          "name": "accountPayingFees",
          "type": "address"
        }
      ],
      "stateMutability": "view",
      "type": "function",
      "constant": true
    },
    {
      "inputs": [
        {
          "internalType": "string",
          "name": "_a",
          "type": "string"
        },
        {
          "internalType": "string",
          "name": "_b",
          "type": "string"
        }
      ],
      "name": "stringComparaison",
      "outputs": [
        {
          "internalType": "bool",
          "name": "",
          "type": "bool"
        }
      ],
      "stateMutability": "view",
      "type": "function",
      "constant": true
    },
    {
      "inputs": [],
      "name": "versionPaymaster",
      "outputs": [
        {
          "internalType": "string",
          "name": "",
          "type": "string"
        }
      ],
      "stateMutability": "view",
      "type": "function",
      "constant": true
    }
  ],
  "bytecode": "0x60806040523480156200001157600080fd5b50604051620033fb380380620033fb833981810160405281019062000037919062000245565b6000620000496200014160201b60201c565b9050806000806101000a81548173ffffffffffffffffffffffffffffffffffffffff021916908373ffffffffffffffffffffffffffffffffffffffff1602179055508073ffffffffffffffffffffffffffffffffffffffff16600073ffffffffffffffffffffffffffffffffffffffff167f8be0079c531659141344cd1fd0a4f28419497f9722a3daafe3b4186f6b6457e060405160405180910390a35081600360006101000a81548173ffffffffffffffffffffffffffffffffffffffff021916908373ffffffffffffffffffffffffffffffffffffffff16021790555062000139816200014960201b60201c565b505062000349565b600033905090565b620001596200014160201b60201c565b73ffffffffffffffffffffffffffffffffffffffff166000809054906101000a900473ffffffffffffffffffffffffffffffffffffffff1673ffffffffffffffffffffffffffffffffffffffff1614620001ea576040517f08c379a0000000000000000000000000000000000000000000000000000000008152600401620001e190620002c8565b60405180910390fd5b80600160006101000a81548173ffffffffffffffffffffffffffffffffffffffff021916908373ffffffffffffffffffffffffffffffffffffffff16021790555050565b6000815190506200023f816200032f565b92915050565b600080604083850312156200025957600080fd5b600062000269858286016200022e565b92505060206200027c858286016200022e565b9150509250929050565b600062000295602083620002ea565b91507f4f776e61626c653a2063616c6c6572206973206e6f7420746865206f776e65726000830152602082019050919050565b60006020820190508181036000830152620002e38162000286565b9050919050565b600082825260208201905092915050565b600062000308826200030f565b9050919050565b600073ffffffffffffffffffffffffffffffffffffffff82169050919050565b6200033a81620002fb565b81146200034657600080fd5b50565b6130a280620003596000396000f3fe6080604052600436106101855760003560e01c8063921276ea116100d1578063e080a80c1161008a578063f2fde38b11610064578063f2fde38b146106da578063f90ede4514610703578063f941a1f014610741578063f9c002f71461077e576102ac565b8063e080a80c14610621578063e5c124461461065f578063e90427391461069d576102ac565b8063921276ea146105235780639ea092111461054e578063b90b41cf14610577578063bbdaa3c9146105a2578063da742228146105cd578063df463a66146105f6576102ac565b80634e2a2a221161013e57806374e861d61161011857806374e861d61461047b5780637bb05264146104a65780638da5cb5b146104cf5780638e9483b0146104fa576102ac565b80634e2a2a22146103fc5780635ea54eee14610439578063715018a614610464576102ac565b8063226c1487146102b15780632afe31c1146102ef5780632d14c4b71461031a5780633a74753a146103435780633c27b2de14610381578063461f94a4146103bf576102ac565b366102ac57600073ffffffffffffffffffffffffffffffffffffffff16600160009054906101000a900473ffffffffffffffffffffffffffffffffffffffff1673ffffffffffffffffffffffffffffffffffffffff16141561021c576040517f08c379a000000000000000000000000000000000000000000000000000000000815260040161021390612c17565b60405180910390fd5b600160009054906101000a900473ffffffffffffffffffffffffffffffffffffffff1673ffffffffffffffffffffffffffffffffffffffff1663aa67c91934306040518363ffffffff1660e01b81526004016102789190612b2d565b6000604051808303818588803b15801561029157600080fd5b505af11580156102a5573d6000803e3d6000fd5b5050505050005b600080fd5b3480156102bd57600080fd5b506102d860048036038101906102d39190612373565b6107a9565b6040516102e6929190612b85565b60405180910390f35b3480156102fb57600080fd5b50610304610982565b6040516103119190612d52565b60405180910390f35b34801561032657600080fd5b50610341600480360381019061033c91906125b7565b610a34565b005b34801561034f57600080fd5b5061036a60048036038101906103659190612147565b610b5c565b604051610378929190612b85565b60405180910390f35b34801561038d57600080fd5b506103a860048036038101906103a391906120e2565b610c16565b6040516103b6929190612b85565b60405180910390f35b3480156103cb57600080fd5b506103e660048036038101906103e19190612067565b610cf3565b6040516103f39190612b63565b60405180910390f35b34801561040857600080fd5b50610423600480360381019061041e91906125f3565b610d1c565b6040516104309190612b48565b60405180910390f35b34801561044557600080fd5b5061044e610d2d565b60405161045b9190612d37565b60405180910390f35b34801561047057600080fd5b50610479610d62565b005b34801561048757600080fd5b50610490610eb7565b60405161049d9190612b12565b60405180910390f35b3480156104b257600080fd5b506104cd60048036038101906104c8919061228e565b610ee1565b005b3480156104db57600080fd5b506104e4610fbb565b6040516104f19190612b12565b60405180910390f35b34801561050657600080fd5b50610521600480360381019061051c919061218c565b610fe4565b005b34801561052f57600080fd5b50610538611164565b6040516105459190612bb5565b60405180910390f35b34801561055a57600080fd5b506105756004803603810190610570919061249a565b6111a1565b005b34801561058357600080fd5b5061058c61125e565b6040516105999190612d52565b60405180910390f35b3480156105ae57600080fd5b506105b7611264565b6040516105c49190612d52565b60405180910390f35b3480156105d957600080fd5b506105f460048036038101906105ef9190612265565b61126b565b005b34801561060257600080fd5b5061060b611345565b6040516106189190612d52565b60405180910390f35b34801561062d57600080fd5b50610648600480360381019061064391906120e2565b611350565b604051610656929190612b85565b60405180910390f35b34801561066b57600080fd5b50610686600480360381019061068191906124db565b611780565b604051610694929190612b85565b60405180910390f35b3480156106a957600080fd5b506106c460048036038101906106bf91906123da565b61179d565b6040516106d19190612b48565b60405180910390f35b3480156106e657600080fd5b5061070160048036038101906106fc9190612067565b611809565b005b34801561070f57600080fd5b5061072a60048036038101906107259190612446565b6119cd565b604051610738929190612b85565b60405180910390f35b34801561074d57600080fd5b5061076860048036038101906107639190612224565b611b5a565b6040516107759190612b12565b60405180910390f35b34801561078a57600080fd5b50610793611b77565b6040516107a09190612d52565b60405180910390f35b6060600080600360009054906101000a900473ffffffffffffffffffffffffffffffffffffffff1673ffffffffffffffffffffffffffffffffffffffff1663197c9fc5876040518263ffffffff1660e01b81526004016108099190612bb5565b60206040518083038186803b15801561082157600080fd5b505afa158015610835573d6000803e3d6000fd5b505050506040513d601f19601f82011682018060405250810190610859919061211e565b90506000600360009054906101000a900473ffffffffffffffffffffffffffffffffffffffff1673ffffffffffffffffffffffffffffffffffffffff166327e235e3876040518263ffffffff1660e01b81526004016108b89190612b12565b60206040518083038186803b1580156108d057600080fd5b505afa1580156108e4573d6000803e3d6000fd5b505050506040513d601f19601f82011682018060405250810190610908919061258e565b9050600192508161093f5761091e813a87610d1c565b61092757600080fd5b61093086610cf3565b9350838393509350505061097a565b6040517f08c379a000000000000000000000000000000000000000000000000000000000815260040161097190612c37565b60405180910390fd5b935093915050565b6000600160009054906101000a900473ffffffffffffffffffffffffffffffffffffffff1673ffffffffffffffffffffffffffffffffffffffff166370a08231306040518263ffffffff1660e01b81526004016109df9190612b2d565b60206040518083038186803b1580156109f757600080fd5b505afa158015610a0b573d6000803e3d6000fd5b505050506040513d601f19601f82011682018060405250810190610a2f919061258e565b905090565b610a3c611b7e565b73ffffffffffffffffffffffffffffffffffffffff166000809054906101000a900473ffffffffffffffffffffffffffffffffffffffff1673ffffffffffffffffffffffffffffffffffffffff1614610aca576040517f08c379a0000000000000000000000000000000000000000000000000000000008152600401610ac190612d17565b60405180910390fd5b600160009054906101000a900473ffffffffffffffffffffffffffffffffffffffff1673ffffffffffffffffffffffffffffffffffffffff1662f714ce83836040518363ffffffff1660e01b8152600401610b26929190612d96565b600060405180830381600087803b158015610b4057600080fd5b505af1158015610b54573d6000803e3d6000fd5b505050505050565b60606000606060008060008787810190610b7691906122f8565b93509350935093506003811415610b9e57610b918383611350565b9550955050505050610c0f565b6000811415610bbf57610bb28484846107a9565b9550955050505050610c0f565b6001811480610bce5750600281145b15610bea57610bdd84836119cd565b9550955050505050610c0f565b6004811415610c0a57610bfd8383610c16565b9550955050505050610c0f565b505050505b9250929050565b6060600080600360009054906101000a900473ffffffffffffffffffffffffffffffffffffffff1673ffffffffffffffffffffffffffffffffffffffff166327e235e3866040518263ffffffff1660e01b8152600401610c769190612b12565b60206040518083038186803b158015610c8e57600080fd5b505afa158015610ca2573d6000803e3d6000fd5b505050506040513d601f19601f82011682018060405250810190610cc6919061258e565b905060019150610cd7813a86610d1c565b610ce057600080fd5b610ce985610cf3565b9250509250929050565b606081604051602001610d069190612b12565b6040516020818303038152906040529050919050565b600081830284101590509392505050565b610d35611df7565b604051806060016040528061c350620186a0018152602001620186a081526020016201adb0815250905090565b610d6a611b7e565b73ffffffffffffffffffffffffffffffffffffffff166000809054906101000a900473ffffffffffffffffffffffffffffffffffffffff1673ffffffffffffffffffffffffffffffffffffffff1614610df8576040517f08c379a0000000000000000000000000000000000000000000000000000000008152600401610def90612d17565b60405180910390fd5b600073ffffffffffffffffffffffffffffffffffffffff166000809054906101000a900473ffffffffffffffffffffffffffffffffffffffff1673ffffffffffffffffffffffffffffffffffffffff167f8be0079c531659141344cd1fd0a4f28419497f9722a3daafe3b4186f6b6457e060405160405180910390a360008060006101000a81548173ffffffffffffffffffffffffffffffffffffffff021916908373ffffffffffffffffffffffffffffffffffffffff160217905550565b6000600160009054906101000a900473ffffffffffffffffffffffffffffffffffffffff16905090565b610ee9611b7e565b73ffffffffffffffffffffffffffffffffffffffff166000809054906101000a900473ffffffffffffffffffffffffffffffffffffffff1673ffffffffffffffffffffffffffffffffffffffff1614610f77576040517f08c379a0000000000000000000000000000000000000000000000000000000008152600401610f6e90612d17565b60405180910390fd5b80600160006101000a81548173ffffffffffffffffffffffffffffffffffffffff021916908373ffffffffffffffffffffffffffffffffffffffff16021790555050565b60008060009054906101000a900473ffffffffffffffffffffffffffffffffffffffff16905090565b600360009054906101000a900473ffffffffffffffffffffffffffffffffffffffff1673ffffffffffffffffffffffffffffffffffffffff166110303a84611b8690919063ffffffff16565b61107d87878080601f016020809104026020016040519081016040528093929190818152602001838380828437600081840152601f19601f82011690508083019250505050505050611b5a565b60405160240161108e929190612d6d565b6040516020818303038152906040527f30980857000000000000000000000000000000000000000000000000000000007bffffffffffffffffffffffffffffffffffffffffffffffffffffffff19166020820180517bffffffffffffffffffffffffffffffffffffffffffffffffffffffff83818316178352505050506040516111189190612ae4565b6000604051808303816000865af19150503d8060008114611155576040519150601f19603f3d011682016040523d82523d6000602084013e61115a565b606091505b5050505050505050565b60606040518060400160405280600581526020017f302e302e31000000000000000000000000000000000000000000000000000000815250905090565b8080602001906111b19190612de3565b60e00160208101906111c39190612067565b73ffffffffffffffffffffffffffffffffffffffff16600260009054906101000a900473ffffffffffffffffffffffffffffffffffffffff1673ffffffffffffffffffffffffffffffffffffffff1614611252576040517f08c379a000000000000000000000000000000000000000000000000000000000815260040161124990612c77565b60405180910390fd5b61125b81611bf6565b50565b61c35081565b6201adb081565b611273611b7e565b73ffffffffffffffffffffffffffffffffffffffff166000809054906101000a900473ffffffffffffffffffffffffffffffffffffffff1673ffffffffffffffffffffffffffffffffffffffff1614611301576040517f08c379a00000000000000000000000000000000000000000000000000000000081526004016112f890612d17565b60405180910390fd5b80600260006101000a81548173ffffffffffffffffffffffffffffffffffffffff021916908373ffffffffffffffffffffffffffffffffffffffff16021790555050565b61c350620186a00181565b606060008061141d600360009054906101000a900473ffffffffffffffffffffffffffffffffffffffff1673ffffffffffffffffffffffffffffffffffffffff16635e5c06e2876040518263ffffffff1660e01b81526004016113b39190612b12565b60006040518083038186803b1580156113cb57600080fd5b505afa1580156113df573d6000803e3d6000fd5b505050506040513d6000823e3d601f19601f8201168201806040525081019061140891906122b7565b6040518060200160405280600081525061179d565b90506000600360009054906101000a900473ffffffffffffffffffffffffffffffffffffffff1673ffffffffffffffffffffffffffffffffffffffff166327e235e3876040518263ffffffff1660e01b815260040161147c9190612b12565b60206040518083038186803b15801561149457600080fd5b505afa1580156114a8573d6000803e3d6000fd5b505050506040513d601f19601f820116820180604052508101906114cc919061258e565b905060019250811561173e576000811415611712576000600360009054906101000a900473ffffffffffffffffffffffffffffffffffffffff1673ffffffffffffffffffffffffffffffffffffffff166359328eb5886040518263ffffffff1660e01b815260040161153e9190612b12565b60206040518083038186803b15801561155657600080fd5b505afa15801561156a573d6000803e3d6000fd5b505050506040513d601f19601f8201168201806040525081019061158e9190612090565b9050600073ffffffffffffffffffffffffffffffffffffffff168173ffffffffffffffffffffffffffffffffffffffff16146116d7576000600360009054906101000a900473ffffffffffffffffffffffffffffffffffffffff1673ffffffffffffffffffffffffffffffffffffffff166327e235e3836040518263ffffffff1660e01b81526004016116219190612b12565b60206040518083038186803b15801561163957600080fd5b505afa15801561164d573d6000803e3d6000fd5b505050506040513d601f19601f82011682018060405250810190611671919061258e565b905061167e813a89610d1c565b6116bd576040517f08c379a00000000000000000000000000000000000000000000000000000000081526004016116b490612c97565b60405180910390fd5b6116c682610cf3565b955085859550955050505050611779565b6040517f08c379a000000000000000000000000000000000000000000000000000000000815260040161170990612c57565b60405180910390fd5b61171d813a87610d1c565b61172657600080fd5b61172f86610cf3565b93508383935093505050611779565b6040517f08c379a000000000000000000000000000000000000000000000000000000000815260040161177090612c57565b60405180910390fd5b9250929050565b6060600061178e8585610b5c565b91509150965096945050505050565b600081518351146117b15760009050611803565b816040516020016117c29190612afb565b60405160208183030381529060405280519060200120836040516020016117e99190612afb565b604051602081830303815290604052805190602001201490505b92915050565b611811611b7e565b73ffffffffffffffffffffffffffffffffffffffff166000809054906101000a900473ffffffffffffffffffffffffffffffffffffffff1673ffffffffffffffffffffffffffffffffffffffff161461189f576040517f08c379a000000000000000000000000000000000000000000000000000000000815260040161189690612d17565b60405180910390fd5b600073ffffffffffffffffffffffffffffffffffffffff168173ffffffffffffffffffffffffffffffffffffffff16141561190f576040517f08c379a000000000000000000000000000000000000000000000000000000000815260040161190690612bf7565b60405180910390fd5b8073ffffffffffffffffffffffffffffffffffffffff166000809054906101000a900473ffffffffffffffffffffffffffffffffffffffff1673ffffffffffffffffffffffffffffffffffffffff167f8be0079c531659141344cd1fd0a4f28419497f9722a3daafe3b4186f6b6457e060405160405180910390a3806000806101000a81548173ffffffffffffffffffffffffffffffffffffffff021916908373ffffffffffffffffffffffffffffffffffffffff16021790555050565b6060600080600360009054906101000a900473ffffffffffffffffffffffffffffffffffffffff1673ffffffffffffffffffffffffffffffffffffffff1663ff86e28c866040518263ffffffff1660e01b8152600401611a2d9190612bb5565b60206040518083038186803b158015611a4557600080fd5b505afa158015611a59573d6000803e3d6000fd5b505050506040513d601f19601f82011682018060405250810190611a7d9190612090565b90506000600360009054906101000a900473ffffffffffffffffffffffffffffffffffffffff1673ffffffffffffffffffffffffffffffffffffffff166327e235e3836040518263ffffffff1660e01b8152600401611adc9190612b12565b60206040518083038186803b158015611af457600080fd5b505afa158015611b08573d6000803e3d6000fd5b505050506040513d601f19601f82011682018060405250810190611b2c919061258e565b905060019250611b3d813a87610d1c565b611b4657600080fd5b611b4f82610cf3565b935050509250929050565b600081806020019051810190611b7091906120b9565b9050919050565b620186a081565b600033905090565b600080831415611b995760009050611bf0565b6000828402905082848281611baa57fe5b0414611beb576040517f08c379a0000000000000000000000000000000000000000000000000000000008152600401611be290612cf7565b60405180910390fd5b809150505b92915050565b60006060828060000190611c0a9190612dbf565b6020016020810190611c1c9190612067565b73ffffffffffffffffffffffffffffffffffffffff1663572b6c0560e01b848060200190611c4a9190612de3565b60e0016020810190611c5c9190612067565b604051602401611c6c9190612b12565b604051602081830303815290604052907bffffffffffffffffffffffffffffffffffffffffffffffffffffffff19166020820180517bffffffffffffffffffffffffffffffffffffffffffffffffffffffff8381831617835250505050604051611cd69190612ae4565b600060405180830381855afa9150503d8060008114611d11576040519150601f19603f3d011682016040523d82523d6000602084013e611d16565b606091505b509150915081611d5b576040517f08c379a0000000000000000000000000000000000000000000000000000000008152600401611d5290612cd7565b60405180910390fd5b6020815114611d9f576040517f08c379a0000000000000000000000000000000000000000000000000000000008152600401611d9690612cb7565b60405180910390fd5b80806020019051810190611db3919061211e565b611df2576040517f08c379a0000000000000000000000000000000000000000000000000000000008152600401611de990612bd7565b60405180910390fd5b505050565b60405180606001604052806000815260200160008152602001600081525090565b600081359050611e2781612fe2565b92915050565b600081519050611e3c81612fe2565b92915050565b600081359050611e5181612ff9565b92915050565b600081519050611e6681612ff9565b92915050565b600081359050611e7b81613010565b92915050565b600081519050611e9081613010565b92915050565b60008083601f840112611ea857600080fd5b8235905067ffffffffffffffff811115611ec157600080fd5b602083019150836001820283011115611ed957600080fd5b9250929050565b600082601f830112611ef157600080fd5b8135611f04611eff82612e35565b612e08565b91508082526020830160208301858383011115611f2057600080fd5b611f2b838284612f8f565b50505092915050565b600081359050611f4381613027565b92915050565b600081359050611f588161303e565b92915050565b600082601f830112611f6f57600080fd5b8135611f82611f7d82612e61565b612e08565b91508082526020830160208301858383011115611f9e57600080fd5b611fa9838284612f8f565b50505092915050565b600082601f830112611fc357600080fd5b8151611fd6611fd182612e61565b612e08565b91508082526020830160208301858383011115611ff257600080fd5b611ffd838284612f9e565b50505092915050565b6000610100828403121561201957600080fd5b81905092915050565b60006040828403121561203457600080fd5b81905092915050565b60008135905061204c81613055565b92915050565b60008151905061206181613055565b92915050565b60006020828403121561207957600080fd5b600061208784828501611e18565b91505092915050565b6000602082840312156120a257600080fd5b60006120b084828501611e2d565b91505092915050565b6000602082840312156120cb57600080fd5b60006120d984828501611e57565b91505092915050565b600080604083850312156120f557600080fd5b600061210385828601611e18565b92505060206121148582860161203d565b9150509250929050565b60006020828403121561213057600080fd5b600061213e84828501611e81565b91505092915050565b6000806020838503121561215a57600080fd5b600083013567ffffffffffffffff81111561217457600080fd5b61218085828601611e96565b92509250509250929050565b6000806000806000608086880312156121a457600080fd5b600086013567ffffffffffffffff8111156121be57600080fd5b6121ca88828901611e96565b955095505060206121dd88828901611e6c565b93505060406121ee8882890161203d565b925050606086013567ffffffffffffffff81111561220b57600080fd5b61221788828901612006565b9150509295509295909350565b60006020828403121561223657600080fd5b600082013567ffffffffffffffff81111561225057600080fd5b61225c84828501611ee0565b91505092915050565b60006020828403121561227757600080fd5b600061228584828501611f34565b91505092915050565b6000602082840312156122a057600080fd5b60006122ae84828501611f49565b91505092915050565b6000602082840312156122c957600080fd5b600082015167ffffffffffffffff8111156122e357600080fd5b6122ef84828501611fb2565b91505092915050565b6000806000806080858703121561230e57600080fd5b600085013567ffffffffffffffff81111561232857600080fd5b61233487828801611f5e565b945050602061234587828801611e42565b93505060406123568782880161203d565b92505060606123678782880161203d565b91505092959194509250565b60008060006060848603121561238857600080fd5b600084013567ffffffffffffffff8111156123a257600080fd5b6123ae86828701611f5e565b93505060206123bf86828701611e18565b92505060406123d08682870161203d565b9150509250925092565b600080604083850312156123ed57600080fd5b600083013567ffffffffffffffff81111561240757600080fd5b61241385828601611f5e565b925050602083013567ffffffffffffffff81111561243057600080fd5b61243c85828601611f5e565b9150509250929050565b6000806040838503121561245957600080fd5b600083013567ffffffffffffffff81111561247357600080fd5b61247f85828601611f5e565b92505060206124908582860161203d565b9150509250929050565b6000602082840312156124ac57600080fd5b600082013567ffffffffffffffff8111156124c657600080fd5b6124d284828501612022565b91505092915050565b600080600080600080608087890312156124f457600080fd5b600087013567ffffffffffffffff81111561250e57600080fd5b61251a89828a01612022565b965050602087013567ffffffffffffffff81111561253757600080fd5b61254389828a01611e96565b9550955050604087013567ffffffffffffffff81111561256257600080fd5b61256e89828a01611e96565b9350935050606061258189828a0161203d565b9150509295509295509295565b6000602082840312156125a057600080fd5b60006125ae84828501612052565b91505092915050565b600080604083850312156125ca57600080fd5b60006125d88582860161203d565b92505060206125e985828601611e42565b9150509250929050565b60008060006060848603121561260857600080fd5b60006126168682870161203d565b93505060206126278682870161203d565b92505060406126388682870161203d565b9150509250925092565b61264b81612f59565b82525050565b61265a81612eed565b82525050565b61266981612edb565b82525050565b61267881612eff565b82525050565b600061268982612e8d565b6126938185612ea3565b93506126a3818560208601612f9e565b6126ac81612fd1565b840191505092915050565b60006126c282612e8d565b6126cc8185612eb4565b93506126dc818560208601612f9e565b80840191505092915050565b60006126f382612e98565b6126fd8185612ebf565b935061270d818560208601612f9e565b61271681612fd1565b840191505092915050565b600061272c82612e98565b6127368185612ed0565b9350612746818560208601612f9e565b80840191505092915050565b600061275f601f83612ebf565b91507f696e76616c696420666f7277617264657220666f7220726563697069656e74006000830152602082019050919050565b600061279f602683612ebf565b91507f4f776e61626c653a206e6577206f776e657220697320746865207a65726f206160008301527f64647265737300000000000000000000000000000000000000000000000000006020830152604082019050919050565b6000612805601983612ebf565b91507f72656c6179206875622061646472657373206e6f7420736574000000000000006000830152602082019050919050565b6000612845601783612ebf565b91507f446f63756d656e7420616c72656164792065786973742e0000000000000000006000830152602082019050919050565b6000612885601383612ebf565b91507f416374696f6e206e6f7420616c6c6f7765642e000000000000000000000000006000830152602082019050919050565b60006128c5601883612ebf565b91507f466f72776172646572206973206e6f74207472757374656400000000000000006000830152602082019050919050565b6000612905601f83612ebf565b91507f416c6c6f776572206469646e2774206861766520656e6f756768206761732e006000830152602082019050919050565b6000612945602c83612ebf565b91507f697354727573746564466f727761726465722072657475726e656420696e766160008301527f6c696420726573706f6e736500000000000000000000000000000000000000006020830152604082019050919050565b60006129ab601b83612ebf565b91507f697354727573746564466f7277617264657220726576657274656400000000006000830152602082019050919050565b60006129eb602183612ebf565b91507f536166654d6174683a206d756c7469706c69636174696f6e206f766572666c6f60008301527f77000000000000000000000000000000000000000000000000000000000000006020830152604082019050919050565b6000612a51602083612ebf565b91507f4f776e61626c653a2063616c6c6572206973206e6f7420746865206f776e65726000830152602082019050919050565b606082016000820151612a9a6000850182612ac6565b506020820151612aad6020850182612ac6565b506040820151612ac06040850182612ac6565b50505050565b612acf81612f4f565b82525050565b612ade81612f4f565b82525050565b6000612af082846126b7565b915081905092915050565b6000612b078284612721565b915081905092915050565b6000602082019050612b276000830184612660565b92915050565b6000602082019050612b426000830184612642565b92915050565b6000602082019050612b5d600083018461266f565b92915050565b60006020820190508181036000830152612b7d818461267e565b905092915050565b60006040820190508181036000830152612b9f818561267e565b9050612bae602083018461266f565b9392505050565b60006020820190508181036000830152612bcf81846126e8565b905092915050565b60006020820190508181036000830152612bf081612752565b9050919050565b60006020820190508181036000830152612c1081612792565b9050919050565b60006020820190508181036000830152612c30816127f8565b9050919050565b60006020820190508181036000830152612c5081612838565b9050919050565b60006020820190508181036000830152612c7081612878565b9050919050565b60006020820190508181036000830152612c90816128b8565b9050919050565b60006020820190508181036000830152612cb0816128f8565b9050919050565b60006020820190508181036000830152612cd081612938565b9050919050565b60006020820190508181036000830152612cf08161299e565b9050919050565b60006020820190508181036000830152612d10816129de565b9050919050565b60006020820190508181036000830152612d3081612a44565b9050919050565b6000606082019050612d4c6000830184612a84565b92915050565b6000602082019050612d676000830184612ad5565b92915050565b6000604082019050612d826000830185612ad5565b612d8f6020830184612660565b9392505050565b6000604082019050612dab6000830185612ad5565b612db86020830184612651565b9392505050565b60008235600160c003833603038112612dd757600080fd5b80830191505092915050565b60008235600161010003833603038112612dfc57600080fd5b80830191505092915050565b6000604051905081810181811067ffffffffffffffff82111715612e2b57600080fd5b8060405250919050565b600067ffffffffffffffff821115612e4c57600080fd5b601f19601f8301169050602081019050919050565b600067ffffffffffffffff821115612e7857600080fd5b601f19601f8301169050602081019050919050565b600081519050919050565b600081519050919050565b600082825260208201905092915050565b600081905092915050565b600082825260208201905092915050565b600081905092915050565b6000612ee682612f2f565b9050919050565b6000612ef882612f2f565b9050919050565b60008115159050919050565b6000612f1682612edb565b9050919050565b6000612f2882612edb565b9050919050565b600073ffffffffffffffffffffffffffffffffffffffff82169050919050565b6000819050919050565b6000612f6482612f6b565b9050919050565b6000612f7682612f7d565b9050919050565b6000612f8882612f2f565b9050919050565b82818337600083830152505050565b60005b83811015612fbc578082015181840152602081019050612fa1565b83811115612fcb576000848401525b50505050565b6000601f19601f8301169050919050565b612feb81612edb565b8114612ff657600080fd5b50565b61300281612eed565b811461300d57600080fd5b50565b61301981612eff565b811461302457600080fd5b50565b61303081612f0b565b811461303b57600080fd5b50565b61304781612f1d565b811461305257600080fd5b50565b61305e81612f4f565b811461306957600080fd5b5056fea2646970667358221220147f673a9a0132b0b77254c73c59d611511b7e4754b0764fc3c98eebc4cb76b164736f6c634300060a0033",
  "immutableReferences": {},
  "source": "pragma solidity 0.6.10;\npragma experimental ABIEncoderV2;\n\nimport \"@opengsn/gsn/contracts/BasePaymaster.sol\";\nimport { SignDocuProxy as SignDocu } from \"./SignDocuProxy.sol\";\nimport \"@openzeppelin/contracts/math/SafeMath.sol\";\nimport \"@opengsn/gsn/contracts/interfaces/IRelayHub.sol\";\n\ncontract Paymaster is BasePaymaster {\n\n    using SafeMath for uint256;\n\n    SignDocu signDocuContract;\n\n    constructor(address _signDocuProxy, address _relayHub) public {\n        signDocuContract =  SignDocu(payable(_signDocuProxy));\n        setRelayHub(IRelayHub(_relayHub));\n    }\n\n    function preRelayedCall(\n        GsnTypes.RelayRequest calldata relayRequest,\n        bytes calldata signature,\n        bytes calldata approvalData,\n        uint256 maxPossibleGas\n    ) external override virtual\n    returns (bytes memory context, bool rejectOnRecipientRevert) {\n        return canRelay(approvalData);\n    }\n\n    function canRelay(bytes calldata approvalData) public returns (bytes memory context, bool rejectOnRecipientRevert) {\n        (string memory cid, address transactionSender, uint256 gasEstimate, uint256 action) = abi.decode(approvalData, (string, address, uint256, uint256));\n\n        if (action == 3) { // Account Creation\n            return accountCreationCheck(transactionSender, gasEstimate);\n        }\n\n        if (action == 0) { // Document Creation\n            return documentCreationCheck(cid, transactionSender, gasEstimate);\n        }\n\n        if(action == 1 || action == 2) { // Document Approve\n            return documentActionCheck(cid, gasEstimate);\n        }\n\n        if (action == 4) { // Approve Account Creation\n            return accountCreationApproveCheck(transactionSender, gasEstimate);\n        }\n    }\n\n    function accountCreationApproveCheck(address _sender, uint256 _gasEstimate) public view returns(bytes memory context, bool rejectOnRecipientRevert) {\n        uint256 senderBalance = signDocuContract.balances(_sender);\n        rejectOnRecipientRevert = true;\n\n        require(balanceIsBiggerThanGasCost(senderBalance, tx.gasprice, _gasEstimate));\n        context = convertAddressToBytes(_sender);\n    }\n\n    function accountCreationCheck(address _sender, uint256 _gasEstimate) public view returns(bytes memory context, bool rejectOnRecipientRevert) {\n        bool accountsDontExist = stringComparaison(signDocuContract.accounts(_sender), '');\n        uint256 senderBalance = signDocuContract.balances(_sender);\n        rejectOnRecipientRevert = true;\n        if (accountsDontExist) {\n                if(senderBalance == 0) {\n                    address allower = signDocuContract.allowedBy(_sender);\n                    if (allower != address(0x0)) {\n                        uint256 allowerBalance = signDocuContract.balances(allower);\n                        require(balanceIsBiggerThanGasCost(allowerBalance, tx.gasprice, _gasEstimate), \"Allower didn't have enough gas.\");\n                        context = convertAddressToBytes(allower);\n                        return(context, rejectOnRecipientRevert);\n                    }\n                    revert('Action not allowed.');\n                }\n                require(balanceIsBiggerThanGasCost(senderBalance, tx.gasprice, _gasEstimate));\n                context = convertAddressToBytes(_sender);\n                return(context, rejectOnRecipientRevert);\n        }\n        revert('Action not allowed.');\n    }\n\n    function documentCreationCheck(string memory _cid, address _sender, uint256 _gasEstimate) public view returns(bytes memory context, bool rejectOnRecipientRevert) {\n        bool documentExist = signDocuContract.documentsExist(_cid);\n        uint256 senderBalance = signDocuContract.balances(_sender);\n        rejectOnRecipientRevert = true;\n\n        if (!documentExist) {\n            require(balanceIsBiggerThanGasCost(senderBalance, tx.gasprice, _gasEstimate));\n            context = convertAddressToBytes(_sender);\n            return(context, rejectOnRecipientRevert);\n        }\n        revert(\"Document already exist.\");\n    }\n\n    function documentActionCheck(string memory _cid, uint256 _gasEstimate) public view returns(bytes memory context, bool rejectOnRecipientRevert) {\n        address owner = signDocuContract.getOwnerOfDocument(_cid);\n        uint256 ownerBalance = signDocuContract.balances(owner);\n        rejectOnRecipientRevert = true;\n\n        require(balanceIsBiggerThanGasCost(ownerBalance, tx.gasprice, _gasEstimate));\n        context = convertAddressToBytes(owner);\n    }\n\n    function postRelayedCall(\n        bytes calldata context,\n        bool success,\n        uint256 gasUseWithoutPost,\n        GsnTypes.RelayData calldata relayData\n    ) external override virtual {\n        address(signDocuContract).call(abi.encodeWithSignature('getFeeByPaymaster(uint256,address)', gasUseWithoutPost.mul(tx.gasprice), convertBytesToAddress(context)));\n    }\n\n    // Utils\n\n    function balanceIsBiggerThanGasCost(uint256 _balance, uint256 _gasPrice, uint256 _gasEstimate) public view returns(bool) {\n        return _balance >= _gasPrice * _gasEstimate;\n    }\n\n    function convertAddressToBytes(address _accountToPayFees) public pure returns(bytes memory) {\n        return abi.encode(_accountToPayFees);\n    }\n\n    function convertBytesToAddress(bytes memory data) public view returns(address accountPayingFees) {\n        return abi.decode(data, (address));\n    }\n\n    function stringComparaison(string memory _a, string memory _b) public view returns(bool) {\n        if(bytes(_a).length != bytes(_b).length) {\n            return false;\n        } else {\n            return keccak256(abi.encodePacked(_a)) == keccak256(abi.encodePacked(_b));\n        }\n    }\n\n    // Utils\n\n    function versionPaymaster() external override view returns (string memory) {\n        return \"0.0.1\";\n    }\n}",
  "sourcePath": "/Users/mariejoseph/Documents/HackFS/IPFS/contracts/Paymaster.sol",
  "compiler": {
    "name": "solc",
    "version": "0.6.10+commit.00c0fcaf.Emscripten.clang"
  },
  "schemaVersion": "3.2.4",
  "updatedAt": "2020-08-31T13:38:57.373Z",
  "networkType": "ethereum",
  "devdoc": {
    "methods": {
      "owner()": {
        "details": "Returns the address of the current owner."
      },
      "renounceOwnership()": {
        "details": "Leaves the contract without owner. It will not be possible to call `onlyOwner` functions anymore. Can only be called by the current owner. NOTE: Renouncing ownership will leave the contract without an owner, thereby removing any functionality that is only available to the owner."
      },
      "transferOwnership(address)": {
        "details": "Transfers ownership of the contract to a new account (`newOwner`). Can only be called by the current owner."
      }
    }
  },
  "userdoc": {
    "methods": {
      "getRelayHubDeposit()": {
        "notice": "check current deposit on relay hub."
      },
      "withdrawRelayHubDepositTo(uint256,address)": {
        "notice": "withdraw deposit from relayHub"
      }
    }
  }
}