{
  "contractName": "ProxyForDocumentSignatureApproval",
  "abi": [
    {
      "anonymous": false,
      "inputs": [
        {
          "indexed": false,
          "internalType": "string",
          "name": "cid",
          "type": "string"
        },
        {
          "indexed": false,
          "internalType": "address",
          "name": "creator",
          "type": "address"
        }
      ],
      "name": "DocumentCreated",
      "type": "event"
    },
    {
      "anonymous": false,
      "inputs": [
        {
          "indexed": true,
          "internalType": "address",
          "name": "previousOwner",
          "type": "address"
        },
        {
          "indexed": true,
          "internalType": "address",
          "name": "newOwner",
          "type": "address"
        }
      ],
      "name": "OwnershipTransferred",
      "type": "event"
    },
    {
      "anonymous": false,
      "inputs": [
        {
          "indexed": false,
          "internalType": "string",
          "name": "cid",
          "type": "string"
        },
        {
          "indexed": false,
          "internalType": "address",
          "name": "signee",
          "type": "address"
        }
      ],
      "name": "Signature",
      "type": "event"
    },
    {
      "inputs": [
        {
          "internalType": "address",
          "name": "",
          "type": "address"
        }
      ],
      "name": "accounts",
      "outputs": [
        {
          "internalType": "string",
          "name": "",
          "type": "string"
        }
      ],
      "stateMutability": "view",
      "type": "function"
    },
    {
      "inputs": [
        {
          "internalType": "string",
          "name": "",
          "type": "string"
        }
      ],
      "name": "addressStorage",
      "outputs": [
        {
          "internalType": "address",
          "name": "",
          "type": "address"
        }
      ],
      "stateMutability": "view",
      "type": "function"
    },
    {
      "inputs": [
        {
          "internalType": "address",
          "name": "_sender",
          "type": "address"
        },
        {
          "internalType": "address",
          "name": "_allowedAccount",
          "type": "address"
        },
        {
          "internalType": "bytes",
          "name": "_signature",
          "type": "bytes"
        }
      ],
      "name": "allowAccountCreation",
      "outputs": [],
      "stateMutability": "nonpayable",
      "type": "function"
    },
    {
      "inputs": [
        {
          "internalType": "address",
          "name": "",
          "type": "address"
        }
      ],
      "name": "allowedBy",
      "outputs": [
        {
          "internalType": "address",
          "name": "",
          "type": "address"
        }
      ],
      "stateMutability": "view",
      "type": "function"
    },
    {
      "inputs": [
        {
          "internalType": "string",
          "name": "_cid",
          "type": "string"
        },
        {
          "internalType": "address",
          "name": "_sender",
          "type": "address"
        },
        {
          "internalType": "address",
          "name": "_newSignee",
          "type": "address"
        },
        {
          "internalType": "string",
          "name": "_secret",
          "type": "string"
        },
        {
          "internalType": "bytes",
          "name": "_signature",
          "type": "bytes"
        }
      ],
      "name": "approveToSign",
      "outputs": [],
      "stateMutability": "nonpayable",
      "type": "function"
    },
    {
      "inputs": [
        {
          "internalType": "address",
          "name": "",
          "type": "address"
        }
      ],
      "name": "balances",
      "outputs": [
        {
          "internalType": "uint256",
          "name": "",
          "type": "uint256"
        }
      ],
      "stateMutability": "view",
      "type": "function"
    },
    {
      "inputs": [
        {
          "internalType": "string",
          "name": "",
          "type": "string"
        }
      ],
      "name": "boolStorage",
      "outputs": [
        {
          "internalType": "bool",
          "name": "",
          "type": "bool"
        }
      ],
      "stateMutability": "view",
      "type": "function"
    },
    {
      "inputs": [
        {
          "internalType": "string",
          "name": "",
          "type": "string"
        }
      ],
      "name": "bytesStorage",
      "outputs": [
        {
          "internalType": "bytes",
          "name": "",
          "type": "bytes"
        }
      ],
      "stateMutability": "view",
      "type": "function"
    },
    {
      "inputs": [
        {
          "internalType": "address",
          "name": "_sender",
          "type": "address"
        },
        {
          "internalType": "string",
          "name": "_accountPubKey",
          "type": "string"
        },
        {
          "internalType": "bytes",
          "name": "_signature",
          "type": "bytes"
        }
      ],
      "name": "createAccount",
      "outputs": [],
      "stateMutability": "nonpayable",
      "type": "function"
    },
    {
      "inputs": [
        {
          "internalType": "string",
          "name": "_cid",
          "type": "string"
        },
        {
          "internalType": "string",
          "name": "_secret",
          "type": "string"
        },
        {
          "internalType": "address",
          "name": "_sender",
          "type": "address"
        },
        {
          "internalType": "bytes",
          "name": "_signature",
          "type": "bytes"
        }
      ],
      "name": "createDocument",
      "outputs": [],
      "stateMutability": "nonpayable",
      "type": "function"
    },
    {
      "inputs": [
        {
          "internalType": "address",
          "name": "",
          "type": "address"
        },
        {
          "internalType": "uint256",
          "name": "",
          "type": "uint256"
        }
      ],
      "name": "creators",
      "outputs": [
        {
          "internalType": "string",
          "name": "",
          "type": "string"
        }
      ],
      "stateMutability": "view",
      "type": "function"
    },
    {
      "inputs": [
        {
          "internalType": "string",
          "name": "",
          "type": "string"
        }
      ],
      "name": "documents",
      "outputs": [
        {
          "internalType": "string",
          "name": "cid",
          "type": "string"
        },
        {
          "internalType": "address",
          "name": "owner",
          "type": "address"
        },
        {
          "internalType": "address",
          "name": "newSignee",
          "type": "address"
        },
        {
          "internalType": "enum State",
          "name": "state",
          "type": "uint8"
        }
      ],
      "stateMutability": "view",
      "type": "function"
    },
    {
      "inputs": [
        {
          "internalType": "address",
          "name": "",
          "type": "address"
        },
        {
          "internalType": "uint256",
          "name": "",
          "type": "uint256"
        }
      ],
      "name": "documentsBySignee",
      "outputs": [
        {
          "internalType": "string",
          "name": "",
          "type": "string"
        }
      ],
      "stateMutability": "view",
      "type": "function"
    },
    {
      "inputs": [
        {
          "internalType": "string",
          "name": "",
          "type": "string"
        }
      ],
      "name": "documentsExist",
      "outputs": [
        {
          "internalType": "bool",
          "name": "",
          "type": "bool"
        }
      ],
      "stateMutability": "view",
      "type": "function"
    },
    {
      "inputs": [],
      "name": "getCreatedDocument",
      "outputs": [
        {
          "internalType": "string[]",
          "name": "",
          "type": "string[]"
        }
      ],
      "stateMutability": "view",
      "type": "function"
    },
    {
      "inputs": [
        {
          "internalType": "string",
          "name": "_cid",
          "type": "string"
        }
      ],
      "name": "getDocumentSecret",
      "outputs": [
        {
          "internalType": "string",
          "name": "",
          "type": "string"
        }
      ],
      "stateMutability": "view",
      "type": "function"
    },
    {
      "inputs": [
        {
          "internalType": "string",
          "name": "_cid",
          "type": "string"
        }
      ],
      "name": "getDocumentState",
      "outputs": [
        {
          "internalType": "uint256",
          "name": "",
          "type": "uint256"
        }
      ],
      "stateMutability": "view",
      "type": "function"
    },
    {
      "inputs": [
        {
          "internalType": "uint256",
          "name": "_fee",
          "type": "uint256"
        },
        {
          "internalType": "address",
          "name": "_accountPayingFees",
          "type": "address"
        }
      ],
      "name": "getFeeByPaymaster",
      "outputs": [],
      "stateMutability": "nonpayable",
      "type": "function"
    },
    {
      "inputs": [
        {
          "internalType": "string",
          "name": "_cid",
          "type": "string"
        }
      ],
      "name": "getOwnerOfDocument",
      "outputs": [
        {
          "internalType": "address",
          "name": "",
          "type": "address"
        }
      ],
      "stateMutability": "view",
      "type": "function"
    },
    {
      "inputs": [],
      "name": "getSigneeDocument",
      "outputs": [
        {
          "internalType": "string[]",
          "name": "",
          "type": "string[]"
        }
      ],
      "stateMutability": "view",
      "type": "function"
    },
    {
      "inputs": [],
      "name": "getTrustedForwarder",
      "outputs": [
        {
          "internalType": "address",
          "name": "",
          "type": "address"
        }
      ],
      "stateMutability": "view",
      "type": "function"
    },
    {
      "inputs": [
        {
          "internalType": "string",
          "name": "",
          "type": "string"
        }
      ],
      "name": "int256Storage",
      "outputs": [
        {
          "internalType": "int256",
          "name": "",
          "type": "int256"
        }
      ],
      "stateMutability": "view",
      "type": "function"
    },
    {
      "inputs": [],
      "name": "sendPayement",
      "outputs": [],
      "stateMutability": "payable",
      "type": "function"
    },
    {
      "inputs": [
        {
          "internalType": "address",
          "name": "_paymaster",
          "type": "address"
        }
      ],
      "name": "setPaymaster",
      "outputs": [],
      "stateMutability": "nonpayable",
      "type": "function"
    },
    {
      "inputs": [
        {
          "internalType": "string",
          "name": "_cid",
          "type": "string"
        },
        {
          "internalType": "string",
          "name": "_secret",
          "type": "string"
        },
        {
          "internalType": "address",
          "name": "_sender",
          "type": "address"
        },
        {
          "internalType": "bytes",
          "name": "_signature",
          "type": "bytes"
        }
      ],
      "name": "sign",
      "outputs": [],
      "stateMutability": "nonpayable",
      "type": "function"
    },
    {
      "inputs": [
        {
          "internalType": "string",
          "name": "",
          "type": "string"
        }
      ],
      "name": "stringStorage",
      "outputs": [
        {
          "internalType": "string",
          "name": "",
          "type": "string"
        }
      ],
      "stateMutability": "view",
      "type": "function"
    },
    {
      "inputs": [
        {
          "internalType": "string",
          "name": "",
          "type": "string"
        }
      ],
      "name": "uint256Storage",
      "outputs": [
        {
          "internalType": "uint256",
          "name": "",
          "type": "uint256"
        }
      ],
      "stateMutability": "view",
      "type": "function"
    },
    {
      "inputs": [
        {
          "internalType": "address",
          "name": "_sender",
          "type": "address"
        },
        {
          "internalType": "string",
          "name": "_accountPubKey",
          "type": "string"
        }
      ],
      "name": "createAccountMock",
      "outputs": [],
      "stateMutability": "nonpayable",
      "type": "function"
    },
    {
      "inputs": [
        {
          "internalType": "string",
          "name": "_cid",
          "type": "string"
        },
        {
          "internalType": "string",
          "name": "_secret",
          "type": "string"
        },
        {
          "internalType": "address",
          "name": "_sender",
          "type": "address"
        }
      ],
      "name": "createDocumentMock",
      "outputs": [],
      "stateMutability": "nonpayable",
      "type": "function"
    },
    {
      "inputs": [
        {
          "internalType": "string",
          "name": "_cid",
          "type": "string"
        },
        {
          "internalType": "address",
          "name": "_sender",
          "type": "address"
        },
        {
          "internalType": "address",
          "name": "_newSignee",
          "type": "address"
        },
        {
          "internalType": "string",
          "name": "_secret",
          "type": "string"
        }
      ],
      "name": "approveToSignMock",
      "outputs": [],
      "stateMutability": "nonpayable",
      "type": "function"
    }
  ],
  "bytecode": "0x608060405234801561001057600080fd5b5061498a806100206000396000f3fe6080604052600436106101cd5760003560e01c80637547b64e116100f7578063ba8ef30311610095578063dd891e4f11610064578063dd891e4f146106fe578063e12b6c1d14610727578063e5b0b90c14610750578063ff86e28c1461078d576101cd565b8063ba8ef30314610656578063be0edc8314610681578063c9e59261146106aa578063ce1b815f146106d3576101cd565b806398a270eb116100d157806398a270eb1461055f578063a44543401461059c578063b3dd697b146105d9578063b5066b6114610619576101cd565b80637547b64e146104ed5780638e0639921461052a5780639021639c14610534576101cd565b806332285bda1161016f57806359328eb51161013e57806359328eb5146103f95780635e5c06e214610436578063699a20331461047357806370a13b48146104b0576101cd565b806332285bda1461032d57806349b985571461036a5780634c969a341461039357806357677709146103bc576101cd565b806326ec90ae116101ab57806326ec90ae1461027557806327e235e31461029e5780632a97fa77146102db5780633098085714610304576101cd565b8063078e84f4146101d2578063197c9fc5146101fb5780632453099514610238575b600080fd5b3480156101de57600080fd5b506101f960048036036101f491908101906134c4565b6107ca565b005b34801561020757600080fd5b50610222600480360361021d9190810190613762565b6108f1565b60405161022f9190614340565b60405180910390f35b34801561024457600080fd5b5061025f600480360361025a9190810190613762565b610927565b60405161026c91906143a0565b60405180910390f35b34801561028157600080fd5b5061029c600480360361029791908101906136a9565b6109ed565b005b3480156102aa57600080fd5b506102c560048036036102c0919081019061342f565b610ba0565b6040516102d29190614674565b60405180910390f35b3480156102e757600080fd5b5061030260048036036102fd919081019061342f565b610bb8565b005b34801561031057600080fd5b5061032b600480360361032691908101906138f6565b610cc7565b005b34801561033957600080fd5b50610354600480360361034f9190810190613762565b610e84565b6040516103619190614414565b60405180910390f35b34801561037657600080fd5b50610391600480360361038c91908101906135dd565b610f4a565b005b34801561039f57600080fd5b506103ba60048036036103b591908101906136a9565b611100565b005b3480156103c857600080fd5b506103e360048036036103de91908101906137a3565b6112b3565b6040516103f09190614674565b60405180910390f35b34801561040557600080fd5b50610420600480360361041b919081019061342f565b6112f6565b60405161042d9190614303565b60405180910390f35b34801561044257600080fd5b5061045d6004803603610458919081019061342f565b611329565b60405161046a9190614414565b60405180910390f35b34801561047f57600080fd5b5061049a600480360361049591908101906135a1565b6113d9565b6040516104a79190614414565b60405180910390f35b3480156104bc57600080fd5b506104d760048036036104d29190810190613762565b61149f565b6040516104e491906143f9565b60405180910390f35b3480156104f957600080fd5b50610514600480360361050f9190810190613762565b6114cd565b6040516105219190614303565b60405180910390f35b610532611516565b005b34801561054057600080fd5b506105496115ab565b604051610556919061431e565b60405180910390f35b34801561056b57600080fd5b50610586600480360361058191908101906137a3565b6116d1565b6040516105939190614436565b60405180910390f35b3480156105a857600080fd5b506105c360048036036105be91908101906135a1565b6117d1565b6040516105d09190614414565b60405180910390f35b3480156105e557600080fd5b5061060060048036036105fb9190810190613762565b611897565b6040516106109493929190614488565b60405180910390f35b34801561062557600080fd5b50610640600480360361063b9190810190613762565b6119c2565b60405161064d9190614340565b60405180910390f35b34801561066257600080fd5b5061066b6119f8565b604051610678919061431e565b60405180910390f35b34801561068d57600080fd5b506106a860048036036106a3919081019061354d565b611b1e565b005b3480156106b657600080fd5b506106d160048036036106cc91908101906137e4565b611b2c565b005b3480156106df57600080fd5b506106e8611b3e565b6040516106f59190614303565b60405180910390f35b34801561070a57600080fd5b5061072560048036036107209190810190613877565b611b67565b005b34801561073357600080fd5b5061074e60048036036107499190810190613458565b611e17565b005b34801561075c57600080fd5b5061077760048036036107729190810190613762565b611eb5565b6040516107849190614674565b60405180910390f35b34801561079957600080fd5b506107b460048036036107af91908101906137a3565b611ee3565b6040516107c19190614303565b60405180910390f35b61085d8585858080601f016020809104026020016040519081016040528093929190818152602001838380828437600081840152601f19601f8201169050808301925050505050505084848080601f016020809104026020016040519081016040528093929190818152602001838380828437600081840152601f19601f82011690508083019250505050505050611f2e565b61089c576040517f08c379a000000000000000000000000000000000000000000000000000000000815260040161089390614614565b60405180910390fd5b6108ea8585858080601f016020809104026020016040519081016040528093929190818152602001838380828437600081840152601f19601f82011690508083019250505050505050611fb6565b5050505050565b6003818051602081018201805184825260208301602085012081835280955050505050506000915054906101000a900460ff1681565b600c818051602081018201805184825260208301602085012081835280955050505050506000915090508054600181600116156101000203166002900480601f0160208091040260200160405190810160405280929190818152602001828054600181600116156101000203166002900480156109e55780601f106109ba576101008083540402835291602001916109e5565b820191906000526020600020905b8154815290600101906020018083116109c857829003601f168201915b505050505081565b610ac587878080601f016020809104026020016040519081016040528093929190818152602001838380828437600081840152601f19601f8201169050808301925050505050505086868080601f016020809104026020016040519081016040528093929190818152602001838380828437600081840152601f19601f820116905080830192505050505050508585858080601f016020809104026020016040519081016040528093929190818152602001838380828437600081840152601f19601f820116905080830192505050505050506120da565b610b04576040517f08c379a0000000000000000000000000000000000000000000000000000000008152600401610afb90614614565b60405180910390fd5b610b9787878080601f016020809104026020016040519081016040528093929190818152602001838380828437600081840152601f19601f8201169050808301925050505050505086868080601f016020809104026020016040519081016040528093929190818152602001838380828437600081840152601f19601f8201169050808301925050505050505085612165565b50505050505050565b60016020528060005260406000206000915090505481565b610bc061231c565b73ffffffffffffffffffffffffffffffffffffffff16600b604051610be4906142d9565b908152602001604051809103902060009054906101000a900473ffffffffffffffffffffffffffffffffffffffff1673ffffffffffffffffffffffffffffffffffffffff1614610c69576040517f08c379a0000000000000000000000000000000000000000000000000000000008152600401610c60906145d4565b60405180910390fd5b80600b604051610c78906142c4565b908152602001604051809103902060006101000a81548173ffffffffffffffffffffffffffffffffffffffff021916908373ffffffffffffffffffffffffffffffffffffffff16021790555050565b610ccf61231c565b73ffffffffffffffffffffffffffffffffffffffff16600b604051610cf3906142c4565b908152602001604051809103902060009054906101000a900473ffffffffffffffffffffffffffffffffffffffff1673ffffffffffffffffffffffffffffffffffffffff1614610d78576040517f08c379a0000000000000000000000000000000000000000000000000000000008152600401610d6f90614634565b60405180910390fd5b81600160008373ffffffffffffffffffffffffffffffffffffffff1673ffffffffffffffffffffffffffffffffffffffff1681526020019081526020016000205403600160008373ffffffffffffffffffffffffffffffffffffffff1673ffffffffffffffffffffffffffffffffffffffff16815260200190815260200160002081905550600b604051610e0b906142c4565b908152602001604051809103902060009054906101000a900473ffffffffffffffffffffffffffffffffffffffff1673ffffffffffffffffffffffffffffffffffffffff166108fc839081150290604051600060405180830381858888f19350505050158015610e7f573d6000803e3d6000fd5b505050565b600d818051602081018201805184825260208301602085012081835280955050505050506000915090508054600181600116156101000203166002900480601f016020809104026020016040519081016040528092919081815260200182805460018160011615610100020316600290048015610f425780601f10610f1757610100808354040283529160200191610f42565b820191906000526020600020905b815481529060010190602001808311610f2557829003601f168201915b505050505081565b61102388888080601f016020809104026020016040519081016040528093929190818152602001838380828437600081840152601f19601f82011690508083019250505050505050878787878080601f016020809104026020016040519081016040528093929190818152602001838380828437600081840152601f19601f8201169050808301925050505050505086868080601f016020809104026020016040519081016040528093929190818152602001838380828437600081840152601f19601f820116905080830192505050505050506123ce565b611062576040517f08c379a000000000000000000000000000000000000000000000000000000000815260040161105990614614565b60405180910390fd5b6110f688888080601f016020809104026020016040519081016040528093929190818152602001838380828437600081840152601f19601f82011690508083019250505050505050878787878080601f016020809104026020016040519081016040528093929190818152602001838380828437600081840152601f19601f8201169050808301925050505050505061245c565b5050505050505050565b6111d887878080601f016020809104026020016040519081016040528093929190818152602001838380828437600081840152601f19601f8201169050808301925050505050505086868080601f016020809104026020016040519081016040528093929190818152602001838380828437600081840152601f19601f820116905080830192505050505050508585858080601f016020809104026020016040519081016040528093929190818152602001838380828437600081840152601f19601f82011690508083019250505050505050612815565b611217576040517f08c379a000000000000000000000000000000000000000000000000000000000815260040161120e90614614565b60405180910390fd5b6112aa87878080601f016020809104026020016040519081016040528093929190818152602001838380828437600081840152601f19601f8201169050808301925050505050505086868080601f016020809104026020016040519081016040528093929190818152602001838380828437600081840152601f19601f82011690508083019250505050505050856128a0565b50505050505050565b60006002826040516112c591906141b1565b908152602001604051809103902060020160149054906101000a900460ff1660038111156112ef57fe5b9050919050565b60056020528060005260406000206000915054906101000a900473ffffffffffffffffffffffffffffffffffffffff1681565b60046020528060005260406000206000915090508054600181600116156101000203166002900480601f0160208091040260200160405190810160405280929190818152602001828054600181600116156101000203166002900480156113d15780601f106113a6576101008083540402835291602001916113d1565b820191906000526020600020905b8154815290600101906020018083116113b457829003601f168201915b505050505081565b600760205281600052604060002081815481106113f257fe5b90600052602060002001600091509150508054600181600116156101000203166002900480601f0160208091040260200160405190810160405280929190818152602001828054600181600116156101000203166002900480156114975780601f1061146c57610100808354040283529160200191611497565b820191906000526020600020905b81548152906001019060200180831161147a57829003601f168201915b505050505081565b6009818051602081018201805184825260208301602085012081835280955050505050506000915090505481565b600b818051602081018201805184825260208301602085012081835280955050505050506000915054906101000a900473ffffffffffffffffffffffffffffffffffffffff1681565b346001600061152361231c565b73ffffffffffffffffffffffffffffffffffffffff1673ffffffffffffffffffffffffffffffffffffffff16815260200190815260200160002054016001600061156b61231c565b73ffffffffffffffffffffffffffffffffffffffff1673ffffffffffffffffffffffffffffffffffffffff16815260200190815260200160002081905550565b6060600660003373ffffffffffffffffffffffffffffffffffffffff1673ffffffffffffffffffffffffffffffffffffffff168152602001908152602001600020805480602002602001604051908101604052809291908181526020016000905b828210156116c8578382906000526020600020018054600181600116156101000203166002900480601f0160208091040260200160405190810160405280929190818152602001828054600181600116156101000203166002900480156116b45780601f10611689576101008083540402835291602001916116b4565b820191906000526020600020905b81548152906001019060200180831161169757829003601f168201915b50505050508152602001906001019061160c565b50505050905090565b60606002826040516116e391906141b1565b908152602001604051809103902060030160003373ffffffffffffffffffffffffffffffffffffffff1673ffffffffffffffffffffffffffffffffffffffff1681526020019081526020016000208054600181600116156101000203166002900480601f0160208091040260200160405190810160405280929190818152602001828054600181600116156101000203166002900480156117c55780601f1061179a576101008083540402835291602001916117c5565b820191906000526020600020905b8154815290600101906020018083116117a857829003601f168201915b50505050509050919050565b600660205281600052604060002081815481106117ea57fe5b90600052602060002001600091509150508054600181600116156101000203166002900480601f01602080910402602001604051908101604052809291908181526020018280546001816001161561010002031660029004801561188f5780601f106118645761010080835404028352916020019161188f565b820191906000526020600020905b81548152906001019060200180831161187257829003601f168201915b505050505081565b600281805160208101820180518482526020830160208501208183528095505050505050600091509050806000018054600181600116156101000203166002900480601f0160208091040260200160405190810160405280929190818152602001828054600181600116156101000203166002900480156119595780601f1061192e57610100808354040283529160200191611959565b820191906000526020600020905b81548152906001019060200180831161193c57829003601f168201915b5050505050908060010160009054906101000a900473ffffffffffffffffffffffffffffffffffffffff16908060020160009054906101000a900473ffffffffffffffffffffffffffffffffffffffff16908060020160149054906101000a900460ff16905084565b600a818051602081018201805184825260208301602085012081835280955050505050506000915054906101000a900460ff1681565b6060600760003373ffffffffffffffffffffffffffffffffffffffff1673ffffffffffffffffffffffffffffffffffffffff168152602001908152602001600020805480602002602001604051908101604052809291908181526020016000905b82821015611b15578382906000526020600020018054600181600116156101000203166002900480601f016020809104026020016040519081016040528092919081815260200182805460018160011615610100020316600290048015611b015780601f10611ad657610100808354040283529160200191611b01565b820191906000526020600020905b815481529060010190602001808311611ae457829003601f168201915b505050505081526020019060010190611a59565b50505050905090565b611b288282611fb6565b5050565b611b388484848461245c565b50505050565b60008060009054906101000a900473ffffffffffffffffffffffffffffffffffffffff16905090565b60405180608001604052808481526020018273ffffffffffffffffffffffffffffffffffffffff168152602001600073ffffffffffffffffffffffffffffffffffffffff16815260200160016003811115611bbe57fe5b815250600284604051611bd191906141b1565b90815260200160405180910390206000820151816000019080519060200190611bfb9291906131a4565b5060208201518160010160006101000a81548173ffffffffffffffffffffffffffffffffffffffff021916908373ffffffffffffffffffffffffffffffffffffffff16021790555060408201518160020160006101000a81548173ffffffffffffffffffffffffffffffffffffffff021916908373ffffffffffffffffffffffffffffffffffffffff16021790555060608201518160020160146101000a81548160ff02191690836003811115611cae57fe5b021790555090505081600284604051611cc791906141b1565b908152602001604051809103902060030160008373ffffffffffffffffffffffffffffffffffffffff1673ffffffffffffffffffffffffffffffffffffffff1681526020019081526020016000209080519060200190611d28929190613224565b506001600384604051611d3b91906141b1565b908152602001604051809103902060006101000a81548160ff021916908315150217905550600660008273ffffffffffffffffffffffffffffffffffffffff1673ffffffffffffffffffffffffffffffffffffffff16815260200190815260200160002083908060018154018082558091505060019003906000526020600020016000909190919091509080519060200190611dd8929190613224565b507f144ced1a295f096707ac7e7d8aa1a5a89bc1fd73ea6c8d75de34bba0fe0b132e8382604051611e0a929190614458565b60405180910390a1505050565b611e66848484848080601f016020809104026020016040519081016040528093929190818152602001838380828437600081840152601f19601f82011690508083019250505050505050612c8b565b611ea5576040517f08c379a0000000000000000000000000000000000000000000000000000000008152600401611e9c90614614565b60405180910390fd5b611eaf8484612d12565b50505050565b6008818051602081018201805184825260208301602085012081835280955050505050506000915090505481565b6000600282604051611ef591906141b1565b908152602001604051809103902060010160009054906101000a900473ffffffffffffffffffffffffffffffffffffffff169050919050565b600080611f72858560036004811115611f4357fe5b30604051602001611f579493929190614167565b60405160208183030381529060405280519060200120612f2d565b90508473ffffffffffffffffffffffffffffffffffffffff16611f958285612f5d565b73ffffffffffffffffffffffffffffffffffffffff16149150509392505050565b81604051602001611fc6906142ee565b60405160208183030381529060405280519060200120600460008373ffffffffffffffffffffffffffffffffffffffff1673ffffffffffffffffffffffffffffffffffffffff16815260200190815260200160002060405160200161202b9190614287565b6040516020818303038152906040528051906020012014612081576040517f08c379a000000000000000000000000000000000000000000000000000000000815260040161207890614654565b60405180910390fd5b81600460008573ffffffffffffffffffffffffffffffffffffffff1673ffffffffffffffffffffffffffffffffffffffff16815260200190815260200160002090805190602001906120d4929190613224565b50505050565b600080612120868686600260048111156120f057fe5b30604051602001612105959493929190614230565b60405160208183030381529060405280519060200120612f2d565b90508373ffffffffffffffffffffffffffffffffffffffff166121438285612f5d565b73ffffffffffffffffffffffffffffffffffffffff1614915050949350505050565b8260038160405161217691906141b1565b908152602001604051809103902060009054906101000a900460ff166121d1576040517f08c379a00000000000000000000000000000000000000000000000000000000081526004016121c890614574565b60405180910390fd5b60006002856040516121e391906141b1565b908152602001604051809103902090506002600381111561220057fe5b8160020160149054906101000a900460ff16600381111561221d57fe5b1461225d576040517f08c379a000000000000000000000000000000000000000000000000000000000815260040161225490614554565b60405180910390fd5b8273ffffffffffffffffffffffffffffffffffffffff168160020160009054906101000a900473ffffffffffffffffffffffffffffffffffffffff1673ffffffffffffffffffffffffffffffffffffffff16146122ef576040517f08c379a00000000000000000000000000000000000000000000000000000000081526004016122e6906144d4565b60405180910390fd5b60038160020160146101000a81548160ff0219169083600381111561231057fe5b02179055505050505050565b600060186000369050101580156123655750612336611b3e565b73ffffffffffffffffffffffffffffffffffffffff163373ffffffffffffffffffffffffffffffffffffffff16145b156123c7576123c06000368080601f016020809104026020016040519081016040528093929190818152602001838380828437600081840152601f19601f820116905080830192505050505050506014600036905003612fcc565b90506123cb565b3390505b90565b60008061241687878787600160048111156123e557fe5b306040516020016123fb969594939291906141c8565b60405160208183030381529060405280519060200120612f2d565b90508573ffffffffffffffffffffffffffffffffffffffff166124398285612f5d565b73ffffffffffffffffffffffffffffffffffffffff161491505095945050505050565b8360038160405161246d91906141b1565b908152602001604051809103902060009054906101000a900460ff166124c8576040517f08c379a00000000000000000000000000000000000000000000000000000000081526004016124bf90614574565b60405180910390fd5b84848073ffffffffffffffffffffffffffffffffffffffff166002836040516124f191906141b1565b908152602001604051809103902060010160009054906101000a900473ffffffffffffffffffffffffffffffffffffffff1673ffffffffffffffffffffffffffffffffffffffff1614612579576040517f08c379a000000000000000000000000000000000000000000000000000000000815260040161257090614514565b60405180910390fd5b84604051602001612589906142ee565b60405160208183030381529060405280519060200120600460008373ffffffffffffffffffffffffffffffffffffffff1673ffffffffffffffffffffffffffffffffffffffff1681526020019081526020016000206040516020016125ee9190614287565b604051602081830303815290604052805190602001201415612645576040517f08c379a000000000000000000000000000000000000000000000000000000000815260040161263c90614594565b60405180910390fd5b600060028960405161265791906141b1565b908152602001604051809103902090506002600381111561267457fe5b8160020160149054906101000a900460ff16600381111561269157fe5b14156126d2576040517f08c379a00000000000000000000000000000000000000000000000000000000081526004016126c9906145f4565b60405180910390fd5b868160020160006101000a81548173ffffffffffffffffffffffffffffffffffffffff021916908373ffffffffffffffffffffffffffffffffffffffff160217905550858160030160008973ffffffffffffffffffffffffffffffffffffffff1673ffffffffffffffffffffffffffffffffffffffff168152602001908152602001600020908051906020019061276a929190613224565b5060028160020160146101000a81548160ff0219169083600381111561278c57fe5b0217905550600760008873ffffffffffffffffffffffffffffffffffffffff1673ffffffffffffffffffffffffffffffffffffffff16815260200190815260200160002089908060018154018082558091505060019003906000526020600020016000909190919091509080519060200190612809929190613224565b50505050505050505050565b60008061285b8686866000600481111561282b57fe5b30604051602001612840959493929190614230565b60405160208183030381529060405280519060200120612f2d565b90508373ffffffffffffffffffffffffffffffffffffffff1661287e8285612f5d565b73ffffffffffffffffffffffffffffffffffffffff1614915050949350505050565b826003816040516128b191906141b1565b908152602001604051809103902060009054906101000a900460ff161561290d576040517f08c379a0000000000000000000000000000000000000000000000000000000008152600401612904906144f4565b60405180910390fd5b8160405160200161291d906142ee565b60405160208183030381529060405280519060200120600460008373ffffffffffffffffffffffffffffffffffffffff1673ffffffffffffffffffffffffffffffffffffffff1681526020019081526020016000206040516020016129829190614287565b6040516020818303038152906040528051906020012014156129d9576040517f08c379a00000000000000000000000000000000000000000000000000000000081526004016129d090614594565b60405180910390fd5b60405180608001604052808681526020018473ffffffffffffffffffffffffffffffffffffffff168152602001600073ffffffffffffffffffffffffffffffffffffffff16815260200160016003811115612a3057fe5b815250600286604051612a4391906141b1565b90815260200160405180910390206000820151816000019080519060200190612a6d9291906131a4565b5060208201518160010160006101000a81548173ffffffffffffffffffffffffffffffffffffffff021916908373ffffffffffffffffffffffffffffffffffffffff16021790555060408201518160020160006101000a81548173ffffffffffffffffffffffffffffffffffffffff021916908373ffffffffffffffffffffffffffffffffffffffff16021790555060608201518160020160146101000a81548160ff02191690836003811115612b2057fe5b021790555090505083600286604051612b3991906141b1565b908152602001604051809103902060030160008573ffffffffffffffffffffffffffffffffffffffff1673ffffffffffffffffffffffffffffffffffffffff1681526020019081526020016000209080519060200190612b9a929190613224565b506001600386604051612bad91906141b1565b908152602001604051809103902060006101000a81548160ff021916908315150217905550600660008473ffffffffffffffffffffffffffffffffffffffff1673ffffffffffffffffffffffffffffffffffffffff16815260200190815260200160002085908060018154018082558091505060019003906000526020600020016000909190919091509080519060200190612c4a929190613224565b507f144ced1a295f096707ac7e7d8aa1a5a89bc1fd73ea6c8d75de34bba0fe0b132e8584604051612c7c929190614458565b60405180910390a15050505050565b600080612cce8585600480811115612c9f57fe5b30604051602001612cb39493929190614119565b60405160208183030381529060405280519060200120612f2d565b90508473ffffffffffffffffffffffffffffffffffffffff16612cf18285612f5d565b73ffffffffffffffffffffffffffffffffffffffff16149150509392505050565b81604051602001612d22906142ee565b60405160208183030381529060405280519060200120600460008373ffffffffffffffffffffffffffffffffffffffff1673ffffffffffffffffffffffffffffffffffffffff168152602001908152602001600020604051602001612d879190614287565b604051602081830303815290604052805190602001201415612dde576040517f08c379a0000000000000000000000000000000000000000000000000000000008152600401612dd590614594565b60405180910390fd5b81604051602001612dee906142ee565b60405160208183030381529060405280519060200120600460008373ffffffffffffffffffffffffffffffffffffffff1673ffffffffffffffffffffffffffffffffffffffff168152602001908152602001600020604051602001612e539190614287565b6040516020818303038152906040528051906020012014612ea9576040517f08c379a0000000000000000000000000000000000000000000000000000000008152600401612ea090614654565b60405180910390fd5b83600560008573ffffffffffffffffffffffffffffffffffffffff1673ffffffffffffffffffffffffffffffffffffffff16815260200190815260200160002060006101000a81548173ffffffffffffffffffffffffffffffffffffffff021916908373ffffffffffffffffffffffffffffffffffffffff16021790555050505050565b600081604051602001612f40919061429e565b604051602081830303815290604052805190602001209050919050565b600080600080612f6c8561301e565b92509250925060018684848460405160008152602001604052604051612f95949392919061435b565b6020604051602081039080840390855afa158015612fb7573d6000803e3d6000fd5b50505060206040510351935050505092915050565b60006014820183511015612ff357612ff2612fed6004855160148601613117565b61319c565b5b60148201915073ffffffffffffffffffffffffffffffffffffffff8284015116905080905092915050565b6000806000604184511461303157600080fd5b6020840151915060408401519050606084015160001a92507f7fffffffffffffffffffffffffffffff5d576e7357a4501ddfe92f46681b20a08160001c11156130af576040517f08c379a00000000000000000000000000000000000000000000000000000000081526004016130a690614534565b60405180910390fd5b601b8360ff16141580156130c75750601c8360ff1614155b15613107576040517f08c379a00000000000000000000000000000000000000000000000000000000081526004016130fe906145b4565b60405180910390fd5b8282829250925092509193909250565b6060632800659560e01b848484604051602401613136939291906143c2565b604051602081830303815290604052907bffffffffffffffffffffffffffffffffffffffffffffffffffffffff19166020820180517bffffffffffffffffffffffffffffffffffffffffffffffffffffffff838183161783525050505090509392505050565b805160208201fd5b828054600181600116156101000203166002900490600052602060002090601f016020900481019282601f106131e557805160ff1916838001178555613213565b82800160010185558215613213579182015b828111156132125782518255916020019190600101906131f7565b5b50905061322091906132a4565b5090565b828054600181600116156101000203166002900490600052602060002090601f016020900481019282601f1061326557805160ff1916838001178555613293565b82800160010185558215613293579182015b82811115613292578251825591602001919060010190613277565b5b5090506132a091906132a4565b5090565b6132c691905b808211156132c25760008160009055506001016132aa565b5090565b90565b6000813590506132d881614926565b92915050565b60008083601f8401126132f057600080fd5b8235905067ffffffffffffffff81111561330957600080fd5b60208301915083600182028301111561332157600080fd5b9250929050565b60008083601f84011261333a57600080fd5b8235905067ffffffffffffffff81111561335357600080fd5b60208301915083600182028301111561336b57600080fd5b9250929050565b600082601f83011261338357600080fd5b8135613396613391826146bc565b61468f565b915080825260208301602083018583830111156133b257600080fd5b6133bd838284614874565b50505092915050565b600082601f8301126133d757600080fd5b81356133ea6133e5826146e8565b61468f565b9150808252602083016020830185838301111561340657600080fd5b613411838284614874565b50505092915050565b6000813590506134298161493d565b92915050565b60006020828403121561344157600080fd5b600061344f848285016132c9565b91505092915050565b6000806000806060858703121561346e57600080fd5b600061347c878288016132c9565b945050602061348d878288016132c9565b935050604085013567ffffffffffffffff8111156134aa57600080fd5b6134b6878288016132de565b925092505092959194509250565b6000806000806000606086880312156134dc57600080fd5b60006134ea888289016132c9565b955050602086013567ffffffffffffffff81111561350757600080fd5b61351388828901613328565b9450945050604086013567ffffffffffffffff81111561353257600080fd5b61353e888289016132de565b92509250509295509295909350565b6000806040838503121561356057600080fd5b600061356e858286016132c9565b925050602083013567ffffffffffffffff81111561358b57600080fd5b613597858286016133c6565b9150509250929050565b600080604083850312156135b457600080fd5b60006135c2858286016132c9565b92505060206135d38582860161341a565b9150509250929050565b60008060008060008060008060a0898b0312156135f957600080fd5b600089013567ffffffffffffffff81111561361357600080fd5b61361f8b828c01613328565b985098505060206136328b828c016132c9565b96505060406136438b828c016132c9565b955050606089013567ffffffffffffffff81111561366057600080fd5b61366c8b828c01613328565b9450945050608089013567ffffffffffffffff81111561368b57600080fd5b6136978b828c016132de565b92509250509295985092959890939650565b60008060008060008060006080888a0312156136c457600080fd5b600088013567ffffffffffffffff8111156136de57600080fd5b6136ea8a828b01613328565b9750975050602088013567ffffffffffffffff81111561370957600080fd5b6137158a828b01613328565b955095505060406137288a828b016132c9565b935050606088013567ffffffffffffffff81111561374557600080fd5b6137518a828b016132de565b925092505092959891949750929550565b60006020828403121561377457600080fd5b600082013567ffffffffffffffff81111561378e57600080fd5b61379a84828501613372565b91505092915050565b6000602082840312156137b557600080fd5b600082013567ffffffffffffffff8111156137cf57600080fd5b6137db848285016133c6565b91505092915050565b600080600080608085870312156137fa57600080fd5b600085013567ffffffffffffffff81111561381457600080fd5b613820878288016133c6565b9450506020613831878288016132c9565b9350506040613842878288016132c9565b925050606085013567ffffffffffffffff81111561385f57600080fd5b61386b878288016133c6565b91505092959194509250565b60008060006060848603121561388c57600080fd5b600084013567ffffffffffffffff8111156138a657600080fd5b6138b2868287016133c6565b935050602084013567ffffffffffffffff8111156138cf57600080fd5b6138db868287016133c6565b92505060406138ec868287016132c9565b9150509250925092565b6000806040838503121561390957600080fd5b60006139178582860161341a565b9250506020613928858286016132c9565b9150509250929050565b600061393e8383613ae6565b905092915050565b61394f816147c1565b82525050565b613966613961826147c1565b6148b6565b82525050565b600061397782614739565b6139818185614772565b93508360208202850161399385614714565b8060005b858110156139cf57848403895281516139b08582613932565b94506139bb83614765565b925060208a01995050600181019050613997565b50829750879550505050505092915050565b6139ea816147d3565b82525050565b6139f9816147df565b82525050565b613a10613a0b826147df565b6148c8565b82525050565b6000613a2182614744565b613a2b8185614783565b9350613a3b818560208601614883565b613a44816148ee565b840191505092915050565b613a5881614850565b82525050565b613a6781614862565b82525050565b613a768161480f565b82525050565b6000613a878261475a565b613a9181856147a5565b9350613aa1818560208601614883565b613aaa816148ee565b840191505092915050565b6000613ac08261475a565b613aca81856147b6565b9350613ada818560208601614883565b80840191505092915050565b6000613af18261474f565b613afb8185614794565b9350613b0b818560208601614883565b613b14816148ee565b840191505092915050565b6000613b2a8261474f565b613b3481856147a5565b9350613b44818560208601614883565b613b4d816148ee565b840191505092915050565b600081546001811660008114613b755760018114613b9a57613bde565b607f6002830416613b8681876147b6565b955060ff1983168652808601935050613bde565b60028204613ba881876147b6565b9550613bb385614724565b60005b82811015613bd557815481890152600182019150602081019050613bb6565b82880195505050505b505092915050565b6000613bf3601c836147b6565b91507f19457468657265756d205369676e6564204d6573736167653a0a3332000000006000830152601c82019050919050565b6000613c33603a836147a5565b91507f4f6e6c79207468652061737369676e207369676e656520627920746865206f7760008301527f6e65722063616e207369676e2074686520646f63756d656e742e0000000000006020830152604082019050919050565b6000613c996009836147b6565b91507f5061796d617374657200000000000000000000000000000000000000000000006000830152600982019050919050565b6000613cd96017836147a5565b91507f446f63756d656e7420616c72656164792065786973742e0000000000000000006000830152602082019050919050565b6000613d196032836147a5565b91507f4f6e6c7920746865206f776e6572206f662074686520646f63756d656e74206360008301527f616e20646f207468697320616374696f6e2e00000000000000000000000000006020830152604082019050919050565b6000613d7f6022836147a5565b91507f45434453413a20696e76616c6964207369676e6174757265202773272076616c60008301527f75650000000000000000000000000000000000000000000000000000000000006020830152604082019050919050565b6000613de5602e836147a5565b91507f446f63756d656e742073746174652069736e277420696e205369676e696e672060008301527f50656e64696e672053746174652e0000000000000000000000000000000000006020830152604082019050919050565b6000613e4b6016836147a5565b91507f446f63756d656e74206469646e27742065786973742e000000000000000000006000830152602082019050919050565b6000613e8b6015836147a5565b91507f4163636f756e74206469646e27742065786973742e00000000000000000000006000830152602082019050919050565b6000613ecb6022836147a5565b91507f45434453413a20696e76616c6964207369676e6174757265202776272076616c60008301527f75650000000000000000000000000000000000000000000000000000000000006020830152604082019050919050565b6000613f316005836147b6565b91507f4f776e65720000000000000000000000000000000000000000000000000000006000830152600582019050919050565b6000613f716020836147a5565b91507f4f776e61626c653a2063616c6c6572206973206e6f7420746865206f776e65726000830152602082019050919050565b6000613fb1604d836147a5565b91507f43616e6e6f742061736b20666f7220616e6f74686572207369676e617475726560008301527f20696620746865206c617374207369676e6565206469646e2074207369676e2060208301527f74686520646f63756d656e742e000000000000000000000000000000000000006040830152606082019050919050565b600061403d6017836147a5565b91507f5369676e6174757265206973206e6f742076616c69642e0000000000000000006000830152602082019050919050565b600061407d6000836147a5565b9150600082019050919050565b60006140976000836147b6565b9150600082019050919050565b60006140b16016836147a5565b91507f4163636f756e7420616c72656164792065786973742e000000000000000000006000830152602082019050919050565b6140ed81614839565b82525050565b6141046140ff82614839565b6148e4565b82525050565b61411381614843565b82525050565b60006141258287613955565b6014820191506141358286613955565b60148201915061414582856140f3565b6020820191506141558284613955565b60148201915081905095945050505050565b60006141738287613955565b6014820191506141838286613ab5565b915061418f82856140f3565b60208201915061419f8284613955565b60148201915081905095945050505050565b60006141bd8284613ab5565b915081905092915050565b60006141d48289613ab5565b91506141e08288613955565b6014820191506141f08287613955565b6014820191506142008286613ab5565b915061420c82856140f3565b60208201915061421c8284613955565b601482019150819050979650505050505050565b600061423c8288613ab5565b91506142488287613ab5565b91506142548286613955565b60148201915061426482856140f3565b6020820191506142748284613955565b6014820191508190509695505050505050565b60006142938284613b58565b915081905092915050565b60006142a982613be6565b91506142b582846139ff565b60208201915081905092915050565b60006142cf82613c8c565b9150819050919050565b60006142e482613f24565b9150819050919050565b60006142f98261408a565b9150819050919050565b60006020820190506143186000830184613946565b92915050565b60006020820190508181036000830152614338818461396c565b905092915050565b600060208201905061435560008301846139e1565b92915050565b600060808201905061437060008301876139f0565b61437d602083018661410a565b61438a60408301856139f0565b61439760608301846139f0565b95945050505050565b600060208201905081810360008301526143ba8184613a16565b905092915050565b60006060820190506143d76000830186613a4f565b6143e460208301856140e4565b6143f160408301846140e4565b949350505050565b600060208201905061440e6000830184613a6d565b92915050565b6000602082019050818103600083015261442e8184613b1f565b905092915050565b600060208201905081810360008301526144508184613a7c565b905092915050565b600060408201905081810360008301526144728185613a7c565b90506144816020830184613946565b9392505050565b600060808201905081810360008301526144a28187613b1f565b90506144b16020830186613946565b6144be6040830185613946565b6144cb6060830184613a5e565b95945050505050565b600060208201905081810360008301526144ed81613c26565b9050919050565b6000602082019050818103600083015261450d81613ccc565b9050919050565b6000602082019050818103600083015261452d81613d0c565b9050919050565b6000602082019050818103600083015261454d81613d72565b9050919050565b6000602082019050818103600083015261456d81613dd8565b9050919050565b6000602082019050818103600083015261458d81613e3e565b9050919050565b600060208201905081810360008301526145ad81613e7e565b9050919050565b600060208201905081810360008301526145cd81613ebe565b9050919050565b600060208201905081810360008301526145ed81613f64565b9050919050565b6000602082019050818103600083015261460d81613fa4565b9050919050565b6000602082019050818103600083015261462d81614030565b9050919050565b6000602082019050818103600083015261464d81614070565b9050919050565b6000602082019050818103600083015261466d816140a4565b9050919050565b600060208201905061468960008301846140e4565b92915050565b6000604051905081810181811067ffffffffffffffff821117156146b257600080fd5b8060405250919050565b600067ffffffffffffffff8211156146d357600080fd5b601f19601f8301169050602081019050919050565b600067ffffffffffffffff8211156146ff57600080fd5b601f19601f8301169050602081019050919050565b6000819050602082019050919050565b60008190508160005260206000209050919050565b600081519050919050565b600081519050919050565b600081519050919050565b600081519050919050565b6000602082019050919050565b600082825260208201905092915050565b600082825260208201905092915050565b600082825260208201905092915050565b600082825260208201905092915050565b600081905092915050565b60006147cc82614819565b9050919050565b60008115159050919050565b6000819050919050565b60008190506147f78261490c565b919050565b600081905061480a82614919565b919050565b6000819050919050565b600073ffffffffffffffffffffffffffffffffffffffff82169050919050565b6000819050919050565b600060ff82169050919050565b600061485b826147e9565b9050919050565b600061486d826147fc565b9050919050565b82818337600083830152505050565b60005b838110156148a1578082015181840152602081019050614886565b838111156148b0576000848401525b50505050565b60006148c1826148d2565b9050919050565b6000819050919050565b60006148dd826148ff565b9050919050565b6000819050919050565b6000601f19601f8301169050919050565b60008160601b9050919050565b6008811061491657fe5b50565b6004811061492357fe5b50565b61492f816147c1565b811461493a57600080fd5b50565b61494681614839565b811461495157600080fd5b5056fea2646970667358221220b19f32321bfbe3e052c11f95c735957dccdb7516763f975bb89c0ee90d11d57d64736f6c63430006020033",
  "source": "pragma solidity ^0.6.2;\npragma experimental ABIEncoderV2;\n\nimport \"./../SignDocuBussiness.sol\";\nimport \"./../SignDocuStorage.sol\";\n\ncontract Utils {\n    function getStateFromUint(uint256 _state) public returns(State) {\n        if (_state == 1) {\n            return State.Created;\n        }\n        if (_state == 2) {\n            return State.SignPending;\n        }\n        if (_state == 3) {\n            return State.Signed;\n        }\n    }\n}\n\n\n// To deal with 24576 bytes limit\n\ncontract ProxyForAccountCreation is SignDocuBussiness {\n    function createAccountMock(address _sender, string memory _accountPubKey) public {\n        createAccount(_sender, _accountPubKey);\n    }\n}\n\ncontract ProxyForApprovingAccountCreation is SignDocuBussiness {\n    function createAccountMock(address _sender, string memory _accountPubKey) public {\n        createAccount(_sender, _accountPubKey);\n    }\n\n    function resetAccountMock(address _sender, string memory _accountPubKey) public {\n        accounts[_sender] = _accountPubKey;\n    }\n\n    function allowAccountCreationMock(address _sender, address _allowed) public {\n        allowAccountCreation(_sender, _allowed);\n    }\n}\n\ncontract ProxyForDocumentCreation is SignDocuBussiness {\n    function createAccountMock(address _sender, string memory _accountPubKey) public {\n        createAccount(_sender, _accountPubKey);\n    }\n    function resetAccountMock(address _sender, string memory _accountPubKey) public {\n        accounts[_sender] = _accountPubKey;\n    }\n\n    function createDocumentMock(string memory _cid, string memory _secret, address _sender) public {\n        createDocument(_cid, _secret, _sender);\n    }\n}\n\ncontract ProxyForDocumentSignatureApproval is SignDocuBussiness {\n    function createAccountMock(address _sender, string memory _accountPubKey) public {\n        createAccount(_sender, _accountPubKey);\n    }\n\n    function createDocumentMock(string memory _cid, string memory _secret, address _sender) public {\n        documents[_cid] = Document({cid : _cid, owner : _sender, newSignee : address(0x00), state : State.Created});\n        documents[_cid].secrets[_sender] = _secret;\n        documentsExist[_cid] = true;\n        creators[_sender].push(_cid);\n\n        emit DocumentCreated(_cid, _sender);\n    }\n\n    function approveToSignMock(string memory _cid, address _sender, address _newSignee, string memory _secret) public {\n        approveToSign(_cid, _sender, _newSignee, _secret);\n    }\n}\n\ncontract ProxyForDocumentSigning is SignDocuBussiness, Utils {\n\n    function createDocumentMock(string memory _cid, string memory _secret, address _sender) public {\n        documents[_cid] = Document({cid : _cid, owner : _sender, newSignee : address(0x00), state : State.Created});\n        documents[_cid].secrets[_sender] = _secret;\n        documentsExist[_cid] = true;\n        creators[_sender].push(_cid);\n\n        emit DocumentCreated(_cid, _sender);\n    }\n\n    function setDocumentState(string memory _cid, uint256 _state) public {\n        documents[_cid].state = getStateFromUint(_state);\n    }\n\n    function setSignee(string memory _cid, address _signee) public {\n        documents[_cid].newSignee = _signee;\n    }\n\n    function signMock(string memory _cid, string memory _secret, address _sender) public {\n        sign(_cid, _secret, _sender);\n    }\n}",
  "sourcePath": "/Users/mariejoseph/Documents/HackFS/IPFS/contracts/Mocks/SignDocuBussinessMock.sol",
  "compiler": {
    "name": "solc",
    "version": "0.6.2+commit.bacdbe57.Emscripten.clang"
  },
  "schemaVersion": "3.2.0",
  "updatedAt": "2020-08-29T21:23:44.276Z",
  "devdoc": {
    "methods": {}
  },
  "userdoc": {
    "methods": {}
  }
}