{
  "contractName": "ProxyForDocumentSigning",
  "abi": [
    {
      "anonymous": false,
      "inputs": [
        {
          "indexed": false,
          "internalType": "string",
          "name": "cid",
          "type": "string"
        },
        {
          "indexed": false,
          "internalType": "address",
          "name": "creator",
          "type": "address"
        }
      ],
      "name": "DocumentCreated",
      "type": "event"
    },
    {
      "anonymous": false,
      "inputs": [
        {
          "indexed": true,
          "internalType": "address",
          "name": "previousOwner",
          "type": "address"
        },
        {
          "indexed": true,
          "internalType": "address",
          "name": "newOwner",
          "type": "address"
        }
      ],
      "name": "OwnershipTransferred",
      "type": "event"
    },
    {
      "anonymous": false,
      "inputs": [
        {
          "indexed": false,
          "internalType": "string",
          "name": "cid",
          "type": "string"
        },
        {
          "indexed": false,
          "internalType": "address",
          "name": "signee",
          "type": "address"
        }
      ],
      "name": "Signature",
      "type": "event"
    },
    {
      "inputs": [
        {
          "internalType": "address",
          "name": "",
          "type": "address"
        }
      ],
      "name": "accounts",
      "outputs": [
        {
          "internalType": "string",
          "name": "",
          "type": "string"
        }
      ],
      "stateMutability": "view",
      "type": "function"
    },
    {
      "inputs": [
        {
          "internalType": "string",
          "name": "",
          "type": "string"
        }
      ],
      "name": "addressStorage",
      "outputs": [
        {
          "internalType": "address",
          "name": "",
          "type": "address"
        }
      ],
      "stateMutability": "view",
      "type": "function"
    },
    {
      "inputs": [
        {
          "internalType": "address",
          "name": "_sender",
          "type": "address"
        },
        {
          "internalType": "address",
          "name": "_allowedAccount",
          "type": "address"
        },
        {
          "internalType": "bytes",
          "name": "_signature",
          "type": "bytes"
        }
      ],
      "name": "allowAccountCreation",
      "outputs": [],
      "stateMutability": "nonpayable",
      "type": "function"
    },
    {
      "inputs": [
        {
          "internalType": "address",
          "name": "",
          "type": "address"
        }
      ],
      "name": "allowedBy",
      "outputs": [
        {
          "internalType": "address",
          "name": "",
          "type": "address"
        }
      ],
      "stateMutability": "view",
      "type": "function"
    },
    {
      "inputs": [
        {
          "internalType": "string",
          "name": "_cid",
          "type": "string"
        },
        {
          "internalType": "address",
          "name": "_sender",
          "type": "address"
        },
        {
          "internalType": "address",
          "name": "_newSignee",
          "type": "address"
        },
        {
          "internalType": "string",
          "name": "_secret",
          "type": "string"
        },
        {
          "internalType": "bytes",
          "name": "_signature",
          "type": "bytes"
        }
      ],
      "name": "approveToSign",
      "outputs": [],
      "stateMutability": "nonpayable",
      "type": "function"
    },
    {
      "inputs": [
        {
          "internalType": "address",
          "name": "",
          "type": "address"
        }
      ],
      "name": "balances",
      "outputs": [
        {
          "internalType": "uint256",
          "name": "",
          "type": "uint256"
        }
      ],
      "stateMutability": "view",
      "type": "function"
    },
    {
      "inputs": [
        {
          "internalType": "string",
          "name": "",
          "type": "string"
        }
      ],
      "name": "boolStorage",
      "outputs": [
        {
          "internalType": "bool",
          "name": "",
          "type": "bool"
        }
      ],
      "stateMutability": "view",
      "type": "function"
    },
    {
      "inputs": [
        {
          "internalType": "string",
          "name": "",
          "type": "string"
        }
      ],
      "name": "bytesStorage",
      "outputs": [
        {
          "internalType": "bytes",
          "name": "",
          "type": "bytes"
        }
      ],
      "stateMutability": "view",
      "type": "function"
    },
    {
      "inputs": [
        {
          "internalType": "address",
          "name": "_sender",
          "type": "address"
        },
        {
          "internalType": "string",
          "name": "_accountPubKey",
          "type": "string"
        },
        {
          "internalType": "bytes",
          "name": "_signature",
          "type": "bytes"
        }
      ],
      "name": "createAccount",
      "outputs": [],
      "stateMutability": "nonpayable",
      "type": "function"
    },
    {
      "inputs": [
        {
          "internalType": "string",
          "name": "_cid",
          "type": "string"
        },
        {
          "internalType": "string",
          "name": "_secret",
          "type": "string"
        },
        {
          "internalType": "address",
          "name": "_sender",
          "type": "address"
        },
        {
          "internalType": "bytes",
          "name": "_signature",
          "type": "bytes"
        }
      ],
      "name": "createDocument",
      "outputs": [],
      "stateMutability": "nonpayable",
      "type": "function"
    },
    {
      "inputs": [
        {
          "internalType": "address",
          "name": "",
          "type": "address"
        },
        {
          "internalType": "uint256",
          "name": "",
          "type": "uint256"
        }
      ],
      "name": "creators",
      "outputs": [
        {
          "internalType": "string",
          "name": "",
          "type": "string"
        }
      ],
      "stateMutability": "view",
      "type": "function"
    },
    {
      "inputs": [
        {
          "internalType": "string",
          "name": "",
          "type": "string"
        }
      ],
      "name": "documents",
      "outputs": [
        {
          "internalType": "string",
          "name": "cid",
          "type": "string"
        },
        {
          "internalType": "address",
          "name": "owner",
          "type": "address"
        },
        {
          "internalType": "address",
          "name": "newSignee",
          "type": "address"
        },
        {
          "internalType": "enum State",
          "name": "state",
          "type": "uint8"
        }
      ],
      "stateMutability": "view",
      "type": "function"
    },
    {
      "inputs": [
        {
          "internalType": "address",
          "name": "",
          "type": "address"
        },
        {
          "internalType": "uint256",
          "name": "",
          "type": "uint256"
        }
      ],
      "name": "documentsBySignee",
      "outputs": [
        {
          "internalType": "string",
          "name": "",
          "type": "string"
        }
      ],
      "stateMutability": "view",
      "type": "function"
    },
    {
      "inputs": [
        {
          "internalType": "string",
          "name": "",
          "type": "string"
        }
      ],
      "name": "documentsExist",
      "outputs": [
        {
          "internalType": "bool",
          "name": "",
          "type": "bool"
        }
      ],
      "stateMutability": "view",
      "type": "function"
    },
    {
      "inputs": [],
      "name": "getCreatedDocument",
      "outputs": [
        {
          "internalType": "string[]",
          "name": "",
          "type": "string[]"
        }
      ],
      "stateMutability": "view",
      "type": "function"
    },
    {
      "inputs": [
        {
          "internalType": "string",
          "name": "_cid",
          "type": "string"
        }
      ],
      "name": "getDocumentSecret",
      "outputs": [
        {
          "internalType": "string",
          "name": "",
          "type": "string"
        }
      ],
      "stateMutability": "view",
      "type": "function"
    },
    {
      "inputs": [
        {
          "internalType": "string",
          "name": "_cid",
          "type": "string"
        }
      ],
      "name": "getDocumentState",
      "outputs": [
        {
          "internalType": "uint256",
          "name": "",
          "type": "uint256"
        }
      ],
      "stateMutability": "view",
      "type": "function"
    },
    {
      "inputs": [
        {
          "internalType": "uint256",
          "name": "_fee",
          "type": "uint256"
        },
        {
          "internalType": "address",
          "name": "_accountPayingFees",
          "type": "address"
        }
      ],
      "name": "getFeeByPaymaster",
      "outputs": [],
      "stateMutability": "nonpayable",
      "type": "function"
    },
    {
      "inputs": [
        {
          "internalType": "string",
          "name": "_cid",
          "type": "string"
        }
      ],
      "name": "getOwnerOfDocument",
      "outputs": [
        {
          "internalType": "address",
          "name": "",
          "type": "address"
        }
      ],
      "stateMutability": "view",
      "type": "function"
    },
    {
      "inputs": [],
      "name": "getSigneeDocument",
      "outputs": [
        {
          "internalType": "string[]",
          "name": "",
          "type": "string[]"
        }
      ],
      "stateMutability": "view",
      "type": "function"
    },
    {
      "inputs": [
        {
          "internalType": "uint256",
          "name": "_state",
          "type": "uint256"
        }
      ],
      "name": "getStateFromUint",
      "outputs": [
        {
          "internalType": "enum State",
          "name": "",
          "type": "uint8"
        }
      ],
      "stateMutability": "nonpayable",
      "type": "function"
    },
    {
      "inputs": [],
      "name": "getTrustedForwarder",
      "outputs": [
        {
          "internalType": "address",
          "name": "",
          "type": "address"
        }
      ],
      "stateMutability": "view",
      "type": "function"
    },
    {
      "inputs": [
        {
          "internalType": "string",
          "name": "",
          "type": "string"
        }
      ],
      "name": "int256Storage",
      "outputs": [
        {
          "internalType": "int256",
          "name": "",
          "type": "int256"
        }
      ],
      "stateMutability": "view",
      "type": "function"
    },
    {
      "inputs": [],
      "name": "sendPayement",
      "outputs": [],
      "stateMutability": "payable",
      "type": "function"
    },
    {
      "inputs": [
        {
          "internalType": "address",
          "name": "_paymaster",
          "type": "address"
        }
      ],
      "name": "setPaymaster",
      "outputs": [],
      "stateMutability": "nonpayable",
      "type": "function"
    },
    {
      "inputs": [
        {
          "internalType": "string",
          "name": "_cid",
          "type": "string"
        },
        {
          "internalType": "string",
          "name": "_secret",
          "type": "string"
        },
        {
          "internalType": "address",
          "name": "_sender",
          "type": "address"
        },
        {
          "internalType": "bytes",
          "name": "_signature",
          "type": "bytes"
        }
      ],
      "name": "sign",
      "outputs": [],
      "stateMutability": "nonpayable",
      "type": "function"
    },
    {
      "inputs": [
        {
          "internalType": "string",
          "name": "",
          "type": "string"
        }
      ],
      "name": "stringStorage",
      "outputs": [
        {
          "internalType": "string",
          "name": "",
          "type": "string"
        }
      ],
      "stateMutability": "view",
      "type": "function"
    },
    {
      "inputs": [
        {
          "internalType": "string",
          "name": "",
          "type": "string"
        }
      ],
      "name": "uint256Storage",
      "outputs": [
        {
          "internalType": "uint256",
          "name": "",
          "type": "uint256"
        }
      ],
      "stateMutability": "view",
      "type": "function"
    },
    {
      "inputs": [
        {
          "internalType": "string",
          "name": "_cid",
          "type": "string"
        },
        {
          "internalType": "string",
          "name": "_secret",
          "type": "string"
        },
        {
          "internalType": "address",
          "name": "_sender",
          "type": "address"
        }
      ],
      "name": "createDocumentMock",
      "outputs": [],
      "stateMutability": "nonpayable",
      "type": "function"
    },
    {
      "inputs": [
        {
          "internalType": "string",
          "name": "_cid",
          "type": "string"
        },
        {
          "internalType": "uint256",
          "name": "_state",
          "type": "uint256"
        }
      ],
      "name": "setDocumentState",
      "outputs": [],
      "stateMutability": "nonpayable",
      "type": "function"
    },
    {
      "inputs": [
        {
          "internalType": "string",
          "name": "_cid",
          "type": "string"
        },
        {
          "internalType": "address",
          "name": "_signee",
          "type": "address"
        }
      ],
      "name": "setSignee",
      "outputs": [],
      "stateMutability": "nonpayable",
      "type": "function"
    },
    {
      "inputs": [
        {
          "internalType": "string",
          "name": "_cid",
          "type": "string"
        },
        {
          "internalType": "string",
          "name": "_secret",
          "type": "string"
        },
        {
          "internalType": "address",
          "name": "_sender",
          "type": "address"
        }
      ],
      "name": "signMock",
      "outputs": [],
      "stateMutability": "nonpayable",
      "type": "function"
    }
  ],
  "bytecode": "0x608060405234801561001057600080fd5b50614aea806100206000396000f3fe6080604052600436106101e25760003560e01c806370a13b4811610102578063b5066b6111610095578063e12b6c1d11610064578063e12b6c1d14610779578063e5b0b90c146107a2578063e97cfa01146107df578063ff86e28c14610808576101e2565b8063b5066b61146106bd578063ba8ef303146106fa578063ce1b815f14610725578063dd891e4f14610750576101e2565b806396ad13e8116100d157806396ad13e8146105da57806398a270eb14610603578063a445434014610640578063b3dd697b1461067d576101e2565b806370a13b481461052b5780637547b64e146105685780638e063992146105a55780639021639c146105af576101e2565b806332285bda1161017a57806359328eb51161014957806359328eb5146104375780635e5c06e21461047457806365e3ddbf146104b1578063699a2033146104ee576101e2565b806332285bda1461036b57806349b98557146103a85780634c969a34146103d157806357677709146103fa576101e2565b806326ec90ae116101b657806326ec90ae146102b357806327e235e3146102dc5780632a97fa77146103195780633098085714610342576101e2565b8062122a10146101e7578063078e84f414610210578063197c9fc5146102395780632453099514610276575b600080fd5b3480156101f357600080fd5b5061020e6004803603610209919081019061393f565b610845565b005b34801561021c57600080fd5b506102376004803603610232919081019061361f565b610855565b005b34801561024557600080fd5b50610260600480360361025b9190810190613869565b61097c565b60405161026d9190614485565b60405180910390f35b34801561028257600080fd5b5061029d60048036036102989190810190613869565b6109b2565b6040516102aa91906144e5565b60405180910390f35b3480156102bf57600080fd5b506102da60048036036102d591908101906137b0565b610a78565b005b3480156102e857600080fd5b5061030360048036036102fe919081019061358a565b610c2b565b60405161031091906147d4565b60405180910390f35b34801561032557600080fd5b50610340600480360361033b919081019061358a565b610c43565b005b34801561034e57600080fd5b5061036960048036036103649190810190613a3b565b610d52565b005b34801561037757600080fd5b50610392600480360361038d9190810190613869565b610f0f565b60405161039f9190614574565b60405180910390f35b3480156103b457600080fd5b506103cf60048036036103ca91908101906136e4565b610fd5565b005b3480156103dd57600080fd5b506103f860048036036103f391908101906137b0565b61118b565b005b34801561040657600080fd5b50610421600480360361041c91908101906138aa565b61133e565b60405161042e91906147d4565b60405180910390f35b34801561044357600080fd5b5061045e6004803603610459919081019061358a565b611381565b60405161046b9190614448565b60405180910390f35b34801561048057600080fd5b5061049b6004803603610496919081019061358a565b6113b4565b6040516104a89190614574565b60405180910390f35b3480156104bd57600080fd5b506104d860048036036104d39190810190613a12565b611464565b6040516104e5919061453e565b60405180910390f35b3480156104fa57600080fd5b50610515600480360361051091908101906136a8565b6114a2565b6040516105229190614574565b60405180910390f35b34801561053757600080fd5b50610552600480360361054d9190810190613869565b611568565b60405161055f9190614559565b60405180910390f35b34801561057457600080fd5b5061058f600480360361058a9190810190613869565b611596565b60405161059c9190614448565b60405180910390f35b6105ad6115df565b005b3480156105bb57600080fd5b506105c4611674565b6040516105d19190614463565b60405180910390f35b3480156105e657600080fd5b5061060160048036036105fc91908101906138eb565b61179a565b005b34801561060f57600080fd5b5061062a600480360361062591908101906138aa565b6117fe565b6040516106379190614596565b60405180910390f35b34801561064c57600080fd5b50610667600480360361066291908101906136a8565b6118fe565b6040516106749190614574565b60405180910390f35b34801561068957600080fd5b506106a4600480360361069f9190810190613869565b6119c4565b6040516106b494939291906145e8565b60405180910390f35b3480156106c957600080fd5b506106e460048036036106df9190810190613869565b611aef565b6040516106f19190614485565b60405180910390f35b34801561070657600080fd5b5061070f611b25565b60405161071c9190614463565b60405180910390f35b34801561073157600080fd5b5061073a611c4b565b6040516107479190614448565b60405180910390f35b34801561075c57600080fd5b506107776004803603610772919081019061393f565b611c74565b005b34801561078557600080fd5b506107a0600480360361079b91908101906135b3565b611f24565b005b3480156107ae57600080fd5b506107c960048036036107c49190810190613869565b611fc2565b6040516107d691906147d4565b60405180910390f35b3480156107eb57600080fd5b50610806600480360361080191908101906139be565b611ff0565b005b34801561081457600080fd5b5061082f600480360361082a91908101906138aa565b61203e565b60405161083c9190614448565b60405180910390f35b610850838383612089565b505050565b6108e88585858080601f016020809104026020016040519081016040528093929190818152602001838380828437600081840152601f19601f8201169050808301925050505050505084848080601f016020809104026020016040519081016040528093929190818152602001838380828437600081840152601f19601f82011690508083019250505050505050612240565b610927576040517f08c379a000000000000000000000000000000000000000000000000000000000815260040161091e90614774565b60405180910390fd5b6109758585858080601f016020809104026020016040519081016040528093929190818152602001838380828437600081840152601f19601f820116905080830192505050505050506122c8565b5050505050565b6003818051602081018201805184825260208301602085012081835280955050505050506000915054906101000a900460ff1681565b600c818051602081018201805184825260208301602085012081835280955050505050506000915090508054600181600116156101000203166002900480601f016020809104026020016040519081016040528092919081815260200182805460018160011615610100020316600290048015610a705780601f10610a4557610100808354040283529160200191610a70565b820191906000526020600020905b815481529060010190602001808311610a5357829003601f168201915b505050505081565b610b5087878080601f016020809104026020016040519081016040528093929190818152602001838380828437600081840152601f19601f8201169050808301925050505050505086868080601f016020809104026020016040519081016040528093929190818152602001838380828437600081840152601f19601f820116905080830192505050505050508585858080601f016020809104026020016040519081016040528093929190818152602001838380828437600081840152601f19601f820116905080830192505050505050506123ec565b610b8f576040517f08c379a0000000000000000000000000000000000000000000000000000000008152600401610b8690614774565b60405180910390fd5b610c2287878080601f016020809104026020016040519081016040528093929190818152602001838380828437600081840152601f19601f8201169050808301925050505050505086868080601f016020809104026020016040519081016040528093929190818152602001838380828437600081840152601f19601f8201169050808301925050505050505085612089565b50505050505050565b60016020528060005260406000206000915090505481565b610c4b612477565b73ffffffffffffffffffffffffffffffffffffffff16600b604051610c6f9061441e565b908152602001604051809103902060009054906101000a900473ffffffffffffffffffffffffffffffffffffffff1673ffffffffffffffffffffffffffffffffffffffff1614610cf4576040517f08c379a0000000000000000000000000000000000000000000000000000000008152600401610ceb90614734565b60405180910390fd5b80600b604051610d0390614409565b908152602001604051809103902060006101000a81548173ffffffffffffffffffffffffffffffffffffffff021916908373ffffffffffffffffffffffffffffffffffffffff16021790555050565b610d5a612477565b73ffffffffffffffffffffffffffffffffffffffff16600b604051610d7e90614409565b908152602001604051809103902060009054906101000a900473ffffffffffffffffffffffffffffffffffffffff1673ffffffffffffffffffffffffffffffffffffffff1614610e03576040517f08c379a0000000000000000000000000000000000000000000000000000000008152600401610dfa90614794565b60405180910390fd5b81600160008373ffffffffffffffffffffffffffffffffffffffff1673ffffffffffffffffffffffffffffffffffffffff1681526020019081526020016000205403600160008373ffffffffffffffffffffffffffffffffffffffff1673ffffffffffffffffffffffffffffffffffffffff16815260200190815260200160002081905550600b604051610e9690614409565b908152602001604051809103902060009054906101000a900473ffffffffffffffffffffffffffffffffffffffff1673ffffffffffffffffffffffffffffffffffffffff166108fc839081150290604051600060405180830381858888f19350505050158015610f0a573d6000803e3d6000fd5b505050565b600d818051602081018201805184825260208301602085012081835280955050505050506000915090508054600181600116156101000203166002900480601f016020809104026020016040519081016040528092919081815260200182805460018160011615610100020316600290048015610fcd5780601f10610fa257610100808354040283529160200191610fcd565b820191906000526020600020905b815481529060010190602001808311610fb057829003601f168201915b505050505081565b6110ae88888080601f016020809104026020016040519081016040528093929190818152602001838380828437600081840152601f19601f82011690508083019250505050505050878787878080601f016020809104026020016040519081016040528093929190818152602001838380828437600081840152601f19601f8201169050808301925050505050505086868080601f016020809104026020016040519081016040528093929190818152602001838380828437600081840152601f19601f82011690508083019250505050505050612529565b6110ed576040517f08c379a00000000000000000000000000000000000000000000000000000000081526004016110e490614774565b60405180910390fd5b61118188888080601f016020809104026020016040519081016040528093929190818152602001838380828437600081840152601f19601f82011690508083019250505050505050878787878080601f016020809104026020016040519081016040528093929190818152602001838380828437600081840152601f19601f820116905080830192505050505050506125b7565b5050505050505050565b61126387878080601f016020809104026020016040519081016040528093929190818152602001838380828437600081840152601f19601f8201169050808301925050505050505086868080601f016020809104026020016040519081016040528093929190818152602001838380828437600081840152601f19601f820116905080830192505050505050508585858080601f016020809104026020016040519081016040528093929190818152602001838380828437600081840152601f19601f82011690508083019250505050505050612970565b6112a2576040517f08c379a000000000000000000000000000000000000000000000000000000000815260040161129990614774565b60405180910390fd5b61133587878080601f016020809104026020016040519081016040528093929190818152602001838380828437600081840152601f19601f8201169050808301925050505050505086868080601f016020809104026020016040519081016040528093929190818152602001838380828437600081840152601f19601f82011690508083019250505050505050856129fb565b50505050505050565b600060028260405161135091906142f6565b908152602001604051809103902060020160149054906101000a900460ff16600381111561137a57fe5b9050919050565b60056020528060005260406000206000915054906101000a900473ffffffffffffffffffffffffffffffffffffffff1681565b60046020528060005260406000206000915090508054600181600116156101000203166002900480601f01602080910402602001604051908101604052809291908181526020018280546001816001161561010002031660029004801561145c5780601f106114315761010080835404028352916020019161145c565b820191906000526020600020905b81548152906001019060200180831161143f57829003601f168201915b505050505081565b60006001821415611478576001905061149d565b600282141561148a576002905061149d565b600382141561149c576003905061149d565b5b919050565b600760205281600052604060002081815481106114bb57fe5b90600052602060002001600091509150508054600181600116156101000203166002900480601f0160208091040260200160405190810160405280929190818152602001828054600181600116156101000203166002900480156115605780601f1061153557610100808354040283529160200191611560565b820191906000526020600020905b81548152906001019060200180831161154357829003601f168201915b505050505081565b6009818051602081018201805184825260208301602085012081835280955050505050506000915090505481565b600b818051602081018201805184825260208301602085012081835280955050505050506000915054906101000a900473ffffffffffffffffffffffffffffffffffffffff1681565b34600160006115ec612477565b73ffffffffffffffffffffffffffffffffffffffff1673ffffffffffffffffffffffffffffffffffffffff168152602001908152602001600020540160016000611634612477565b73ffffffffffffffffffffffffffffffffffffffff1673ffffffffffffffffffffffffffffffffffffffff16815260200190815260200160002081905550565b6060600660003373ffffffffffffffffffffffffffffffffffffffff1673ffffffffffffffffffffffffffffffffffffffff168152602001908152602001600020805480602002602001604051908101604052809291908181526020016000905b82821015611791578382906000526020600020018054600181600116156101000203166002900480601f01602080910402602001604051908101604052809291908181526020018280546001816001161561010002031660029004801561177d5780601f106117525761010080835404028352916020019161177d565b820191906000526020600020905b81548152906001019060200180831161176057829003601f168201915b5050505050815260200190600101906116d5565b50505050905090565b806002836040516117ab91906142f6565b908152602001604051809103902060020160006101000a81548173ffffffffffffffffffffffffffffffffffffffff021916908373ffffffffffffffffffffffffffffffffffffffff1602179055505050565b606060028260405161181091906142f6565b908152602001604051809103902060030160003373ffffffffffffffffffffffffffffffffffffffff1673ffffffffffffffffffffffffffffffffffffffff1681526020019081526020016000208054600181600116156101000203166002900480601f0160208091040260200160405190810160405280929190818152602001828054600181600116156101000203166002900480156118f25780601f106118c7576101008083540402835291602001916118f2565b820191906000526020600020905b8154815290600101906020018083116118d557829003601f168201915b50505050509050919050565b6006602052816000526040600020818154811061191757fe5b90600052602060002001600091509150508054600181600116156101000203166002900480601f0160208091040260200160405190810160405280929190818152602001828054600181600116156101000203166002900480156119bc5780601f10611991576101008083540402835291602001916119bc565b820191906000526020600020905b81548152906001019060200180831161199f57829003601f168201915b505050505081565b600281805160208101820180518482526020830160208501208183528095505050505050600091509050806000018054600181600116156101000203166002900480601f016020809104026020016040519081016040528092919081815260200182805460018160011615610100020316600290048015611a865780601f10611a5b57610100808354040283529160200191611a86565b820191906000526020600020905b815481529060010190602001808311611a6957829003601f168201915b5050505050908060010160009054906101000a900473ffffffffffffffffffffffffffffffffffffffff16908060020160009054906101000a900473ffffffffffffffffffffffffffffffffffffffff16908060020160149054906101000a900460ff16905084565b600a818051602081018201805184825260208301602085012081835280955050505050506000915054906101000a900460ff1681565b6060600760003373ffffffffffffffffffffffffffffffffffffffff1673ffffffffffffffffffffffffffffffffffffffff168152602001908152602001600020805480602002602001604051908101604052809291908181526020016000905b82821015611c42578382906000526020600020018054600181600116156101000203166002900480601f016020809104026020016040519081016040528092919081815260200182805460018160011615610100020316600290048015611c2e5780601f10611c0357610100808354040283529160200191611c2e565b820191906000526020600020905b815481529060010190602001808311611c1157829003601f168201915b505050505081526020019060010190611b86565b50505050905090565b60008060009054906101000a900473ffffffffffffffffffffffffffffffffffffffff16905090565b60405180608001604052808481526020018273ffffffffffffffffffffffffffffffffffffffff168152602001600073ffffffffffffffffffffffffffffffffffffffff16815260200160016003811115611ccb57fe5b815250600284604051611cde91906142f6565b90815260200160405180910390206000820151816000019080519060200190611d089291906132ff565b5060208201518160010160006101000a81548173ffffffffffffffffffffffffffffffffffffffff021916908373ffffffffffffffffffffffffffffffffffffffff16021790555060408201518160020160006101000a81548173ffffffffffffffffffffffffffffffffffffffff021916908373ffffffffffffffffffffffffffffffffffffffff16021790555060608201518160020160146101000a81548160ff02191690836003811115611dbb57fe5b021790555090505081600284604051611dd491906142f6565b908152602001604051809103902060030160008373ffffffffffffffffffffffffffffffffffffffff1673ffffffffffffffffffffffffffffffffffffffff1681526020019081526020016000209080519060200190611e3592919061337f565b506001600384604051611e4891906142f6565b908152602001604051809103902060006101000a81548160ff021916908315150217905550600660008273ffffffffffffffffffffffffffffffffffffffff1673ffffffffffffffffffffffffffffffffffffffff16815260200190815260200160002083908060018154018082558091505060019003906000526020600020016000909190919091509080519060200190611ee592919061337f565b507f144ced1a295f096707ac7e7d8aa1a5a89bc1fd73ea6c8d75de34bba0fe0b132e8382604051611f179291906145b8565b60405180910390a1505050565b611f73848484848080601f016020809104026020016040519081016040528093929190818152602001838380828437600081840152601f19601f82011690508083019250505050505050612de6565b611fb2576040517f08c379a0000000000000000000000000000000000000000000000000000000008152600401611fa990614774565b60405180910390fd5b611fbc8484612e6d565b50505050565b6008818051602081018201805184825260208301602085012081835280955050505050506000915090505481565b611ff981611464565b60028360405161200991906142f6565b908152602001604051809103902060020160146101000a81548160ff0219169083600381111561203557fe5b02179055505050565b600060028260405161205091906142f6565b908152602001604051809103902060010160009054906101000a900473ffffffffffffffffffffffffffffffffffffffff169050919050565b8260038160405161209a91906142f6565b908152602001604051809103902060009054906101000a900460ff166120f5576040517f08c379a00000000000000000000000000000000000000000000000000000000081526004016120ec906146d4565b60405180910390fd5b600060028560405161210791906142f6565b908152602001604051809103902090506002600381111561212457fe5b8160020160149054906101000a900460ff16600381111561214157fe5b14612181576040517f08c379a0000000000000000000000000000000000000000000000000000000008152600401612178906146b4565b60405180910390fd5b8273ffffffffffffffffffffffffffffffffffffffff168160020160009054906101000a900473ffffffffffffffffffffffffffffffffffffffff1673ffffffffffffffffffffffffffffffffffffffff1614612213576040517f08c379a000000000000000000000000000000000000000000000000000000000815260040161220a90614634565b60405180910390fd5b60038160020160146101000a81548160ff0219169083600381111561223457fe5b02179055505050505050565b60008061228485856003600481111561225557fe5b3060405160200161226994939291906142ac565b60405160208183030381529060405280519060200120613088565b90508473ffffffffffffffffffffffffffffffffffffffff166122a782856130b8565b73ffffffffffffffffffffffffffffffffffffffff16149150509392505050565b816040516020016122d890614433565b60405160208183030381529060405280519060200120600460008373ffffffffffffffffffffffffffffffffffffffff1673ffffffffffffffffffffffffffffffffffffffff16815260200190815260200160002060405160200161233d91906143cc565b6040516020818303038152906040528051906020012014612393576040517f08c379a000000000000000000000000000000000000000000000000000000000815260040161238a906147b4565b60405180910390fd5b81600460008573ffffffffffffffffffffffffffffffffffffffff1673ffffffffffffffffffffffffffffffffffffffff16815260200190815260200160002090805190602001906123e692919061337f565b50505050565b6000806124328686866002600481111561240257fe5b30604051602001612417959493929190614375565b60405160208183030381529060405280519060200120613088565b90508373ffffffffffffffffffffffffffffffffffffffff1661245582856130b8565b73ffffffffffffffffffffffffffffffffffffffff1614915050949350505050565b600060186000369050101580156124c05750612491611c4b565b73ffffffffffffffffffffffffffffffffffffffff163373ffffffffffffffffffffffffffffffffffffffff16145b156125225761251b6000368080601f016020809104026020016040519081016040528093929190818152602001838380828437600081840152601f19601f820116905080830192505050505050506014600036905003613127565b9050612526565b3390505b90565b600080612571878787876001600481111561254057fe5b306040516020016125569695949392919061430d565b60405160208183030381529060405280519060200120613088565b90508573ffffffffffffffffffffffffffffffffffffffff1661259482856130b8565b73ffffffffffffffffffffffffffffffffffffffff161491505095945050505050565b836003816040516125c891906142f6565b908152602001604051809103902060009054906101000a900460ff16612623576040517f08c379a000000000000000000000000000000000000000000000000000000000815260040161261a906146d4565b60405180910390fd5b84848073ffffffffffffffffffffffffffffffffffffffff1660028360405161264c91906142f6565b908152602001604051809103902060010160009054906101000a900473ffffffffffffffffffffffffffffffffffffffff1673ffffffffffffffffffffffffffffffffffffffff16146126d4576040517f08c379a00000000000000000000000000000000000000000000000000000000081526004016126cb90614674565b60405180910390fd5b846040516020016126e490614433565b60405160208183030381529060405280519060200120600460008373ffffffffffffffffffffffffffffffffffffffff1673ffffffffffffffffffffffffffffffffffffffff16815260200190815260200160002060405160200161274991906143cc565b6040516020818303038152906040528051906020012014156127a0576040517f08c379a0000000000000000000000000000000000000000000000000000000008152600401612797906146f4565b60405180910390fd5b60006002896040516127b291906142f6565b90815260200160405180910390209050600260038111156127cf57fe5b8160020160149054906101000a900460ff1660038111156127ec57fe5b141561282d576040517f08c379a000000000000000000000000000000000000000000000000000000000815260040161282490614754565b60405180910390fd5b868160020160006101000a81548173ffffffffffffffffffffffffffffffffffffffff021916908373ffffffffffffffffffffffffffffffffffffffff160217905550858160030160008973ffffffffffffffffffffffffffffffffffffffff1673ffffffffffffffffffffffffffffffffffffffff16815260200190815260200160002090805190602001906128c592919061337f565b5060028160020160146101000a81548160ff021916908360038111156128e757fe5b0217905550600760008873ffffffffffffffffffffffffffffffffffffffff1673ffffffffffffffffffffffffffffffffffffffff1681526020019081526020016000208990806001815401808255809150506001900390600052602060002001600090919091909150908051906020019061296492919061337f565b50505050505050505050565b6000806129b68686866000600481111561298657fe5b3060405160200161299b959493929190614375565b60405160208183030381529060405280519060200120613088565b90508373ffffffffffffffffffffffffffffffffffffffff166129d982856130b8565b73ffffffffffffffffffffffffffffffffffffffff1614915050949350505050565b82600381604051612a0c91906142f6565b908152602001604051809103902060009054906101000a900460ff1615612a68576040517f08c379a0000000000000000000000000000000000000000000000000000000008152600401612a5f90614654565b60405180910390fd5b81604051602001612a7890614433565b60405160208183030381529060405280519060200120600460008373ffffffffffffffffffffffffffffffffffffffff1673ffffffffffffffffffffffffffffffffffffffff168152602001908152602001600020604051602001612add91906143cc565b604051602081830303815290604052805190602001201415612b34576040517f08c379a0000000000000000000000000000000000000000000000000000000008152600401612b2b906146f4565b60405180910390fd5b60405180608001604052808681526020018473ffffffffffffffffffffffffffffffffffffffff168152602001600073ffffffffffffffffffffffffffffffffffffffff16815260200160016003811115612b8b57fe5b815250600286604051612b9e91906142f6565b90815260200160405180910390206000820151816000019080519060200190612bc89291906132ff565b5060208201518160010160006101000a81548173ffffffffffffffffffffffffffffffffffffffff021916908373ffffffffffffffffffffffffffffffffffffffff16021790555060408201518160020160006101000a81548173ffffffffffffffffffffffffffffffffffffffff021916908373ffffffffffffffffffffffffffffffffffffffff16021790555060608201518160020160146101000a81548160ff02191690836003811115612c7b57fe5b021790555090505083600286604051612c9491906142f6565b908152602001604051809103902060030160008573ffffffffffffffffffffffffffffffffffffffff1673ffffffffffffffffffffffffffffffffffffffff1681526020019081526020016000209080519060200190612cf592919061337f565b506001600386604051612d0891906142f6565b908152602001604051809103902060006101000a81548160ff021916908315150217905550600660008473ffffffffffffffffffffffffffffffffffffffff1673ffffffffffffffffffffffffffffffffffffffff16815260200190815260200160002085908060018154018082558091505060019003906000526020600020016000909190919091509080519060200190612da592919061337f565b507f144ced1a295f096707ac7e7d8aa1a5a89bc1fd73ea6c8d75de34bba0fe0b132e8584604051612dd79291906145b8565b60405180910390a15050505050565b600080612e298585600480811115612dfa57fe5b30604051602001612e0e949392919061425e565b60405160208183030381529060405280519060200120613088565b90508473ffffffffffffffffffffffffffffffffffffffff16612e4c82856130b8565b73ffffffffffffffffffffffffffffffffffffffff16149150509392505050565b81604051602001612e7d90614433565b60405160208183030381529060405280519060200120600460008373ffffffffffffffffffffffffffffffffffffffff1673ffffffffffffffffffffffffffffffffffffffff168152602001908152602001600020604051602001612ee291906143cc565b604051602081830303815290604052805190602001201415612f39576040517f08c379a0000000000000000000000000000000000000000000000000000000008152600401612f30906146f4565b60405180910390fd5b81604051602001612f4990614433565b60405160208183030381529060405280519060200120600460008373ffffffffffffffffffffffffffffffffffffffff1673ffffffffffffffffffffffffffffffffffffffff168152602001908152602001600020604051602001612fae91906143cc565b6040516020818303038152906040528051906020012014613004576040517f08c379a0000000000000000000000000000000000000000000000000000000008152600401612ffb906147b4565b60405180910390fd5b83600560008573ffffffffffffffffffffffffffffffffffffffff1673ffffffffffffffffffffffffffffffffffffffff16815260200190815260200160002060006101000a81548173ffffffffffffffffffffffffffffffffffffffff021916908373ffffffffffffffffffffffffffffffffffffffff16021790555050505050565b60008160405160200161309b91906143e3565b604051602081830303815290604052805190602001209050919050565b6000806000806130c785613179565b925092509250600186848484604051600081526020016040526040516130f094939291906144a0565b6020604051602081039080840390855afa158015613112573d6000803e3d6000fd5b50505060206040510351935050505092915050565b6000601482018351101561314e5761314d6131486004855160148601613272565b6132f7565b5b60148201915073ffffffffffffffffffffffffffffffffffffffff8284015116905080905092915050565b6000806000604184511461318c57600080fd5b6020840151915060408401519050606084015160001a92507f7fffffffffffffffffffffffffffffff5d576e7357a4501ddfe92f46681b20a08160001c111561320a576040517f08c379a000000000000000000000000000000000000000000000000000000000815260040161320190614694565b60405180910390fd5b601b8360ff16141580156132225750601c8360ff1614155b15613262576040517f08c379a000000000000000000000000000000000000000000000000000000000815260040161325990614714565b60405180910390fd5b8282829250925092509193909250565b6060632800659560e01b84848460405160240161329193929190614507565b604051602081830303815290604052907bffffffffffffffffffffffffffffffffffffffffffffffffffffffff19166020820180517bffffffffffffffffffffffffffffffffffffffffffffffffffffffff838183161783525050505090509392505050565b805160208201fd5b828054600181600116156101000203166002900490600052602060002090601f016020900481019282601f1061334057805160ff191683800117855561336e565b8280016001018555821561336e579182015b8281111561336d578251825591602001919060010190613352565b5b50905061337b91906133ff565b5090565b828054600181600116156101000203166002900490600052602060002090601f016020900481019282601f106133c057805160ff19168380011785556133ee565b828001600101855582156133ee579182015b828111156133ed5782518255916020019190600101906133d2565b5b5090506133fb91906133ff565b5090565b61342191905b8082111561341d576000816000905550600101613405565b5090565b90565b60008135905061343381614a86565b92915050565b60008083601f84011261344b57600080fd5b8235905067ffffffffffffffff81111561346457600080fd5b60208301915083600182028301111561347c57600080fd5b9250929050565b60008083601f84011261349557600080fd5b8235905067ffffffffffffffff8111156134ae57600080fd5b6020830191508360018202830111156134c657600080fd5b9250929050565b600082601f8301126134de57600080fd5b81356134f16134ec8261481c565b6147ef565b9150808252602083016020830185838301111561350d57600080fd5b6135188382846149d4565b50505092915050565b600082601f83011261353257600080fd5b813561354561354082614848565b6147ef565b9150808252602083016020830185838301111561356157600080fd5b61356c8382846149d4565b50505092915050565b60008135905061358481614a9d565b92915050565b60006020828403121561359c57600080fd5b60006135aa84828501613424565b91505092915050565b600080600080606085870312156135c957600080fd5b60006135d787828801613424565b94505060206135e887828801613424565b935050604085013567ffffffffffffffff81111561360557600080fd5b61361187828801613439565b925092505092959194509250565b60008060008060006060868803121561363757600080fd5b600061364588828901613424565b955050602086013567ffffffffffffffff81111561366257600080fd5b61366e88828901613483565b9450945050604086013567ffffffffffffffff81111561368d57600080fd5b61369988828901613439565b92509250509295509295909350565b600080604083850312156136bb57600080fd5b60006136c985828601613424565b92505060206136da85828601613575565b9150509250929050565b60008060008060008060008060a0898b03121561370057600080fd5b600089013567ffffffffffffffff81111561371a57600080fd5b6137268b828c01613483565b985098505060206137398b828c01613424565b965050604061374a8b828c01613424565b955050606089013567ffffffffffffffff81111561376757600080fd5b6137738b828c01613483565b9450945050608089013567ffffffffffffffff81111561379257600080fd5b61379e8b828c01613439565b92509250509295985092959890939650565b60008060008060008060006080888a0312156137cb57600080fd5b600088013567ffffffffffffffff8111156137e557600080fd5b6137f18a828b01613483565b9750975050602088013567ffffffffffffffff81111561381057600080fd5b61381c8a828b01613483565b9550955050604061382f8a828b01613424565b935050606088013567ffffffffffffffff81111561384c57600080fd5b6138588a828b01613439565b925092505092959891949750929550565b60006020828403121561387b57600080fd5b600082013567ffffffffffffffff81111561389557600080fd5b6138a1848285016134cd565b91505092915050565b6000602082840312156138bc57600080fd5b600082013567ffffffffffffffff8111156138d657600080fd5b6138e284828501613521565b91505092915050565b600080604083850312156138fe57600080fd5b600083013567ffffffffffffffff81111561391857600080fd5b61392485828601613521565b925050602061393585828601613424565b9150509250929050565b60008060006060848603121561395457600080fd5b600084013567ffffffffffffffff81111561396e57600080fd5b61397a86828701613521565b935050602084013567ffffffffffffffff81111561399757600080fd5b6139a386828701613521565b92505060406139b486828701613424565b9150509250925092565b600080604083850312156139d157600080fd5b600083013567ffffffffffffffff8111156139eb57600080fd5b6139f785828601613521565b9250506020613a0885828601613575565b9150509250929050565b600060208284031215613a2457600080fd5b6000613a3284828501613575565b91505092915050565b60008060408385031215613a4e57600080fd5b6000613a5c85828601613575565b9250506020613a6d85828601613424565b9150509250929050565b6000613a838383613c2b565b905092915050565b613a9481614921565b82525050565b613aab613aa682614921565b614a16565b82525050565b6000613abc82614899565b613ac681856148d2565b935083602082028501613ad885614874565b8060005b85811015613b145784840389528151613af58582613a77565b9450613b00836148c5565b925060208a01995050600181019050613adc565b50829750879550505050505092915050565b613b2f81614933565b82525050565b613b3e8161493f565b82525050565b613b55613b508261493f565b614a28565b82525050565b6000613b66826148a4565b613b7081856148e3565b9350613b808185602086016149e3565b613b8981614a4e565b840191505092915050565b613b9d816149b0565b82525050565b613bac816149c2565b82525050565b613bbb8161496f565b82525050565b6000613bcc826148ba565b613bd68185614905565b9350613be68185602086016149e3565b613bef81614a4e565b840191505092915050565b6000613c05826148ba565b613c0f8185614916565b9350613c1f8185602086016149e3565b80840191505092915050565b6000613c36826148af565b613c4081856148f4565b9350613c508185602086016149e3565b613c5981614a4e565b840191505092915050565b6000613c6f826148af565b613c798185614905565b9350613c898185602086016149e3565b613c9281614a4e565b840191505092915050565b600081546001811660008114613cba5760018114613cdf57613d23565b607f6002830416613ccb8187614916565b955060ff1983168652808601935050613d23565b60028204613ced8187614916565b9550613cf885614884565b60005b82811015613d1a57815481890152600182019150602081019050613cfb565b82880195505050505b505092915050565b6000613d38601c83614916565b91507f19457468657265756d205369676e6564204d6573736167653a0a3332000000006000830152601c82019050919050565b6000613d78603a83614905565b91507f4f6e6c79207468652061737369676e207369676e656520627920746865206f7760008301527f6e65722063616e207369676e2074686520646f63756d656e742e0000000000006020830152604082019050919050565b6000613dde600983614916565b91507f5061796d617374657200000000000000000000000000000000000000000000006000830152600982019050919050565b6000613e1e601783614905565b91507f446f63756d656e7420616c72656164792065786973742e0000000000000000006000830152602082019050919050565b6000613e5e603283614905565b91507f4f6e6c7920746865206f776e6572206f662074686520646f63756d656e74206360008301527f616e20646f207468697320616374696f6e2e00000000000000000000000000006020830152604082019050919050565b6000613ec4602283614905565b91507f45434453413a20696e76616c6964207369676e6174757265202773272076616c60008301527f75650000000000000000000000000000000000000000000000000000000000006020830152604082019050919050565b6000613f2a602e83614905565b91507f446f63756d656e742073746174652069736e277420696e205369676e696e672060008301527f50656e64696e672053746174652e0000000000000000000000000000000000006020830152604082019050919050565b6000613f90601683614905565b91507f446f63756d656e74206469646e27742065786973742e000000000000000000006000830152602082019050919050565b6000613fd0601583614905565b91507f4163636f756e74206469646e27742065786973742e00000000000000000000006000830152602082019050919050565b6000614010602283614905565b91507f45434453413a20696e76616c6964207369676e6174757265202776272076616c60008301527f75650000000000000000000000000000000000000000000000000000000000006020830152604082019050919050565b6000614076600583614916565b91507f4f776e65720000000000000000000000000000000000000000000000000000006000830152600582019050919050565b60006140b6602083614905565b91507f4f776e61626c653a2063616c6c6572206973206e6f7420746865206f776e65726000830152602082019050919050565b60006140f6604d83614905565b91507f43616e6e6f742061736b20666f7220616e6f74686572207369676e617475726560008301527f20696620746865206c617374207369676e6565206469646e2074207369676e2060208301527f74686520646f63756d656e742e000000000000000000000000000000000000006040830152606082019050919050565b6000614182601783614905565b91507f5369676e6174757265206973206e6f742076616c69642e0000000000000000006000830152602082019050919050565b60006141c2600083614905565b9150600082019050919050565b60006141dc600083614916565b9150600082019050919050565b60006141f6601683614905565b91507f4163636f756e7420616c72656164792065786973742e000000000000000000006000830152602082019050919050565b61423281614999565b82525050565b61424961424482614999565b614a44565b82525050565b614258816149a3565b82525050565b600061426a8287613a9a565b60148201915061427a8286613a9a565b60148201915061428a8285614238565b60208201915061429a8284613a9a565b60148201915081905095945050505050565b60006142b88287613a9a565b6014820191506142c88286613bfa565b91506142d48285614238565b6020820191506142e48284613a9a565b60148201915081905095945050505050565b60006143028284613bfa565b915081905092915050565b60006143198289613bfa565b91506143258288613a9a565b6014820191506143358287613a9a565b6014820191506143458286613bfa565b91506143518285614238565b6020820191506143618284613a9a565b601482019150819050979650505050505050565b60006143818288613bfa565b915061438d8287613bfa565b91506143998286613a9a565b6014820191506143a98285614238565b6020820191506143b98284613a9a565b6014820191508190509695505050505050565b60006143d88284613c9d565b915081905092915050565b60006143ee82613d2b565b91506143fa8284613b44565b60208201915081905092915050565b600061441482613dd1565b9150819050919050565b600061442982614069565b9150819050919050565b600061443e826141cf565b9150819050919050565b600060208201905061445d6000830184613a8b565b92915050565b6000602082019050818103600083015261447d8184613ab1565b905092915050565b600060208201905061449a6000830184613b26565b92915050565b60006080820190506144b56000830187613b35565b6144c2602083018661424f565b6144cf6040830185613b35565b6144dc6060830184613b35565b95945050505050565b600060208201905081810360008301526144ff8184613b5b565b905092915050565b600060608201905061451c6000830186613b94565b6145296020830185614229565b6145366040830184614229565b949350505050565b60006020820190506145536000830184613ba3565b92915050565b600060208201905061456e6000830184613bb2565b92915050565b6000602082019050818103600083015261458e8184613c64565b905092915050565b600060208201905081810360008301526145b08184613bc1565b905092915050565b600060408201905081810360008301526145d28185613bc1565b90506145e16020830184613a8b565b9392505050565b600060808201905081810360008301526146028187613c64565b90506146116020830186613a8b565b61461e6040830185613a8b565b61462b6060830184613ba3565b95945050505050565b6000602082019050818103600083015261464d81613d6b565b9050919050565b6000602082019050818103600083015261466d81613e11565b9050919050565b6000602082019050818103600083015261468d81613e51565b9050919050565b600060208201905081810360008301526146ad81613eb7565b9050919050565b600060208201905081810360008301526146cd81613f1d565b9050919050565b600060208201905081810360008301526146ed81613f83565b9050919050565b6000602082019050818103600083015261470d81613fc3565b9050919050565b6000602082019050818103600083015261472d81614003565b9050919050565b6000602082019050818103600083015261474d816140a9565b9050919050565b6000602082019050818103600083015261476d816140e9565b9050919050565b6000602082019050818103600083015261478d81614175565b9050919050565b600060208201905081810360008301526147ad816141b5565b9050919050565b600060208201905081810360008301526147cd816141e9565b9050919050565b60006020820190506147e96000830184614229565b92915050565b6000604051905081810181811067ffffffffffffffff8211171561481257600080fd5b8060405250919050565b600067ffffffffffffffff82111561483357600080fd5b601f19601f8301169050602081019050919050565b600067ffffffffffffffff82111561485f57600080fd5b601f19601f8301169050602081019050919050565b6000819050602082019050919050565b60008190508160005260206000209050919050565b600081519050919050565b600081519050919050565b600081519050919050565b600081519050919050565b6000602082019050919050565b600082825260208201905092915050565b600082825260208201905092915050565b600082825260208201905092915050565b600082825260208201905092915050565b600081905092915050565b600061492c82614979565b9050919050565b60008115159050919050565b6000819050919050565b600081905061495782614a6c565b919050565b600081905061496a82614a79565b919050565b6000819050919050565b600073ffffffffffffffffffffffffffffffffffffffff82169050919050565b6000819050919050565b600060ff82169050919050565b60006149bb82614949565b9050919050565b60006149cd8261495c565b9050919050565b82818337600083830152505050565b60005b83811015614a015780820151818401526020810190506149e6565b83811115614a10576000848401525b50505050565b6000614a2182614a32565b9050919050565b6000819050919050565b6000614a3d82614a5f565b9050919050565b6000819050919050565b6000601f19601f8301169050919050565b60008160601b9050919050565b60088110614a7657fe5b50565b60048110614a8357fe5b50565b614a8f81614921565b8114614a9a57600080fd5b50565b614aa681614999565b8114614ab157600080fd5b5056fea26469706673582212205257b9b938993838a6e31acd1922589be4c22abd31ed3705911e1c64829ffdbc64736f6c63430006020033",
  "source": "pragma solidity ^0.6.2;\npragma experimental ABIEncoderV2;\n\nimport \"./../SignDocuBussiness.sol\";\nimport \"./../SignDocuStorage.sol\";\n\ncontract Utils {\n    function getStateFromUint(uint256 _state) public returns(State) {\n        if (_state == 1) {\n            return State.Created;\n        }\n        if (_state == 2) {\n            return State.SignPending;\n        }\n        if (_state == 3) {\n            return State.Signed;\n        }\n    }\n}\n\n\n// To deal with 24576 bytes limit\n\ncontract ProxyForAccountCreation is SignDocuBussiness {\n    function createAccountMock(address _sender, string memory _accountPubKey) public {\n        createAccount(_sender, _accountPubKey);\n    }\n}\n\ncontract ProxyForApprovingAccountCreation is SignDocuBussiness {\n    function createAccountMock(address _sender, string memory _accountPubKey) public {\n        createAccount(_sender, _accountPubKey);\n    }\n\n    function resetAccountMock(address _sender, string memory _accountPubKey) public {\n        accounts[_sender] = _accountPubKey;\n    }\n\n    function allowAccountCreationMock(address _sender, address _allowed) public {\n        allowAccountCreation(_sender, _allowed);\n    }\n}\n\ncontract ProxyForDocumentCreation is SignDocuBussiness {\n    function createAccountMock(address _sender, string memory _accountPubKey) public {\n        createAccount(_sender, _accountPubKey);\n    }\n    function resetAccountMock(address _sender, string memory _accountPubKey) public {\n        accounts[_sender] = _accountPubKey;\n    }\n\n    function createDocumentMock(string memory _cid, string memory _secret, address _sender) public {\n        createDocument(_cid, _secret, _sender);\n    }\n}\n\ncontract ProxyForDocumentSignatureApproval is SignDocuBussiness {\n    function createAccountMock(address _sender, string memory _accountPubKey) public {\n        createAccount(_sender, _accountPubKey);\n    }\n\n    function createDocumentMock(string memory _cid, string memory _secret, address _sender) public {\n        documents[_cid] = Document({cid : _cid, owner : _sender, newSignee : address(0x00), state : State.Created});\n        documents[_cid].secrets[_sender] = _secret;\n        documentsExist[_cid] = true;\n        creators[_sender].push(_cid);\n\n        emit DocumentCreated(_cid, _sender);\n    }\n\n    function approveToSignMock(string memory _cid, address _sender, address _newSignee, string memory _secret) public {\n        approveToSign(_cid, _sender, _newSignee, _secret);\n    }\n}\n\ncontract ProxyForDocumentSigning is SignDocuBussiness, Utils {\n\n    function createDocumentMock(string memory _cid, string memory _secret, address _sender) public {\n        documents[_cid] = Document({cid : _cid, owner : _sender, newSignee : address(0x00), state : State.Created});\n        documents[_cid].secrets[_sender] = _secret;\n        documentsExist[_cid] = true;\n        creators[_sender].push(_cid);\n\n        emit DocumentCreated(_cid, _sender);\n    }\n\n    function setDocumentState(string memory _cid, uint256 _state) public {\n        documents[_cid].state = getStateFromUint(_state);\n    }\n\n    function setSignee(string memory _cid, address _signee) public {\n        documents[_cid].newSignee = _signee;\n    }\n\n    function signMock(string memory _cid, string memory _secret, address _sender) public {\n        sign(_cid, _secret, _sender);\n    }\n}",
  "sourcePath": "/Users/mariejoseph/Documents/HackFS/IPFS/contracts/Mocks/SignDocuBussinessMock.sol",
  "compiler": {
    "name": "solc",
    "version": "0.6.2+commit.bacdbe57.Emscripten.clang"
  },
  "schemaVersion": "3.2.0",
  "updatedAt": "2020-08-29T21:23:44.287Z",
  "devdoc": {
    "methods": {}
  },
  "userdoc": {
    "methods": {}
  }
}