{
  "contractName": "ProxyForDocumentCreation",
  "abi": [
    {
      "anonymous": false,
      "inputs": [
        {
          "indexed": false,
          "internalType": "string",
          "name": "cid",
          "type": "string"
        },
        {
          "indexed": false,
          "internalType": "address",
          "name": "creator",
          "type": "address"
        }
      ],
      "name": "DocumentCreated",
      "type": "event"
    },
    {
      "anonymous": false,
      "inputs": [
        {
          "indexed": true,
          "internalType": "address",
          "name": "previousOwner",
          "type": "address"
        },
        {
          "indexed": true,
          "internalType": "address",
          "name": "newOwner",
          "type": "address"
        }
      ],
      "name": "OwnershipTransferred",
      "type": "event"
    },
    {
      "anonymous": false,
      "inputs": [
        {
          "indexed": false,
          "internalType": "string",
          "name": "cid",
          "type": "string"
        },
        {
          "indexed": false,
          "internalType": "address",
          "name": "signee",
          "type": "address"
        }
      ],
      "name": "Signature",
      "type": "event"
    },
    {
      "inputs": [
        {
          "internalType": "address",
          "name": "",
          "type": "address"
        }
      ],
      "name": "accounts",
      "outputs": [
        {
          "internalType": "string",
          "name": "",
          "type": "string"
        }
      ],
      "stateMutability": "view",
      "type": "function"
    },
    {
      "inputs": [
        {
          "internalType": "string",
          "name": "",
          "type": "string"
        }
      ],
      "name": "addressStorage",
      "outputs": [
        {
          "internalType": "address",
          "name": "",
          "type": "address"
        }
      ],
      "stateMutability": "view",
      "type": "function"
    },
    {
      "inputs": [
        {
          "internalType": "address",
          "name": "_sender",
          "type": "address"
        },
        {
          "internalType": "address",
          "name": "_allowedAccount",
          "type": "address"
        },
        {
          "internalType": "bytes",
          "name": "_signature",
          "type": "bytes"
        }
      ],
      "name": "allowAccountCreation",
      "outputs": [],
      "stateMutability": "nonpayable",
      "type": "function"
    },
    {
      "inputs": [
        {
          "internalType": "address",
          "name": "",
          "type": "address"
        }
      ],
      "name": "allowedBy",
      "outputs": [
        {
          "internalType": "address",
          "name": "",
          "type": "address"
        }
      ],
      "stateMutability": "view",
      "type": "function"
    },
    {
      "inputs": [
        {
          "internalType": "string",
          "name": "_cid",
          "type": "string"
        },
        {
          "internalType": "address",
          "name": "_sender",
          "type": "address"
        },
        {
          "internalType": "address",
          "name": "_newSignee",
          "type": "address"
        },
        {
          "internalType": "string",
          "name": "_secret",
          "type": "string"
        },
        {
          "internalType": "bytes",
          "name": "_signature",
          "type": "bytes"
        }
      ],
      "name": "approveToSign",
      "outputs": [],
      "stateMutability": "nonpayable",
      "type": "function"
    },
    {
      "inputs": [
        {
          "internalType": "address",
          "name": "",
          "type": "address"
        }
      ],
      "name": "balances",
      "outputs": [
        {
          "internalType": "uint256",
          "name": "",
          "type": "uint256"
        }
      ],
      "stateMutability": "view",
      "type": "function"
    },
    {
      "inputs": [
        {
          "internalType": "string",
          "name": "",
          "type": "string"
        }
      ],
      "name": "boolStorage",
      "outputs": [
        {
          "internalType": "bool",
          "name": "",
          "type": "bool"
        }
      ],
      "stateMutability": "view",
      "type": "function"
    },
    {
      "inputs": [
        {
          "internalType": "string",
          "name": "",
          "type": "string"
        }
      ],
      "name": "bytesStorage",
      "outputs": [
        {
          "internalType": "bytes",
          "name": "",
          "type": "bytes"
        }
      ],
      "stateMutability": "view",
      "type": "function"
    },
    {
      "inputs": [
        {
          "internalType": "address",
          "name": "_sender",
          "type": "address"
        },
        {
          "internalType": "string",
          "name": "_accountPubKey",
          "type": "string"
        },
        {
          "internalType": "bytes",
          "name": "_signature",
          "type": "bytes"
        }
      ],
      "name": "createAccount",
      "outputs": [],
      "stateMutability": "nonpayable",
      "type": "function"
    },
    {
      "inputs": [
        {
          "internalType": "string",
          "name": "_cid",
          "type": "string"
        },
        {
          "internalType": "string",
          "name": "_secret",
          "type": "string"
        },
        {
          "internalType": "address",
          "name": "_sender",
          "type": "address"
        },
        {
          "internalType": "bytes",
          "name": "_signature",
          "type": "bytes"
        }
      ],
      "name": "createDocument",
      "outputs": [],
      "stateMutability": "nonpayable",
      "type": "function"
    },
    {
      "inputs": [
        {
          "internalType": "address",
          "name": "",
          "type": "address"
        },
        {
          "internalType": "uint256",
          "name": "",
          "type": "uint256"
        }
      ],
      "name": "creators",
      "outputs": [
        {
          "internalType": "string",
          "name": "",
          "type": "string"
        }
      ],
      "stateMutability": "view",
      "type": "function"
    },
    {
      "inputs": [
        {
          "internalType": "string",
          "name": "",
          "type": "string"
        }
      ],
      "name": "documents",
      "outputs": [
        {
          "internalType": "string",
          "name": "cid",
          "type": "string"
        },
        {
          "internalType": "address",
          "name": "owner",
          "type": "address"
        },
        {
          "internalType": "address",
          "name": "newSignee",
          "type": "address"
        },
        {
          "internalType": "enum State",
          "name": "state",
          "type": "uint8"
        }
      ],
      "stateMutability": "view",
      "type": "function"
    },
    {
      "inputs": [
        {
          "internalType": "address",
          "name": "",
          "type": "address"
        },
        {
          "internalType": "uint256",
          "name": "",
          "type": "uint256"
        }
      ],
      "name": "documentsBySignee",
      "outputs": [
        {
          "internalType": "string",
          "name": "",
          "type": "string"
        }
      ],
      "stateMutability": "view",
      "type": "function"
    },
    {
      "inputs": [
        {
          "internalType": "string",
          "name": "",
          "type": "string"
        }
      ],
      "name": "documentsExist",
      "outputs": [
        {
          "internalType": "bool",
          "name": "",
          "type": "bool"
        }
      ],
      "stateMutability": "view",
      "type": "function"
    },
    {
      "inputs": [],
      "name": "getCreatedDocument",
      "outputs": [
        {
          "internalType": "string[]",
          "name": "",
          "type": "string[]"
        }
      ],
      "stateMutability": "view",
      "type": "function"
    },
    {
      "inputs": [
        {
          "internalType": "string",
          "name": "_cid",
          "type": "string"
        }
      ],
      "name": "getDocumentSecret",
      "outputs": [
        {
          "internalType": "string",
          "name": "",
          "type": "string"
        }
      ],
      "stateMutability": "view",
      "type": "function"
    },
    {
      "inputs": [
        {
          "internalType": "string",
          "name": "_cid",
          "type": "string"
        }
      ],
      "name": "getDocumentState",
      "outputs": [
        {
          "internalType": "uint256",
          "name": "",
          "type": "uint256"
        }
      ],
      "stateMutability": "view",
      "type": "function"
    },
    {
      "inputs": [
        {
          "internalType": "uint256",
          "name": "_fee",
          "type": "uint256"
        },
        {
          "internalType": "address",
          "name": "_accountPayingFees",
          "type": "address"
        }
      ],
      "name": "getFeeByPaymaster",
      "outputs": [],
      "stateMutability": "nonpayable",
      "type": "function"
    },
    {
      "inputs": [
        {
          "internalType": "string",
          "name": "_cid",
          "type": "string"
        }
      ],
      "name": "getOwnerOfDocument",
      "outputs": [
        {
          "internalType": "address",
          "name": "",
          "type": "address"
        }
      ],
      "stateMutability": "view",
      "type": "function"
    },
    {
      "inputs": [],
      "name": "getSigneeDocument",
      "outputs": [
        {
          "internalType": "string[]",
          "name": "",
          "type": "string[]"
        }
      ],
      "stateMutability": "view",
      "type": "function"
    },
    {
      "inputs": [],
      "name": "getTrustedForwarder",
      "outputs": [
        {
          "internalType": "address",
          "name": "",
          "type": "address"
        }
      ],
      "stateMutability": "view",
      "type": "function"
    },
    {
      "inputs": [
        {
          "internalType": "string",
          "name": "",
          "type": "string"
        }
      ],
      "name": "int256Storage",
      "outputs": [
        {
          "internalType": "int256",
          "name": "",
          "type": "int256"
        }
      ],
      "stateMutability": "view",
      "type": "function"
    },
    {
      "inputs": [],
      "name": "sendPayement",
      "outputs": [],
      "stateMutability": "payable",
      "type": "function"
    },
    {
      "inputs": [
        {
          "internalType": "address",
          "name": "_paymaster",
          "type": "address"
        }
      ],
      "name": "setPaymaster",
      "outputs": [],
      "stateMutability": "nonpayable",
      "type": "function"
    },
    {
      "inputs": [
        {
          "internalType": "string",
          "name": "_cid",
          "type": "string"
        },
        {
          "internalType": "string",
          "name": "_secret",
          "type": "string"
        },
        {
          "internalType": "address",
          "name": "_sender",
          "type": "address"
        },
        {
          "internalType": "bytes",
          "name": "_signature",
          "type": "bytes"
        }
      ],
      "name": "sign",
      "outputs": [],
      "stateMutability": "nonpayable",
      "type": "function"
    },
    {
      "inputs": [
        {
          "internalType": "string",
          "name": "",
          "type": "string"
        }
      ],
      "name": "stringStorage",
      "outputs": [
        {
          "internalType": "string",
          "name": "",
          "type": "string"
        }
      ],
      "stateMutability": "view",
      "type": "function"
    },
    {
      "inputs": [
        {
          "internalType": "string",
          "name": "",
          "type": "string"
        }
      ],
      "name": "uint256Storage",
      "outputs": [
        {
          "internalType": "uint256",
          "name": "",
          "type": "uint256"
        }
      ],
      "stateMutability": "view",
      "type": "function"
    },
    {
      "inputs": [
        {
          "internalType": "address",
          "name": "_sender",
          "type": "address"
        },
        {
          "internalType": "string",
          "name": "_accountPubKey",
          "type": "string"
        }
      ],
      "name": "createAccountMock",
      "outputs": [],
      "stateMutability": "nonpayable",
      "type": "function"
    },
    {
      "inputs": [
        {
          "internalType": "address",
          "name": "_sender",
          "type": "address"
        },
        {
          "internalType": "string",
          "name": "_accountPubKey",
          "type": "string"
        }
      ],
      "name": "resetAccountMock",
      "outputs": [],
      "stateMutability": "nonpayable",
      "type": "function"
    },
    {
      "inputs": [
        {
          "internalType": "string",
          "name": "_cid",
          "type": "string"
        },
        {
          "internalType": "string",
          "name": "_secret",
          "type": "string"
        },
        {
          "internalType": "address",
          "name": "_sender",
          "type": "address"
        }
      ],
      "name": "createDocumentMock",
      "outputs": [],
      "stateMutability": "nonpayable",
      "type": "function"
    }
  ],
  "bytecode": "0x608060405234801561001057600080fd5b5061469d806100206000396000f3fe6080604052600436106101cd5760003560e01c80637547b64e116100f7578063ba8ef30311610095578063dd891e4f11610064578063dd891e4f146106fe578063e12b6c1d14610727578063e5b0b90c14610750578063ff86e28c1461078d576101cd565b8063ba8ef30314610656578063be0edc8314610681578063cd3f18db146106aa578063ce1b815f146106d3576101cd565b806398a270eb116100d157806398a270eb1461055f578063a44543401461059c578063b3dd697b146105d9578063b5066b6114610619576101cd565b80637547b64e146104ed5780638e0639921461052a5780639021639c14610534576101cd565b806332285bda1161016f57806359328eb51161013e57806359328eb5146103f95780635e5c06e214610436578063699a20331461047357806370a13b48146104b0576101cd565b806332285bda1461032d57806349b985571461036a5780634c969a341461039357806357677709146103bc576101cd565b806326ec90ae116101ab57806326ec90ae1461027557806327e235e31461029e5780632a97fa77146102db5780633098085714610304576101cd565b8063078e84f4146101d2578063197c9fc5146101fb5780632453099514610238575b600080fd5b3480156101de57600080fd5b506101f960048036036101f4919081019061326a565b6107ca565b005b34801561020757600080fd5b50610222600480360361021d9190810190613508565b6108f1565b60405161022f9190614053565b60405180910390f35b34801561024457600080fd5b5061025f600480360361025a9190810190613508565b610927565b60405161026c91906140b3565b60405180910390f35b34801561028157600080fd5b5061029c6004803603610297919081019061344f565b6109ed565b005b3480156102aa57600080fd5b506102c560048036036102c091908101906131d5565b610ba0565b6040516102d29190614387565b60405180910390f35b3480156102e757600080fd5b5061030260048036036102fd91908101906131d5565b610bb8565b005b34801561031057600080fd5b5061032b60048036036103269190810190613609565b610cc7565b005b34801561033957600080fd5b50610354600480360361034f9190810190613508565b610e84565b6040516103619190614127565b60405180910390f35b34801561037657600080fd5b50610391600480360361038c9190810190613383565b610f4a565b005b34801561039f57600080fd5b506103ba60048036036103b5919081019061344f565b611100565b005b3480156103c857600080fd5b506103e360048036036103de9190810190613549565b6112b3565b6040516103f09190614387565b60405180910390f35b34801561040557600080fd5b50610420600480360361041b91908101906131d5565b6112f6565b60405161042d9190614016565b60405180910390f35b34801561044257600080fd5b5061045d600480360361045891908101906131d5565b611329565b60405161046a9190614127565b60405180910390f35b34801561047f57600080fd5b5061049a60048036036104959190810190613347565b6113d9565b6040516104a79190614127565b60405180910390f35b3480156104bc57600080fd5b506104d760048036036104d29190810190613508565b61149f565b6040516104e4919061410c565b60405180910390f35b3480156104f957600080fd5b50610514600480360361050f9190810190613508565b6114cd565b6040516105219190614016565b60405180910390f35b610532611516565b005b34801561054057600080fd5b506105496115ab565b6040516105569190614031565b60405180910390f35b34801561056b57600080fd5b5061058660048036036105819190810190613549565b6116d1565b6040516105939190614149565b60405180910390f35b3480156105a857600080fd5b506105c360048036036105be9190810190613347565b6117d1565b6040516105d09190614127565b60405180910390f35b3480156105e557600080fd5b5061060060048036036105fb9190810190613508565b611897565b604051610610949392919061419b565b60405180910390f35b34801561062557600080fd5b50610640600480360361063b9190810190613508565b6119c2565b60405161064d9190614053565b60405180910390f35b34801561066257600080fd5b5061066b6119f8565b6040516106789190614031565b60405180910390f35b34801561068d57600080fd5b506106a860048036036106a391908101906132f3565b611b1e565b005b3480156106b657600080fd5b506106d160048036036106cc91908101906132f3565b611b2c565b005b3480156106df57600080fd5b506106e8611b84565b6040516106f59190614016565b60405180910390f35b34801561070a57600080fd5b506107256004803603610720919081019061358a565b611bad565b005b34801561073357600080fd5b5061074e600480360361074991908101906131fe565b611bbd565b005b34801561075c57600080fd5b5061077760048036036107729190810190613508565b611c5b565b6040516107849190614387565b60405180910390f35b34801561079957600080fd5b506107b460048036036107af9190810190613549565b611c89565b6040516107c19190614016565b60405180910390f35b61085d8585858080601f016020809104026020016040519081016040528093929190818152602001838380828437600081840152601f19601f8201169050808301925050505050505084848080601f016020809104026020016040519081016040528093929190818152602001838380828437600081840152601f19601f82011690508083019250505050505050611cd4565b61089c576040517f08c379a000000000000000000000000000000000000000000000000000000000815260040161089390614327565b60405180910390fd5b6108ea8585858080601f016020809104026020016040519081016040528093929190818152602001838380828437600081840152601f19601f82011690508083019250505050505050611d5c565b5050505050565b6003818051602081018201805184825260208301602085012081835280955050505050506000915054906101000a900460ff1681565b600c818051602081018201805184825260208301602085012081835280955050505050506000915090508054600181600116156101000203166002900480601f0160208091040260200160405190810160405280929190818152602001828054600181600116156101000203166002900480156109e55780601f106109ba576101008083540402835291602001916109e5565b820191906000526020600020905b8154815290600101906020018083116109c857829003601f168201915b505050505081565b610ac587878080601f016020809104026020016040519081016040528093929190818152602001838380828437600081840152601f19601f8201169050808301925050505050505086868080601f016020809104026020016040519081016040528093929190818152602001838380828437600081840152601f19601f820116905080830192505050505050508585858080601f016020809104026020016040519081016040528093929190818152602001838380828437600081840152601f19601f82011690508083019250505050505050611e80565b610b04576040517f08c379a0000000000000000000000000000000000000000000000000000000008152600401610afb90614327565b60405180910390fd5b610b9787878080601f016020809104026020016040519081016040528093929190818152602001838380828437600081840152601f19601f8201169050808301925050505050505086868080601f016020809104026020016040519081016040528093929190818152602001838380828437600081840152601f19601f8201169050808301925050505050505085611f0b565b50505050505050565b60016020528060005260406000206000915090505481565b610bc06120c2565b73ffffffffffffffffffffffffffffffffffffffff16600b604051610be490613fec565b908152602001604051809103902060009054906101000a900473ffffffffffffffffffffffffffffffffffffffff1673ffffffffffffffffffffffffffffffffffffffff1614610c69576040517f08c379a0000000000000000000000000000000000000000000000000000000008152600401610c60906142e7565b60405180910390fd5b80600b604051610c7890613fd7565b908152602001604051809103902060006101000a81548173ffffffffffffffffffffffffffffffffffffffff021916908373ffffffffffffffffffffffffffffffffffffffff16021790555050565b610ccf6120c2565b73ffffffffffffffffffffffffffffffffffffffff16600b604051610cf390613fd7565b908152602001604051809103902060009054906101000a900473ffffffffffffffffffffffffffffffffffffffff1673ffffffffffffffffffffffffffffffffffffffff1614610d78576040517f08c379a0000000000000000000000000000000000000000000000000000000008152600401610d6f90614347565b60405180910390fd5b81600160008373ffffffffffffffffffffffffffffffffffffffff1673ffffffffffffffffffffffffffffffffffffffff1681526020019081526020016000205403600160008373ffffffffffffffffffffffffffffffffffffffff1673ffffffffffffffffffffffffffffffffffffffff16815260200190815260200160002081905550600b604051610e0b90613fd7565b908152602001604051809103902060009054906101000a900473ffffffffffffffffffffffffffffffffffffffff1673ffffffffffffffffffffffffffffffffffffffff166108fc839081150290604051600060405180830381858888f19350505050158015610e7f573d6000803e3d6000fd5b505050565b600d818051602081018201805184825260208301602085012081835280955050505050506000915090508054600181600116156101000203166002900480601f016020809104026020016040519081016040528092919081815260200182805460018160011615610100020316600290048015610f425780601f10610f1757610100808354040283529160200191610f42565b820191906000526020600020905b815481529060010190602001808311610f2557829003601f168201915b505050505081565b61102388888080601f016020809104026020016040519081016040528093929190818152602001838380828437600081840152601f19601f82011690508083019250505050505050878787878080601f016020809104026020016040519081016040528093929190818152602001838380828437600081840152601f19601f8201169050808301925050505050505086868080601f016020809104026020016040519081016040528093929190818152602001838380828437600081840152601f19601f82011690508083019250505050505050612174565b611062576040517f08c379a000000000000000000000000000000000000000000000000000000000815260040161105990614327565b60405180910390fd5b6110f688888080601f016020809104026020016040519081016040528093929190818152602001838380828437600081840152601f19601f82011690508083019250505050505050878787878080601f016020809104026020016040519081016040528093929190818152602001838380828437600081840152601f19601f82011690508083019250505050505050612202565b5050505050505050565b6111d887878080601f016020809104026020016040519081016040528093929190818152602001838380828437600081840152601f19601f8201169050808301925050505050505086868080601f016020809104026020016040519081016040528093929190818152602001838380828437600081840152601f19601f820116905080830192505050505050508585858080601f016020809104026020016040519081016040528093929190818152602001838380828437600081840152601f19601f820116905080830192505050505050506125bb565b611217576040517f08c379a000000000000000000000000000000000000000000000000000000000815260040161120e90614327565b60405180910390fd5b6112aa87878080601f016020809104026020016040519081016040528093929190818152602001838380828437600081840152601f19601f8201169050808301925050505050505086868080601f016020809104026020016040519081016040528093929190818152602001838380828437600081840152601f19601f8201169050808301925050505050505085612646565b50505050505050565b60006002826040516112c59190613ec4565b908152602001604051809103902060020160149054906101000a900460ff1660038111156112ef57fe5b9050919050565b60056020528060005260406000206000915054906101000a900473ffffffffffffffffffffffffffffffffffffffff1681565b60046020528060005260406000206000915090508054600181600116156101000203166002900480601f0160208091040260200160405190810160405280929190818152602001828054600181600116156101000203166002900480156113d15780601f106113a6576101008083540402835291602001916113d1565b820191906000526020600020905b8154815290600101906020018083116113b457829003601f168201915b505050505081565b600760205281600052604060002081815481106113f257fe5b90600052602060002001600091509150508054600181600116156101000203166002900480601f0160208091040260200160405190810160405280929190818152602001828054600181600116156101000203166002900480156114975780601f1061146c57610100808354040283529160200191611497565b820191906000526020600020905b81548152906001019060200180831161147a57829003601f168201915b505050505081565b6009818051602081018201805184825260208301602085012081835280955050505050506000915090505481565b600b818051602081018201805184825260208301602085012081835280955050505050506000915054906101000a900473ffffffffffffffffffffffffffffffffffffffff1681565b34600160006115236120c2565b73ffffffffffffffffffffffffffffffffffffffff1673ffffffffffffffffffffffffffffffffffffffff16815260200190815260200160002054016001600061156b6120c2565b73ffffffffffffffffffffffffffffffffffffffff1673ffffffffffffffffffffffffffffffffffffffff16815260200190815260200160002081905550565b6060600660003373ffffffffffffffffffffffffffffffffffffffff1673ffffffffffffffffffffffffffffffffffffffff168152602001908152602001600020805480602002602001604051908101604052809291908181526020016000905b828210156116c8578382906000526020600020018054600181600116156101000203166002900480601f0160208091040260200160405190810160405280929190818152602001828054600181600116156101000203166002900480156116b45780601f10611689576101008083540402835291602001916116b4565b820191906000526020600020905b81548152906001019060200180831161169757829003601f168201915b50505050508152602001906001019061160c565b50505050905090565b60606002826040516116e39190613ec4565b908152602001604051809103902060030160003373ffffffffffffffffffffffffffffffffffffffff1673ffffffffffffffffffffffffffffffffffffffff1681526020019081526020016000208054600181600116156101000203166002900480601f0160208091040260200160405190810160405280929190818152602001828054600181600116156101000203166002900480156117c55780601f1061179a576101008083540402835291602001916117c5565b820191906000526020600020905b8154815290600101906020018083116117a857829003601f168201915b50505050509050919050565b600660205281600052604060002081815481106117ea57fe5b90600052602060002001600091509150508054600181600116156101000203166002900480601f01602080910402602001604051908101604052809291908181526020018280546001816001161561010002031660029004801561188f5780601f106118645761010080835404028352916020019161188f565b820191906000526020600020905b81548152906001019060200180831161187257829003601f168201915b505050505081565b600281805160208101820180518482526020830160208501208183528095505050505050600091509050806000018054600181600116156101000203166002900480601f0160208091040260200160405190810160405280929190818152602001828054600181600116156101000203166002900480156119595780601f1061192e57610100808354040283529160200191611959565b820191906000526020600020905b81548152906001019060200180831161193c57829003601f168201915b5050505050908060010160009054906101000a900473ffffffffffffffffffffffffffffffffffffffff16908060020160009054906101000a900473ffffffffffffffffffffffffffffffffffffffff16908060020160149054906101000a900460ff16905084565b600a818051602081018201805184825260208301602085012081835280955050505050506000915054906101000a900460ff1681565b6060600760003373ffffffffffffffffffffffffffffffffffffffff1673ffffffffffffffffffffffffffffffffffffffff168152602001908152602001600020805480602002602001604051908101604052809291908181526020016000905b82821015611b15578382906000526020600020018054600181600116156101000203166002900480601f016020809104026020016040519081016040528092919081815260200182805460018160011615610100020316600290048015611b015780601f10611ad657610100808354040283529160200191611b01565b820191906000526020600020905b815481529060010190602001808311611ae457829003601f168201915b505050505081526020019060010190611a59565b50505050905090565b611b288282611d5c565b5050565b80600460008473ffffffffffffffffffffffffffffffffffffffff1673ffffffffffffffffffffffffffffffffffffffff1681526020019081526020016000209080519060200190611b7f929190612f4a565b505050565b60008060009054906101000a900473ffffffffffffffffffffffffffffffffffffffff16905090565b611bb8838383612646565b505050565b611c0c848484848080601f016020809104026020016040519081016040528093929190818152602001838380828437600081840152601f19601f82011690508083019250505050505050612a31565b611c4b576040517f08c379a0000000000000000000000000000000000000000000000000000000008152600401611c4290614327565b60405180910390fd5b611c558484612ab8565b50505050565b6008818051602081018201805184825260208301602085012081835280955050505050506000915090505481565b6000600282604051611c9b9190613ec4565b908152602001604051809103902060010160009054906101000a900473ffffffffffffffffffffffffffffffffffffffff169050919050565b600080611d18858560036004811115611ce957fe5b30604051602001611cfd9493929190613e7a565b60405160208183030381529060405280519060200120612cd3565b90508473ffffffffffffffffffffffffffffffffffffffff16611d3b8285612d03565b73ffffffffffffffffffffffffffffffffffffffff16149150509392505050565b81604051602001611d6c90614001565b60405160208183030381529060405280519060200120600460008373ffffffffffffffffffffffffffffffffffffffff1673ffffffffffffffffffffffffffffffffffffffff168152602001908152602001600020604051602001611dd19190613f9a565b6040516020818303038152906040528051906020012014611e27576040517f08c379a0000000000000000000000000000000000000000000000000000000008152600401611e1e90614367565b60405180910390fd5b81600460008573ffffffffffffffffffffffffffffffffffffffff1673ffffffffffffffffffffffffffffffffffffffff1681526020019081526020016000209080519060200190611e7a929190612f4a565b50505050565b600080611ec686868660026004811115611e9657fe5b30604051602001611eab959493929190613f43565b60405160208183030381529060405280519060200120612cd3565b90508373ffffffffffffffffffffffffffffffffffffffff16611ee98285612d03565b73ffffffffffffffffffffffffffffffffffffffff1614915050949350505050565b82600381604051611f1c9190613ec4565b908152602001604051809103902060009054906101000a900460ff16611f77576040517f08c379a0000000000000000000000000000000000000000000000000000000008152600401611f6e90614287565b60405180910390fd5b6000600285604051611f899190613ec4565b9081526020016040518091039020905060026003811115611fa657fe5b8160020160149054906101000a900460ff166003811115611fc357fe5b14612003576040517f08c379a0000000000000000000000000000000000000000000000000000000008152600401611ffa90614267565b60405180910390fd5b8273ffffffffffffffffffffffffffffffffffffffff168160020160009054906101000a900473ffffffffffffffffffffffffffffffffffffffff1673ffffffffffffffffffffffffffffffffffffffff1614612095576040517f08c379a000000000000000000000000000000000000000000000000000000000815260040161208c906141e7565b60405180910390fd5b60038160020160146101000a81548160ff021916908360038111156120b657fe5b02179055505050505050565b6000601860003690501015801561210b57506120dc611b84565b73ffffffffffffffffffffffffffffffffffffffff163373ffffffffffffffffffffffffffffffffffffffff16145b1561216d576121666000368080601f016020809104026020016040519081016040528093929190818152602001838380828437600081840152601f19601f820116905080830192505050505050506014600036905003612d72565b9050612171565b3390505b90565b6000806121bc878787876001600481111561218b57fe5b306040516020016121a196959493929190613edb565b60405160208183030381529060405280519060200120612cd3565b90508573ffffffffffffffffffffffffffffffffffffffff166121df8285612d03565b73ffffffffffffffffffffffffffffffffffffffff161491505095945050505050565b836003816040516122139190613ec4565b908152602001604051809103902060009054906101000a900460ff1661226e576040517f08c379a000000000000000000000000000000000000000000000000000000000815260040161226590614287565b60405180910390fd5b84848073ffffffffffffffffffffffffffffffffffffffff166002836040516122979190613ec4565b908152602001604051809103902060010160009054906101000a900473ffffffffffffffffffffffffffffffffffffffff1673ffffffffffffffffffffffffffffffffffffffff161461231f576040517f08c379a000000000000000000000000000000000000000000000000000000000815260040161231690614227565b60405180910390fd5b8460405160200161232f90614001565b60405160208183030381529060405280519060200120600460008373ffffffffffffffffffffffffffffffffffffffff1673ffffffffffffffffffffffffffffffffffffffff1681526020019081526020016000206040516020016123949190613f9a565b6040516020818303038152906040528051906020012014156123eb576040517f08c379a00000000000000000000000000000000000000000000000000000000081526004016123e2906142a7565b60405180910390fd5b60006002896040516123fd9190613ec4565b908152602001604051809103902090506002600381111561241a57fe5b8160020160149054906101000a900460ff16600381111561243757fe5b1415612478576040517f08c379a000000000000000000000000000000000000000000000000000000000815260040161246f90614307565b60405180910390fd5b868160020160006101000a81548173ffffffffffffffffffffffffffffffffffffffff021916908373ffffffffffffffffffffffffffffffffffffffff160217905550858160030160008973ffffffffffffffffffffffffffffffffffffffff1673ffffffffffffffffffffffffffffffffffffffff1681526020019081526020016000209080519060200190612510929190612f4a565b5060028160020160146101000a81548160ff0219169083600381111561253257fe5b0217905550600760008873ffffffffffffffffffffffffffffffffffffffff1673ffffffffffffffffffffffffffffffffffffffff168152602001908152602001600020899080600181540180825580915050600190039060005260206000200160009091909190915090805190602001906125af929190612f4a565b50505050505050505050565b600080612601868686600060048111156125d157fe5b306040516020016125e6959493929190613f43565b60405160208183030381529060405280519060200120612cd3565b90508373ffffffffffffffffffffffffffffffffffffffff166126248285612d03565b73ffffffffffffffffffffffffffffffffffffffff1614915050949350505050565b826003816040516126579190613ec4565b908152602001604051809103902060009054906101000a900460ff16156126b3576040517f08c379a00000000000000000000000000000000000000000000000000000000081526004016126aa90614207565b60405180910390fd5b816040516020016126c390614001565b60405160208183030381529060405280519060200120600460008373ffffffffffffffffffffffffffffffffffffffff1673ffffffffffffffffffffffffffffffffffffffff1681526020019081526020016000206040516020016127289190613f9a565b60405160208183030381529060405280519060200120141561277f576040517f08c379a0000000000000000000000000000000000000000000000000000000008152600401612776906142a7565b60405180910390fd5b60405180608001604052808681526020018473ffffffffffffffffffffffffffffffffffffffff168152602001600073ffffffffffffffffffffffffffffffffffffffff168152602001600160038111156127d657fe5b8152506002866040516127e99190613ec4565b90815260200160405180910390206000820151816000019080519060200190612813929190612fca565b5060208201518160010160006101000a81548173ffffffffffffffffffffffffffffffffffffffff021916908373ffffffffffffffffffffffffffffffffffffffff16021790555060408201518160020160006101000a81548173ffffffffffffffffffffffffffffffffffffffff021916908373ffffffffffffffffffffffffffffffffffffffff16021790555060608201518160020160146101000a81548160ff021916908360038111156128c657fe5b0217905550905050836002866040516128df9190613ec4565b908152602001604051809103902060030160008573ffffffffffffffffffffffffffffffffffffffff1673ffffffffffffffffffffffffffffffffffffffff1681526020019081526020016000209080519060200190612940929190612f4a565b5060016003866040516129539190613ec4565b908152602001604051809103902060006101000a81548160ff021916908315150217905550600660008473ffffffffffffffffffffffffffffffffffffffff1673ffffffffffffffffffffffffffffffffffffffff168152602001908152602001600020859080600181540180825580915050600190039060005260206000200160009091909190915090805190602001906129f0929190612f4a565b507f144ced1a295f096707ac7e7d8aa1a5a89bc1fd73ea6c8d75de34bba0fe0b132e8584604051612a2292919061416b565b60405180910390a15050505050565b600080612a748585600480811115612a4557fe5b30604051602001612a599493929190613e2c565b60405160208183030381529060405280519060200120612cd3565b90508473ffffffffffffffffffffffffffffffffffffffff16612a978285612d03565b73ffffffffffffffffffffffffffffffffffffffff16149150509392505050565b81604051602001612ac890614001565b60405160208183030381529060405280519060200120600460008373ffffffffffffffffffffffffffffffffffffffff1673ffffffffffffffffffffffffffffffffffffffff168152602001908152602001600020604051602001612b2d9190613f9a565b604051602081830303815290604052805190602001201415612b84576040517f08c379a0000000000000000000000000000000000000000000000000000000008152600401612b7b906142a7565b60405180910390fd5b81604051602001612b9490614001565b60405160208183030381529060405280519060200120600460008373ffffffffffffffffffffffffffffffffffffffff1673ffffffffffffffffffffffffffffffffffffffff168152602001908152602001600020604051602001612bf99190613f9a565b6040516020818303038152906040528051906020012014612c4f576040517f08c379a0000000000000000000000000000000000000000000000000000000008152600401612c4690614367565b60405180910390fd5b83600560008573ffffffffffffffffffffffffffffffffffffffff1673ffffffffffffffffffffffffffffffffffffffff16815260200190815260200160002060006101000a81548173ffffffffffffffffffffffffffffffffffffffff021916908373ffffffffffffffffffffffffffffffffffffffff16021790555050505050565b600081604051602001612ce69190613fb1565b604051602081830303815290604052805190602001209050919050565b600080600080612d1285612dc4565b92509250925060018684848460405160008152602001604052604051612d3b949392919061406e565b6020604051602081039080840390855afa158015612d5d573d6000803e3d6000fd5b50505060206040510351935050505092915050565b60006014820183511015612d9957612d98612d936004855160148601612ebd565b612f42565b5b60148201915073ffffffffffffffffffffffffffffffffffffffff8284015116905080905092915050565b60008060006041845114612dd757600080fd5b6020840151915060408401519050606084015160001a92507f7fffffffffffffffffffffffffffffff5d576e7357a4501ddfe92f46681b20a08160001c1115612e55576040517f08c379a0000000000000000000000000000000000000000000000000000000008152600401612e4c90614247565b60405180910390fd5b601b8360ff1614158015612e6d5750601c8360ff1614155b15612ead576040517f08c379a0000000000000000000000000000000000000000000000000000000008152600401612ea4906142c7565b60405180910390fd5b8282829250925092509193909250565b6060632800659560e01b848484604051602401612edc939291906140d5565b604051602081830303815290604052907bffffffffffffffffffffffffffffffffffffffffffffffffffffffff19166020820180517bffffffffffffffffffffffffffffffffffffffffffffffffffffffff838183161783525050505090509392505050565b805160208201fd5b828054600181600116156101000203166002900490600052602060002090601f016020900481019282601f10612f8b57805160ff1916838001178555612fb9565b82800160010185558215612fb9579182015b82811115612fb8578251825591602001919060010190612f9d565b5b509050612fc6919061304a565b5090565b828054600181600116156101000203166002900490600052602060002090601f016020900481019282601f1061300b57805160ff1916838001178555613039565b82800160010185558215613039579182015b8281111561303857825182559160200191906001019061301d565b5b509050613046919061304a565b5090565b61306c91905b80821115613068576000816000905550600101613050565b5090565b90565b60008135905061307e81614639565b92915050565b60008083601f84011261309657600080fd5b8235905067ffffffffffffffff8111156130af57600080fd5b6020830191508360018202830111156130c757600080fd5b9250929050565b60008083601f8401126130e057600080fd5b8235905067ffffffffffffffff8111156130f957600080fd5b60208301915083600182028301111561311157600080fd5b9250929050565b600082601f83011261312957600080fd5b813561313c613137826143cf565b6143a2565b9150808252602083016020830185838301111561315857600080fd5b613163838284614587565b50505092915050565b600082601f83011261317d57600080fd5b813561319061318b826143fb565b6143a2565b915080825260208301602083018583830111156131ac57600080fd5b6131b7838284614587565b50505092915050565b6000813590506131cf81614650565b92915050565b6000602082840312156131e757600080fd5b60006131f58482850161306f565b91505092915050565b6000806000806060858703121561321457600080fd5b60006132228782880161306f565b94505060206132338782880161306f565b935050604085013567ffffffffffffffff81111561325057600080fd5b61325c87828801613084565b925092505092959194509250565b60008060008060006060868803121561328257600080fd5b60006132908882890161306f565b955050602086013567ffffffffffffffff8111156132ad57600080fd5b6132b9888289016130ce565b9450945050604086013567ffffffffffffffff8111156132d857600080fd5b6132e488828901613084565b92509250509295509295909350565b6000806040838503121561330657600080fd5b60006133148582860161306f565b925050602083013567ffffffffffffffff81111561333157600080fd5b61333d8582860161316c565b9150509250929050565b6000806040838503121561335a57600080fd5b60006133688582860161306f565b9250506020613379858286016131c0565b9150509250929050565b60008060008060008060008060a0898b03121561339f57600080fd5b600089013567ffffffffffffffff8111156133b957600080fd5b6133c58b828c016130ce565b985098505060206133d88b828c0161306f565b96505060406133e98b828c0161306f565b955050606089013567ffffffffffffffff81111561340657600080fd5b6134128b828c016130ce565b9450945050608089013567ffffffffffffffff81111561343157600080fd5b61343d8b828c01613084565b92509250509295985092959890939650565b60008060008060008060006080888a03121561346a57600080fd5b600088013567ffffffffffffffff81111561348457600080fd5b6134908a828b016130ce565b9750975050602088013567ffffffffffffffff8111156134af57600080fd5b6134bb8a828b016130ce565b955095505060406134ce8a828b0161306f565b935050606088013567ffffffffffffffff8111156134eb57600080fd5b6134f78a828b01613084565b925092505092959891949750929550565b60006020828403121561351a57600080fd5b600082013567ffffffffffffffff81111561353457600080fd5b61354084828501613118565b91505092915050565b60006020828403121561355b57600080fd5b600082013567ffffffffffffffff81111561357557600080fd5b6135818482850161316c565b91505092915050565b60008060006060848603121561359f57600080fd5b600084013567ffffffffffffffff8111156135b957600080fd5b6135c58682870161316c565b935050602084013567ffffffffffffffff8111156135e257600080fd5b6135ee8682870161316c565b92505060406135ff8682870161306f565b9150509250925092565b6000806040838503121561361c57600080fd5b600061362a858286016131c0565b925050602061363b8582860161306f565b9150509250929050565b600061365183836137f9565b905092915050565b613662816144d4565b82525050565b613679613674826144d4565b6145c9565b82525050565b600061368a8261444c565b6136948185614485565b9350836020820285016136a685614427565b8060005b858110156136e257848403895281516136c38582613645565b94506136ce83614478565b925060208a019950506001810190506136aa565b50829750879550505050505092915050565b6136fd816144e6565b82525050565b61370c816144f2565b82525050565b61372361371e826144f2565b6145db565b82525050565b600061373482614457565b61373e8185614496565b935061374e818560208601614596565b61375781614601565b840191505092915050565b61376b81614563565b82525050565b61377a81614575565b82525050565b61378981614522565b82525050565b600061379a8261446d565b6137a481856144b8565b93506137b4818560208601614596565b6137bd81614601565b840191505092915050565b60006137d38261446d565b6137dd81856144c9565b93506137ed818560208601614596565b80840191505092915050565b600061380482614462565b61380e81856144a7565b935061381e818560208601614596565b61382781614601565b840191505092915050565b600061383d82614462565b61384781856144b8565b9350613857818560208601614596565b61386081614601565b840191505092915050565b60008154600181166000811461388857600181146138ad576138f1565b607f600283041661389981876144c9565b955060ff19831686528086019350506138f1565b600282046138bb81876144c9565b95506138c685614437565b60005b828110156138e8578154818901526001820191506020810190506138c9565b82880195505050505b505092915050565b6000613906601c836144c9565b91507f19457468657265756d205369676e6564204d6573736167653a0a3332000000006000830152601c82019050919050565b6000613946603a836144b8565b91507f4f6e6c79207468652061737369676e207369676e656520627920746865206f7760008301527f6e65722063616e207369676e2074686520646f63756d656e742e0000000000006020830152604082019050919050565b60006139ac6009836144c9565b91507f5061796d617374657200000000000000000000000000000000000000000000006000830152600982019050919050565b60006139ec6017836144b8565b91507f446f63756d656e7420616c72656164792065786973742e0000000000000000006000830152602082019050919050565b6000613a2c6032836144b8565b91507f4f6e6c7920746865206f776e6572206f662074686520646f63756d656e74206360008301527f616e20646f207468697320616374696f6e2e00000000000000000000000000006020830152604082019050919050565b6000613a926022836144b8565b91507f45434453413a20696e76616c6964207369676e6174757265202773272076616c60008301527f75650000000000000000000000000000000000000000000000000000000000006020830152604082019050919050565b6000613af8602e836144b8565b91507f446f63756d656e742073746174652069736e277420696e205369676e696e672060008301527f50656e64696e672053746174652e0000000000000000000000000000000000006020830152604082019050919050565b6000613b5e6016836144b8565b91507f446f63756d656e74206469646e27742065786973742e000000000000000000006000830152602082019050919050565b6000613b9e6015836144b8565b91507f4163636f756e74206469646e27742065786973742e00000000000000000000006000830152602082019050919050565b6000613bde6022836144b8565b91507f45434453413a20696e76616c6964207369676e6174757265202776272076616c60008301527f75650000000000000000000000000000000000000000000000000000000000006020830152604082019050919050565b6000613c446005836144c9565b91507f4f776e65720000000000000000000000000000000000000000000000000000006000830152600582019050919050565b6000613c846020836144b8565b91507f4f776e61626c653a2063616c6c6572206973206e6f7420746865206f776e65726000830152602082019050919050565b6000613cc4604d836144b8565b91507f43616e6e6f742061736b20666f7220616e6f74686572207369676e617475726560008301527f20696620746865206c617374207369676e6565206469646e2074207369676e2060208301527f74686520646f63756d656e742e000000000000000000000000000000000000006040830152606082019050919050565b6000613d506017836144b8565b91507f5369676e6174757265206973206e6f742076616c69642e0000000000000000006000830152602082019050919050565b6000613d906000836144b8565b9150600082019050919050565b6000613daa6000836144c9565b9150600082019050919050565b6000613dc46016836144b8565b91507f4163636f756e7420616c72656164792065786973742e000000000000000000006000830152602082019050919050565b613e008161454c565b82525050565b613e17613e128261454c565b6145f7565b82525050565b613e2681614556565b82525050565b6000613e388287613668565b601482019150613e488286613668565b601482019150613e588285613e06565b602082019150613e688284613668565b60148201915081905095945050505050565b6000613e868287613668565b601482019150613e9682866137c8565b9150613ea28285613e06565b602082019150613eb28284613668565b60148201915081905095945050505050565b6000613ed082846137c8565b915081905092915050565b6000613ee782896137c8565b9150613ef38288613668565b601482019150613f038287613668565b601482019150613f1382866137c8565b9150613f1f8285613e06565b602082019150613f2f8284613668565b601482019150819050979650505050505050565b6000613f4f82886137c8565b9150613f5b82876137c8565b9150613f678286613668565b601482019150613f778285613e06565b602082019150613f878284613668565b6014820191508190509695505050505050565b6000613fa6828461386b565b915081905092915050565b6000613fbc826138f9565b9150613fc88284613712565b60208201915081905092915050565b6000613fe28261399f565b9150819050919050565b6000613ff782613c37565b9150819050919050565b600061400c82613d9d565b9150819050919050565b600060208201905061402b6000830184613659565b92915050565b6000602082019050818103600083015261404b818461367f565b905092915050565b600060208201905061406860008301846136f4565b92915050565b60006080820190506140836000830187613703565b6140906020830186613e1d565b61409d6040830185613703565b6140aa6060830184613703565b95945050505050565b600060208201905081810360008301526140cd8184613729565b905092915050565b60006060820190506140ea6000830186613762565b6140f76020830185613df7565b6141046040830184613df7565b949350505050565b60006020820190506141216000830184613780565b92915050565b600060208201905081810360008301526141418184613832565b905092915050565b60006020820190508181036000830152614163818461378f565b905092915050565b60006040820190508181036000830152614185818561378f565b90506141946020830184613659565b9392505050565b600060808201905081810360008301526141b58187613832565b90506141c46020830186613659565b6141d16040830185613659565b6141de6060830184613771565b95945050505050565b6000602082019050818103600083015261420081613939565b9050919050565b60006020820190508181036000830152614220816139df565b9050919050565b6000602082019050818103600083015261424081613a1f565b9050919050565b6000602082019050818103600083015261426081613a85565b9050919050565b6000602082019050818103600083015261428081613aeb565b9050919050565b600060208201905081810360008301526142a081613b51565b9050919050565b600060208201905081810360008301526142c081613b91565b9050919050565b600060208201905081810360008301526142e081613bd1565b9050919050565b6000602082019050818103600083015261430081613c77565b9050919050565b6000602082019050818103600083015261432081613cb7565b9050919050565b6000602082019050818103600083015261434081613d43565b9050919050565b6000602082019050818103600083015261436081613d83565b9050919050565b6000602082019050818103600083015261438081613db7565b9050919050565b600060208201905061439c6000830184613df7565b92915050565b6000604051905081810181811067ffffffffffffffff821117156143c557600080fd5b8060405250919050565b600067ffffffffffffffff8211156143e657600080fd5b601f19601f8301169050602081019050919050565b600067ffffffffffffffff82111561441257600080fd5b601f19601f8301169050602081019050919050565b6000819050602082019050919050565b60008190508160005260206000209050919050565b600081519050919050565b600081519050919050565b600081519050919050565b600081519050919050565b6000602082019050919050565b600082825260208201905092915050565b600082825260208201905092915050565b600082825260208201905092915050565b600082825260208201905092915050565b600081905092915050565b60006144df8261452c565b9050919050565b60008115159050919050565b6000819050919050565b600081905061450a8261461f565b919050565b600081905061451d8261462c565b919050565b6000819050919050565b600073ffffffffffffffffffffffffffffffffffffffff82169050919050565b6000819050919050565b600060ff82169050919050565b600061456e826144fc565b9050919050565b60006145808261450f565b9050919050565b82818337600083830152505050565b60005b838110156145b4578082015181840152602081019050614599565b838111156145c3576000848401525b50505050565b60006145d4826145e5565b9050919050565b6000819050919050565b60006145f082614612565b9050919050565b6000819050919050565b6000601f19601f8301169050919050565b60008160601b9050919050565b6008811061462957fe5b50565b6004811061463657fe5b50565b614642816144d4565b811461464d57600080fd5b50565b6146598161454c565b811461466457600080fd5b5056fea26469706673582212206c515787c4226d9fccc184c6299a15764696495e6cfdba2acb8d83250d563cfe64736f6c63430006020033",
  "source": "pragma solidity ^0.6.2;\npragma experimental ABIEncoderV2;\n\nimport \"./../SignDocuBussiness.sol\";\nimport \"./../SignDocuStorage.sol\";\n\ncontract Utils {\n    function getStateFromUint(uint256 _state) public returns(State) {\n        if (_state == 1) {\n            return State.Created;\n        }\n        if (_state == 2) {\n            return State.SignPending;\n        }\n        if (_state == 3) {\n            return State.Signed;\n        }\n    }\n}\n\n\n// To deal with 24576 bytes limit\n\ncontract ProxyForAccountCreation is SignDocuBussiness {\n    function createAccountMock(address _sender, string memory _accountPubKey) public {\n        createAccount(_sender, _accountPubKey);\n    }\n}\n\ncontract ProxyForApprovingAccountCreation is SignDocuBussiness {\n    function createAccountMock(address _sender, string memory _accountPubKey) public {\n        createAccount(_sender, _accountPubKey);\n    }\n\n    function resetAccountMock(address _sender, string memory _accountPubKey) public {\n        accounts[_sender] = _accountPubKey;\n    }\n\n    function allowAccountCreationMock(address _sender, address _allowed) public {\n        allowAccountCreation(_sender, _allowed);\n    }\n}\n\ncontract ProxyForDocumentCreation is SignDocuBussiness {\n    function createAccountMock(address _sender, string memory _accountPubKey) public {\n        createAccount(_sender, _accountPubKey);\n    }\n    function resetAccountMock(address _sender, string memory _accountPubKey) public {\n        accounts[_sender] = _accountPubKey;\n    }\n\n    function createDocumentMock(string memory _cid, string memory _secret, address _sender) public {\n        createDocument(_cid, _secret, _sender);\n    }\n}\n\ncontract ProxyForDocumentSignatureApproval is SignDocuBussiness {\n    function createAccountMock(address _sender, string memory _accountPubKey) public {\n        createAccount(_sender, _accountPubKey);\n    }\n\n    function createDocumentMock(string memory _cid, string memory _secret, address _sender) public {\n        documents[_cid] = Document({cid : _cid, owner : _sender, newSignee : address(0x00), state : State.Created});\n        documents[_cid].secrets[_sender] = _secret;\n        documentsExist[_cid] = true;\n        creators[_sender].push(_cid);\n\n        emit DocumentCreated(_cid, _sender);\n    }\n\n    function approveToSignMock(string memory _cid, address _sender, address _newSignee, string memory _secret) public {\n        approveToSign(_cid, _sender, _newSignee, _secret);\n    }\n}\n\ncontract ProxyForDocumentSigning is SignDocuBussiness, Utils {\n\n    function createDocumentMock(string memory _cid, string memory _secret, address _sender) public {\n        documents[_cid] = Document({cid : _cid, owner : _sender, newSignee : address(0x00), state : State.Created});\n        documents[_cid].secrets[_sender] = _secret;\n        documentsExist[_cid] = true;\n        creators[_sender].push(_cid);\n\n        emit DocumentCreated(_cid, _sender);\n    }\n\n    function setDocumentState(string memory _cid, uint256 _state) public {\n        documents[_cid].state = getStateFromUint(_state);\n    }\n\n    function setSignee(string memory _cid, address _signee) public {\n        documents[_cid].newSignee = _signee;\n    }\n\n    function signMock(string memory _cid, string memory _secret, address _sender) public {\n        sign(_cid, _secret, _sender);\n    }\n}",
  "sourcePath": "/Users/mariejoseph/Documents/HackFS/IPFS/contracts/Mocks/SignDocuBussinessMock.sol",
  "compiler": {
    "name": "solc",
    "version": "0.6.2+commit.bacdbe57.Emscripten.clang"
  },
  "schemaVersion": "3.2.0",
  "updatedAt": "2020-08-29T21:23:44.268Z",
  "devdoc": {
    "methods": {}
  },
  "userdoc": {
    "methods": {}
  }
}