{
  "contractName": "ProxyForAccountCreation",
  "abi": [
    {
      "anonymous": false,
      "inputs": [
        {
          "indexed": false,
          "internalType": "string",
          "name": "cid",
          "type": "string"
        },
        {
          "indexed": false,
          "internalType": "address",
          "name": "creator",
          "type": "address"
        }
      ],
      "name": "DocumentCreated",
      "type": "event"
    },
    {
      "anonymous": false,
      "inputs": [
        {
          "indexed": true,
          "internalType": "address",
          "name": "previousOwner",
          "type": "address"
        },
        {
          "indexed": true,
          "internalType": "address",
          "name": "newOwner",
          "type": "address"
        }
      ],
      "name": "OwnershipTransferred",
      "type": "event"
    },
    {
      "anonymous": false,
      "inputs": [
        {
          "indexed": false,
          "internalType": "string",
          "name": "cid",
          "type": "string"
        },
        {
          "indexed": false,
          "internalType": "address",
          "name": "signee",
          "type": "address"
        }
      ],
      "name": "Signature",
      "type": "event"
    },
    {
      "inputs": [
        {
          "internalType": "address",
          "name": "",
          "type": "address"
        }
      ],
      "name": "accounts",
      "outputs": [
        {
          "internalType": "string",
          "name": "",
          "type": "string"
        }
      ],
      "stateMutability": "view",
      "type": "function"
    },
    {
      "inputs": [
        {
          "internalType": "string",
          "name": "",
          "type": "string"
        }
      ],
      "name": "addressStorage",
      "outputs": [
        {
          "internalType": "address",
          "name": "",
          "type": "address"
        }
      ],
      "stateMutability": "view",
      "type": "function"
    },
    {
      "inputs": [
        {
          "internalType": "address",
          "name": "_sender",
          "type": "address"
        },
        {
          "internalType": "address",
          "name": "_allowedAccount",
          "type": "address"
        },
        {
          "internalType": "bytes",
          "name": "_signature",
          "type": "bytes"
        }
      ],
      "name": "allowAccountCreation",
      "outputs": [],
      "stateMutability": "nonpayable",
      "type": "function"
    },
    {
      "inputs": [
        {
          "internalType": "address",
          "name": "",
          "type": "address"
        }
      ],
      "name": "allowedBy",
      "outputs": [
        {
          "internalType": "address",
          "name": "",
          "type": "address"
        }
      ],
      "stateMutability": "view",
      "type": "function"
    },
    {
      "inputs": [
        {
          "internalType": "string",
          "name": "_cid",
          "type": "string"
        },
        {
          "internalType": "address",
          "name": "_sender",
          "type": "address"
        },
        {
          "internalType": "address",
          "name": "_newSignee",
          "type": "address"
        },
        {
          "internalType": "string",
          "name": "_secret",
          "type": "string"
        },
        {
          "internalType": "bytes",
          "name": "_signature",
          "type": "bytes"
        }
      ],
      "name": "approveToSign",
      "outputs": [],
      "stateMutability": "nonpayable",
      "type": "function"
    },
    {
      "inputs": [
        {
          "internalType": "address",
          "name": "",
          "type": "address"
        }
      ],
      "name": "balances",
      "outputs": [
        {
          "internalType": "uint256",
          "name": "",
          "type": "uint256"
        }
      ],
      "stateMutability": "view",
      "type": "function"
    },
    {
      "inputs": [
        {
          "internalType": "string",
          "name": "",
          "type": "string"
        }
      ],
      "name": "boolStorage",
      "outputs": [
        {
          "internalType": "bool",
          "name": "",
          "type": "bool"
        }
      ],
      "stateMutability": "view",
      "type": "function"
    },
    {
      "inputs": [
        {
          "internalType": "string",
          "name": "",
          "type": "string"
        }
      ],
      "name": "bytesStorage",
      "outputs": [
        {
          "internalType": "bytes",
          "name": "",
          "type": "bytes"
        }
      ],
      "stateMutability": "view",
      "type": "function"
    },
    {
      "inputs": [
        {
          "internalType": "address",
          "name": "_sender",
          "type": "address"
        },
        {
          "internalType": "string",
          "name": "_accountPubKey",
          "type": "string"
        },
        {
          "internalType": "bytes",
          "name": "_signature",
          "type": "bytes"
        }
      ],
      "name": "createAccount",
      "outputs": [],
      "stateMutability": "nonpayable",
      "type": "function"
    },
    {
      "inputs": [
        {
          "internalType": "string",
          "name": "_cid",
          "type": "string"
        },
        {
          "internalType": "string",
          "name": "_secret",
          "type": "string"
        },
        {
          "internalType": "address",
          "name": "_sender",
          "type": "address"
        },
        {
          "internalType": "bytes",
          "name": "_signature",
          "type": "bytes"
        }
      ],
      "name": "createDocument",
      "outputs": [],
      "stateMutability": "nonpayable",
      "type": "function"
    },
    {
      "inputs": [
        {
          "internalType": "address",
          "name": "",
          "type": "address"
        },
        {
          "internalType": "uint256",
          "name": "",
          "type": "uint256"
        }
      ],
      "name": "creators",
      "outputs": [
        {
          "internalType": "string",
          "name": "",
          "type": "string"
        }
      ],
      "stateMutability": "view",
      "type": "function"
    },
    {
      "inputs": [
        {
          "internalType": "string",
          "name": "",
          "type": "string"
        }
      ],
      "name": "documents",
      "outputs": [
        {
          "internalType": "string",
          "name": "cid",
          "type": "string"
        },
        {
          "internalType": "address",
          "name": "owner",
          "type": "address"
        },
        {
          "internalType": "address",
          "name": "newSignee",
          "type": "address"
        },
        {
          "internalType": "enum State",
          "name": "state",
          "type": "uint8"
        }
      ],
      "stateMutability": "view",
      "type": "function"
    },
    {
      "inputs": [
        {
          "internalType": "address",
          "name": "",
          "type": "address"
        },
        {
          "internalType": "uint256",
          "name": "",
          "type": "uint256"
        }
      ],
      "name": "documentsBySignee",
      "outputs": [
        {
          "internalType": "string",
          "name": "",
          "type": "string"
        }
      ],
      "stateMutability": "view",
      "type": "function"
    },
    {
      "inputs": [
        {
          "internalType": "string",
          "name": "",
          "type": "string"
        }
      ],
      "name": "documentsExist",
      "outputs": [
        {
          "internalType": "bool",
          "name": "",
          "type": "bool"
        }
      ],
      "stateMutability": "view",
      "type": "function"
    },
    {
      "inputs": [],
      "name": "getCreatedDocument",
      "outputs": [
        {
          "internalType": "string[]",
          "name": "",
          "type": "string[]"
        }
      ],
      "stateMutability": "view",
      "type": "function"
    },
    {
      "inputs": [
        {
          "internalType": "string",
          "name": "_cid",
          "type": "string"
        }
      ],
      "name": "getDocumentSecret",
      "outputs": [
        {
          "internalType": "string",
          "name": "",
          "type": "string"
        }
      ],
      "stateMutability": "view",
      "type": "function"
    },
    {
      "inputs": [
        {
          "internalType": "string",
          "name": "_cid",
          "type": "string"
        }
      ],
      "name": "getDocumentState",
      "outputs": [
        {
          "internalType": "uint256",
          "name": "",
          "type": "uint256"
        }
      ],
      "stateMutability": "view",
      "type": "function"
    },
    {
      "inputs": [
        {
          "internalType": "uint256",
          "name": "_fee",
          "type": "uint256"
        },
        {
          "internalType": "address",
          "name": "_accountPayingFees",
          "type": "address"
        }
      ],
      "name": "getFeeByPaymaster",
      "outputs": [],
      "stateMutability": "nonpayable",
      "type": "function"
    },
    {
      "inputs": [
        {
          "internalType": "string",
          "name": "_cid",
          "type": "string"
        }
      ],
      "name": "getOwnerOfDocument",
      "outputs": [
        {
          "internalType": "address",
          "name": "",
          "type": "address"
        }
      ],
      "stateMutability": "view",
      "type": "function"
    },
    {
      "inputs": [],
      "name": "getSigneeDocument",
      "outputs": [
        {
          "internalType": "string[]",
          "name": "",
          "type": "string[]"
        }
      ],
      "stateMutability": "view",
      "type": "function"
    },
    {
      "inputs": [],
      "name": "getTrustedForwarder",
      "outputs": [
        {
          "internalType": "address",
          "name": "",
          "type": "address"
        }
      ],
      "stateMutability": "view",
      "type": "function"
    },
    {
      "inputs": [
        {
          "internalType": "string",
          "name": "",
          "type": "string"
        }
      ],
      "name": "int256Storage",
      "outputs": [
        {
          "internalType": "int256",
          "name": "",
          "type": "int256"
        }
      ],
      "stateMutability": "view",
      "type": "function"
    },
    {
      "inputs": [],
      "name": "sendPayement",
      "outputs": [],
      "stateMutability": "payable",
      "type": "function"
    },
    {
      "inputs": [
        {
          "internalType": "address",
          "name": "_paymaster",
          "type": "address"
        }
      ],
      "name": "setPaymaster",
      "outputs": [],
      "stateMutability": "nonpayable",
      "type": "function"
    },
    {
      "inputs": [
        {
          "internalType": "string",
          "name": "_cid",
          "type": "string"
        },
        {
          "internalType": "string",
          "name": "_secret",
          "type": "string"
        },
        {
          "internalType": "address",
          "name": "_sender",
          "type": "address"
        },
        {
          "internalType": "bytes",
          "name": "_signature",
          "type": "bytes"
        }
      ],
      "name": "sign",
      "outputs": [],
      "stateMutability": "nonpayable",
      "type": "function"
    },
    {
      "inputs": [
        {
          "internalType": "string",
          "name": "",
          "type": "string"
        }
      ],
      "name": "stringStorage",
      "outputs": [
        {
          "internalType": "string",
          "name": "",
          "type": "string"
        }
      ],
      "stateMutability": "view",
      "type": "function"
    },
    {
      "inputs": [
        {
          "internalType": "string",
          "name": "",
          "type": "string"
        }
      ],
      "name": "uint256Storage",
      "outputs": [
        {
          "internalType": "uint256",
          "name": "",
          "type": "uint256"
        }
      ],
      "stateMutability": "view",
      "type": "function"
    },
    {
      "inputs": [
        {
          "internalType": "address",
          "name": "_sender",
          "type": "address"
        },
        {
          "internalType": "string",
          "name": "_accountPubKey",
          "type": "string"
        }
      ],
      "name": "createAccountMock",
      "outputs": [],
      "stateMutability": "nonpayable",
      "type": "function"
    }
  ],
  "bytecode": "0x608060405234801561001057600080fd5b5061454e806100206000396000f3fe6080604052600436106101b75760003560e01c806370a13b48116100ec578063b5066b611161008a578063ce1b815f11610064578063ce1b815f14610694578063e12b6c1d146106bf578063e5b0b90c146106e8578063ff86e28c14610725576101b7565b8063b5066b6114610603578063ba8ef30314610640578063be0edc831461066b576101b7565b80639021639c116100c65780639021639c1461051e57806398a270eb14610549578063a445434014610586578063b3dd697b146105c3576101b7565b806370a13b481461049a5780637547b64e146104d75780638e06399214610514576101b7565b806332285bda11610159578063576777091161013357806357677709146103a657806359328eb5146103e35780635e5c06e214610420578063699a20331461045d576101b7565b806332285bda1461031757806349b98557146103545780634c969a341461037d576101b7565b806326ec90ae1161019557806326ec90ae1461025f57806327e235e3146102885780632a97fa77146102c557806330980857146102ee576101b7565b8063078e84f4146101bc578063197c9fc5146101e55780632453099514610222575b600080fd5b3480156101c857600080fd5b506101e360048036036101de919081019061319a565b610762565b005b3480156101f157600080fd5b5061020c60048036036102079190810190613438565b610889565b6040516102199190613f04565b60405180910390f35b34801561022e57600080fd5b5061024960048036036102449190810190613438565b6108bf565b6040516102569190613f64565b60405180910390f35b34801561026b57600080fd5b506102866004803603610281919081019061337f565b610985565b005b34801561029457600080fd5b506102af60048036036102aa9190810190613105565b610b38565b6040516102bc9190614238565b60405180910390f35b3480156102d157600080fd5b506102ec60048036036102e79190810190613105565b610b50565b005b3480156102fa57600080fd5b50610315600480360361031091908101906134ba565b610c5f565b005b34801561032357600080fd5b5061033e60048036036103399190810190613438565b610e1c565b60405161034b9190613fd8565b60405180910390f35b34801561036057600080fd5b5061037b600480360361037691908101906132b3565b610ee2565b005b34801561038957600080fd5b506103a4600480360361039f919081019061337f565b611098565b005b3480156103b257600080fd5b506103cd60048036036103c89190810190613479565b61124b565b6040516103da9190614238565b60405180910390f35b3480156103ef57600080fd5b5061040a60048036036104059190810190613105565b61128e565b6040516104179190613ec7565b60405180910390f35b34801561042c57600080fd5b5061044760048036036104429190810190613105565b6112c1565b6040516104549190613fd8565b60405180910390f35b34801561046957600080fd5b50610484600480360361047f9190810190613277565b611371565b6040516104919190613fd8565b60405180910390f35b3480156104a657600080fd5b506104c160048036036104bc9190810190613438565b611437565b6040516104ce9190613fbd565b60405180910390f35b3480156104e357600080fd5b506104fe60048036036104f99190810190613438565b611465565b60405161050b9190613ec7565b60405180910390f35b61051c6114ae565b005b34801561052a57600080fd5b50610533611543565b6040516105409190613ee2565b60405180910390f35b34801561055557600080fd5b50610570600480360361056b9190810190613479565b611669565b60405161057d9190613ffa565b60405180910390f35b34801561059257600080fd5b506105ad60048036036105a89190810190613277565b611769565b6040516105ba9190613fd8565b60405180910390f35b3480156105cf57600080fd5b506105ea60048036036105e59190810190613438565b61182f565b6040516105fa949392919061404c565b60405180910390f35b34801561060f57600080fd5b5061062a60048036036106259190810190613438565b61195a565b6040516106379190613f04565b60405180910390f35b34801561064c57600080fd5b50610655611990565b6040516106629190613ee2565b60405180910390f35b34801561067757600080fd5b50610692600480360361068d9190810190613223565b611ab6565b005b3480156106a057600080fd5b506106a9611ac4565b6040516106b69190613ec7565b60405180910390f35b3480156106cb57600080fd5b506106e660048036036106e1919081019061312e565b611aed565b005b3480156106f457600080fd5b5061070f600480360361070a9190810190613438565b611b8b565b60405161071c9190614238565b60405180910390f35b34801561073157600080fd5b5061074c60048036036107479190810190613479565b611bb9565b6040516107599190613ec7565b60405180910390f35b6107f58585858080601f016020809104026020016040519081016040528093929190818152602001838380828437600081840152601f19601f8201169050808301925050505050505084848080601f016020809104026020016040519081016040528093929190818152602001838380828437600081840152601f19601f82011690508083019250505050505050611c04565b610834576040517f08c379a000000000000000000000000000000000000000000000000000000000815260040161082b906141d8565b60405180910390fd5b6108828585858080601f016020809104026020016040519081016040528093929190818152602001838380828437600081840152601f19601f82011690508083019250505050505050611c8c565b5050505050565b6003818051602081018201805184825260208301602085012081835280955050505050506000915054906101000a900460ff1681565b600c818051602081018201805184825260208301602085012081835280955050505050506000915090508054600181600116156101000203166002900480601f01602080910402602001604051908101604052809291908181526020018280546001816001161561010002031660029004801561097d5780601f106109525761010080835404028352916020019161097d565b820191906000526020600020905b81548152906001019060200180831161096057829003601f168201915b505050505081565b610a5d87878080601f016020809104026020016040519081016040528093929190818152602001838380828437600081840152601f19601f8201169050808301925050505050505086868080601f016020809104026020016040519081016040528093929190818152602001838380828437600081840152601f19601f820116905080830192505050505050508585858080601f016020809104026020016040519081016040528093929190818152602001838380828437600081840152601f19601f82011690508083019250505050505050611db0565b610a9c576040517f08c379a0000000000000000000000000000000000000000000000000000000008152600401610a93906141d8565b60405180910390fd5b610b2f87878080601f016020809104026020016040519081016040528093929190818152602001838380828437600081840152601f19601f8201169050808301925050505050505086868080601f016020809104026020016040519081016040528093929190818152602001838380828437600081840152601f19601f8201169050808301925050505050505085611e3b565b50505050505050565b60016020528060005260406000206000915090505481565b610b58611ff2565b73ffffffffffffffffffffffffffffffffffffffff16600b604051610b7c90613e9d565b908152602001604051809103902060009054906101000a900473ffffffffffffffffffffffffffffffffffffffff1673ffffffffffffffffffffffffffffffffffffffff1614610c01576040517f08c379a0000000000000000000000000000000000000000000000000000000008152600401610bf890614198565b60405180910390fd5b80600b604051610c1090613e88565b908152602001604051809103902060006101000a81548173ffffffffffffffffffffffffffffffffffffffff021916908373ffffffffffffffffffffffffffffffffffffffff16021790555050565b610c67611ff2565b73ffffffffffffffffffffffffffffffffffffffff16600b604051610c8b90613e88565b908152602001604051809103902060009054906101000a900473ffffffffffffffffffffffffffffffffffffffff1673ffffffffffffffffffffffffffffffffffffffff1614610d10576040517f08c379a0000000000000000000000000000000000000000000000000000000008152600401610d07906141f8565b60405180910390fd5b81600160008373ffffffffffffffffffffffffffffffffffffffff1673ffffffffffffffffffffffffffffffffffffffff1681526020019081526020016000205403600160008373ffffffffffffffffffffffffffffffffffffffff1673ffffffffffffffffffffffffffffffffffffffff16815260200190815260200160002081905550600b604051610da390613e88565b908152602001604051809103902060009054906101000a900473ffffffffffffffffffffffffffffffffffffffff1673ffffffffffffffffffffffffffffffffffffffff166108fc839081150290604051600060405180830381858888f19350505050158015610e17573d6000803e3d6000fd5b505050565b600d818051602081018201805184825260208301602085012081835280955050505050506000915090508054600181600116156101000203166002900480601f016020809104026020016040519081016040528092919081815260200182805460018160011615610100020316600290048015610eda5780601f10610eaf57610100808354040283529160200191610eda565b820191906000526020600020905b815481529060010190602001808311610ebd57829003601f168201915b505050505081565b610fbb88888080601f016020809104026020016040519081016040528093929190818152602001838380828437600081840152601f19601f82011690508083019250505050505050878787878080601f016020809104026020016040519081016040528093929190818152602001838380828437600081840152601f19601f8201169050808301925050505050505086868080601f016020809104026020016040519081016040528093929190818152602001838380828437600081840152601f19601f820116905080830192505050505050506120a4565b610ffa576040517f08c379a0000000000000000000000000000000000000000000000000000000008152600401610ff1906141d8565b60405180910390fd5b61108e88888080601f016020809104026020016040519081016040528093929190818152602001838380828437600081840152601f19601f82011690508083019250505050505050878787878080601f016020809104026020016040519081016040528093929190818152602001838380828437600081840152601f19601f82011690508083019250505050505050612132565b5050505050505050565b61117087878080601f016020809104026020016040519081016040528093929190818152602001838380828437600081840152601f19601f8201169050808301925050505050505086868080601f016020809104026020016040519081016040528093929190818152602001838380828437600081840152601f19601f820116905080830192505050505050508585858080601f016020809104026020016040519081016040528093929190818152602001838380828437600081840152601f19601f820116905080830192505050505050506124eb565b6111af576040517f08c379a00000000000000000000000000000000000000000000000000000000081526004016111a6906141d8565b60405180910390fd5b61124287878080601f016020809104026020016040519081016040528093929190818152602001838380828437600081840152601f19601f8201169050808301925050505050505086868080601f016020809104026020016040519081016040528093929190818152602001838380828437600081840152601f19601f8201169050808301925050505050505085612576565b50505050505050565b600060028260405161125d9190613d75565b908152602001604051809103902060020160149054906101000a900460ff16600381111561128757fe5b9050919050565b60056020528060005260406000206000915054906101000a900473ffffffffffffffffffffffffffffffffffffffff1681565b60046020528060005260406000206000915090508054600181600116156101000203166002900480601f0160208091040260200160405190810160405280929190818152602001828054600181600116156101000203166002900480156113695780601f1061133e57610100808354040283529160200191611369565b820191906000526020600020905b81548152906001019060200180831161134c57829003601f168201915b505050505081565b6007602052816000526040600020818154811061138a57fe5b90600052602060002001600091509150508054600181600116156101000203166002900480601f01602080910402602001604051908101604052809291908181526020018280546001816001161561010002031660029004801561142f5780601f106114045761010080835404028352916020019161142f565b820191906000526020600020905b81548152906001019060200180831161141257829003601f168201915b505050505081565b6009818051602081018201805184825260208301602085012081835280955050505050506000915090505481565b600b818051602081018201805184825260208301602085012081835280955050505050506000915054906101000a900473ffffffffffffffffffffffffffffffffffffffff1681565b34600160006114bb611ff2565b73ffffffffffffffffffffffffffffffffffffffff1673ffffffffffffffffffffffffffffffffffffffff168152602001908152602001600020540160016000611503611ff2565b73ffffffffffffffffffffffffffffffffffffffff1673ffffffffffffffffffffffffffffffffffffffff16815260200190815260200160002081905550565b6060600660003373ffffffffffffffffffffffffffffffffffffffff1673ffffffffffffffffffffffffffffffffffffffff168152602001908152602001600020805480602002602001604051908101604052809291908181526020016000905b82821015611660578382906000526020600020018054600181600116156101000203166002900480601f01602080910402602001604051908101604052809291908181526020018280546001816001161561010002031660029004801561164c5780601f106116215761010080835404028352916020019161164c565b820191906000526020600020905b81548152906001019060200180831161162f57829003601f168201915b5050505050815260200190600101906115a4565b50505050905090565b606060028260405161167b9190613d75565b908152602001604051809103902060030160003373ffffffffffffffffffffffffffffffffffffffff1673ffffffffffffffffffffffffffffffffffffffff1681526020019081526020016000208054600181600116156101000203166002900480601f01602080910402602001604051908101604052809291908181526020018280546001816001161561010002031660029004801561175d5780601f106117325761010080835404028352916020019161175d565b820191906000526020600020905b81548152906001019060200180831161174057829003601f168201915b50505050509050919050565b6006602052816000526040600020818154811061178257fe5b90600052602060002001600091509150508054600181600116156101000203166002900480601f0160208091040260200160405190810160405280929190818152602001828054600181600116156101000203166002900480156118275780601f106117fc57610100808354040283529160200191611827565b820191906000526020600020905b81548152906001019060200180831161180a57829003601f168201915b505050505081565b600281805160208101820180518482526020830160208501208183528095505050505050600091509050806000018054600181600116156101000203166002900480601f0160208091040260200160405190810160405280929190818152602001828054600181600116156101000203166002900480156118f15780601f106118c6576101008083540402835291602001916118f1565b820191906000526020600020905b8154815290600101906020018083116118d457829003601f168201915b5050505050908060010160009054906101000a900473ffffffffffffffffffffffffffffffffffffffff16908060020160009054906101000a900473ffffffffffffffffffffffffffffffffffffffff16908060020160149054906101000a900460ff16905084565b600a818051602081018201805184825260208301602085012081835280955050505050506000915054906101000a900460ff1681565b6060600760003373ffffffffffffffffffffffffffffffffffffffff1673ffffffffffffffffffffffffffffffffffffffff168152602001908152602001600020805480602002602001604051908101604052809291908181526020016000905b82821015611aad578382906000526020600020018054600181600116156101000203166002900480601f016020809104026020016040519081016040528092919081815260200182805460018160011615610100020316600290048015611a995780601f10611a6e57610100808354040283529160200191611a99565b820191906000526020600020905b815481529060010190602001808311611a7c57829003601f168201915b5050505050815260200190600101906119f1565b50505050905090565b611ac08282611c8c565b5050565b60008060009054906101000a900473ffffffffffffffffffffffffffffffffffffffff16905090565b611b3c848484848080601f016020809104026020016040519081016040528093929190818152602001838380828437600081840152601f19601f82011690508083019250505050505050612961565b611b7b576040517f08c379a0000000000000000000000000000000000000000000000000000000008152600401611b72906141d8565b60405180910390fd5b611b8584846129e8565b50505050565b6008818051602081018201805184825260208301602085012081835280955050505050506000915090505481565b6000600282604051611bcb9190613d75565b908152602001604051809103902060010160009054906101000a900473ffffffffffffffffffffffffffffffffffffffff169050919050565b600080611c48858560036004811115611c1957fe5b30604051602001611c2d9493929190613d2b565b60405160208183030381529060405280519060200120612c03565b90508473ffffffffffffffffffffffffffffffffffffffff16611c6b8285612c33565b73ffffffffffffffffffffffffffffffffffffffff16149150509392505050565b81604051602001611c9c90613eb2565b60405160208183030381529060405280519060200120600460008373ffffffffffffffffffffffffffffffffffffffff1673ffffffffffffffffffffffffffffffffffffffff168152602001908152602001600020604051602001611d019190613e4b565b6040516020818303038152906040528051906020012014611d57576040517f08c379a0000000000000000000000000000000000000000000000000000000008152600401611d4e90614218565b60405180910390fd5b81600460008573ffffffffffffffffffffffffffffffffffffffff1673ffffffffffffffffffffffffffffffffffffffff1681526020019081526020016000209080519060200190611daa929190612e7a565b50505050565b600080611df686868660026004811115611dc657fe5b30604051602001611ddb959493929190613df4565b60405160208183030381529060405280519060200120612c03565b90508373ffffffffffffffffffffffffffffffffffffffff16611e198285612c33565b73ffffffffffffffffffffffffffffffffffffffff1614915050949350505050565b82600381604051611e4c9190613d75565b908152602001604051809103902060009054906101000a900460ff16611ea7576040517f08c379a0000000000000000000000000000000000000000000000000000000008152600401611e9e90614138565b60405180910390fd5b6000600285604051611eb99190613d75565b9081526020016040518091039020905060026003811115611ed657fe5b8160020160149054906101000a900460ff166003811115611ef357fe5b14611f33576040517f08c379a0000000000000000000000000000000000000000000000000000000008152600401611f2a90614118565b60405180910390fd5b8273ffffffffffffffffffffffffffffffffffffffff168160020160009054906101000a900473ffffffffffffffffffffffffffffffffffffffff1673ffffffffffffffffffffffffffffffffffffffff1614611fc5576040517f08c379a0000000000000000000000000000000000000000000000000000000008152600401611fbc90614098565b60405180910390fd5b60038160020160146101000a81548160ff02191690836003811115611fe657fe5b02179055505050505050565b6000601860003690501015801561203b575061200c611ac4565b73ffffffffffffffffffffffffffffffffffffffff163373ffffffffffffffffffffffffffffffffffffffff16145b1561209d576120966000368080601f016020809104026020016040519081016040528093929190818152602001838380828437600081840152601f19601f820116905080830192505050505050506014600036905003612ca2565b90506120a1565b3390505b90565b6000806120ec87878787600160048111156120bb57fe5b306040516020016120d196959493929190613d8c565b60405160208183030381529060405280519060200120612c03565b90508573ffffffffffffffffffffffffffffffffffffffff1661210f8285612c33565b73ffffffffffffffffffffffffffffffffffffffff161491505095945050505050565b836003816040516121439190613d75565b908152602001604051809103902060009054906101000a900460ff1661219e576040517f08c379a000000000000000000000000000000000000000000000000000000000815260040161219590614138565b60405180910390fd5b84848073ffffffffffffffffffffffffffffffffffffffff166002836040516121c79190613d75565b908152602001604051809103902060010160009054906101000a900473ffffffffffffffffffffffffffffffffffffffff1673ffffffffffffffffffffffffffffffffffffffff161461224f576040517f08c379a0000000000000000000000000000000000000000000000000000000008152600401612246906140d8565b60405180910390fd5b8460405160200161225f90613eb2565b60405160208183030381529060405280519060200120600460008373ffffffffffffffffffffffffffffffffffffffff1673ffffffffffffffffffffffffffffffffffffffff1681526020019081526020016000206040516020016122c49190613e4b565b60405160208183030381529060405280519060200120141561231b576040517f08c379a000000000000000000000000000000000000000000000000000000000815260040161231290614158565b60405180910390fd5b600060028960405161232d9190613d75565b908152602001604051809103902090506002600381111561234a57fe5b8160020160149054906101000a900460ff16600381111561236757fe5b14156123a8576040517f08c379a000000000000000000000000000000000000000000000000000000000815260040161239f906141b8565b60405180910390fd5b868160020160006101000a81548173ffffffffffffffffffffffffffffffffffffffff021916908373ffffffffffffffffffffffffffffffffffffffff160217905550858160030160008973ffffffffffffffffffffffffffffffffffffffff1673ffffffffffffffffffffffffffffffffffffffff1681526020019081526020016000209080519060200190612440929190612e7a565b5060028160020160146101000a81548160ff0219169083600381111561246257fe5b0217905550600760008873ffffffffffffffffffffffffffffffffffffffff1673ffffffffffffffffffffffffffffffffffffffff168152602001908152602001600020899080600181540180825580915050600190039060005260206000200160009091909190915090805190602001906124df929190612e7a565b50505050505050505050565b6000806125318686866000600481111561250157fe5b30604051602001612516959493929190613df4565b60405160208183030381529060405280519060200120612c03565b90508373ffffffffffffffffffffffffffffffffffffffff166125548285612c33565b73ffffffffffffffffffffffffffffffffffffffff1614915050949350505050565b826003816040516125879190613d75565b908152602001604051809103902060009054906101000a900460ff16156125e3576040517f08c379a00000000000000000000000000000000000000000000000000000000081526004016125da906140b8565b60405180910390fd5b816040516020016125f390613eb2565b60405160208183030381529060405280519060200120600460008373ffffffffffffffffffffffffffffffffffffffff1673ffffffffffffffffffffffffffffffffffffffff1681526020019081526020016000206040516020016126589190613e4b565b6040516020818303038152906040528051906020012014156126af576040517f08c379a00000000000000000000000000000000000000000000000000000000081526004016126a690614158565b60405180910390fd5b60405180608001604052808681526020018473ffffffffffffffffffffffffffffffffffffffff168152602001600073ffffffffffffffffffffffffffffffffffffffff1681526020016001600381111561270657fe5b8152506002866040516127199190613d75565b90815260200160405180910390206000820151816000019080519060200190612743929190612efa565b5060208201518160010160006101000a81548173ffffffffffffffffffffffffffffffffffffffff021916908373ffffffffffffffffffffffffffffffffffffffff16021790555060408201518160020160006101000a81548173ffffffffffffffffffffffffffffffffffffffff021916908373ffffffffffffffffffffffffffffffffffffffff16021790555060608201518160020160146101000a81548160ff021916908360038111156127f657fe5b02179055509050508360028660405161280f9190613d75565b908152602001604051809103902060030160008573ffffffffffffffffffffffffffffffffffffffff1673ffffffffffffffffffffffffffffffffffffffff1681526020019081526020016000209080519060200190612870929190612e7a565b5060016003866040516128839190613d75565b908152602001604051809103902060006101000a81548160ff021916908315150217905550600660008473ffffffffffffffffffffffffffffffffffffffff1673ffffffffffffffffffffffffffffffffffffffff16815260200190815260200160002085908060018154018082558091505060019003906000526020600020016000909190919091509080519060200190612920929190612e7a565b507f144ced1a295f096707ac7e7d8aa1a5a89bc1fd73ea6c8d75de34bba0fe0b132e858460405161295292919061401c565b60405180910390a15050505050565b6000806129a4858560048081111561297557fe5b306040516020016129899493929190613cdd565b60405160208183030381529060405280519060200120612c03565b90508473ffffffffffffffffffffffffffffffffffffffff166129c78285612c33565b73ffffffffffffffffffffffffffffffffffffffff16149150509392505050565b816040516020016129f890613eb2565b60405160208183030381529060405280519060200120600460008373ffffffffffffffffffffffffffffffffffffffff1673ffffffffffffffffffffffffffffffffffffffff168152602001908152602001600020604051602001612a5d9190613e4b565b604051602081830303815290604052805190602001201415612ab4576040517f08c379a0000000000000000000000000000000000000000000000000000000008152600401612aab90614158565b60405180910390fd5b81604051602001612ac490613eb2565b60405160208183030381529060405280519060200120600460008373ffffffffffffffffffffffffffffffffffffffff1673ffffffffffffffffffffffffffffffffffffffff168152602001908152602001600020604051602001612b299190613e4b565b6040516020818303038152906040528051906020012014612b7f576040517f08c379a0000000000000000000000000000000000000000000000000000000008152600401612b7690614218565b60405180910390fd5b83600560008573ffffffffffffffffffffffffffffffffffffffff1673ffffffffffffffffffffffffffffffffffffffff16815260200190815260200160002060006101000a81548173ffffffffffffffffffffffffffffffffffffffff021916908373ffffffffffffffffffffffffffffffffffffffff16021790555050505050565b600081604051602001612c169190613e62565b604051602081830303815290604052805190602001209050919050565b600080600080612c4285612cf4565b92509250925060018684848460405160008152602001604052604051612c6b9493929190613f1f565b6020604051602081039080840390855afa158015612c8d573d6000803e3d6000fd5b50505060206040510351935050505092915050565b60006014820183511015612cc957612cc8612cc36004855160148601612ded565b612e72565b5b60148201915073ffffffffffffffffffffffffffffffffffffffff8284015116905080905092915050565b60008060006041845114612d0757600080fd5b6020840151915060408401519050606084015160001a92507f7fffffffffffffffffffffffffffffff5d576e7357a4501ddfe92f46681b20a08160001c1115612d85576040517f08c379a0000000000000000000000000000000000000000000000000000000008152600401612d7c906140f8565b60405180910390fd5b601b8360ff1614158015612d9d5750601c8360ff1614155b15612ddd576040517f08c379a0000000000000000000000000000000000000000000000000000000008152600401612dd490614178565b60405180910390fd5b8282829250925092509193909250565b6060632800659560e01b848484604051602401612e0c93929190613f86565b604051602081830303815290604052907bffffffffffffffffffffffffffffffffffffffffffffffffffffffff19166020820180517bffffffffffffffffffffffffffffffffffffffffffffffffffffffff838183161783525050505090509392505050565b805160208201fd5b828054600181600116156101000203166002900490600052602060002090601f016020900481019282601f10612ebb57805160ff1916838001178555612ee9565b82800160010185558215612ee9579182015b82811115612ee8578251825591602001919060010190612ecd565b5b509050612ef69190612f7a565b5090565b828054600181600116156101000203166002900490600052602060002090601f016020900481019282601f10612f3b57805160ff1916838001178555612f69565b82800160010185558215612f69579182015b82811115612f68578251825591602001919060010190612f4d565b5b509050612f769190612f7a565b5090565b612f9c91905b80821115612f98576000816000905550600101612f80565b5090565b90565b600081359050612fae816144ea565b92915050565b60008083601f840112612fc657600080fd5b8235905067ffffffffffffffff811115612fdf57600080fd5b602083019150836001820283011115612ff757600080fd5b9250929050565b60008083601f84011261301057600080fd5b8235905067ffffffffffffffff81111561302957600080fd5b60208301915083600182028301111561304157600080fd5b9250929050565b600082601f83011261305957600080fd5b813561306c61306782614280565b614253565b9150808252602083016020830185838301111561308857600080fd5b613093838284614438565b50505092915050565b600082601f8301126130ad57600080fd5b81356130c06130bb826142ac565b614253565b915080825260208301602083018583830111156130dc57600080fd5b6130e7838284614438565b50505092915050565b6000813590506130ff81614501565b92915050565b60006020828403121561311757600080fd5b600061312584828501612f9f565b91505092915050565b6000806000806060858703121561314457600080fd5b600061315287828801612f9f565b945050602061316387828801612f9f565b935050604085013567ffffffffffffffff81111561318057600080fd5b61318c87828801612fb4565b925092505092959194509250565b6000806000806000606086880312156131b257600080fd5b60006131c088828901612f9f565b955050602086013567ffffffffffffffff8111156131dd57600080fd5b6131e988828901612ffe565b9450945050604086013567ffffffffffffffff81111561320857600080fd5b61321488828901612fb4565b92509250509295509295909350565b6000806040838503121561323657600080fd5b600061324485828601612f9f565b925050602083013567ffffffffffffffff81111561326157600080fd5b61326d8582860161309c565b9150509250929050565b6000806040838503121561328a57600080fd5b600061329885828601612f9f565b92505060206132a9858286016130f0565b9150509250929050565b60008060008060008060008060a0898b0312156132cf57600080fd5b600089013567ffffffffffffffff8111156132e957600080fd5b6132f58b828c01612ffe565b985098505060206133088b828c01612f9f565b96505060406133198b828c01612f9f565b955050606089013567ffffffffffffffff81111561333657600080fd5b6133428b828c01612ffe565b9450945050608089013567ffffffffffffffff81111561336157600080fd5b61336d8b828c01612fb4565b92509250509295985092959890939650565b60008060008060008060006080888a03121561339a57600080fd5b600088013567ffffffffffffffff8111156133b457600080fd5b6133c08a828b01612ffe565b9750975050602088013567ffffffffffffffff8111156133df57600080fd5b6133eb8a828b01612ffe565b955095505060406133fe8a828b01612f9f565b935050606088013567ffffffffffffffff81111561341b57600080fd5b6134278a828b01612fb4565b925092505092959891949750929550565b60006020828403121561344a57600080fd5b600082013567ffffffffffffffff81111561346457600080fd5b61347084828501613048565b91505092915050565b60006020828403121561348b57600080fd5b600082013567ffffffffffffffff8111156134a557600080fd5b6134b18482850161309c565b91505092915050565b600080604083850312156134cd57600080fd5b60006134db858286016130f0565b92505060206134ec85828601612f9f565b9150509250929050565b600061350283836136aa565b905092915050565b61351381614385565b82525050565b61352a61352582614385565b61447a565b82525050565b600061353b826142fd565b6135458185614336565b935083602082028501613557856142d8565b8060005b85811015613593578484038952815161357485826134f6565b945061357f83614329565b925060208a0199505060018101905061355b565b50829750879550505050505092915050565b6135ae81614397565b82525050565b6135bd816143a3565b82525050565b6135d46135cf826143a3565b61448c565b82525050565b60006135e582614308565b6135ef8185614347565b93506135ff818560208601614447565b613608816144b2565b840191505092915050565b61361c81614414565b82525050565b61362b81614426565b82525050565b61363a816143d3565b82525050565b600061364b8261431e565b6136558185614369565b9350613665818560208601614447565b61366e816144b2565b840191505092915050565b60006136848261431e565b61368e818561437a565b935061369e818560208601614447565b80840191505092915050565b60006136b582614313565b6136bf8185614358565b93506136cf818560208601614447565b6136d8816144b2565b840191505092915050565b60006136ee82614313565b6136f88185614369565b9350613708818560208601614447565b613711816144b2565b840191505092915050565b600081546001811660008114613739576001811461375e576137a2565b607f600283041661374a818761437a565b955060ff19831686528086019350506137a2565b6002820461376c818761437a565b9550613777856142e8565b60005b828110156137995781548189015260018201915060208101905061377a565b82880195505050505b505092915050565b60006137b7601c8361437a565b91507f19457468657265756d205369676e6564204d6573736167653a0a3332000000006000830152601c82019050919050565b60006137f7603a83614369565b91507f4f6e6c79207468652061737369676e207369676e656520627920746865206f7760008301527f6e65722063616e207369676e2074686520646f63756d656e742e0000000000006020830152604082019050919050565b600061385d60098361437a565b91507f5061796d617374657200000000000000000000000000000000000000000000006000830152600982019050919050565b600061389d601783614369565b91507f446f63756d656e7420616c72656164792065786973742e0000000000000000006000830152602082019050919050565b60006138dd603283614369565b91507f4f6e6c7920746865206f776e6572206f662074686520646f63756d656e74206360008301527f616e20646f207468697320616374696f6e2e00000000000000000000000000006020830152604082019050919050565b6000613943602283614369565b91507f45434453413a20696e76616c6964207369676e6174757265202773272076616c60008301527f75650000000000000000000000000000000000000000000000000000000000006020830152604082019050919050565b60006139a9602e83614369565b91507f446f63756d656e742073746174652069736e277420696e205369676e696e672060008301527f50656e64696e672053746174652e0000000000000000000000000000000000006020830152604082019050919050565b6000613a0f601683614369565b91507f446f63756d656e74206469646e27742065786973742e000000000000000000006000830152602082019050919050565b6000613a4f601583614369565b91507f4163636f756e74206469646e27742065786973742e00000000000000000000006000830152602082019050919050565b6000613a8f602283614369565b91507f45434453413a20696e76616c6964207369676e6174757265202776272076616c60008301527f75650000000000000000000000000000000000000000000000000000000000006020830152604082019050919050565b6000613af560058361437a565b91507f4f776e65720000000000000000000000000000000000000000000000000000006000830152600582019050919050565b6000613b35602083614369565b91507f4f776e61626c653a2063616c6c6572206973206e6f7420746865206f776e65726000830152602082019050919050565b6000613b75604d83614369565b91507f43616e6e6f742061736b20666f7220616e6f74686572207369676e617475726560008301527f20696620746865206c617374207369676e6565206469646e2074207369676e2060208301527f74686520646f63756d656e742e000000000000000000000000000000000000006040830152606082019050919050565b6000613c01601783614369565b91507f5369676e6174757265206973206e6f742076616c69642e0000000000000000006000830152602082019050919050565b6000613c41600083614369565b9150600082019050919050565b6000613c5b60008361437a565b9150600082019050919050565b6000613c75601683614369565b91507f4163636f756e7420616c72656164792065786973742e000000000000000000006000830152602082019050919050565b613cb1816143fd565b82525050565b613cc8613cc3826143fd565b6144a8565b82525050565b613cd781614407565b82525050565b6000613ce98287613519565b601482019150613cf98286613519565b601482019150613d098285613cb7565b602082019150613d198284613519565b60148201915081905095945050505050565b6000613d378287613519565b601482019150613d478286613679565b9150613d538285613cb7565b602082019150613d638284613519565b60148201915081905095945050505050565b6000613d818284613679565b915081905092915050565b6000613d988289613679565b9150613da48288613519565b601482019150613db48287613519565b601482019150613dc48286613679565b9150613dd08285613cb7565b602082019150613de08284613519565b601482019150819050979650505050505050565b6000613e008288613679565b9150613e0c8287613679565b9150613e188286613519565b601482019150613e288285613cb7565b602082019150613e388284613519565b6014820191508190509695505050505050565b6000613e57828461371c565b915081905092915050565b6000613e6d826137aa565b9150613e7982846135c3565b60208201915081905092915050565b6000613e9382613850565b9150819050919050565b6000613ea882613ae8565b9150819050919050565b6000613ebd82613c4e565b9150819050919050565b6000602082019050613edc600083018461350a565b92915050565b60006020820190508181036000830152613efc8184613530565b905092915050565b6000602082019050613f1960008301846135a5565b92915050565b6000608082019050613f3460008301876135b4565b613f416020830186613cce565b613f4e60408301856135b4565b613f5b60608301846135b4565b95945050505050565b60006020820190508181036000830152613f7e81846135da565b905092915050565b6000606082019050613f9b6000830186613613565b613fa86020830185613ca8565b613fb56040830184613ca8565b949350505050565b6000602082019050613fd26000830184613631565b92915050565b60006020820190508181036000830152613ff281846136e3565b905092915050565b600060208201905081810360008301526140148184613640565b905092915050565b600060408201905081810360008301526140368185613640565b9050614045602083018461350a565b9392505050565b6000608082019050818103600083015261406681876136e3565b9050614075602083018661350a565b614082604083018561350a565b61408f6060830184613622565b95945050505050565b600060208201905081810360008301526140b1816137ea565b9050919050565b600060208201905081810360008301526140d181613890565b9050919050565b600060208201905081810360008301526140f1816138d0565b9050919050565b6000602082019050818103600083015261411181613936565b9050919050565b600060208201905081810360008301526141318161399c565b9050919050565b6000602082019050818103600083015261415181613a02565b9050919050565b6000602082019050818103600083015261417181613a42565b9050919050565b6000602082019050818103600083015261419181613a82565b9050919050565b600060208201905081810360008301526141b181613b28565b9050919050565b600060208201905081810360008301526141d181613b68565b9050919050565b600060208201905081810360008301526141f181613bf4565b9050919050565b6000602082019050818103600083015261421181613c34565b9050919050565b6000602082019050818103600083015261423181613c68565b9050919050565b600060208201905061424d6000830184613ca8565b92915050565b6000604051905081810181811067ffffffffffffffff8211171561427657600080fd5b8060405250919050565b600067ffffffffffffffff82111561429757600080fd5b601f19601f8301169050602081019050919050565b600067ffffffffffffffff8211156142c357600080fd5b601f19601f8301169050602081019050919050565b6000819050602082019050919050565b60008190508160005260206000209050919050565b600081519050919050565b600081519050919050565b600081519050919050565b600081519050919050565b6000602082019050919050565b600082825260208201905092915050565b600082825260208201905092915050565b600082825260208201905092915050565b600082825260208201905092915050565b600081905092915050565b6000614390826143dd565b9050919050565b60008115159050919050565b6000819050919050565b60008190506143bb826144d0565b919050565b60008190506143ce826144dd565b919050565b6000819050919050565b600073ffffffffffffffffffffffffffffffffffffffff82169050919050565b6000819050919050565b600060ff82169050919050565b600061441f826143ad565b9050919050565b6000614431826143c0565b9050919050565b82818337600083830152505050565b60005b8381101561446557808201518184015260208101905061444a565b83811115614474576000848401525b50505050565b600061448582614496565b9050919050565b6000819050919050565b60006144a1826144c3565b9050919050565b6000819050919050565b6000601f19601f8301169050919050565b60008160601b9050919050565b600881106144da57fe5b50565b600481106144e757fe5b50565b6144f381614385565b81146144fe57600080fd5b50565b61450a816143fd565b811461451557600080fd5b5056fea264697066735822122040a6302848eae7498185376b38be0a24e5d60ce5aefc7732305041a817aae3a364736f6c63430006020033",
  "source": "pragma solidity ^0.6.2;\npragma experimental ABIEncoderV2;\n\nimport \"./../SignDocuBussiness.sol\";\nimport \"./../SignDocuStorage.sol\";\n\ncontract Utils {\n    function getStateFromUint(uint256 _state) public returns(State) {\n        if (_state == 1) {\n            return State.Created;\n        }\n        if (_state == 2) {\n            return State.SignPending;\n        }\n        if (_state == 3) {\n            return State.Signed;\n        }\n    }\n}\n\n\n// To deal with 24576 bytes limit\n\ncontract ProxyForAccountCreation is SignDocuBussiness {\n    function createAccountMock(address _sender, string memory _accountPubKey) public {\n        createAccount(_sender, _accountPubKey);\n    }\n}\n\ncontract ProxyForApprovingAccountCreation is SignDocuBussiness {\n    function createAccountMock(address _sender, string memory _accountPubKey) public {\n        createAccount(_sender, _accountPubKey);\n    }\n\n    function resetAccountMock(address _sender, string memory _accountPubKey) public {\n        accounts[_sender] = _accountPubKey;\n    }\n\n    function allowAccountCreationMock(address _sender, address _allowed) public {\n        allowAccountCreation(_sender, _allowed);\n    }\n}\n\ncontract ProxyForDocumentCreation is SignDocuBussiness {\n    function createAccountMock(address _sender, string memory _accountPubKey) public {\n        createAccount(_sender, _accountPubKey);\n    }\n    function resetAccountMock(address _sender, string memory _accountPubKey) public {\n        accounts[_sender] = _accountPubKey;\n    }\n\n    function createDocumentMock(string memory _cid, string memory _secret, address _sender) public {\n        createDocument(_cid, _secret, _sender);\n    }\n}\n\ncontract ProxyForDocumentSignatureApproval is SignDocuBussiness {\n    function createAccountMock(address _sender, string memory _accountPubKey) public {\n        createAccount(_sender, _accountPubKey);\n    }\n\n    function createDocumentMock(string memory _cid, string memory _secret, address _sender) public {\n        documents[_cid] = Document({cid : _cid, owner : _sender, newSignee : address(0x00), state : State.Created});\n        documents[_cid].secrets[_sender] = _secret;\n        documentsExist[_cid] = true;\n        creators[_sender].push(_cid);\n\n        emit DocumentCreated(_cid, _sender);\n    }\n\n    function approveToSignMock(string memory _cid, address _sender, address _newSignee, string memory _secret) public {\n        approveToSign(_cid, _sender, _newSignee, _secret);\n    }\n}\n\ncontract ProxyForDocumentSigning is SignDocuBussiness, Utils {\n\n    function createDocumentMock(string memory _cid, string memory _secret, address _sender) public {\n        documents[_cid] = Document({cid : _cid, owner : _sender, newSignee : address(0x00), state : State.Created});\n        documents[_cid].secrets[_sender] = _secret;\n        documentsExist[_cid] = true;\n        creators[_sender].push(_cid);\n\n        emit DocumentCreated(_cid, _sender);\n    }\n\n    function setDocumentState(string memory _cid, uint256 _state) public {\n        documents[_cid].state = getStateFromUint(_state);\n    }\n\n    function setSignee(string memory _cid, address _signee) public {\n        documents[_cid].newSignee = _signee;\n    }\n\n    function signMock(string memory _cid, string memory _secret, address _sender) public {\n        sign(_cid, _secret, _sender);\n    }\n}",
  "sourcePath": "/Users/mariejoseph/Documents/HackFS/IPFS/contracts/Mocks/SignDocuBussinessMock.sol",
  "compiler": {
    "name": "solc",
    "version": "0.6.2+commit.bacdbe57.Emscripten.clang"
  },
  "schemaVersion": "3.2.0",
  "updatedAt": "2020-08-29T21:23:44.254Z",
  "devdoc": {
    "methods": {}
  },
  "userdoc": {
    "methods": {}
  }
}