{
  "contractName": "ProxyForApprovingAccountCreation",
  "abi": [
    {
      "anonymous": false,
      "inputs": [
        {
          "indexed": false,
          "internalType": "string",
          "name": "cid",
          "type": "string"
        },
        {
          "indexed": false,
          "internalType": "address",
          "name": "creator",
          "type": "address"
        }
      ],
      "name": "DocumentCreated",
      "type": "event"
    },
    {
      "anonymous": false,
      "inputs": [
        {
          "indexed": true,
          "internalType": "address",
          "name": "previousOwner",
          "type": "address"
        },
        {
          "indexed": true,
          "internalType": "address",
          "name": "newOwner",
          "type": "address"
        }
      ],
      "name": "OwnershipTransferred",
      "type": "event"
    },
    {
      "anonymous": false,
      "inputs": [
        {
          "indexed": false,
          "internalType": "string",
          "name": "cid",
          "type": "string"
        },
        {
          "indexed": false,
          "internalType": "address",
          "name": "signee",
          "type": "address"
        }
      ],
      "name": "Signature",
      "type": "event"
    },
    {
      "inputs": [
        {
          "internalType": "address",
          "name": "",
          "type": "address"
        }
      ],
      "name": "accounts",
      "outputs": [
        {
          "internalType": "string",
          "name": "",
          "type": "string"
        }
      ],
      "stateMutability": "view",
      "type": "function"
    },
    {
      "inputs": [
        {
          "internalType": "string",
          "name": "",
          "type": "string"
        }
      ],
      "name": "addressStorage",
      "outputs": [
        {
          "internalType": "address",
          "name": "",
          "type": "address"
        }
      ],
      "stateMutability": "view",
      "type": "function"
    },
    {
      "inputs": [
        {
          "internalType": "address",
          "name": "_sender",
          "type": "address"
        },
        {
          "internalType": "address",
          "name": "_allowedAccount",
          "type": "address"
        },
        {
          "internalType": "bytes",
          "name": "_signature",
          "type": "bytes"
        }
      ],
      "name": "allowAccountCreation",
      "outputs": [],
      "stateMutability": "nonpayable",
      "type": "function"
    },
    {
      "inputs": [
        {
          "internalType": "address",
          "name": "",
          "type": "address"
        }
      ],
      "name": "allowedBy",
      "outputs": [
        {
          "internalType": "address",
          "name": "",
          "type": "address"
        }
      ],
      "stateMutability": "view",
      "type": "function"
    },
    {
      "inputs": [
        {
          "internalType": "string",
          "name": "_cid",
          "type": "string"
        },
        {
          "internalType": "address",
          "name": "_sender",
          "type": "address"
        },
        {
          "internalType": "address",
          "name": "_newSignee",
          "type": "address"
        },
        {
          "internalType": "string",
          "name": "_secret",
          "type": "string"
        },
        {
          "internalType": "bytes",
          "name": "_signature",
          "type": "bytes"
        }
      ],
      "name": "approveToSign",
      "outputs": [],
      "stateMutability": "nonpayable",
      "type": "function"
    },
    {
      "inputs": [
        {
          "internalType": "address",
          "name": "",
          "type": "address"
        }
      ],
      "name": "balances",
      "outputs": [
        {
          "internalType": "uint256",
          "name": "",
          "type": "uint256"
        }
      ],
      "stateMutability": "view",
      "type": "function"
    },
    {
      "inputs": [
        {
          "internalType": "string",
          "name": "",
          "type": "string"
        }
      ],
      "name": "boolStorage",
      "outputs": [
        {
          "internalType": "bool",
          "name": "",
          "type": "bool"
        }
      ],
      "stateMutability": "view",
      "type": "function"
    },
    {
      "inputs": [
        {
          "internalType": "string",
          "name": "",
          "type": "string"
        }
      ],
      "name": "bytesStorage",
      "outputs": [
        {
          "internalType": "bytes",
          "name": "",
          "type": "bytes"
        }
      ],
      "stateMutability": "view",
      "type": "function"
    },
    {
      "inputs": [
        {
          "internalType": "address",
          "name": "_sender",
          "type": "address"
        },
        {
          "internalType": "string",
          "name": "_accountPubKey",
          "type": "string"
        },
        {
          "internalType": "bytes",
          "name": "_signature",
          "type": "bytes"
        }
      ],
      "name": "createAccount",
      "outputs": [],
      "stateMutability": "nonpayable",
      "type": "function"
    },
    {
      "inputs": [
        {
          "internalType": "string",
          "name": "_cid",
          "type": "string"
        },
        {
          "internalType": "string",
          "name": "_secret",
          "type": "string"
        },
        {
          "internalType": "address",
          "name": "_sender",
          "type": "address"
        },
        {
          "internalType": "bytes",
          "name": "_signature",
          "type": "bytes"
        }
      ],
      "name": "createDocument",
      "outputs": [],
      "stateMutability": "nonpayable",
      "type": "function"
    },
    {
      "inputs": [
        {
          "internalType": "address",
          "name": "",
          "type": "address"
        },
        {
          "internalType": "uint256",
          "name": "",
          "type": "uint256"
        }
      ],
      "name": "creators",
      "outputs": [
        {
          "internalType": "string",
          "name": "",
          "type": "string"
        }
      ],
      "stateMutability": "view",
      "type": "function"
    },
    {
      "inputs": [
        {
          "internalType": "string",
          "name": "",
          "type": "string"
        }
      ],
      "name": "documents",
      "outputs": [
        {
          "internalType": "string",
          "name": "cid",
          "type": "string"
        },
        {
          "internalType": "address",
          "name": "owner",
          "type": "address"
        },
        {
          "internalType": "address",
          "name": "newSignee",
          "type": "address"
        },
        {
          "internalType": "enum State",
          "name": "state",
          "type": "uint8"
        }
      ],
      "stateMutability": "view",
      "type": "function"
    },
    {
      "inputs": [
        {
          "internalType": "address",
          "name": "",
          "type": "address"
        },
        {
          "internalType": "uint256",
          "name": "",
          "type": "uint256"
        }
      ],
      "name": "documentsBySignee",
      "outputs": [
        {
          "internalType": "string",
          "name": "",
          "type": "string"
        }
      ],
      "stateMutability": "view",
      "type": "function"
    },
    {
      "inputs": [
        {
          "internalType": "string",
          "name": "",
          "type": "string"
        }
      ],
      "name": "documentsExist",
      "outputs": [
        {
          "internalType": "bool",
          "name": "",
          "type": "bool"
        }
      ],
      "stateMutability": "view",
      "type": "function"
    },
    {
      "inputs": [],
      "name": "getCreatedDocument",
      "outputs": [
        {
          "internalType": "string[]",
          "name": "",
          "type": "string[]"
        }
      ],
      "stateMutability": "view",
      "type": "function"
    },
    {
      "inputs": [
        {
          "internalType": "string",
          "name": "_cid",
          "type": "string"
        }
      ],
      "name": "getDocumentSecret",
      "outputs": [
        {
          "internalType": "string",
          "name": "",
          "type": "string"
        }
      ],
      "stateMutability": "view",
      "type": "function"
    },
    {
      "inputs": [
        {
          "internalType": "string",
          "name": "_cid",
          "type": "string"
        }
      ],
      "name": "getDocumentState",
      "outputs": [
        {
          "internalType": "uint256",
          "name": "",
          "type": "uint256"
        }
      ],
      "stateMutability": "view",
      "type": "function"
    },
    {
      "inputs": [
        {
          "internalType": "uint256",
          "name": "_fee",
          "type": "uint256"
        },
        {
          "internalType": "address",
          "name": "_accountPayingFees",
          "type": "address"
        }
      ],
      "name": "getFeeByPaymaster",
      "outputs": [],
      "stateMutability": "nonpayable",
      "type": "function"
    },
    {
      "inputs": [
        {
          "internalType": "string",
          "name": "_cid",
          "type": "string"
        }
      ],
      "name": "getOwnerOfDocument",
      "outputs": [
        {
          "internalType": "address",
          "name": "",
          "type": "address"
        }
      ],
      "stateMutability": "view",
      "type": "function"
    },
    {
      "inputs": [],
      "name": "getSigneeDocument",
      "outputs": [
        {
          "internalType": "string[]",
          "name": "",
          "type": "string[]"
        }
      ],
      "stateMutability": "view",
      "type": "function"
    },
    {
      "inputs": [],
      "name": "getTrustedForwarder",
      "outputs": [
        {
          "internalType": "address",
          "name": "",
          "type": "address"
        }
      ],
      "stateMutability": "view",
      "type": "function"
    },
    {
      "inputs": [
        {
          "internalType": "string",
          "name": "",
          "type": "string"
        }
      ],
      "name": "int256Storage",
      "outputs": [
        {
          "internalType": "int256",
          "name": "",
          "type": "int256"
        }
      ],
      "stateMutability": "view",
      "type": "function"
    },
    {
      "inputs": [],
      "name": "sendPayement",
      "outputs": [],
      "stateMutability": "payable",
      "type": "function"
    },
    {
      "inputs": [
        {
          "internalType": "address",
          "name": "_paymaster",
          "type": "address"
        }
      ],
      "name": "setPaymaster",
      "outputs": [],
      "stateMutability": "nonpayable",
      "type": "function"
    },
    {
      "inputs": [
        {
          "internalType": "string",
          "name": "_cid",
          "type": "string"
        },
        {
          "internalType": "string",
          "name": "_secret",
          "type": "string"
        },
        {
          "internalType": "address",
          "name": "_sender",
          "type": "address"
        },
        {
          "internalType": "bytes",
          "name": "_signature",
          "type": "bytes"
        }
      ],
      "name": "sign",
      "outputs": [],
      "stateMutability": "nonpayable",
      "type": "function"
    },
    {
      "inputs": [
        {
          "internalType": "string",
          "name": "",
          "type": "string"
        }
      ],
      "name": "stringStorage",
      "outputs": [
        {
          "internalType": "string",
          "name": "",
          "type": "string"
        }
      ],
      "stateMutability": "view",
      "type": "function"
    },
    {
      "inputs": [
        {
          "internalType": "string",
          "name": "",
          "type": "string"
        }
      ],
      "name": "uint256Storage",
      "outputs": [
        {
          "internalType": "uint256",
          "name": "",
          "type": "uint256"
        }
      ],
      "stateMutability": "view",
      "type": "function"
    },
    {
      "inputs": [
        {
          "internalType": "address",
          "name": "_sender",
          "type": "address"
        },
        {
          "internalType": "string",
          "name": "_accountPubKey",
          "type": "string"
        }
      ],
      "name": "createAccountMock",
      "outputs": [],
      "stateMutability": "nonpayable",
      "type": "function"
    },
    {
      "inputs": [
        {
          "internalType": "address",
          "name": "_sender",
          "type": "address"
        },
        {
          "internalType": "string",
          "name": "_accountPubKey",
          "type": "string"
        }
      ],
      "name": "resetAccountMock",
      "outputs": [],
      "stateMutability": "nonpayable",
      "type": "function"
    },
    {
      "inputs": [
        {
          "internalType": "address",
          "name": "_sender",
          "type": "address"
        },
        {
          "internalType": "address",
          "name": "_allowed",
          "type": "address"
        }
      ],
      "name": "allowAccountCreationMock",
      "outputs": [],
      "stateMutability": "nonpayable",
      "type": "function"
    }
  ],
  "bytecode": "0x608060405234801561001057600080fd5b50614658806100206000396000f3fe6080604052600436106101cd5760003560e01c80637547b64e116100f7578063b5066b6111610095578063ce1b815f11610064578063ce1b815f146106fc578063e12b6c1d14610727578063e5b0b90c14610750578063ff86e28c1461078d576101cd565b8063b5066b6114610642578063ba8ef3031461067f578063be0edc83146106aa578063cd3f18db146106d3576101cd565b806391a62b25116100d157806391a62b251461055f57806398a270eb14610588578063a4454340146105c5578063b3dd697b14610602576101cd565b80637547b64e146104ed5780638e0639921461052a5780639021639c14610534576101cd565b806332285bda1161016f57806359328eb51161013e57806359328eb5146103f95780635e5c06e214610436578063699a20331461047357806370a13b48146104b0576101cd565b806332285bda1461032d57806349b985571461036a5780634c969a341461039357806357677709146103bc576101cd565b806326ec90ae116101ab57806326ec90ae1461027557806327e235e31461029e5780632a97fa77146102db5780633098085714610304576101cd565b8063078e84f4146101d2578063197c9fc5146101fb5780632453099514610238575b600080fd5b3480156101de57600080fd5b506101f960048036036101f491908101906132a4565b6107ca565b005b34801561020757600080fd5b50610222600480360361021d9190810190613542565b6108f1565b60405161022f919061400e565b60405180910390f35b34801561024457600080fd5b5061025f600480360361025a9190810190613542565b610927565b60405161026c919061406e565b60405180910390f35b34801561028157600080fd5b5061029c60048036036102979190810190613489565b6109ed565b005b3480156102aa57600080fd5b506102c560048036036102c091908101906131d3565b610ba0565b6040516102d29190614342565b60405180910390f35b3480156102e757600080fd5b5061030260048036036102fd91908101906131d3565b610bb8565b005b34801561031057600080fd5b5061032b600480360361032691908101906135c4565b610cc7565b005b34801561033957600080fd5b50610354600480360361034f9190810190613542565b610e84565b60405161036191906140e2565b60405180910390f35b34801561037657600080fd5b50610391600480360361038c91908101906133bd565b610f4a565b005b34801561039f57600080fd5b506103ba60048036036103b59190810190613489565b611100565b005b3480156103c857600080fd5b506103e360048036036103de9190810190613583565b6112b3565b6040516103f09190614342565b60405180910390f35b34801561040557600080fd5b50610420600480360361041b91908101906131d3565b6112f6565b60405161042d9190613fd1565b60405180910390f35b34801561044257600080fd5b5061045d600480360361045891908101906131d3565b611329565b60405161046a91906140e2565b60405180910390f35b34801561047f57600080fd5b5061049a60048036036104959190810190613381565b6113d9565b6040516104a791906140e2565b60405180910390f35b3480156104bc57600080fd5b506104d760048036036104d29190810190613542565b61149f565b6040516104e491906140c7565b60405180910390f35b3480156104f957600080fd5b50610514600480360361050f9190810190613542565b6114cd565b6040516105219190613fd1565b60405180910390f35b610532611516565b005b34801561054057600080fd5b506105496115ab565b6040516105569190613fec565b60405180910390f35b34801561056b57600080fd5b50610586600480360361058191908101906131fc565b6116d1565b005b34801561059457600080fd5b506105af60048036036105aa9190810190613583565b6116df565b6040516105bc9190614104565b60405180910390f35b3480156105d157600080fd5b506105ec60048036036105e79190810190613381565b6117df565b6040516105f991906140e2565b60405180910390f35b34801561060e57600080fd5b5061062960048036036106249190810190613542565b6118a5565b6040516106399493929190614156565b60405180910390f35b34801561064e57600080fd5b5061066960048036036106649190810190613542565b6119d0565b604051610676919061400e565b60405180910390f35b34801561068b57600080fd5b50610694611a06565b6040516106a19190613fec565b60405180910390f35b3480156106b657600080fd5b506106d160048036036106cc919081019061332d565b611b2c565b005b3480156106df57600080fd5b506106fa60048036036106f5919081019061332d565b611b3a565b005b34801561070857600080fd5b50610711611b92565b60405161071e9190613fd1565b60405180910390f35b34801561073357600080fd5b5061074e60048036036107499190810190613238565b611bbb565b005b34801561075c57600080fd5b5061077760048036036107729190810190613542565b611c59565b6040516107849190614342565b60405180910390f35b34801561079957600080fd5b506107b460048036036107af9190810190613583565b611c87565b6040516107c19190613fd1565b60405180910390f35b61085d8585858080601f016020809104026020016040519081016040528093929190818152602001838380828437600081840152601f19601f8201169050808301925050505050505084848080601f016020809104026020016040519081016040528093929190818152602001838380828437600081840152601f19601f82011690508083019250505050505050611cd2565b61089c576040517f08c379a0000000000000000000000000000000000000000000000000000000008152600401610893906142e2565b60405180910390fd5b6108ea8585858080601f016020809104026020016040519081016040528093929190818152602001838380828437600081840152601f19601f82011690508083019250505050505050611d5a565b5050505050565b6003818051602081018201805184825260208301602085012081835280955050505050506000915054906101000a900460ff1681565b600c818051602081018201805184825260208301602085012081835280955050505050506000915090508054600181600116156101000203166002900480601f0160208091040260200160405190810160405280929190818152602001828054600181600116156101000203166002900480156109e55780601f106109ba576101008083540402835291602001916109e5565b820191906000526020600020905b8154815290600101906020018083116109c857829003601f168201915b505050505081565b610ac587878080601f016020809104026020016040519081016040528093929190818152602001838380828437600081840152601f19601f8201169050808301925050505050505086868080601f016020809104026020016040519081016040528093929190818152602001838380828437600081840152601f19601f820116905080830192505050505050508585858080601f016020809104026020016040519081016040528093929190818152602001838380828437600081840152601f19601f82011690508083019250505050505050611e7e565b610b04576040517f08c379a0000000000000000000000000000000000000000000000000000000008152600401610afb906142e2565b60405180910390fd5b610b9787878080601f016020809104026020016040519081016040528093929190818152602001838380828437600081840152601f19601f8201169050808301925050505050505086868080601f016020809104026020016040519081016040528093929190818152602001838380828437600081840152601f19601f8201169050808301925050505050505085611f09565b50505050505050565b60016020528060005260406000206000915090505481565b610bc06120c0565b73ffffffffffffffffffffffffffffffffffffffff16600b604051610be490613fa7565b908152602001604051809103902060009054906101000a900473ffffffffffffffffffffffffffffffffffffffff1673ffffffffffffffffffffffffffffffffffffffff1614610c69576040517f08c379a0000000000000000000000000000000000000000000000000000000008152600401610c60906142a2565b60405180910390fd5b80600b604051610c7890613f92565b908152602001604051809103902060006101000a81548173ffffffffffffffffffffffffffffffffffffffff021916908373ffffffffffffffffffffffffffffffffffffffff16021790555050565b610ccf6120c0565b73ffffffffffffffffffffffffffffffffffffffff16600b604051610cf390613f92565b908152602001604051809103902060009054906101000a900473ffffffffffffffffffffffffffffffffffffffff1673ffffffffffffffffffffffffffffffffffffffff1614610d78576040517f08c379a0000000000000000000000000000000000000000000000000000000008152600401610d6f90614302565b60405180910390fd5b81600160008373ffffffffffffffffffffffffffffffffffffffff1673ffffffffffffffffffffffffffffffffffffffff1681526020019081526020016000205403600160008373ffffffffffffffffffffffffffffffffffffffff1673ffffffffffffffffffffffffffffffffffffffff16815260200190815260200160002081905550600b604051610e0b90613f92565b908152602001604051809103902060009054906101000a900473ffffffffffffffffffffffffffffffffffffffff1673ffffffffffffffffffffffffffffffffffffffff166108fc839081150290604051600060405180830381858888f19350505050158015610e7f573d6000803e3d6000fd5b505050565b600d818051602081018201805184825260208301602085012081835280955050505050506000915090508054600181600116156101000203166002900480601f016020809104026020016040519081016040528092919081815260200182805460018160011615610100020316600290048015610f425780601f10610f1757610100808354040283529160200191610f42565b820191906000526020600020905b815481529060010190602001808311610f2557829003601f168201915b505050505081565b61102388888080601f016020809104026020016040519081016040528093929190818152602001838380828437600081840152601f19601f82011690508083019250505050505050878787878080601f016020809104026020016040519081016040528093929190818152602001838380828437600081840152601f19601f8201169050808301925050505050505086868080601f016020809104026020016040519081016040528093929190818152602001838380828437600081840152601f19601f82011690508083019250505050505050612172565b611062576040517f08c379a0000000000000000000000000000000000000000000000000000000008152600401611059906142e2565b60405180910390fd5b6110f688888080601f016020809104026020016040519081016040528093929190818152602001838380828437600081840152601f19601f82011690508083019250505050505050878787878080601f016020809104026020016040519081016040528093929190818152602001838380828437600081840152601f19601f82011690508083019250505050505050612200565b5050505050505050565b6111d887878080601f016020809104026020016040519081016040528093929190818152602001838380828437600081840152601f19601f8201169050808301925050505050505086868080601f016020809104026020016040519081016040528093929190818152602001838380828437600081840152601f19601f820116905080830192505050505050508585858080601f016020809104026020016040519081016040528093929190818152602001838380828437600081840152601f19601f820116905080830192505050505050506125b9565b611217576040517f08c379a000000000000000000000000000000000000000000000000000000000815260040161120e906142e2565b60405180910390fd5b6112aa87878080601f016020809104026020016040519081016040528093929190818152602001838380828437600081840152601f19601f8201169050808301925050505050505086868080601f016020809104026020016040519081016040528093929190818152602001838380828437600081840152601f19601f8201169050808301925050505050505085612644565b50505050505050565b60006002826040516112c59190613e7f565b908152602001604051809103902060020160149054906101000a900460ff1660038111156112ef57fe5b9050919050565b60056020528060005260406000206000915054906101000a900473ffffffffffffffffffffffffffffffffffffffff1681565b60046020528060005260406000206000915090508054600181600116156101000203166002900480601f0160208091040260200160405190810160405280929190818152602001828054600181600116156101000203166002900480156113d15780601f106113a6576101008083540402835291602001916113d1565b820191906000526020600020905b8154815290600101906020018083116113b457829003601f168201915b505050505081565b600760205281600052604060002081815481106113f257fe5b90600052602060002001600091509150508054600181600116156101000203166002900480601f0160208091040260200160405190810160405280929190818152602001828054600181600116156101000203166002900480156114975780601f1061146c57610100808354040283529160200191611497565b820191906000526020600020905b81548152906001019060200180831161147a57829003601f168201915b505050505081565b6009818051602081018201805184825260208301602085012081835280955050505050506000915090505481565b600b818051602081018201805184825260208301602085012081835280955050505050506000915054906101000a900473ffffffffffffffffffffffffffffffffffffffff1681565b34600160006115236120c0565b73ffffffffffffffffffffffffffffffffffffffff1673ffffffffffffffffffffffffffffffffffffffff16815260200190815260200160002054016001600061156b6120c0565b73ffffffffffffffffffffffffffffffffffffffff1673ffffffffffffffffffffffffffffffffffffffff16815260200190815260200160002081905550565b6060600660003373ffffffffffffffffffffffffffffffffffffffff1673ffffffffffffffffffffffffffffffffffffffff168152602001908152602001600020805480602002602001604051908101604052809291908181526020016000905b828210156116c8578382906000526020600020018054600181600116156101000203166002900480601f0160208091040260200160405190810160405280929190818152602001828054600181600116156101000203166002900480156116b45780601f10611689576101008083540402835291602001916116b4565b820191906000526020600020905b81548152906001019060200180831161169757829003601f168201915b50505050508152602001906001019061160c565b50505050905090565b6116db8282612a2f565b5050565b60606002826040516116f19190613e7f565b908152602001604051809103902060030160003373ffffffffffffffffffffffffffffffffffffffff1673ffffffffffffffffffffffffffffffffffffffff1681526020019081526020016000208054600181600116156101000203166002900480601f0160208091040260200160405190810160405280929190818152602001828054600181600116156101000203166002900480156117d35780601f106117a8576101008083540402835291602001916117d3565b820191906000526020600020905b8154815290600101906020018083116117b657829003601f168201915b50505050509050919050565b600660205281600052604060002081815481106117f857fe5b90600052602060002001600091509150508054600181600116156101000203166002900480601f01602080910402602001604051908101604052809291908181526020018280546001816001161561010002031660029004801561189d5780601f106118725761010080835404028352916020019161189d565b820191906000526020600020905b81548152906001019060200180831161188057829003601f168201915b505050505081565b600281805160208101820180518482526020830160208501208183528095505050505050600091509050806000018054600181600116156101000203166002900480601f0160208091040260200160405190810160405280929190818152602001828054600181600116156101000203166002900480156119675780601f1061193c57610100808354040283529160200191611967565b820191906000526020600020905b81548152906001019060200180831161194a57829003601f168201915b5050505050908060010160009054906101000a900473ffffffffffffffffffffffffffffffffffffffff16908060020160009054906101000a900473ffffffffffffffffffffffffffffffffffffffff16908060020160149054906101000a900460ff16905084565b600a818051602081018201805184825260208301602085012081835280955050505050506000915054906101000a900460ff1681565b6060600760003373ffffffffffffffffffffffffffffffffffffffff1673ffffffffffffffffffffffffffffffffffffffff168152602001908152602001600020805480602002602001604051908101604052809291908181526020016000905b82821015611b23578382906000526020600020018054600181600116156101000203166002900480601f016020809104026020016040519081016040528092919081815260200182805460018160011615610100020316600290048015611b0f5780601f10611ae457610100808354040283529160200191611b0f565b820191906000526020600020905b815481529060010190602001808311611af257829003601f168201915b505050505081526020019060010190611a67565b50505050905090565b611b368282611d5a565b5050565b80600460008473ffffffffffffffffffffffffffffffffffffffff1673ffffffffffffffffffffffffffffffffffffffff1681526020019081526020016000209080519060200190611b8d929190612f48565b505050565b60008060009054906101000a900473ffffffffffffffffffffffffffffffffffffffff16905090565b611c0a848484848080601f016020809104026020016040519081016040528093929190818152602001838380828437600081840152601f19601f82011690508083019250505050505050612c4a565b611c49576040517f08c379a0000000000000000000000000000000000000000000000000000000008152600401611c40906142e2565b60405180910390fd5b611c538484612a2f565b50505050565b6008818051602081018201805184825260208301602085012081835280955050505050506000915090505481565b6000600282604051611c999190613e7f565b908152602001604051809103902060010160009054906101000a900473ffffffffffffffffffffffffffffffffffffffff169050919050565b600080611d16858560036004811115611ce757fe5b30604051602001611cfb9493929190613e35565b60405160208183030381529060405280519060200120612cd1565b90508473ffffffffffffffffffffffffffffffffffffffff16611d398285612d01565b73ffffffffffffffffffffffffffffffffffffffff16149150509392505050565b81604051602001611d6a90613fbc565b60405160208183030381529060405280519060200120600460008373ffffffffffffffffffffffffffffffffffffffff1673ffffffffffffffffffffffffffffffffffffffff168152602001908152602001600020604051602001611dcf9190613f55565b6040516020818303038152906040528051906020012014611e25576040517f08c379a0000000000000000000000000000000000000000000000000000000008152600401611e1c90614322565b60405180910390fd5b81600460008573ffffffffffffffffffffffffffffffffffffffff1673ffffffffffffffffffffffffffffffffffffffff1681526020019081526020016000209080519060200190611e78929190612f48565b50505050565b600080611ec486868660026004811115611e9457fe5b30604051602001611ea9959493929190613efe565b60405160208183030381529060405280519060200120612cd1565b90508373ffffffffffffffffffffffffffffffffffffffff16611ee78285612d01565b73ffffffffffffffffffffffffffffffffffffffff1614915050949350505050565b82600381604051611f1a9190613e7f565b908152602001604051809103902060009054906101000a900460ff16611f75576040517f08c379a0000000000000000000000000000000000000000000000000000000008152600401611f6c90614242565b60405180910390fd5b6000600285604051611f879190613e7f565b9081526020016040518091039020905060026003811115611fa457fe5b8160020160149054906101000a900460ff166003811115611fc157fe5b14612001576040517f08c379a0000000000000000000000000000000000000000000000000000000008152600401611ff890614222565b60405180910390fd5b8273ffffffffffffffffffffffffffffffffffffffff168160020160009054906101000a900473ffffffffffffffffffffffffffffffffffffffff1673ffffffffffffffffffffffffffffffffffffffff1614612093576040517f08c379a000000000000000000000000000000000000000000000000000000000815260040161208a906141a2565b60405180910390fd5b60038160020160146101000a81548160ff021916908360038111156120b457fe5b02179055505050505050565b6000601860003690501015801561210957506120da611b92565b73ffffffffffffffffffffffffffffffffffffffff163373ffffffffffffffffffffffffffffffffffffffff16145b1561216b576121646000368080601f016020809104026020016040519081016040528093929190818152602001838380828437600081840152601f19601f820116905080830192505050505050506014600036905003612d70565b905061216f565b3390505b90565b6000806121ba878787876001600481111561218957fe5b3060405160200161219f96959493929190613e96565b60405160208183030381529060405280519060200120612cd1565b90508573ffffffffffffffffffffffffffffffffffffffff166121dd8285612d01565b73ffffffffffffffffffffffffffffffffffffffff161491505095945050505050565b836003816040516122119190613e7f565b908152602001604051809103902060009054906101000a900460ff1661226c576040517f08c379a000000000000000000000000000000000000000000000000000000000815260040161226390614242565b60405180910390fd5b84848073ffffffffffffffffffffffffffffffffffffffff166002836040516122959190613e7f565b908152602001604051809103902060010160009054906101000a900473ffffffffffffffffffffffffffffffffffffffff1673ffffffffffffffffffffffffffffffffffffffff161461231d576040517f08c379a0000000000000000000000000000000000000000000000000000000008152600401612314906141e2565b60405180910390fd5b8460405160200161232d90613fbc565b60405160208183030381529060405280519060200120600460008373ffffffffffffffffffffffffffffffffffffffff1673ffffffffffffffffffffffffffffffffffffffff1681526020019081526020016000206040516020016123929190613f55565b6040516020818303038152906040528051906020012014156123e9576040517f08c379a00000000000000000000000000000000000000000000000000000000081526004016123e090614262565b60405180910390fd5b60006002896040516123fb9190613e7f565b908152602001604051809103902090506002600381111561241857fe5b8160020160149054906101000a900460ff16600381111561243557fe5b1415612476576040517f08c379a000000000000000000000000000000000000000000000000000000000815260040161246d906142c2565b60405180910390fd5b868160020160006101000a81548173ffffffffffffffffffffffffffffffffffffffff021916908373ffffffffffffffffffffffffffffffffffffffff160217905550858160030160008973ffffffffffffffffffffffffffffffffffffffff1673ffffffffffffffffffffffffffffffffffffffff168152602001908152602001600020908051906020019061250e929190612f48565b5060028160020160146101000a81548160ff0219169083600381111561253057fe5b0217905550600760008873ffffffffffffffffffffffffffffffffffffffff1673ffffffffffffffffffffffffffffffffffffffff168152602001908152602001600020899080600181540180825580915050600190039060005260206000200160009091909190915090805190602001906125ad929190612f48565b50505050505050505050565b6000806125ff868686600060048111156125cf57fe5b306040516020016125e4959493929190613efe565b60405160208183030381529060405280519060200120612cd1565b90508373ffffffffffffffffffffffffffffffffffffffff166126228285612d01565b73ffffffffffffffffffffffffffffffffffffffff1614915050949350505050565b826003816040516126559190613e7f565b908152602001604051809103902060009054906101000a900460ff16156126b1576040517f08c379a00000000000000000000000000000000000000000000000000000000081526004016126a8906141c2565b60405180910390fd5b816040516020016126c190613fbc565b60405160208183030381529060405280519060200120600460008373ffffffffffffffffffffffffffffffffffffffff1673ffffffffffffffffffffffffffffffffffffffff1681526020019081526020016000206040516020016127269190613f55565b60405160208183030381529060405280519060200120141561277d576040517f08c379a000000000000000000000000000000000000000000000000000000000815260040161277490614262565b60405180910390fd5b60405180608001604052808681526020018473ffffffffffffffffffffffffffffffffffffffff168152602001600073ffffffffffffffffffffffffffffffffffffffff168152602001600160038111156127d457fe5b8152506002866040516127e79190613e7f565b90815260200160405180910390206000820151816000019080519060200190612811929190612fc8565b5060208201518160010160006101000a81548173ffffffffffffffffffffffffffffffffffffffff021916908373ffffffffffffffffffffffffffffffffffffffff16021790555060408201518160020160006101000a81548173ffffffffffffffffffffffffffffffffffffffff021916908373ffffffffffffffffffffffffffffffffffffffff16021790555060608201518160020160146101000a81548160ff021916908360038111156128c457fe5b0217905550905050836002866040516128dd9190613e7f565b908152602001604051809103902060030160008573ffffffffffffffffffffffffffffffffffffffff1673ffffffffffffffffffffffffffffffffffffffff168152602001908152602001600020908051906020019061293e929190612f48565b5060016003866040516129519190613e7f565b908152602001604051809103902060006101000a81548160ff021916908315150217905550600660008473ffffffffffffffffffffffffffffffffffffffff1673ffffffffffffffffffffffffffffffffffffffff168152602001908152602001600020859080600181540180825580915050600190039060005260206000200160009091909190915090805190602001906129ee929190612f48565b507f144ced1a295f096707ac7e7d8aa1a5a89bc1fd73ea6c8d75de34bba0fe0b132e8584604051612a20929190614126565b60405180910390a15050505050565b81604051602001612a3f90613fbc565b60405160208183030381529060405280519060200120600460008373ffffffffffffffffffffffffffffffffffffffff1673ffffffffffffffffffffffffffffffffffffffff168152602001908152602001600020604051602001612aa49190613f55565b604051602081830303815290604052805190602001201415612afb576040517f08c379a0000000000000000000000000000000000000000000000000000000008152600401612af290614262565b60405180910390fd5b81604051602001612b0b90613fbc565b60405160208183030381529060405280519060200120600460008373ffffffffffffffffffffffffffffffffffffffff1673ffffffffffffffffffffffffffffffffffffffff168152602001908152602001600020604051602001612b709190613f55565b6040516020818303038152906040528051906020012014612bc6576040517f08c379a0000000000000000000000000000000000000000000000000000000008152600401612bbd90614322565b60405180910390fd5b83600560008573ffffffffffffffffffffffffffffffffffffffff1673ffffffffffffffffffffffffffffffffffffffff16815260200190815260200160002060006101000a81548173ffffffffffffffffffffffffffffffffffffffff021916908373ffffffffffffffffffffffffffffffffffffffff16021790555050505050565b600080612c8d8585600480811115612c5e57fe5b30604051602001612c729493929190613de7565b60405160208183030381529060405280519060200120612cd1565b90508473ffffffffffffffffffffffffffffffffffffffff16612cb08285612d01565b73ffffffffffffffffffffffffffffffffffffffff16149150509392505050565b600081604051602001612ce49190613f6c565b604051602081830303815290604052805190602001209050919050565b600080600080612d1085612dc2565b92509250925060018684848460405160008152602001604052604051612d399493929190614029565b6020604051602081039080840390855afa158015612d5b573d6000803e3d6000fd5b50505060206040510351935050505092915050565b60006014820183511015612d9757612d96612d916004855160148601612ebb565b612f40565b5b60148201915073ffffffffffffffffffffffffffffffffffffffff8284015116905080905092915050565b60008060006041845114612dd557600080fd5b6020840151915060408401519050606084015160001a92507f7fffffffffffffffffffffffffffffff5d576e7357a4501ddfe92f46681b20a08160001c1115612e53576040517f08c379a0000000000000000000000000000000000000000000000000000000008152600401612e4a90614202565b60405180910390fd5b601b8360ff1614158015612e6b5750601c8360ff1614155b15612eab576040517f08c379a0000000000000000000000000000000000000000000000000000000008152600401612ea290614282565b60405180910390fd5b8282829250925092509193909250565b6060632800659560e01b848484604051602401612eda93929190614090565b604051602081830303815290604052907bffffffffffffffffffffffffffffffffffffffffffffffffffffffff19166020820180517bffffffffffffffffffffffffffffffffffffffffffffffffffffffff838183161783525050505090509392505050565b805160208201fd5b828054600181600116156101000203166002900490600052602060002090601f016020900481019282601f10612f8957805160ff1916838001178555612fb7565b82800160010185558215612fb7579182015b82811115612fb6578251825591602001919060010190612f9b565b5b509050612fc49190613048565b5090565b828054600181600116156101000203166002900490600052602060002090601f016020900481019282601f1061300957805160ff1916838001178555613037565b82800160010185558215613037579182015b8281111561303657825182559160200191906001019061301b565b5b5090506130449190613048565b5090565b61306a91905b8082111561306657600081600090555060010161304e565b5090565b90565b60008135905061307c816145f4565b92915050565b60008083601f84011261309457600080fd5b8235905067ffffffffffffffff8111156130ad57600080fd5b6020830191508360018202830111156130c557600080fd5b9250929050565b60008083601f8401126130de57600080fd5b8235905067ffffffffffffffff8111156130f757600080fd5b60208301915083600182028301111561310f57600080fd5b9250929050565b600082601f83011261312757600080fd5b813561313a6131358261438a565b61435d565b9150808252602083016020830185838301111561315657600080fd5b613161838284614542565b50505092915050565b600082601f83011261317b57600080fd5b813561318e613189826143b6565b61435d565b915080825260208301602083018583830111156131aa57600080fd5b6131b5838284614542565b50505092915050565b6000813590506131cd8161460b565b92915050565b6000602082840312156131e557600080fd5b60006131f38482850161306d565b91505092915050565b6000806040838503121561320f57600080fd5b600061321d8582860161306d565b925050602061322e8582860161306d565b9150509250929050565b6000806000806060858703121561324e57600080fd5b600061325c8782880161306d565b945050602061326d8782880161306d565b935050604085013567ffffffffffffffff81111561328a57600080fd5b61329687828801613082565b925092505092959194509250565b6000806000806000606086880312156132bc57600080fd5b60006132ca8882890161306d565b955050602086013567ffffffffffffffff8111156132e757600080fd5b6132f3888289016130cc565b9450945050604086013567ffffffffffffffff81111561331257600080fd5b61331e88828901613082565b92509250509295509295909350565b6000806040838503121561334057600080fd5b600061334e8582860161306d565b925050602083013567ffffffffffffffff81111561336b57600080fd5b6133778582860161316a565b9150509250929050565b6000806040838503121561339457600080fd5b60006133a28582860161306d565b92505060206133b3858286016131be565b9150509250929050565b60008060008060008060008060a0898b0312156133d957600080fd5b600089013567ffffffffffffffff8111156133f357600080fd5b6133ff8b828c016130cc565b985098505060206134128b828c0161306d565b96505060406134238b828c0161306d565b955050606089013567ffffffffffffffff81111561344057600080fd5b61344c8b828c016130cc565b9450945050608089013567ffffffffffffffff81111561346b57600080fd5b6134778b828c01613082565b92509250509295985092959890939650565b60008060008060008060006080888a0312156134a457600080fd5b600088013567ffffffffffffffff8111156134be57600080fd5b6134ca8a828b016130cc565b9750975050602088013567ffffffffffffffff8111156134e957600080fd5b6134f58a828b016130cc565b955095505060406135088a828b0161306d565b935050606088013567ffffffffffffffff81111561352557600080fd5b6135318a828b01613082565b925092505092959891949750929550565b60006020828403121561355457600080fd5b600082013567ffffffffffffffff81111561356e57600080fd5b61357a84828501613116565b91505092915050565b60006020828403121561359557600080fd5b600082013567ffffffffffffffff8111156135af57600080fd5b6135bb8482850161316a565b91505092915050565b600080604083850312156135d757600080fd5b60006135e5858286016131be565b92505060206135f68582860161306d565b9150509250929050565b600061360c83836137b4565b905092915050565b61361d8161448f565b82525050565b61363461362f8261448f565b614584565b82525050565b600061364582614407565b61364f8185614440565b935083602082028501613661856143e2565b8060005b8581101561369d578484038952815161367e8582613600565b945061368983614433565b925060208a01995050600181019050613665565b50829750879550505050505092915050565b6136b8816144a1565b82525050565b6136c7816144ad565b82525050565b6136de6136d9826144ad565b614596565b82525050565b60006136ef82614412565b6136f98185614451565b9350613709818560208601614551565b613712816145bc565b840191505092915050565b6137268161451e565b82525050565b61373581614530565b82525050565b613744816144dd565b82525050565b600061375582614428565b61375f8185614473565b935061376f818560208601614551565b613778816145bc565b840191505092915050565b600061378e82614428565b6137988185614484565b93506137a8818560208601614551565b80840191505092915050565b60006137bf8261441d565b6137c98185614462565b93506137d9818560208601614551565b6137e2816145bc565b840191505092915050565b60006137f88261441d565b6138028185614473565b9350613812818560208601614551565b61381b816145bc565b840191505092915050565b6000815460018116600081146138435760018114613868576138ac565b607f60028304166138548187614484565b955060ff19831686528086019350506138ac565b600282046138768187614484565b9550613881856143f2565b60005b828110156138a357815481890152600182019150602081019050613884565b82880195505050505b505092915050565b60006138c1601c83614484565b91507f19457468657265756d205369676e6564204d6573736167653a0a3332000000006000830152601c82019050919050565b6000613901603a83614473565b91507f4f6e6c79207468652061737369676e207369676e656520627920746865206f7760008301527f6e65722063616e207369676e2074686520646f63756d656e742e0000000000006020830152604082019050919050565b6000613967600983614484565b91507f5061796d617374657200000000000000000000000000000000000000000000006000830152600982019050919050565b60006139a7601783614473565b91507f446f63756d656e7420616c72656164792065786973742e0000000000000000006000830152602082019050919050565b60006139e7603283614473565b91507f4f6e6c7920746865206f776e6572206f662074686520646f63756d656e74206360008301527f616e20646f207468697320616374696f6e2e00000000000000000000000000006020830152604082019050919050565b6000613a4d602283614473565b91507f45434453413a20696e76616c6964207369676e6174757265202773272076616c60008301527f75650000000000000000000000000000000000000000000000000000000000006020830152604082019050919050565b6000613ab3602e83614473565b91507f446f63756d656e742073746174652069736e277420696e205369676e696e672060008301527f50656e64696e672053746174652e0000000000000000000000000000000000006020830152604082019050919050565b6000613b19601683614473565b91507f446f63756d656e74206469646e27742065786973742e000000000000000000006000830152602082019050919050565b6000613b59601583614473565b91507f4163636f756e74206469646e27742065786973742e00000000000000000000006000830152602082019050919050565b6000613b99602283614473565b91507f45434453413a20696e76616c6964207369676e6174757265202776272076616c60008301527f75650000000000000000000000000000000000000000000000000000000000006020830152604082019050919050565b6000613bff600583614484565b91507f4f776e65720000000000000000000000000000000000000000000000000000006000830152600582019050919050565b6000613c3f602083614473565b91507f4f776e61626c653a2063616c6c6572206973206e6f7420746865206f776e65726000830152602082019050919050565b6000613c7f604d83614473565b91507f43616e6e6f742061736b20666f7220616e6f74686572207369676e617475726560008301527f20696620746865206c617374207369676e6565206469646e2074207369676e2060208301527f74686520646f63756d656e742e000000000000000000000000000000000000006040830152606082019050919050565b6000613d0b601783614473565b91507f5369676e6174757265206973206e6f742076616c69642e0000000000000000006000830152602082019050919050565b6000613d4b600083614473565b9150600082019050919050565b6000613d65600083614484565b9150600082019050919050565b6000613d7f601683614473565b91507f4163636f756e7420616c72656164792065786973742e000000000000000000006000830152602082019050919050565b613dbb81614507565b82525050565b613dd2613dcd82614507565b6145b2565b82525050565b613de181614511565b82525050565b6000613df38287613623565b601482019150613e038286613623565b601482019150613e138285613dc1565b602082019150613e238284613623565b60148201915081905095945050505050565b6000613e418287613623565b601482019150613e518286613783565b9150613e5d8285613dc1565b602082019150613e6d8284613623565b60148201915081905095945050505050565b6000613e8b8284613783565b915081905092915050565b6000613ea28289613783565b9150613eae8288613623565b601482019150613ebe8287613623565b601482019150613ece8286613783565b9150613eda8285613dc1565b602082019150613eea8284613623565b601482019150819050979650505050505050565b6000613f0a8288613783565b9150613f168287613783565b9150613f228286613623565b601482019150613f328285613dc1565b602082019150613f428284613623565b6014820191508190509695505050505050565b6000613f618284613826565b915081905092915050565b6000613f77826138b4565b9150613f8382846136cd565b60208201915081905092915050565b6000613f9d8261395a565b9150819050919050565b6000613fb282613bf2565b9150819050919050565b6000613fc782613d58565b9150819050919050565b6000602082019050613fe66000830184613614565b92915050565b60006020820190508181036000830152614006818461363a565b905092915050565b600060208201905061402360008301846136af565b92915050565b600060808201905061403e60008301876136be565b61404b6020830186613dd8565b61405860408301856136be565b61406560608301846136be565b95945050505050565b6000602082019050818103600083015261408881846136e4565b905092915050565b60006060820190506140a5600083018661371d565b6140b26020830185613db2565b6140bf6040830184613db2565b949350505050565b60006020820190506140dc600083018461373b565b92915050565b600060208201905081810360008301526140fc81846137ed565b905092915050565b6000602082019050818103600083015261411e818461374a565b905092915050565b60006040820190508181036000830152614140818561374a565b905061414f6020830184613614565b9392505050565b6000608082019050818103600083015261417081876137ed565b905061417f6020830186613614565b61418c6040830185613614565b614199606083018461372c565b95945050505050565b600060208201905081810360008301526141bb816138f4565b9050919050565b600060208201905081810360008301526141db8161399a565b9050919050565b600060208201905081810360008301526141fb816139da565b9050919050565b6000602082019050818103600083015261421b81613a40565b9050919050565b6000602082019050818103600083015261423b81613aa6565b9050919050565b6000602082019050818103600083015261425b81613b0c565b9050919050565b6000602082019050818103600083015261427b81613b4c565b9050919050565b6000602082019050818103600083015261429b81613b8c565b9050919050565b600060208201905081810360008301526142bb81613c32565b9050919050565b600060208201905081810360008301526142db81613c72565b9050919050565b600060208201905081810360008301526142fb81613cfe565b9050919050565b6000602082019050818103600083015261431b81613d3e565b9050919050565b6000602082019050818103600083015261433b81613d72565b9050919050565b60006020820190506143576000830184613db2565b92915050565b6000604051905081810181811067ffffffffffffffff8211171561438057600080fd5b8060405250919050565b600067ffffffffffffffff8211156143a157600080fd5b601f19601f8301169050602081019050919050565b600067ffffffffffffffff8211156143cd57600080fd5b601f19601f8301169050602081019050919050565b6000819050602082019050919050565b60008190508160005260206000209050919050565b600081519050919050565b600081519050919050565b600081519050919050565b600081519050919050565b6000602082019050919050565b600082825260208201905092915050565b600082825260208201905092915050565b600082825260208201905092915050565b600082825260208201905092915050565b600081905092915050565b600061449a826144e7565b9050919050565b60008115159050919050565b6000819050919050565b60008190506144c5826145da565b919050565b60008190506144d8826145e7565b919050565b6000819050919050565b600073ffffffffffffffffffffffffffffffffffffffff82169050919050565b6000819050919050565b600060ff82169050919050565b6000614529826144b7565b9050919050565b600061453b826144ca565b9050919050565b82818337600083830152505050565b60005b8381101561456f578082015181840152602081019050614554565b8381111561457e576000848401525b50505050565b600061458f826145a0565b9050919050565b6000819050919050565b60006145ab826145cd565b9050919050565b6000819050919050565b6000601f19601f8301169050919050565b60008160601b9050919050565b600881106145e457fe5b50565b600481106145f157fe5b50565b6145fd8161448f565b811461460857600080fd5b50565b61461481614507565b811461461f57600080fd5b5056fea26469706673582212207d4ff45d175e1c399ba89b960b3d3f1a6ecf2a9352b7c0717e85861f6c98702b64736f6c63430006020033",
  "source": "pragma solidity ^0.6.2;\npragma experimental ABIEncoderV2;\n\nimport \"./../SignDocuBussiness.sol\";\nimport \"./../SignDocuStorage.sol\";\n\ncontract Utils {\n    function getStateFromUint(uint256 _state) public returns(State) {\n        if (_state == 1) {\n            return State.Created;\n        }\n        if (_state == 2) {\n            return State.SignPending;\n        }\n        if (_state == 3) {\n            return State.Signed;\n        }\n    }\n}\n\n\n// To deal with 24576 bytes limit\n\ncontract ProxyForAccountCreation is SignDocuBussiness {\n    function createAccountMock(address _sender, string memory _accountPubKey) public {\n        createAccount(_sender, _accountPubKey);\n    }\n}\n\ncontract ProxyForApprovingAccountCreation is SignDocuBussiness {\n    function createAccountMock(address _sender, string memory _accountPubKey) public {\n        createAccount(_sender, _accountPubKey);\n    }\n\n    function resetAccountMock(address _sender, string memory _accountPubKey) public {\n        accounts[_sender] = _accountPubKey;\n    }\n\n    function allowAccountCreationMock(address _sender, address _allowed) public {\n        allowAccountCreation(_sender, _allowed);\n    }\n}\n\ncontract ProxyForDocumentCreation is SignDocuBussiness {\n    function createAccountMock(address _sender, string memory _accountPubKey) public {\n        createAccount(_sender, _accountPubKey);\n    }\n    function resetAccountMock(address _sender, string memory _accountPubKey) public {\n        accounts[_sender] = _accountPubKey;\n    }\n\n    function createDocumentMock(string memory _cid, string memory _secret, address _sender) public {\n        createDocument(_cid, _secret, _sender);\n    }\n}\n\ncontract ProxyForDocumentSignatureApproval is SignDocuBussiness {\n    function createAccountMock(address _sender, string memory _accountPubKey) public {\n        createAccount(_sender, _accountPubKey);\n    }\n\n    function createDocumentMock(string memory _cid, string memory _secret, address _sender) public {\n        documents[_cid] = Document({cid : _cid, owner : _sender, newSignee : address(0x00), state : State.Created});\n        documents[_cid].secrets[_sender] = _secret;\n        documentsExist[_cid] = true;\n        creators[_sender].push(_cid);\n\n        emit DocumentCreated(_cid, _sender);\n    }\n\n    function approveToSignMock(string memory _cid, address _sender, address _newSignee, string memory _secret) public {\n        approveToSign(_cid, _sender, _newSignee, _secret);\n    }\n}\n\ncontract ProxyForDocumentSigning is SignDocuBussiness, Utils {\n\n    function createDocumentMock(string memory _cid, string memory _secret, address _sender) public {\n        documents[_cid] = Document({cid : _cid, owner : _sender, newSignee : address(0x00), state : State.Created});\n        documents[_cid].secrets[_sender] = _secret;\n        documentsExist[_cid] = true;\n        creators[_sender].push(_cid);\n\n        emit DocumentCreated(_cid, _sender);\n    }\n\n    function setDocumentState(string memory _cid, uint256 _state) public {\n        documents[_cid].state = getStateFromUint(_state);\n    }\n\n    function setSignee(string memory _cid, address _signee) public {\n        documents[_cid].newSignee = _signee;\n    }\n\n    function signMock(string memory _cid, string memory _secret, address _sender) public {\n        sign(_cid, _secret, _sender);\n    }\n}",
  "sourcePath": "/Users/mariejoseph/Documents/HackFS/IPFS/contracts/Mocks/SignDocuBussinessMock.sol",
  "compiler": {
    "name": "solc",
    "version": "0.6.2+commit.bacdbe57.Emscripten.clang"
  },
  "schemaVersion": "3.2.0",
  "updatedAt": "2020-08-29T21:23:44.261Z",
  "devdoc": {
    "methods": {}
  },
  "userdoc": {
    "methods": {}
  }
}