{
  "contractName": "SignDocuTest",
  "abi": [
    {
      "inputs": [
        {
          "internalType": "address",
          "name": "_forwarder",
          "type": "address"
        }
      ],
      "stateMutability": "nonpayable",
      "type": "constructor"
    },
    {
      "anonymous": false,
      "inputs": [
        {
          "indexed": false,
          "internalType": "string",
          "name": "cid",
          "type": "string"
        },
        {
          "indexed": false,
          "internalType": "address",
          "name": "creator",
          "type": "address"
        }
      ],
      "name": "DocumentCreated",
      "type": "event"
    },
    {
      "anonymous": false,
      "inputs": [
        {
          "indexed": false,
          "internalType": "string",
          "name": "cid",
          "type": "string"
        },
        {
          "indexed": false,
          "internalType": "address",
          "name": "signee",
          "type": "address"
        }
      ],
      "name": "Signature",
      "type": "event"
    },
    {
      "inputs": [],
      "name": "getTrustedForwarder",
      "outputs": [
        {
          "internalType": "address",
          "name": "",
          "type": "address"
        }
      ],
      "stateMutability": "view",
      "type": "function",
      "constant": true
    },
    {
      "inputs": [
        {
          "internalType": "string",
          "name": "_cid",
          "type": "string"
        },
        {
          "internalType": "address",
          "name": "_signee",
          "type": "address"
        }
      ],
      "name": "documentIsSigned",
      "outputs": [
        {
          "internalType": "bool",
          "name": "",
          "type": "bool"
        }
      ],
      "stateMutability": "view",
      "type": "function",
      "constant": true
    },
    {
      "inputs": [
        {
          "internalType": "string",
          "name": "_cid",
          "type": "string"
        },
        {
          "internalType": "string",
          "name": "_secret",
          "type": "string"
        },
        {
          "internalType": "address",
          "name": "_sender",
          "type": "address"
        },
        {
          "internalType": "bytes",
          "name": "_signature",
          "type": "bytes"
        }
      ],
      "name": "createDocument",
      "outputs": [],
      "stateMutability": "nonpayable",
      "type": "function"
    },
    {
      "inputs": [
        {
          "internalType": "string",
          "name": "_cid",
          "type": "string"
        },
        {
          "internalType": "address",
          "name": "_sender",
          "type": "address"
        },
        {
          "internalType": "bytes",
          "name": "_signature",
          "type": "bytes"
        }
      ],
      "name": "sign",
      "outputs": [],
      "stateMutability": "nonpayable",
      "type": "function"
    },
    {
      "inputs": [
        {
          "internalType": "string",
          "name": "_cid",
          "type": "string"
        },
        {
          "internalType": "address",
          "name": "_newSignee",
          "type": "address"
        }
      ],
      "name": "approveToSign",
      "outputs": [],
      "stateMutability": "nonpayable",
      "type": "function"
    },
    {
      "inputs": [],
      "name": "getSignedDocument",
      "outputs": [
        {
          "internalType": "string[]",
          "name": "",
          "type": "string[]"
        }
      ],
      "stateMutability": "view",
      "type": "function",
      "constant": true
    },
    {
      "inputs": [],
      "name": "getCreatedDocument",
      "outputs": [
        {
          "internalType": "string[]",
          "name": "",
          "type": "string[]"
        }
      ],
      "stateMutability": "view",
      "type": "function",
      "constant": true
    },
    {
      "inputs": [
        {
          "internalType": "string",
          "name": "_cid",
          "type": "string"
        }
      ],
      "name": "getDocument",
      "outputs": [
        {
          "components": [
            {
              "internalType": "string",
              "name": "cid",
              "type": "string"
            },
            {
              "internalType": "address",
              "name": "owner",
              "type": "address"
            },
            {
              "internalType": "address[]",
              "name": "oldsSignees",
              "type": "address[]"
            },
            {
              "internalType": "address",
              "name": "newSignee",
              "type": "address"
            },
            {
              "internalType": "string",
              "name": "secret",
              "type": "string"
            }
          ],
          "internalType": "struct Document",
          "name": "",
          "type": "tuple"
        }
      ],
      "stateMutability": "view",
      "type": "function",
      "constant": true
    },
    {
      "inputs": [
        {
          "internalType": "string",
          "name": "_cid",
          "type": "string"
        },
        {
          "internalType": "address",
          "name": "_newOwner",
          "type": "address"
        }
      ],
      "name": "transferOwnership",
      "outputs": [],
      "stateMutability": "view",
      "type": "function",
      "constant": true
    },
    {
      "inputs": [
        {
          "internalType": "string",
          "name": "_cid",
          "type": "string"
        },
        {
          "internalType": "string",
          "name": "_secret",
          "type": "string"
        },
        {
          "internalType": "address",
          "name": "_sender",
          "type": "address"
        },
        {
          "internalType": "bytes",
          "name": "_signature",
          "type": "bytes"
        }
      ],
      "name": "isValidSignSignature",
      "outputs": [
        {
          "internalType": "bool",
          "name": "",
          "type": "bool"
        }
      ],
      "stateMutability": "view",
      "type": "function",
      "constant": true
    },
    {
      "inputs": [
        {
          "internalType": "string",
          "name": "_cid",
          "type": "string"
        },
        {
          "internalType": "string",
          "name": "_secret",
          "type": "string"
        },
        {
          "internalType": "address",
          "name": "_sender",
          "type": "address"
        },
        {
          "internalType": "bytes",
          "name": "_signature",
          "type": "bytes"
        }
      ],
      "name": "isValidCreationDocumentSignature",
      "outputs": [
        {
          "internalType": "bool",
          "name": "",
          "type": "bool"
        }
      ],
      "stateMutability": "view",
      "type": "function",
      "constant": true
    }
  ],
  "bytecode": "0x60806040523480156200001157600080fd5b506040516200228038038062002280833981810160405262000037919081019062000095565b806000806101000a81548173ffffffffffffffffffffffffffffffffffffffff021916908373ffffffffffffffffffffffffffffffffffffffff160217905550506200010f565b6000815190506200008f81620000f5565b92915050565b600060208284031215620000a857600080fd5b6000620000b8848285016200007e565b91505092915050565b6000620000ce82620000d5565b9050919050565b600073ffffffffffffffffffffffffffffffffffffffff82169050919050565b6200010081620000c1565b81146200010c57600080fd5b50565b612161806200011f6000396000f3fe608060405234801561001057600080fd5b50600436106100a95760003560e01c80637ccb6a64116100715780637ccb6a64146101645780639021639c146101945780639b1eceb9146101b2578063c0e793c2146101ce578063ce1b815f146101ea578063d60f258214610208576100a9565b8063040d169f146100ae57806306a57c27146100de57806339b77576146100fa5780634c969a341461012a57806350cf635314610146575b600080fd5b6100c860048036036100c39190810190611687565b610238565b6040516100d59190611d51565b60405180910390f35b6100f860048036036100f39190810190611608565b6102c3565b005b610114600480360361010f9190810190611687565b6104c8565b6040516101219190611d51565b60405180910390f35b610144600480360361013f9190810190611687565b610553565b005b61014e610885565b60405161015b9190611d2f565b60405180910390f35b61017e60048036036101799190810190611573565b6109ab565b60405161018b9190611ec1565b60405180910390f35b61019c610c61565b6040516101a99190611d2f565b60405180910390f35b6101cc60048036036101c791908101906115b4565b610d87565b005b6101e860048036036101e391908101906115b4565b610f0f565b005b6101f2611010565b6040516101ff9190611d14565b60405180910390f35b610222600480360361021d91908101906115b4565b611039565b60405161022f9190611d51565b60405180910390f35b60008061027e8686866000600181111561024e57fe5b30604051602001610263959493929190611c97565b604051602081830303815290604052805190602001206110d1565b90508373ffffffffffffffffffffffffffffffffffffffff166102a18285611101565b73ffffffffffffffffffffffffffffffffffffffff1614915050949350505050565b826002816040516102d49190611c80565b908152602001604051809103902060009054906101000a900460ff1661032f576040517f08c379a000000000000000000000000000000000000000000000000000000000815260040161032690611e41565b60405180910390fd5b60006001856040516103419190611c80565b908152602001604051809103902090508373ffffffffffffffffffffffffffffffffffffffff168160030160009054906101000a900473ffffffffffffffffffffffffffffffffffffffff1673ffffffffffffffffffffffffffffffffffffffff16146103e3576040517f08c379a00000000000000000000000000000000000000000000000000000000081526004016103da90611de1565b60405180910390fd5b600460008573ffffffffffffffffffffffffffffffffffffffff1673ffffffffffffffffffffffffffffffffffffffff1681526020019081526020016000208590806001815401808255809150506001900390600052602060002001600090919091909150908051906020019061045b929190611269565b5080600201849080600181540180825580915050600190039060005260206000200160009091909190916101000a81548173ffffffffffffffffffffffffffffffffffffffff021916908373ffffffffffffffffffffffffffffffffffffffff1602179055505050505050565b60008061050e868686600060018111156104de57fe5b306040516020016104f3959493929190611c97565b604051602081830303815290604052805190602001206110d1565b90508373ffffffffffffffffffffffffffffffffffffffff166105318285611101565b73ffffffffffffffffffffffffffffffffffffffff1614915050949350505050565b836002816040516105649190611c80565b908152602001604051809103902060009054906101000a900460ff16156105c0576040517f08c379a00000000000000000000000000000000000000000000000000000000081526004016105b790611e01565b60405180910390fd5b6105cc85858585610238565b61060b576040517f08c379a000000000000000000000000000000000000000000000000000000000815260040161060290611ea1565b60405180910390fd5b6040518060a001604052808681526020018473ffffffffffffffffffffffffffffffffffffffff16815260200160646040519080825280602002602001820160405280156106685781602001602082028038833980820191505090505b508152602001600073ffffffffffffffffffffffffffffffffffffffff1681526020018581525060018660405161069f9190611c80565b908152602001604051809103902060008201518160000190805190602001906106c99291906112e9565b5060208201518160010160006101000a81548173ffffffffffffffffffffffffffffffffffffffff021916908373ffffffffffffffffffffffffffffffffffffffff160217905550604082015181600201908051906020019061072d929190611369565b5060608201518160030160006101000a81548173ffffffffffffffffffffffffffffffffffffffff021916908373ffffffffffffffffffffffffffffffffffffffff16021790555060808201518160040190805190602001906107919291906112e9565b5090505060016002866040516107a79190611c80565b908152602001604051809103902060006101000a81548160ff021916908315150217905550600360008473ffffffffffffffffffffffffffffffffffffffff1673ffffffffffffffffffffffffffffffffffffffff16815260200190815260200160002085908060018154018082558091505060019003906000526020600020016000909190919091509080519060200190610844929190611269565b507f144ced1a295f096707ac7e7d8aa1a5a89bc1fd73ea6c8d75de34bba0fe0b132e8584604051610876929190611db1565b60405180910390a15050505050565b6060600460003373ffffffffffffffffffffffffffffffffffffffff1673ffffffffffffffffffffffffffffffffffffffff168152602001908152602001600020805480602002602001604051908101604052809291908181526020016000905b828210156109a2578382906000526020600020018054600181600116156101000203166002900480601f01602080910402602001604051908101604052809291908181526020018280546001816001161561010002031660029004801561098e5780601f106109635761010080835404028352916020019161098e565b820191906000526020600020905b81548152906001019060200180831161097157829003601f168201915b5050505050815260200190600101906108e6565b50505050905090565b6109b36113f3565b6001826040516109c39190611c80565b90815260200160405180910390206040518060a0016040529081600082018054600181600116156101000203166002900480601f016020809104026020016040519081016040528092919081815260200182805460018160011615610100020316600290048015610a755780601f10610a4a57610100808354040283529160200191610a75565b820191906000526020600020905b815481529060010190602001808311610a5857829003601f168201915b505050505081526020016001820160009054906101000a900473ffffffffffffffffffffffffffffffffffffffff1673ffffffffffffffffffffffffffffffffffffffff1673ffffffffffffffffffffffffffffffffffffffff16815260200160028201805480602002602001604051908101604052809291908181526020018280548015610b5957602002820191906000526020600020905b8160009054906101000a900473ffffffffffffffffffffffffffffffffffffffff1673ffffffffffffffffffffffffffffffffffffffff1681526020019060010190808311610b0f575b505050505081526020016003820160009054906101000a900473ffffffffffffffffffffffffffffffffffffffff1673ffffffffffffffffffffffffffffffffffffffff1673ffffffffffffffffffffffffffffffffffffffff168152602001600482018054600181600116156101000203166002900480601f016020809104026020016040519081016040528092919081815260200182805460018160011615610100020316600290048015610c515780601f10610c2657610100808354040283529160200191610c51565b820191906000526020600020905b815481529060010190602001808311610c3457829003601f168201915b5050505050815250509050919050565b6060600360003373ffffffffffffffffffffffffffffffffffffffff1673ffffffffffffffffffffffffffffffffffffffff168152602001908152602001600020805480602002602001604051908101604052809291908181526020016000905b82821015610d7e578382906000526020600020018054600181600116156101000203166002900480601f016020809104026020016040519081016040528092919081815260200182805460018160011615610100020316600290048015610d6a5780601f10610d3f57610100808354040283529160200191610d6a565b820191906000526020600020905b815481529060010190602001808311610d4d57829003601f168201915b505050505081526020019060010190610cc2565b50505050905090565b81600281604051610d989190611c80565b908152602001604051809103902060009054906101000a900460ff16610df3576040517f08c379a0000000000000000000000000000000000000000000000000000000008152600401610dea90611e41565b60405180910390fd5b823373ffffffffffffffffffffffffffffffffffffffff16600182604051610e1b9190611c80565b908152602001604051809103902060010160009054906101000a900473ffffffffffffffffffffffffffffffffffffffff1673ffffffffffffffffffffffffffffffffffffffff1614610ea3576040517f08c379a0000000000000000000000000000000000000000000000000000000008152600401610e9a90611e61565b60405180910390fd5b6000600185604051610eb59190611c80565b90815260200160405180910390209050838160030160006101000a81548173ffffffffffffffffffffffffffffffffffffffff021916908373ffffffffffffffffffffffffffffffffffffffff1602179055505050505050565b813373ffffffffffffffffffffffffffffffffffffffff16600182604051610f379190611c80565b908152602001604051809103902060010160009054906101000a900473ffffffffffffffffffffffffffffffffffffffff1673ffffffffffffffffffffffffffffffffffffffff1614610fbf576040517f08c379a0000000000000000000000000000000000000000000000000000000008152600401610fb690611e61565b60405180910390fd5b610fc76113f3565b610fd0846109ab565b905082816020019073ffffffffffffffffffffffffffffffffffffffff16908173ffffffffffffffffffffffffffffffffffffffff168152505050505050565b60008060009054906101000a900473ffffffffffffffffffffffffffffffffffffffff16905090565b60006110436113f3565b61104c846109ab565b905060008090505b8160400151518110156110c4578373ffffffffffffffffffffffffffffffffffffffff168260400151828151811061108857fe5b602002602001015173ffffffffffffffffffffffffffffffffffffffff1614156110b7576001925050506110cb565b8080600101915050611054565b5060009150505b92915050565b6000816040516020016110e49190611cee565b604051602081830303815290604052805190602001209050919050565b60008060008061111085611170565b925092509250600186848484604051600081526020016040526040516111399493929190611d6c565b6020604051602081039080840390855afa15801561115b573d6000803e3d6000fd5b50505060206040510351935050505092915050565b6000806000604184511461118357600080fd5b6020840151915060408401519050606084015160001a92507f7fffffffffffffffffffffffffffffff5d576e7357a4501ddfe92f46681b20a08160001c1115611201576040517f08c379a00000000000000000000000000000000000000000000000000000000081526004016111f890611e21565b60405180910390fd5b601b8360ff16141580156112195750601c8360ff1614155b15611259576040517f08c379a000000000000000000000000000000000000000000000000000000000815260040161125090611e81565b60405180910390fd5b8282829250925092509193909250565b828054600181600116156101000203166002900490600052602060002090601f016020900481019282601f106112aa57805160ff19168380011785556112d8565b828001600101855582156112d8579182015b828111156112d75782518255916020019190600101906112bc565b5b5090506112e5919061144e565b5090565b828054600181600116156101000203166002900490600052602060002090601f016020900481019282601f1061132a57805160ff1916838001178555611358565b82800160010185558215611358579182015b8281111561135757825182559160200191906001019061133c565b5b509050611365919061144e565b5090565b8280548282559060005260206000209081019282156113e2579160200282015b828111156113e15782518260006101000a81548173ffffffffffffffffffffffffffffffffffffffff021916908373ffffffffffffffffffffffffffffffffffffffff16021790555091602001919060010190611389565b5b5090506113ef9190611473565b5090565b6040518060a0016040528060608152602001600073ffffffffffffffffffffffffffffffffffffffff16815260200160608152602001600073ffffffffffffffffffffffffffffffffffffffff168152602001606081525090565b61147091905b8082111561146c576000816000905550600101611454565b5090565b90565b6114b391905b808211156114af57600081816101000a81549073ffffffffffffffffffffffffffffffffffffffff021916905550600101611479565b5090565b90565b6000813590506114c581612114565b92915050565b600082601f8301126114dc57600080fd5b81356114ef6114ea82611f10565b611ee3565b9150808252602083016020830185838301111561150b57600080fd5b61151683828461207c565b50505092915050565b600082601f83011261153057600080fd5b813561154361153e82611f3c565b611ee3565b9150808252602083016020830185838301111561155f57600080fd5b61156a83828461207c565b50505092915050565b60006020828403121561158557600080fd5b600082013567ffffffffffffffff81111561159f57600080fd5b6115ab8482850161151f565b91505092915050565b600080604083850312156115c757600080fd5b600083013567ffffffffffffffff8111156115e157600080fd5b6115ed8582860161151f565b92505060206115fe858286016114b6565b9150509250929050565b60008060006060848603121561161d57600080fd5b600084013567ffffffffffffffff81111561163757600080fd5b6116438682870161151f565b9350506020611654868287016114b6565b925050604084013567ffffffffffffffff81111561167157600080fd5b61167d868287016114cb565b9150509250925092565b6000806000806080858703121561169d57600080fd5b600085013567ffffffffffffffff8111156116b757600080fd5b6116c38782880161151f565b945050602085013567ffffffffffffffff8111156116e057600080fd5b6116ec8782880161151f565b93505060406116fd878288016114b6565b925050606085013567ffffffffffffffff81111561171a57600080fd5b611726878288016114cb565b91505092959194509250565b600061173e838361175e565b60208301905092915050565b60006117568383611905565b905092915050565b6117678161201d565b82525050565b6117768161201d565b82525050565b61178d6117888261201d565b6120be565b82525050565b600061179e82611f88565b6117a88185611fce565b93506117b383611f68565b8060005b838110156117e45781516117cb8882611732565b97506117d683611fb4565b9250506001810190506117b7565b5085935050505092915050565b60006117fc82611f93565b6118068185611fdf565b93508360208202850161181885611f78565b8060005b858110156118545784840389528151611835858261174a565b945061184083611fc1565b925060208a0199505060018101905061181c565b50829750879550505050505092915050565b61186f8161202f565b82525050565b61187e8161203b565b82525050565b6118956118908261203b565b6120d0565b82525050565b60006118a682611fa9565b6118b08185612001565b93506118c081856020860161208b565b6118c9816120f6565b840191505092915050565b60006118df82611fa9565b6118e98185612012565b93506118f981856020860161208b565b80840191505092915050565b600061191082611f9e565b61191a8185611ff0565b935061192a81856020860161208b565b611933816120f6565b840191505092915050565b600061194b601c83612012565b91507f19457468657265756d205369676e6564204d6573736167653a0a3332000000006000830152601c82019050919050565b600061198b603a83612001565b91507f4f6e6c79207468652061737369676e207369676e656520627920746865206f7760008301527f6e65722063616e207369676e2074686520646f63756d656e742e0000000000006020830152604082019050919050565b60006119f1601783612001565b91507f446f63756d656e7420616c72656164792065786973742e0000000000000000006000830152602082019050919050565b6000611a31602283612001565b91507f45434453413a20696e76616c6964207369676e6174757265202773272076616c60008301527f75650000000000000000000000000000000000000000000000000000000000006020830152604082019050919050565b6000611a97601683612001565b91507f446f63756d656e74206469646e27742065786973742e000000000000000000006000830152602082019050919050565b6000611ad7603683612001565b91507f4f6e6c7920746865206f776e6572206f662074686520646f63756d656e74206360008301527f616e207472616e73666572206f776e6572736869702e000000000000000000006020830152604082019050919050565b6000611b3d602283612001565b91507f45434453413a20696e76616c6964207369676e6174757265202776272076616c60008301527f75650000000000000000000000000000000000000000000000000000000000006020830152604082019050919050565b6000611ba3601783612001565b91507f5369676e6174757265206973206e6f742076616c69642e0000000000000000006000830152602082019050919050565b600060a0830160008301518482036000860152611bf38282611905565b9150506020830151611c08602086018261175e565b5060408301518482036040860152611c208282611793565b9150506060830151611c35606086018261175e565b5060808301518482036080860152611c4d8282611905565b9150508091505092915050565b611c6b611c6682612065565b6120ec565b82525050565b611c7a8161206f565b82525050565b6000611c8c82846118d4565b915081905092915050565b6000611ca382886118d4565b9150611caf82876118d4565b9150611cbb828661177c565b601482019150611ccb8285611c5a565b602082019150611cdb828461177c565b6014820191508190509695505050505050565b6000611cf98261193e565b9150611d058284611884565b60208201915081905092915050565b6000602082019050611d29600083018461176d565b92915050565b60006020820190508181036000830152611d4981846117f1565b905092915050565b6000602082019050611d666000830184611866565b92915050565b6000608082019050611d816000830187611875565b611d8e6020830186611c71565b611d9b6040830185611875565b611da86060830184611875565b95945050505050565b60006040820190508181036000830152611dcb818561189b565b9050611dda602083018461176d565b9392505050565b60006020820190508181036000830152611dfa8161197e565b9050919050565b60006020820190508181036000830152611e1a816119e4565b9050919050565b60006020820190508181036000830152611e3a81611a24565b9050919050565b60006020820190508181036000830152611e5a81611a8a565b9050919050565b60006020820190508181036000830152611e7a81611aca565b9050919050565b60006020820190508181036000830152611e9a81611b30565b9050919050565b60006020820190508181036000830152611eba81611b96565b9050919050565b60006020820190508181036000830152611edb8184611bd6565b905092915050565b6000604051905081810181811067ffffffffffffffff82111715611f0657600080fd5b8060405250919050565b600067ffffffffffffffff821115611f2757600080fd5b601f19601f8301169050602081019050919050565b600067ffffffffffffffff821115611f5357600080fd5b601f19601f8301169050602081019050919050565b6000819050602082019050919050565b6000819050602082019050919050565b600081519050919050565b600081519050919050565b600081519050919050565b600081519050919050565b6000602082019050919050565b6000602082019050919050565b600082825260208201905092915050565b600082825260208201905092915050565b600082825260208201905092915050565b600082825260208201905092915050565b600081905092915050565b600061202882612045565b9050919050565b60008115159050919050565b6000819050919050565b600073ffffffffffffffffffffffffffffffffffffffff82169050919050565b6000819050919050565b600060ff82169050919050565b82818337600083830152505050565b60005b838110156120a957808201518184015260208101905061208e565b838111156120b8576000848401525b50505050565b60006120c9826120da565b9050919050565b6000819050919050565b60006120e582612107565b9050919050565b6000819050919050565b6000601f19601f8301169050919050565b60008160601b9050919050565b61211d8161201d565b811461212857600080fd5b5056fea26469706673582212202eda3b366752c44c9cd42ec8bdfd15bcea9485b4894072f9e139cbfecb92ed2464736f6c63430006020033",
  "source": "pragma solidity 0.6.2;\npragma experimental ABIEncoderV2;\n\nimport \"@opengsn/gsn/contracts/BaseRelayRecipient.sol\";\n\nstruct Document {\n    string cid;\n    address owner;\n    address[] oldsSignees;\n    address newSignee;\n    string secret;\n}\n\n// 0xb75D851adD1044685Bc91ecfD2e6DE1C6034267D Contract Address.\n// Use openzeppelin framework for safety\n\ncontract SignDocuTest is BaseRelayRecipient {\n\n    enum Action {\n        Create,\n        Sign\n    }\n\n    mapping(string => Document) documents;\n    mapping(string => bool) documentsExist;\n\n    mapping(address => string[]) creators;\n    mapping(address => string[]) signedDocuments;\n\n    event Signature(string cid, address signee);\n    event DocumentCreated(string cid, address creator);\n\n    constructor(address _forwarder) public {\n        trustedForwarder = _forwarder;\n    }\n\n    function documentIsSigned(string memory _cid, address _signee) public view returns(bool) {\n        Document memory document = getDocument(_cid);\n\n        for(uint i=0; i <  document.oldsSignees.length; i++) {\n            if (document.oldsSignees[i] == _signee) {\n                return true;\n            }\n        }\n\n        return false;\n    }\n\n    // function createAndApproveDocument(string memory _cid, address _signee, string memory _secret, address _sender) public {\n    //     createDocument(_cid, _secret, _sender);\n    //     approveToSign(_cid, _signee);\n    // }\n\n    function createDocument(string memory _cid, string memory _secret, address _sender, bytes memory _signature) public documentDontExist(_cid) {\n        require(isValidCreationDocumentSignature(_cid, _secret, _sender, _signature), 'Signature is not valid.');\n\n        documents[_cid] = Document({cid : _cid, owner : _sender, oldsSignees : new address[](100), newSignee : address(0x00), secret : _secret});\n        documentsExist[_cid] = true;\n        creators[_sender].push(_cid);\n\n        emit DocumentCreated(_cid, _sender);\n    }\n\n    function sign(string memory _cid, address _sender, bytes memory _signature) public documentExist(_cid) {\n        Document storage document = documents[_cid];\n        \n        require(document.newSignee == _sender, \"Only the assign signee by the owner can sign the document.\");\n\n        signedDocuments[_sender].push(_cid);\n        document.oldsSignees.push(_sender);\n    }\n\n    function approveToSign(string memory _cid, address _newSignee) public documentExist(_cid) onlyOwner(_cid){\n        Document storage document = documents[_cid];\n        document.newSignee = _newSignee;\n    }\n\n    function getSignedDocument() public view returns(string[] memory) {\n        return signedDocuments[msg.sender];\n    }\n\n    function getCreatedDocument() public view returns(string[] memory) {\n        return creators[msg.sender];\n    }\n\n    function getDocument(string memory _cid) public view returns(Document memory) {\n        return documents[_cid];\n    }\n\n    function transferOwnership(string memory _cid, address _newOwner) public view onlyOwner(_cid) {\n        Document memory document = getDocument(_cid);\n        document.owner = _newOwner;\n    }\n\n    modifier documentExist(string memory _cid) {\n        require(documentsExist[_cid], \"Document didn't exist.\");\n        _;\n    }\n\n    modifier documentDontExist(string memory _cid) {\n        require(!documentsExist[_cid], \"Document already exist.\");\n        _;\n    }\n\n    modifier onlyOwner(string memory _cid) {\n        require(documents[_cid].owner == msg.sender, \"Only the owner of the document can transfer ownership.\");\n        _;\n    }\n\n    // Sign Document\n\n    function isValidSignSignature(string memory _cid, string memory _secret, address _sender, bytes memory _signature)\n    public view returns(bool) {\n        bytes32 message = prefixed(keccak256(abi.encodePacked(_cid, _secret, _sender, uint(Action.Create), address(this))));\n        \n        return recoverSigner(message, _signature) == _sender;\n    }\n\n    // Sign Document\n\n    // Creating Document\n\n    function isValidCreationDocumentSignature(string memory _cid, string memory _secret, address _sender, bytes memory _signature)\n    public view returns(bool) {\n        bytes32 message = prefixed(keccak256(abi.encodePacked(_cid, _secret, _sender, uint(Action.Create), address(this))));\n        \n        return recoverSigner(message, _signature) == _sender;\n    }\n\n    // Creating Document\n\n    // Signature Part\n\n    function prefixed(bytes32 hash) internal pure returns (bytes32) {\n        return keccak256(abi.encodePacked(\"\\x19Ethereum Signed Message:\\n32\", hash));\n    }\n\n    function splitSignature(bytes memory _signature) internal pure returns(uint8 v, bytes32 r, bytes32 s) {\n        require(_signature.length == 65);\n\n        assembly {\n            // first 32 bytes, after the length prefix.\n            r := mload(add(_signature, 32))\n            // second 32 bytes.\n            s := mload(add(_signature, 64))\n            // final byte (first byte of the next 32 bytes).\n            v := byte(0, mload(add(_signature, 96)))\n        }\n\n        if (uint256(s) > 0x7FFFFFFFFFFFFFFFFFFFFFFFFFFFFFFF5D576E7357A4501DDFE92F46681B20A0) {\n            revert(\"ECDSA: invalid signature 's' value\");\n        }\n\n        if (v != 27 && v != 28) {\n            revert(\"ECDSA: invalid signature 'v' value\");\n        }\n\n        return (v, r, s);\n    }\n\n    function recoverSigner(bytes32 _message, bytes memory _signature) internal pure returns (address) {\n        (uint8 v, bytes32 r, bytes32 s) = splitSignature(_signature);\n        return ecrecover(_message, v, r, s);\n    }\n\n    // Signature Part\n}",
  "sourcePath": "/Users/mariejoseph/Documents/HackFS/IPFS/contracts/SignDocuTest.sol",
  "compiler": {
    "name": "solc",
    "version": "0.6.2+commit.bacdbe57.Emscripten.clang"
  },
  "schemaVersion": "3.2.0",
  "updatedAt": "2020-08-06T20:27:01.754Z",
  "networkType": "ethereum",
  "devdoc": {
    "methods": {}
  },
  "userdoc": {
    "methods": {}
  }
}