{
  "contractName": "SignDocu",
  "abi": [
    {
      "inputs": [],
      "stateMutability": "nonpayable",
      "type": "constructor"
    },
    {
      "anonymous": false,
      "inputs": [
        {
          "indexed": false,
          "internalType": "string",
          "name": "cid",
          "type": "string"
        },
        {
          "indexed": false,
          "internalType": "address",
          "name": "signee",
          "type": "address"
        }
      ],
      "name": "Signature",
      "type": "event"
    },
    {
      "inputs": [
        {
          "internalType": "string",
          "name": "_cid",
          "type": "string"
        },
        {
          "internalType": "address",
          "name": "_signee",
          "type": "address"
        }
      ],
      "name": "documentIsSigned",
      "outputs": [
        {
          "internalType": "bool",
          "name": "",
          "type": "bool"
        }
      ],
      "stateMutability": "view",
      "type": "function"
    },
    {
      "inputs": [
        {
          "internalType": "string",
          "name": "_cid",
          "type": "string"
        }
      ],
      "name": "sign",
      "outputs": [],
      "stateMutability": "nonpayable",
      "type": "function"
    },
    {
      "inputs": [
        {
          "internalType": "string",
          "name": "_cid",
          "type": "string"
        },
        {
          "internalType": "address",
          "name": "_newSignee",
          "type": "address"
        }
      ],
      "name": "approveToSign",
      "outputs": [],
      "stateMutability": "nonpayable",
      "type": "function"
    },
    {
      "inputs": [
        {
          "internalType": "string",
          "name": "_cid",
          "type": "string"
        }
      ],
      "name": "getDocument",
      "outputs": [
        {
          "components": [
            {
              "internalType": "string",
              "name": "cid",
              "type": "string"
            },
            {
              "internalType": "address",
              "name": "owner",
              "type": "address"
            },
            {
              "internalType": "address[]",
              "name": "oldsSignees",
              "type": "address[]"
            },
            {
              "internalType": "address",
              "name": "newSignee",
              "type": "address"
            }
          ],
          "internalType": "struct Document",
          "name": "",
          "type": "tuple"
        }
      ],
      "stateMutability": "view",
      "type": "function"
    },
    {
      "inputs": [
        {
          "internalType": "string",
          "name": "_cid",
          "type": "string"
        },
        {
          "internalType": "address",
          "name": "_newOwner",
          "type": "address"
        }
      ],
      "name": "transferOwnership",
      "outputs": [],
      "stateMutability": "view",
      "type": "function"
    }
  ],
  "bytecode": "0x608060405234801561001057600080fd5b50610dfa806100206000396000f3fe608060405234801561001057600080fd5b50600436106100575760003560e01c806379d6348d1461005c5780637ccb6a64146100785780639b1eceb9146100a8578063c0e793c2146100c4578063d60f2582146100e0575b600080fd5b6100766004803603610071919081019061088a565b610110565b005b610092600480360361008d919081019061088a565b610299565b60405161009f9190610c25565b60405180910390f35b6100c260048036036100bd91908101906108cb565b6104ad565b005b6100de60048036036100d991908101906108cb565b610634565b005b6100fa60048036036100f591908101906108cb565b610735565b6040516101079190610baa565b60405180910390f35b806001816040516101219190610b93565b908152602001604051809103902060009054906101000a900460ff1661017c576040517f08c379a000000000000000000000000000000000000000000000000000000000815260040161017390610be5565b60405180910390fd5b6000808360405161018d9190610b93565b908152602001604051809103902090503373ffffffffffffffffffffffffffffffffffffffff168160030160009054906101000a900473ffffffffffffffffffffffffffffffffffffffff1673ffffffffffffffffffffffffffffffffffffffff161461022f576040517f08c379a000000000000000000000000000000000000000000000000000000000815260040161022690610bc5565b60405180910390fd5b80600201339080600181540180825580915050600190039060005260206000200160009091909190916101000a81548173ffffffffffffffffffffffffffffffffffffffff021916908373ffffffffffffffffffffffffffffffffffffffff160217905550505050565b6102a16107cd565b6000826040516102b19190610b93565b9081526020016040518091039020604051806080016040529081600082018054600181600116156101000203166002900480601f0160208091040260200160405190810160405280929190818152602001828054600181600116156101000203166002900480156103635780601f1061033857610100808354040283529160200191610363565b820191906000526020600020905b81548152906001019060200180831161034657829003601f168201915b505050505081526020016001820160009054906101000a900473ffffffffffffffffffffffffffffffffffffffff1673ffffffffffffffffffffffffffffffffffffffff1673ffffffffffffffffffffffffffffffffffffffff1681526020016002820180548060200260200160405190810160405280929190818152602001828054801561044757602002820191906000526020600020905b8160009054906101000a900473ffffffffffffffffffffffffffffffffffffffff1673ffffffffffffffffffffffffffffffffffffffff16815260200190600101908083116103fd575b505050505081526020016003820160009054906101000a900473ffffffffffffffffffffffffffffffffffffffff1673ffffffffffffffffffffffffffffffffffffffff1673ffffffffffffffffffffffffffffffffffffffff16815250509050919050565b816001816040516104be9190610b93565b908152602001604051809103902060009054906101000a900460ff16610519576040517f08c379a000000000000000000000000000000000000000000000000000000000815260040161051090610be5565b60405180910390fd5b823373ffffffffffffffffffffffffffffffffffffffff166000826040516105419190610b93565b908152602001604051809103902060010160009054906101000a900473ffffffffffffffffffffffffffffffffffffffff1673ffffffffffffffffffffffffffffffffffffffff16146105c9576040517f08c379a00000000000000000000000000000000000000000000000000000000081526004016105c090610c05565b60405180910390fd5b600080856040516105da9190610b93565b90815260200160405180910390209050838160030160006101000a81548173ffffffffffffffffffffffffffffffffffffffff021916908373ffffffffffffffffffffffffffffffffffffffff1602179055505050505050565b813373ffffffffffffffffffffffffffffffffffffffff1660008260405161065c9190610b93565b908152602001604051809103902060010160009054906101000a900473ffffffffffffffffffffffffffffffffffffffff1673ffffffffffffffffffffffffffffffffffffffff16146106e4576040517f08c379a00000000000000000000000000000000000000000000000000000000081526004016106db90610c05565b60405180910390fd5b6106ec6107cd565b6106f584610299565b905082816020019073ffffffffffffffffffffffffffffffffffffffff16908173ffffffffffffffffffffffffffffffffffffffff168152505050505050565b600061073f6107cd565b61074884610299565b905060008090505b8160400151518110156107c0578373ffffffffffffffffffffffffffffffffffffffff168260400151828151811061078457fe5b602002602001015173ffffffffffffffffffffffffffffffffffffffff1614156107b3576001925050506107c7565b8080600101915050610750565b5060009150505b92915050565b604051806080016040528060608152602001600073ffffffffffffffffffffffffffffffffffffffff16815260200160608152602001600073ffffffffffffffffffffffffffffffffffffffff1681525090565b60008135905061083081610dad565b92915050565b600082601f83011261084757600080fd5b813561085a61085582610c74565b610c47565b9150808252602083016020830185838301111561087657600080fd5b610881838284610d5a565b50505092915050565b60006020828403121561089c57600080fd5b600082013567ffffffffffffffff8111156108b657600080fd5b6108c284828501610836565b91505092915050565b600080604083850312156108de57600080fd5b600083013567ffffffffffffffff8111156108f857600080fd5b61090485828601610836565b925050602061091585828601610821565b9150509250929050565b600061092b8383610937565b60208301905092915050565b61094081610d1c565b82525050565b600061095182610cb0565b61095b8185610cde565b935061096683610ca0565b8060005b8381101561099757815161097e888261091f565b975061098983610cd1565b92505060018101905061096a565b5085935050505092915050565b6109ad81610d2e565b82525050565b60006109be82610cc6565b6109c88185610d11565b93506109d8818560208601610d69565b80840191505092915050565b60006109ef82610cbb565b6109f98185610cef565b9350610a09818560208601610d69565b610a1281610d9c565b840191505092915050565b6000610a2a603a83610d00565b91507f4f6e6c79207468652061737369676e207369676e656520627920746865206f7760008301527f6e65722063616e207369676e2074686520646f63756d656e742e0000000000006020830152604082019050919050565b6000610a90601683610d00565b91507f446f63756d656e74206469646e27742065786973742e000000000000000000006000830152602082019050919050565b6000610ad0603683610d00565b91507f4f6e6c7920746865206f776e6572206f662074686520646f63756d656e74206360008301527f616e207472616e73666572206f776e6572736869702e000000000000000000006020830152604082019050919050565b60006080830160008301518482036000860152610b4682826109e4565b9150506020830151610b5b6020860182610937565b5060408301518482036040860152610b738282610946565b9150506060830151610b886060860182610937565b508091505092915050565b6000610b9f82846109b3565b915081905092915050565b6000602082019050610bbf60008301846109a4565b92915050565b60006020820190508181036000830152610bde81610a1d565b9050919050565b60006020820190508181036000830152610bfe81610a83565b9050919050565b60006020820190508181036000830152610c1e81610ac3565b9050919050565b60006020820190508181036000830152610c3f8184610b29565b905092915050565b6000604051905081810181811067ffffffffffffffff82111715610c6a57600080fd5b8060405250919050565b600067ffffffffffffffff821115610c8b57600080fd5b601f19601f8301169050602081019050919050565b6000819050602082019050919050565b600081519050919050565b600081519050919050565b600081519050919050565b6000602082019050919050565b600082825260208201905092915050565b600082825260208201905092915050565b600082825260208201905092915050565b600081905092915050565b6000610d2782610d3a565b9050919050565b60008115159050919050565b600073ffffffffffffffffffffffffffffffffffffffff82169050919050565b82818337600083830152505050565b60005b83811015610d87578082015181840152602081019050610d6c565b83811115610d96576000848401525b50505050565b6000601f19601f8301169050919050565b610db681610d1c565b8114610dc157600080fd5b5056fea264697066735822122025a16d488a96da438774deb6724686531c63dd3d8f3e1a4f9f59f3b7bebe433364736f6c63430006020033",
  "source": "pragma solidity 0.6.2;\npragma experimental ABIEncoderV2;\n\nstruct Document {\n    string cid;\n    address owner;\n    address[] oldsSignees;\n    address newSignee;\n}\n\ncontract SignDocu {\n\n    mapping(string => Document) documents;\n    mapping(string => bool) documentsExist;\n\n    event Signature(string cid, address signee);\n\n    constructor() public {\n    }\n\n    function documentIsSigned(string memory _cid, address _signee) public view returns(bool) {\n        Document memory document = getDocument(_cid);\n\n        for(uint i=0; i <  document.oldsSignees.length; i++) {\n            if (document.oldsSignees[i] == _signee) {\n                return true;\n            }\n        }\n        return false;\n    }\n\n    function sign(string memory _cid) public documentExist(_cid) {\n        Document storage document = documents[_cid];\n        \n        require(document.newSignee == msg.sender, \"Only the assign signee by the owner can sign the document.\");\n\n        document.oldsSignees.push(msg.sender);\n    }\n\n    function approveToSign(string memory _cid, address _newSignee) public documentExist(_cid) onlyOwner(_cid){\n        Document storage document = documents[_cid];\n        document.newSignee = _newSignee;\n    }\n\n    function getDocument(string memory _cid) public view returns(Document memory) {\n        return documents[_cid];\n    }\n\n    function transferOwnership(string memory _cid, address _newOwner) public view onlyOwner(_cid) {\n        Document memory document = getDocument(_cid);\n        document.owner = _newOwner;\n    }\n\n    modifier documentExist(string memory _cid) {\n        require(documentsExist[_cid], \"Document didn't exist.\");\n        _;\n    }\n\n    modifier onlyOwner(string memory _cid) {\n        require(documents[_cid].owner == msg.sender, \"Only the owner of the document can transfer ownership.\");\n        _;\n    }\n}",
  "sourcePath": "/Users/mariejoseph/Documents/HackFS/IPFS/contracts/SignDocu.sol",
  "compiler": {
    "name": "solc",
    "version": "0.6.2+commit.bacdbe57.Emscripten.clang"
  },
  "schemaVersion": "3.2.0",
  "updatedAt": "2020-07-17T19:37:11.093Z",
  "devdoc": {
    "methods": {}
  },
  "userdoc": {
    "methods": {}
  }
}