{
  "contractName": "SignDocuTest",
  "abi": [
    {
      "inputs": [
        {
          "internalType": "address",
          "name": "_forwarder",
          "type": "address"
        }
      ],
      "stateMutability": "nonpayable",
      "type": "constructor"
    },
    {
      "anonymous": false,
      "inputs": [
        {
          "indexed": false,
          "internalType": "string",
          "name": "cid",
          "type": "string"
        },
        {
          "indexed": false,
          "internalType": "address",
          "name": "creator",
          "type": "address"
        }
      ],
      "name": "DocumentCreated",
      "type": "event"
    },
    {
      "anonymous": false,
      "inputs": [
        {
          "indexed": true,
          "internalType": "address",
          "name": "previousOwner",
          "type": "address"
        },
        {
          "indexed": true,
          "internalType": "address",
          "name": "newOwner",
          "type": "address"
        }
      ],
      "name": "OwnershipTransferred",
      "type": "event"
    },
    {
      "anonymous": false,
      "inputs": [
        {
          "indexed": false,
          "internalType": "string",
          "name": "cid",
          "type": "string"
        },
        {
          "indexed": false,
          "internalType": "address",
          "name": "signee",
          "type": "address"
        }
      ],
      "name": "Signature",
      "type": "event"
    },
    {
      "inputs": [
        {
          "internalType": "address",
          "name": "",
          "type": "address"
        }
      ],
      "name": "accounts",
      "outputs": [
        {
          "internalType": "string",
          "name": "",
          "type": "string"
        }
      ],
      "stateMutability": "view",
      "type": "function"
    },
    {
      "inputs": [
        {
          "internalType": "string",
          "name": "",
          "type": "string"
        }
      ],
      "name": "documents",
      "outputs": [
        {
          "internalType": "string",
          "name": "cid",
          "type": "string"
        },
        {
          "internalType": "address",
          "name": "owner",
          "type": "address"
        },
        {
          "internalType": "address",
          "name": "newSignee",
          "type": "address"
        },
        {
          "internalType": "enum State",
          "name": "state",
          "type": "uint8"
        }
      ],
      "stateMutability": "view",
      "type": "function"
    },
    {
      "inputs": [],
      "name": "getTrustedForwarder",
      "outputs": [
        {
          "internalType": "address",
          "name": "",
          "type": "address"
        }
      ],
      "stateMutability": "view",
      "type": "function"
    },
    {
      "inputs": [
        {
          "internalType": "string",
          "name": "_cid",
          "type": "string"
        },
        {
          "internalType": "address",
          "name": "_signee",
          "type": "address"
        }
      ],
      "name": "documentIsSigned",
      "outputs": [
        {
          "internalType": "bool",
          "name": "",
          "type": "bool"
        }
      ],
      "stateMutability": "view",
      "type": "function"
    },
    {
      "inputs": [
        {
          "internalType": "address",
          "name": "_sender",
          "type": "address"
        },
        {
          "internalType": "string",
          "name": "_accountPubKey",
          "type": "string"
        },
        {
          "internalType": "bytes",
          "name": "_signature",
          "type": "bytes"
        }
      ],
      "name": "createAccount",
      "outputs": [],
      "stateMutability": "nonpayable",
      "type": "function"
    },
    {
      "inputs": [
        {
          "internalType": "string",
          "name": "_cid",
          "type": "string"
        },
        {
          "internalType": "string",
          "name": "_secret",
          "type": "string"
        },
        {
          "internalType": "address",
          "name": "_sender",
          "type": "address"
        },
        {
          "internalType": "bytes",
          "name": "_signature",
          "type": "bytes"
        }
      ],
      "name": "createDocument",
      "outputs": [],
      "stateMutability": "nonpayable",
      "type": "function"
    },
    {
      "inputs": [
        {
          "internalType": "string",
          "name": "_cid",
          "type": "string"
        },
        {
          "internalType": "string",
          "name": "_secret",
          "type": "string"
        },
        {
          "internalType": "address",
          "name": "_sender",
          "type": "address"
        },
        {
          "internalType": "bytes",
          "name": "_signature",
          "type": "bytes"
        }
      ],
      "name": "sign",
      "outputs": [],
      "stateMutability": "nonpayable",
      "type": "function"
    },
    {
      "inputs": [
        {
          "internalType": "string",
          "name": "_cid",
          "type": "string"
        },
        {
          "internalType": "address",
          "name": "_sender",
          "type": "address"
        },
        {
          "internalType": "address",
          "name": "_newSignee",
          "type": "address"
        },
        {
          "internalType": "string",
          "name": "_secret",
          "type": "string"
        },
        {
          "internalType": "bytes",
          "name": "_signature",
          "type": "bytes"
        }
      ],
      "name": "approveToSign",
      "outputs": [],
      "stateMutability": "nonpayable",
      "type": "function"
    },
    {
      "inputs": [],
      "name": "getCreatedDocument",
      "outputs": [
        {
          "internalType": "string[]",
          "name": "",
          "type": "string[]"
        }
      ],
      "stateMutability": "view",
      "type": "function"
    },
    {
      "inputs": [],
      "name": "getDocuments",
      "outputs": [
        {
          "internalType": "string[]",
          "name": "",
          "type": "string[]"
        }
      ],
      "stateMutability": "view",
      "type": "function"
    },
    {
      "inputs": [
        {
          "internalType": "string",
          "name": "_cid",
          "type": "string"
        }
      ],
      "name": "getSigneeSecret",
      "outputs": [
        {
          "internalType": "string",
          "name": "",
          "type": "string"
        }
      ],
      "stateMutability": "view",
      "type": "function"
    },
    {
      "inputs": [
        {
          "internalType": "string",
          "name": "_cid",
          "type": "string"
        }
      ],
      "name": "getDocumentOwner",
      "outputs": [
        {
          "internalType": "address",
          "name": "",
          "type": "address"
        }
      ],
      "stateMutability": "view",
      "type": "function"
    },
    {
      "inputs": [
        {
          "internalType": "address",
          "name": "_sender",
          "type": "address"
        },
        {
          "internalType": "string",
          "name": "_accountPubKey",
          "type": "string"
        },
        {
          "internalType": "bytes",
          "name": "_signature",
          "type": "bytes"
        }
      ],
      "name": "isValidAccountCreation",
      "outputs": [
        {
          "internalType": "bool",
          "name": "",
          "type": "bool"
        }
      ],
      "stateMutability": "view",
      "type": "function"
    },
    {
      "inputs": [
        {
          "internalType": "string",
          "name": "_cid",
          "type": "string"
        },
        {
          "internalType": "address",
          "name": "_sender",
          "type": "address"
        },
        {
          "internalType": "address",
          "name": "_newSignee",
          "type": "address"
        },
        {
          "internalType": "string",
          "name": "_secret",
          "type": "string"
        },
        {
          "internalType": "bytes",
          "name": "_signature",
          "type": "bytes"
        }
      ],
      "name": "isValidApproveSignature",
      "outputs": [
        {
          "internalType": "bool",
          "name": "",
          "type": "bool"
        }
      ],
      "stateMutability": "view",
      "type": "function"
    },
    {
      "inputs": [
        {
          "internalType": "string",
          "name": "_cid",
          "type": "string"
        },
        {
          "internalType": "string",
          "name": "_secret",
          "type": "string"
        },
        {
          "internalType": "address",
          "name": "_sender",
          "type": "address"
        },
        {
          "internalType": "bytes",
          "name": "_signature",
          "type": "bytes"
        }
      ],
      "name": "isValidSignSignature",
      "outputs": [
        {
          "internalType": "bool",
          "name": "",
          "type": "bool"
        }
      ],
      "stateMutability": "view",
      "type": "function"
    },
    {
      "inputs": [
        {
          "internalType": "string",
          "name": "_cid",
          "type": "string"
        },
        {
          "internalType": "string",
          "name": "_secret",
          "type": "string"
        },
        {
          "internalType": "address",
          "name": "_sender",
          "type": "address"
        },
        {
          "internalType": "bytes",
          "name": "_signature",
          "type": "bytes"
        }
      ],
      "name": "isValidCreationDocumentSignature",
      "outputs": [
        {
          "internalType": "bool",
          "name": "",
          "type": "bool"
        }
      ],
      "stateMutability": "view",
      "type": "function"
    },
    {
      "inputs": [
        {
          "internalType": "address",
          "name": "_account",
          "type": "address"
        }
      ],
      "name": "getBalance",
      "outputs": [
        {
          "internalType": "uint256",
          "name": "",
          "type": "uint256"
        }
      ],
      "stateMutability": "view",
      "type": "function"
    },
    {
      "inputs": [],
      "name": "sendPayement",
      "outputs": [],
      "stateMutability": "payable",
      "type": "function"
    },
    {
      "inputs": [
        {
          "internalType": "string",
          "name": "_cid",
          "type": "string"
        },
        {
          "internalType": "uint256",
          "name": "_gasEstimate",
          "type": "uint256"
        },
        {
          "internalType": "uint256",
          "name": "_gasPrice",
          "type": "uint256"
        }
      ],
      "name": "transactionWillExecute",
      "outputs": [
        {
          "internalType": "bool",
          "name": "",
          "type": "bool"
        }
      ],
      "stateMutability": "view",
      "type": "function"
    },
    {
      "inputs": [
        {
          "internalType": "address",
          "name": "_paymaster",
          "type": "address"
        }
      ],
      "name": "setPaymaster",
      "outputs": [],
      "stateMutability": "nonpayable",
      "type": "function"
    },
    {
      "inputs": [
        {
          "internalType": "uint256",
          "name": "_fee",
          "type": "uint256"
        }
      ],
      "name": "getFeeByPaymaster",
      "outputs": [],
      "stateMutability": "nonpayable",
      "type": "function"
    },
    {
      "inputs": [],
      "name": "owner",
      "outputs": [
        {
          "internalType": "address",
          "name": "",
          "type": "address"
        }
      ],
      "stateMutability": "view",
      "type": "function"
    },
    {
      "inputs": [],
      "name": "renounceOwnership",
      "outputs": [],
      "stateMutability": "nonpayable",
      "type": "function"
    },
    {
      "inputs": [
        {
          "internalType": "string",
          "name": "_cid",
          "type": "string"
        },
        {
          "internalType": "address",
          "name": "_sender",
          "type": "address"
        },
        {
          "internalType": "address",
          "name": "_newOwner",
          "type": "address"
        }
      ],
      "name": "transferOwnership",
      "outputs": [],
      "stateMutability": "view",
      "type": "function"
    },
    {
      "inputs": [
        {
          "internalType": "address",
          "name": "newOwner",
          "type": "address"
        }
      ],
      "name": "transferOwnership",
      "outputs": [],
      "stateMutability": "nonpayable",
      "type": "function"
    }
  ],
  "bytecode": "0x60806040523480156200001157600080fd5b506040516200403a3803806200403a833981810160405262000037919081019062000335565b806000806101000a81548173ffffffffffffffffffffffffffffffffffffffff021916908373ffffffffffffffffffffffffffffffffffffffff1602179055506000620000896200012f60201b60201c565b905080600160006101000a81548173ffffffffffffffffffffffffffffffffffffffff021916908373ffffffffffffffffffffffffffffffffffffffff1602179055508073ffffffffffffffffffffffffffffffffffffffff16600073ffffffffffffffffffffffffffffffffffffffff167f8be0079c531659141344cd1fd0a4f28419497f9722a3daafe3b4186f6b6457e060405160405180910390a350506200044f565b6000601860003690501015801562000181575062000152620001f960201b60201c565b73ffffffffffffffffffffffffffffffffffffffff163373ffffffffffffffffffffffffffffffffffffffff16145b15620001f257620001ea6000368080601f016020809104026020016040519081016040528093929190818152602001838380828437600081840152601f19601f8201169050808301925050505050505060146000369050036200022260201b6200250c1760201c565b9050620001f6565b3390505b90565b60008060009054906101000a900473ffffffffffffffffffffffffffffffffffffffff16905090565b600060148201835110156200026457620002636200025260048551601486016200028f60201b6200255e1760201c565b6200031660201b620025e31760201c565b5b60148201915073ffffffffffffffffffffffffffffffffffffffff8284015116905080905092915050565b6060632800659560e01b848484604051602401620002b09392919062000383565b604051602081830303815290604052907bffffffffffffffffffffffffffffffffffffffffffffffffffffffff19166020820180517bffffffffffffffffffffffffffffffffffffffffffffffffffffffff838183161783525050505090509392505050565b805160208201fd5b6000815190506200032f8162000435565b92915050565b6000602082840312156200034857600080fd5b600062000358848285016200031e565b91505092915050565b6200036c8162000413565b82525050565b6200037d8162000409565b82525050565b60006060820190506200039a600083018662000361565b620003a9602083018562000372565b620003b8604083018462000372565b949350505050565b6000620003cd82620003e9565b9050919050565b6000819050620003e48262000427565b919050565b600073ffffffffffffffffffffffffffffffffffffffff82169050919050565b6000819050919050565b60006200042082620003d4565b9050919050565b600881106200043257fe5b50565b6200044081620003c0565b81146200044c57600080fd5b50565b613bdb806200045f6000396000f3fe6080604052600436106101665760003560e01c80638da5cb5b116100d1578063cb356d911161008a578063ef2d870011610064578063ef2d870014610568578063f2fde38b14610593578063f5e5b8e0146105bc578063f8b2cb4f146105e557610166565b8063cb356d91146104c3578063ce1b815f14610500578063d60f25821461052b57610166565b80638da5cb5b146103a95780638e063992146103d45780639021639c146103de578063a3061a8014610409578063acf1255414610446578063b3dd697b1461048357610166565b806349b985571161012357806349b98557146102895780634c969a34146102b25780634dc4d75a146102db5780635e5c06e214610318578063636bcda314610355578063715018a61461039257610166565b8063040d169f1461016b578063078e84f4146101a85780631c2c656d146101d157806326ec90ae146101fa5780632a97fa771461022357806339b775761461024c575b600080fd5b34801561017757600080fd5b50610192600480360361018d9190810190612b39565b610622565b60405161019f91906135a8565b60405180910390f35b3480156101b457600080fd5b506101cf60048036036101ca91908101906128be565b6106ad565b005b3480156101dd57600080fd5b506101f860048036036101f39190810190612a13565b61081c565b005b34801561020657600080fd5b50610221600480360361021c9190810190612b39565b610abb565b005b34801561022f57600080fd5b5061024a60048036036102459190810190612895565b610c54565b005b34801561025857600080fd5b50610273600480360361026e9190810190612b39565b610d2f565b60405161028091906135a8565b60405180910390f35b34801561029557600080fd5b506102b060048036036102ab9190810190612a7a565b610dba565b005b3480156102be57600080fd5b506102d960048036036102d49190810190612b39565b6111c0565b005b3480156102e757600080fd5b5061030260048036036102fd9190810190612be4565b6115f7565b60405161030f91906135a8565b60405180910390f35b34801561032457600080fd5b5061033f600480360361033a9190810190612895565b61165e565b60405161034c919061363f565b60405180910390f35b34801561036157600080fd5b5061037c6004803603610377919081019061297e565b61170e565b6040516103899190613661565b60405180910390f35b34801561039e57600080fd5b506103a761180e565b005b3480156103b557600080fd5b506103be611966565b6040516103cb919061356b565b60405180910390f35b6103dc611990565b005b3480156103ea57600080fd5b506103f3611a17565b6040516104009190613586565b60405180910390f35b34801561041557600080fd5b50610430600480360361042b9190810190612a7a565b611b3d565b60405161043d91906135a8565b60405180910390f35b34801561045257600080fd5b5061046d600480360361046891908101906128be565b611bcb565b60405161047a91906135a8565b60405180910390f35b34801561048f57600080fd5b506104aa60048036036104a5919081019061293d565b611c52565b6040516104ba94939291906136b3565b60405180910390f35b3480156104cf57600080fd5b506104ea60048036036104e5919081019061297e565b611d7d565b6040516104f7919061356b565b60405180910390f35b34801561050c57600080fd5b50610515611dc8565b604051610522919061356b565b60405180910390f35b34801561053757600080fd5b50610552600480360361054d91908101906129bf565b611df1565b60405161055f91906135a8565b60405180910390f35b34801561057457600080fd5b5061057d611e42565b60405161058a9190613586565b60405180910390f35b34801561059f57600080fd5b506105ba60048036036105b59190810190612895565b611f68565b005b3480156105c857600080fd5b506105e360048036036105de9190810190612c4b565b61212f565b005b3480156105f157600080fd5b5061060c60048036036106079190810190612895565b612209565b60405161061991906138bf565b60405180910390f35b6000806106688686866000600381111561063857fe5b3060405160200161064d9594939291906134c2565b60405160208183030381529060405280519060200120612252565b90508373ffffffffffffffffffffffffffffffffffffffff1661068b8285612282565b73ffffffffffffffffffffffffffffffffffffffff1614915050949350505050565b826040516020016106bd90613556565b60405160208183030381529060405280519060200120600660008373ffffffffffffffffffffffffffffffffffffffff1673ffffffffffffffffffffffffffffffffffffffff1681526020019081526020016000206040516020016107229190613519565b6040516020818303038152906040528051906020012014610778576040517f08c379a000000000000000000000000000000000000000000000000000000000815260040161076f9061389f565b60405180910390fd5b610783848484611bcb565b6107c2576040517f08c379a00000000000000000000000000000000000000000000000000000000081526004016107b99061385f565b60405180910390fd5b82600660008673ffffffffffffffffffffffffffffffffffffffff1673ffffffffffffffffffffffffffffffffffffffff16815260200190815260200160002090805190602001906108159291906125eb565b5050505050565b82828073ffffffffffffffffffffffffffffffffffffffff166004836040516108459190613443565b908152602001604051809103902060010160009054906101000a900473ffffffffffffffffffffffffffffffffffffffff1673ffffffffffffffffffffffffffffffffffffffff16146108cd576040517f08c379a00000000000000000000000000000000000000000000000000000000081526004016108c49061375f565b60405180910390fd5b6108d561266b565b6004866040516108e59190613443565b9081526020016040518091039020604051806080016040529081600082018054600181600116156101000203166002900480601f0160208091040260200160405190810160405280929190818152602001828054600181600116156101000203166002900480156109975780601f1061096c57610100808354040283529160200191610997565b820191906000526020600020905b81548152906001019060200180831161097a57829003601f168201915b505050505081526020016001820160009054906101000a900473ffffffffffffffffffffffffffffffffffffffff1673ffffffffffffffffffffffffffffffffffffffff1673ffffffffffffffffffffffffffffffffffffffff1681526020016002820160009054906101000a900473ffffffffffffffffffffffffffffffffffffffff1673ffffffffffffffffffffffffffffffffffffffff1673ffffffffffffffffffffffffffffffffffffffff1681526020016002820160149054906101000a900460ff166003811115610a6a57fe5b6003811115610a7557fe5b81525050905083816020019073ffffffffffffffffffffffffffffffffffffffff16908173ffffffffffffffffffffffffffffffffffffffff1681525050505050505050565b83600581604051610acc9190613443565b908152602001604051809103902060009054906101000a900460ff16610b27576040517f08c379a0000000000000000000000000000000000000000000000000000000008152600401610b1e9061379f565b60405180910390fd5b610b3385858585610d2f565b610b72576040517f08c379a0000000000000000000000000000000000000000000000000000000008152600401610b699061385f565b60405180910390fd5b6000600486604051610b849190613443565b908152602001604051809103902090508373ffffffffffffffffffffffffffffffffffffffff168160020160009054906101000a900473ffffffffffffffffffffffffffffffffffffffff1673ffffffffffffffffffffffffffffffffffffffff1614610c26576040517f08c379a0000000000000000000000000000000000000000000000000000000008152600401610c1d906136ff565b60405180910390fd5b60038160020160146101000a81548160ff02191690836003811115610c4757fe5b0217905550505050505050565b610c5c6122f1565b73ffffffffffffffffffffffffffffffffffffffff16600160009054906101000a900473ffffffffffffffffffffffffffffffffffffffff1673ffffffffffffffffffffffffffffffffffffffff1614610ceb576040517f08c379a0000000000000000000000000000000000000000000000000000000008152600401610ce29061381f565b60405180910390fd5b80600260006101000a81548173ffffffffffffffffffffffffffffffffffffffff021916908373ffffffffffffffffffffffffffffffffffffffff16021790555050565b600080610d7586868660026003811115610d4557fe5b30604051602001610d5a9594939291906134c2565b60405160208183030381529060405280519060200120612252565b90508373ffffffffffffffffffffffffffffffffffffffff16610d988285612282565b73ffffffffffffffffffffffffffffffffffffffff1614915050949350505050565b84600581604051610dcb9190613443565b908152602001604051809103902060009054906101000a900460ff16610e26576040517f08c379a0000000000000000000000000000000000000000000000000000000008152600401610e1d9061379f565b60405180910390fd5b85858073ffffffffffffffffffffffffffffffffffffffff16600483604051610e4f9190613443565b908152602001604051809103902060010160009054906101000a900473ffffffffffffffffffffffffffffffffffffffff1673ffffffffffffffffffffffffffffffffffffffff1614610ed7576040517f08c379a0000000000000000000000000000000000000000000000000000000008152600401610ece9061375f565b60405180910390fd5b85604051602001610ee790613556565b60405160208183030381529060405280519060200120600660008373ffffffffffffffffffffffffffffffffffffffff1673ffffffffffffffffffffffffffffffffffffffff168152602001908152602001600020604051602001610f4c9190613519565b604051602081830303815290604052805190602001201415610fa3576040517f08c379a0000000000000000000000000000000000000000000000000000000008152600401610f9a906137bf565b60405180910390fd5b610fb08989898989611b3d565b610fef576040517f08c379a0000000000000000000000000000000000000000000000000000000008152600401610fe69061385f565b60405180910390fd5b600060048a6040516110019190613443565b908152602001604051809103902090506002600381111561101e57fe5b8160020160149054906101000a900460ff16600381111561103b57fe5b141561107c576040517f08c379a00000000000000000000000000000000000000000000000000000000081526004016110739061383f565b60405180910390fd5b878160020160006101000a81548173ffffffffffffffffffffffffffffffffffffffff021916908373ffffffffffffffffffffffffffffffffffffffff160217905550868160030160008a73ffffffffffffffffffffffffffffffffffffffff1673ffffffffffffffffffffffffffffffffffffffff16815260200190815260200160002090805190602001906111149291906125eb565b5060028160020160146101000a81548160ff0219169083600381111561113657fe5b0217905550600860008973ffffffffffffffffffffffffffffffffffffffff1673ffffffffffffffffffffffffffffffffffffffff1681526020019081526020016000208a9080600181540180825580915050600190039060005260206000200160009091909190915090805190602001906111b39291906125eb565b5050505050505050505050565b836005816040516111d19190613443565b908152602001604051809103902060009054906101000a900460ff161561122d576040517f08c379a00000000000000000000000000000000000000000000000000000000081526004016112249061373f565b60405180910390fd5b8260405160200161123d90613556565b60405160208183030381529060405280519060200120600660008373ffffffffffffffffffffffffffffffffffffffff1673ffffffffffffffffffffffffffffffffffffffff1681526020019081526020016000206040516020016112a29190613519565b6040516020818303038152906040528051906020012014156112f9576040517f08c379a00000000000000000000000000000000000000000000000000000000081526004016112f0906137bf565b60405180910390fd5b61130586868686610622565b611344576040517f08c379a000000000000000000000000000000000000000000000000000000000815260040161133b9061385f565b60405180910390fd5b60405180608001604052808781526020018573ffffffffffffffffffffffffffffffffffffffff168152602001600073ffffffffffffffffffffffffffffffffffffffff1681526020016001600381111561139b57fe5b8152506004876040516113ae9190613443565b908152602001604051809103902060008201518160000190805190602001906113d89291906126ca565b5060208201518160010160006101000a81548173ffffffffffffffffffffffffffffffffffffffff021916908373ffffffffffffffffffffffffffffffffffffffff16021790555060408201518160020160006101000a81548173ffffffffffffffffffffffffffffffffffffffff021916908373ffffffffffffffffffffffffffffffffffffffff16021790555060608201518160020160146101000a81548160ff0219169083600381111561148b57fe5b0217905550905050846004876040516114a49190613443565b908152602001604051809103902060030160008673ffffffffffffffffffffffffffffffffffffffff1673ffffffffffffffffffffffffffffffffffffffff16815260200190815260200160002090805190602001906115059291906125eb565b5060016005876040516115189190613443565b908152602001604051809103902060006101000a81548160ff021916908315150217905550600760008573ffffffffffffffffffffffffffffffffffffffff1673ffffffffffffffffffffffffffffffffffffffff168152602001908152602001600020869080600181540180825580915050600190039060005260206000200160009091909190915090805190602001906115b59291906125eb565b507f144ced1a295f096707ac7e7d8aa1a5a89bc1fd73ea6c8d75de34bba0fe0b132e86856040516115e7929190613683565b60405180910390a1505050505050565b600061160c83836123a390919063ffffffff16565b6003600061161987611d7d565b73ffffffffffffffffffffffffffffffffffffffff1673ffffffffffffffffffffffffffffffffffffffff168152602001908152602001600020541190509392505050565b60066020528060005260406000206000915090508054600181600116156101000203166002900480601f0160208091040260200160405190810160405280929190818152602001828054600181600116156101000203166002900480156117065780601f106116db57610100808354040283529160200191611706565b820191906000526020600020905b8154815290600101906020018083116116e957829003601f168201915b505050505081565b60606004826040516117209190613443565b908152602001604051809103902060030160003373ffffffffffffffffffffffffffffffffffffffff1673ffffffffffffffffffffffffffffffffffffffff1681526020019081526020016000208054600181600116156101000203166002900480601f0160208091040260200160405190810160405280929190818152602001828054600181600116156101000203166002900480156118025780601f106117d757610100808354040283529160200191611802565b820191906000526020600020905b8154815290600101906020018083116117e557829003601f168201915b50505050509050919050565b6118166122f1565b73ffffffffffffffffffffffffffffffffffffffff16600160009054906101000a900473ffffffffffffffffffffffffffffffffffffffff1673ffffffffffffffffffffffffffffffffffffffff16146118a5576040517f08c379a000000000000000000000000000000000000000000000000000000000815260040161189c9061381f565b60405180910390fd5b600073ffffffffffffffffffffffffffffffffffffffff16600160009054906101000a900473ffffffffffffffffffffffffffffffffffffffff1673ffffffffffffffffffffffffffffffffffffffff167f8be0079c531659141344cd1fd0a4f28419497f9722a3daafe3b4186f6b6457e060405160405180910390a36000600160006101000a81548173ffffffffffffffffffffffffffffffffffffffff021916908373ffffffffffffffffffffffffffffffffffffffff160217905550565b6000600160009054906101000a900473ffffffffffffffffffffffffffffffffffffffff16905090565b34600360003373ffffffffffffffffffffffffffffffffffffffff1673ffffffffffffffffffffffffffffffffffffffff1681526020019081526020016000205401600360003373ffffffffffffffffffffffffffffffffffffffff1673ffffffffffffffffffffffffffffffffffffffff16815260200190815260200160002081905550565b6060600760003373ffffffffffffffffffffffffffffffffffffffff1673ffffffffffffffffffffffffffffffffffffffff168152602001908152602001600020805480602002602001604051908101604052809291908181526020016000905b82821015611b34578382906000526020600020018054600181600116156101000203166002900480601f016020809104026020016040519081016040528092919081815260200182805460018160011615610100020316600290048015611b205780601f10611af557610100808354040283529160200191611b20565b820191906000526020600020905b815481529060010190602001808311611b0357829003601f168201915b505050505081526020019060010190611a78565b50505050905090565b600080611b858787878760016003811115611b5457fe5b30604051602001611b6a9695949392919061345a565b60405160208183030381529060405280519060200120612252565b90508573ffffffffffffffffffffffffffffffffffffffff16611ba88285612282565b73ffffffffffffffffffffffffffffffffffffffff161491505095945050505050565b600080611c0e8585600380811115611bdf57fe5b30604051602001611bf394939291906133f9565b60405160208183030381529060405280519060200120612252565b90508473ffffffffffffffffffffffffffffffffffffffff16611c318285612282565b73ffffffffffffffffffffffffffffffffffffffff16149150509392505050565b600481805160208101820180518482526020830160208501208183528095505050505050600091509050806000018054600181600116156101000203166002900480601f016020809104026020016040519081016040528092919081815260200182805460018160011615610100020316600290048015611d145780601f10611ce957610100808354040283529160200191611d14565b820191906000526020600020905b815481529060010190602001808311611cf757829003601f168201915b5050505050908060010160009054906101000a900473ffffffffffffffffffffffffffffffffffffffff16908060020160009054906101000a900473ffffffffffffffffffffffffffffffffffffffff16908060020160149054906101000a900460ff16905084565b6000600482604051611d8f9190613443565b908152602001604051809103902060010160009054906101000a900473ffffffffffffffffffffffffffffffffffffffff169050919050565b60008060009054906101000a900473ffffffffffffffffffffffffffffffffffffffff16905090565b6000600380811115611dff57fe5b600484604051611e0f9190613443565b908152602001604051809103902060020160149054906101000a900460ff166003811115611e3957fe5b14905092915050565b6060600860003373ffffffffffffffffffffffffffffffffffffffff1673ffffffffffffffffffffffffffffffffffffffff168152602001908152602001600020805480602002602001604051908101604052809291908181526020016000905b82821015611f5f578382906000526020600020018054600181600116156101000203166002900480601f016020809104026020016040519081016040528092919081815260200182805460018160011615610100020316600290048015611f4b5780601f10611f2057610100808354040283529160200191611f4b565b820191906000526020600020905b815481529060010190602001808311611f2e57829003601f168201915b505050505081526020019060010190611ea3565b50505050905090565b611f706122f1565b73ffffffffffffffffffffffffffffffffffffffff16600160009054906101000a900473ffffffffffffffffffffffffffffffffffffffff1673ffffffffffffffffffffffffffffffffffffffff1614611fff576040517f08c379a0000000000000000000000000000000000000000000000000000000008152600401611ff69061381f565b60405180910390fd5b600073ffffffffffffffffffffffffffffffffffffffff168173ffffffffffffffffffffffffffffffffffffffff16141561206f576040517f08c379a00000000000000000000000000000000000000000000000000000000081526004016120669061371f565b60405180910390fd5b8073ffffffffffffffffffffffffffffffffffffffff16600160009054906101000a900473ffffffffffffffffffffffffffffffffffffffff1673ffffffffffffffffffffffffffffffffffffffff167f8be0079c531659141344cd1fd0a4f28419497f9722a3daafe3b4186f6b6457e060405160405180910390a380600160006101000a81548173ffffffffffffffffffffffffffffffffffffffff021916908373ffffffffffffffffffffffffffffffffffffffff16021790555050565b3373ffffffffffffffffffffffffffffffffffffffff16600260009054906101000a900473ffffffffffffffffffffffffffffffffffffffff1673ffffffffffffffffffffffffffffffffffffffff16146121bf576040517f08c379a00000000000000000000000000000000000000000000000000000000081526004016121b69061387f565b60405180910390fd5b3373ffffffffffffffffffffffffffffffffffffffff166108fc829081150290604051600060405180830381858888f19350505050158015612205573d6000803e3d6000fd5b5050565b6000600360008373ffffffffffffffffffffffffffffffffffffffff1673ffffffffffffffffffffffffffffffffffffffff168152602001908152602001600020549050919050565b6000816040516020016122659190613530565b604051602081830303815290604052805190602001209050919050565b60008060008061229185612413565b925092509250600186848484604051600081526020016040526040516122ba94939291906135c3565b6020604051602081039080840390855afa1580156122dc573d6000803e3d6000fd5b50505060206040510351935050505092915050565b6000601860003690501015801561233a575061230b611dc8565b73ffffffffffffffffffffffffffffffffffffffff163373ffffffffffffffffffffffffffffffffffffffff16145b1561239c576123956000368080601f016020809104026020016040519081016040528093929190818152602001838380828437600081840152601f19601f82011690508083019250505050505050601460003690500361250c565b90506123a0565b3390505b90565b6000808314156123b6576000905061240d565b60008284029050828482816123c757fe5b0414612408576040517f08c379a00000000000000000000000000000000000000000000000000000000081526004016123ff906137ff565b60405180910390fd5b809150505b92915050565b6000806000604184511461242657600080fd5b6020840151915060408401519050606084015160001a92507f7fffffffffffffffffffffffffffffff5d576e7357a4501ddfe92f46681b20a08160001c11156124a4576040517f08c379a000000000000000000000000000000000000000000000000000000000815260040161249b9061377f565b60405180910390fd5b601b8360ff16141580156124bc5750601c8360ff1614155b156124fc576040517f08c379a00000000000000000000000000000000000000000000000000000000081526004016124f3906137df565b60405180910390fd5b8282829250925092509193909250565b600060148201835110156125335761253261252d600485516014860161255e565b6125e3565b5b60148201915073ffffffffffffffffffffffffffffffffffffffff8284015116905080905092915050565b6060632800659560e01b84848460405160240161257d93929190613608565b604051602081830303815290604052907bffffffffffffffffffffffffffffffffffffffffffffffffffffffff19166020820180517bffffffffffffffffffffffffffffffffffffffffffffffffffffffff838183161783525050505090509392505050565b805160208201fd5b828054600181600116156101000203166002900490600052602060002090601f016020900481019282601f1061262c57805160ff191683800117855561265a565b8280016001018555821561265a579182015b8281111561265957825182559160200191906001019061263e565b5b509050612667919061274a565b5090565b604051806080016040528060608152602001600073ffffffffffffffffffffffffffffffffffffffff168152602001600073ffffffffffffffffffffffffffffffffffffffff168152602001600060038111156126c457fe5b81525090565b828054600181600116156101000203166002900490600052602060002090601f016020900481019282601f1061270b57805160ff1916838001178555612739565b82800160010185558215612739579182015b8281111561273857825182559160200191906001019061271d565b5b509050612746919061274a565b5090565b61276c91905b80821115612768576000816000905550600101612750565b5090565b90565b60008135905061277e81613b77565b92915050565b600082601f83011261279557600080fd5b81356127a86127a382613907565b6138da565b915080825260208301602083018583830111156127c457600080fd5b6127cf838284613ac5565b50505092915050565b600082601f8301126127e957600080fd5b81356127fc6127f782613933565b6138da565b9150808252602083016020830185838301111561281857600080fd5b612823838284613ac5565b50505092915050565b600082601f83011261283d57600080fd5b813561285061284b8261395f565b6138da565b9150808252602083016020830185838301111561286c57600080fd5b612877838284613ac5565b50505092915050565b60008135905061288f81613b8e565b92915050565b6000602082840312156128a757600080fd5b60006128b58482850161276f565b91505092915050565b6000806000606084860312156128d357600080fd5b60006128e18682870161276f565b935050602084013567ffffffffffffffff8111156128fe57600080fd5b61290a8682870161282c565b925050604084013567ffffffffffffffff81111561292757600080fd5b61293386828701612784565b9150509250925092565b60006020828403121561294f57600080fd5b600082013567ffffffffffffffff81111561296957600080fd5b612975848285016127d8565b91505092915050565b60006020828403121561299057600080fd5b600082013567ffffffffffffffff8111156129aa57600080fd5b6129b68482850161282c565b91505092915050565b600080604083850312156129d257600080fd5b600083013567ffffffffffffffff8111156129ec57600080fd5b6129f88582860161282c565b9250506020612a098582860161276f565b9150509250929050565b600080600060608486031215612a2857600080fd5b600084013567ffffffffffffffff811115612a4257600080fd5b612a4e8682870161282c565b9350506020612a5f8682870161276f565b9250506040612a708682870161276f565b9150509250925092565b600080600080600060a08688031215612a9257600080fd5b600086013567ffffffffffffffff811115612aac57600080fd5b612ab88882890161282c565b9550506020612ac98882890161276f565b9450506040612ada8882890161276f565b935050606086013567ffffffffffffffff811115612af757600080fd5b612b038882890161282c565b925050608086013567ffffffffffffffff811115612b2057600080fd5b612b2c88828901612784565b9150509295509295909350565b60008060008060808587031215612b4f57600080fd5b600085013567ffffffffffffffff811115612b6957600080fd5b612b758782880161282c565b945050602085013567ffffffffffffffff811115612b9257600080fd5b612b9e8782880161282c565b9350506040612baf8782880161276f565b925050606085013567ffffffffffffffff811115612bcc57600080fd5b612bd887828801612784565b91505092959194509250565b600080600060608486031215612bf957600080fd5b600084013567ffffffffffffffff811115612c1357600080fd5b612c1f8682870161282c565b9350506020612c3086828701612880565b9250506040612c4186828701612880565b9150509250925092565b600060208284031215612c5d57600080fd5b6000612c6b84828501612880565b91505092915050565b6000612c808383612de0565b905092915050565b612c9181613a1c565b82525050565b612ca8612ca382613a1c565b613b07565b82525050565b6000612cb9826139b0565b612cc381856139de565b935083602082028501612cd58561398b565b8060005b85811015612d115784840389528151612cf28582612c74565b9450612cfd836139d1565b925060208a01995050600181019050612cd9565b50829750879550505050505092915050565b612d2c81613a2e565b82525050565b612d3b81613a3a565b82525050565b612d52612d4d82613a3a565b613b19565b82525050565b612d6181613aa1565b82525050565b612d7081613ab3565b82525050565b6000612d81826139c6565b612d8b8185613a00565b9350612d9b818560208601613ad4565b612da481613b3f565b840191505092915050565b6000612dba826139c6565b612dc48185613a11565b9350612dd4818560208601613ad4565b80840191505092915050565b6000612deb826139bb565b612df581856139ef565b9350612e05818560208601613ad4565b612e0e81613b3f565b840191505092915050565b6000612e24826139bb565b612e2e8185613a00565b9350612e3e818560208601613ad4565b612e4781613b3f565b840191505092915050565b600081546001811660008114612e6f5760018114612e9457612ed8565b607f6002830416612e808187613a11565b955060ff1983168652808601935050612ed8565b60028204612ea28187613a11565b9550612ead8561399b565b60005b82811015612ecf57815481890152600182019150602081019050612eb0565b82880195505050505b505092915050565b6000612eed601c83613a11565b91507f19457468657265756d205369676e6564204d6573736167653a0a3332000000006000830152601c82019050919050565b6000612f2d603a83613a00565b91507f4f6e6c79207468652061737369676e207369676e656520627920746865206f7760008301527f6e65722063616e207369676e2074686520646f63756d656e742e0000000000006020830152604082019050919050565b6000612f93602683613a00565b91507f4f776e61626c653a206e6577206f776e657220697320746865207a65726f206160008301527f64647265737300000000000000000000000000000000000000000000000000006020830152604082019050919050565b6000612ff9601783613a00565b91507f446f63756d656e7420616c72656164792065786973742e0000000000000000006000830152602082019050919050565b6000613039603283613a00565b91507f4f6e6c7920746865206f776e6572206f662074686520646f63756d656e74206360008301527f616e20646f207468697320616374696f6e2e00000000000000000000000000006020830152604082019050919050565b600061309f602283613a00565b91507f45434453413a20696e76616c6964207369676e6174757265202773272076616c60008301527f75650000000000000000000000000000000000000000000000000000000000006020830152604082019050919050565b6000613105601683613a00565b91507f446f63756d656e74206469646e27742065786973742e000000000000000000006000830152602082019050919050565b6000613145601583613a00565b91507f4163636f756e74206469646e27742065786973742e00000000000000000000006000830152602082019050919050565b6000613185602283613a00565b91507f45434453413a20696e76616c6964207369676e6174757265202776272076616c60008301527f75650000000000000000000000000000000000000000000000000000000000006020830152604082019050919050565b60006131eb602183613a00565b91507f536166654d6174683a206d756c7469706c69636174696f6e206f766572666c6f60008301527f77000000000000000000000000000000000000000000000000000000000000006020830152604082019050919050565b6000613251602083613a00565b91507f4f776e61626c653a2063616c6c6572206973206e6f7420746865206f776e65726000830152602082019050919050565b6000613291604d83613a00565b91507f43616e6e6f742061736b20666f7220616e6f74686572207369676e617475726560008301527f20696620746865206c617374207369676e6565206469646e2074207369676e2060208301527f74686520646f63756d656e742e000000000000000000000000000000000000006040830152606082019050919050565b600061331d601783613a00565b91507f5369676e6174757265206973206e6f742076616c69642e0000000000000000006000830152602082019050919050565b600061335d600083613a00565b9150600082019050919050565b6000613377600083613a11565b9150600082019050919050565b6000613391601683613a00565b91507f4163636f756e7420616c72656164792065786973742e000000000000000000006000830152602082019050919050565b6133cd81613a8a565b82525050565b6133e46133df82613a8a565b613b35565b82525050565b6133f381613a94565b82525050565b60006134058287612c97565b6014820191506134158286612daf565b915061342182856133d3565b6020820191506134318284612c97565b60148201915081905095945050505050565b600061344f8284612daf565b915081905092915050565b60006134668289612daf565b91506134728288612c97565b6014820191506134828287612c97565b6014820191506134928286612daf565b915061349e82856133d3565b6020820191506134ae8284612c97565b601482019150819050979650505050505050565b60006134ce8288612daf565b91506134da8287612daf565b91506134e68286612c97565b6014820191506134f682856133d3565b6020820191506135068284612c97565b6014820191508190509695505050505050565b60006135258284612e52565b915081905092915050565b600061353b82612ee0565b91506135478284612d41565b60208201915081905092915050565b60006135618261336a565b9150819050919050565b60006020820190506135806000830184612c88565b92915050565b600060208201905081810360008301526135a08184612cae565b905092915050565b60006020820190506135bd6000830184612d23565b92915050565b60006080820190506135d86000830187612d32565b6135e560208301866133ea565b6135f26040830185612d32565b6135ff6060830184612d32565b95945050505050565b600060608201905061361d6000830186612d58565b61362a60208301856133c4565b61363760408301846133c4565b949350505050565b600060208201905081810360008301526136598184612e19565b905092915050565b6000602082019050818103600083015261367b8184612d76565b905092915050565b6000604082019050818103600083015261369d8185612d76565b90506136ac6020830184612c88565b9392505050565b600060808201905081810360008301526136cd8187612e19565b90506136dc6020830186612c88565b6136e96040830185612c88565b6136f66060830184612d67565b95945050505050565b6000602082019050818103600083015261371881612f20565b9050919050565b6000602082019050818103600083015261373881612f86565b9050919050565b6000602082019050818103600083015261375881612fec565b9050919050565b600060208201905081810360008301526137788161302c565b9050919050565b6000602082019050818103600083015261379881613092565b9050919050565b600060208201905081810360008301526137b8816130f8565b9050919050565b600060208201905081810360008301526137d881613138565b9050919050565b600060208201905081810360008301526137f881613178565b9050919050565b60006020820190508181036000830152613818816131de565b9050919050565b6000602082019050818103600083015261383881613244565b9050919050565b6000602082019050818103600083015261385881613284565b9050919050565b6000602082019050818103600083015261387881613310565b9050919050565b6000602082019050818103600083015261389881613350565b9050919050565b600060208201905081810360008301526138b881613384565b9050919050565b60006020820190506138d460008301846133c4565b92915050565b6000604051905081810181811067ffffffffffffffff821117156138fd57600080fd5b8060405250919050565b600067ffffffffffffffff82111561391e57600080fd5b601f19601f8301169050602081019050919050565b600067ffffffffffffffff82111561394a57600080fd5b601f19601f8301169050602081019050919050565b600067ffffffffffffffff82111561397657600080fd5b601f19601f8301169050602081019050919050565b6000819050602082019050919050565b60008190508160005260206000209050919050565b600081519050919050565b600081519050919050565b600081519050919050565b6000602082019050919050565b600082825260208201905092915050565b600082825260208201905092915050565b600082825260208201905092915050565b600081905092915050565b6000613a2782613a6a565b9050919050565b60008115159050919050565b6000819050919050565b6000819050613a5282613b5d565b919050565b6000819050613a6582613b6a565b919050565b600073ffffffffffffffffffffffffffffffffffffffff82169050919050565b6000819050919050565b600060ff82169050919050565b6000613aac82613a44565b9050919050565b6000613abe82613a57565b9050919050565b82818337600083830152505050565b60005b83811015613af2578082015181840152602081019050613ad7565b83811115613b01576000848401525b50505050565b6000613b1282613b23565b9050919050565b6000819050919050565b6000613b2e82613b50565b9050919050565b6000819050919050565b6000601f19601f8301169050919050565b60008160601b9050919050565b60088110613b6757fe5b50565b60048110613b7457fe5b50565b613b8081613a1c565b8114613b8b57600080fd5b50565b613b9781613a8a565b8114613ba257600080fd5b5056fea26469706673582212202b4177f78e9a4092481351dc4c326e2d8134367c94b754619744806f11829d4e64736f6c63430006030033",
  "source": "pragma solidity ^0.6.2;\npragma experimental ABIEncoderV2;\n\nimport \"@opengsn/gsn/contracts/BaseRelayRecipient.sol\";\nimport \"@openzeppelin/contracts/math/SafeMath.sol\";\nimport \"@openzeppelin/contracts/access/Ownable.sol\";\n\nenum State {\n    None,\n    Created,\n    SignPending,\n    Signed\n}\n\nstruct Document {\n    string cid;\n    address owner;\n    address newSignee;\n    State state;\n    mapping(address => string) secrets;\n}\n\ncontract SignDocuTest is BaseRelayRecipient {\n\n    using SafeMath for uint256;\n\n    enum Action {\n        Create,\n        Approve,\n        Sign,\n        AccountCreation\n    }\n\n    // Ownable\n\n    address private _owner;\n    address private  paymaster;\n\n    // Ownable\n\n    // Balances for Gas station network\n\n    mapping(address => uint256) balances;\n\n    // Balances for Gas station network\n\n    mapping(string => Document) public documents;\n    mapping(string => bool) documentsExist;\n    mapping(address => string) public accounts; // need to encrypt the secret with the counterparty dapp pubKey\n\n    mapping(address => string[]) creators;\n    mapping(address => string[]) documentsBySignee;\n\n    event Signature(string cid, address signee);\n    event DocumentCreated(string cid, address creator);\n\n    event OwnershipTransferred(address indexed previousOwner, address indexed newOwner);\n\n    constructor(address _forwarder) public {\n        trustedForwarder = _forwarder;\n\n        // Ownable\n        address msgSender = _msgSender();\n        _owner = msgSender;\n        emit OwnershipTransferred(address(0), msgSender);\n    }\n\n    function documentIsSigned(string memory _cid, address _signee) public view returns(bool) {\n        return documents[_cid].state == State.Signed;\n    }\n\n    function createAccount(address _sender, string memory _accountPubKey, bytes memory _signature) public isAccountDontExist(_sender) {\n        require(isValidAccountCreation(_sender, _accountPubKey, _signature), 'Signature is not valid.');\n\n        accounts[_sender] = _accountPubKey;\n    }\n\n    function createDocument(string memory _cid, string memory _secret, address _sender, bytes memory _signature) public documentDontExist(_cid) isAccountExist(_sender) {\n        require(isValidCreationDocumentSignature(_cid, _secret, _sender, _signature), 'Signature is not valid.');\n\n        documents[_cid] = Document({cid : _cid, owner : _sender, newSignee : address(0x00), state : State.Created});\n        documents[_cid].secrets[_sender] = _secret;\n        documentsExist[_cid] = true;\n        creators[_sender].push(_cid);\n\n        emit DocumentCreated(_cid, _sender);\n    }\n\n    function sign(string memory _cid, string memory _secret, address _sender, bytes memory _signature) public documentExist(_cid) {\n        require(isValidSignSignature(_cid, _secret, _sender, _signature), 'Signature is not valid.');\n\n        Document storage document = documents[_cid];\n        \n        require(document.newSignee == _sender, \"Only the assign signee by the owner can sign the document.\");\n\n        document.state = State.Signed;\n    }\n\n    function approveToSign(string memory _cid, address _sender, address _newSignee, string memory _secret, bytes memory _signature) public documentExist(_cid) onlyDocumentOwner(_cid, _sender) isAccountExist(_newSignee) {\n        require(isValidApproveSignature(_cid, _sender, _newSignee, _secret, _signature), 'Signature is not valid.');\n        \n        Document storage document = documents[_cid];\n\n        require(document.state != State.SignPending, 'Cannot ask for another signature if the last signee didn t sign the document.');\n\n        document.newSignee = _newSignee;\n        document.secrets[_newSignee] = _secret;\n        document.state = State.SignPending;\n        documentsBySignee[_newSignee].push(_cid);\n    }\n\n    function getCreatedDocument() public view returns(string[] memory) {\n        return creators[msg.sender];\n    }\n\n    function getDocuments() public view returns(string[] memory) {\n        return documentsBySignee[msg.sender];\n    }\n\n    function getSigneeSecret(string memory _cid) public view returns(string memory) {\n        return documents[_cid].secrets[msg.sender];\n    }\n\n    function getDocumentOwner(string memory _cid) public view returns(address) {\n        return documents[_cid].owner;\n    }\n\n    function transferOwnership(string memory _cid, address _sender, address _newOwner) public view onlyDocumentOwner(_cid, _sender) {\n        Document memory document = documents[_cid];\n        document.owner = _newOwner;\n    }\n\n    modifier documentExist(string memory _cid) {\n        require(documentsExist[_cid], \"Document didn't exist.\");\n        _;\n    }\n\n    modifier documentDontExist(string memory _cid) {\n        require(!documentsExist[_cid], \"Document already exist.\");\n        _;\n    }\n\n    modifier onlyDocumentOwner(string memory _cid, address _sender) {\n        require(documents[_cid].owner == _sender, \"Only the owner of the document can do this action.\");\n        _;\n    }\n\n    modifier isAccountExist(address _sender) {\n        require(keccak256(abi.encodePacked(accounts[_sender])) != keccak256(abi.encodePacked(\"\")), \"Account didn't exist.\");\n        _;\n    }\n\n    modifier isAccountDontExist(address _sender) {\n        require(keccak256(abi.encodePacked(accounts[_sender])) == keccak256(abi.encodePacked(\"\")), \"Account already exist.\");\n        _;\n    }\n\n    // Create Account\n\n    function isValidAccountCreation(address _sender, string memory _accountPubKey, bytes memory _signature) public view returns(bool) {\n        bytes32 message = prefixed(keccak256(abi.encodePacked(_sender, _accountPubKey, uint(Action.AccountCreation), address(this))));\n        \n        return recoverSigner(message, _signature) == _sender;\n    }\n\n    // Create Account\n\n    // Approve for signing\n\n    function isValidApproveSignature(string memory _cid, address _sender, address _newSignee, string memory _secret, bytes memory _signature)\n    public view returns(bool) {\n        bytes32 message = prefixed(keccak256(abi.encodePacked(_cid, _sender, _newSignee, _secret, uint(Action.Approve), address(this))));\n        \n        return recoverSigner(message, _signature) == _sender;\n    }\n\n    // Approve for signing\n\n    // Sign Document\n\n    function isValidSignSignature(string memory _cid, string memory _secret, address _sender, bytes memory _signature)\n    public view returns(bool) {\n        bytes32 message = prefixed(keccak256(abi.encodePacked(_cid, _secret, _sender, uint(Action.Sign), address(this))));\n        \n        return recoverSigner(message, _signature) == _sender;\n    }\n\n    // Sign Document\n\n    // Creating Document\n\n    function isValidCreationDocumentSignature(string memory _cid, string memory _secret, address _sender, bytes memory _signature)\n    public view returns(bool) {\n        bytes32 message = prefixed(keccak256(abi.encodePacked(_cid, _secret, _sender, uint(Action.Create), address(this))));\n        \n        return recoverSigner(message, _signature) == _sender;\n    }\n\n    // Creating Document\n\n    // Signature Part\n\n    function prefixed(bytes32 hash) internal pure returns (bytes32) {\n        return keccak256(abi.encodePacked(\"\\x19Ethereum Signed Message:\\n32\", hash));\n    }\n\n    function splitSignature(bytes memory _signature) internal pure returns(uint8 v, bytes32 r, bytes32 s) {\n        require(_signature.length == 65);\n\n        assembly {\n            // first 32 bytes, after the length prefix.\n            r := mload(add(_signature, 32))\n            // second 32 bytes.\n            s := mload(add(_signature, 64))\n            // final byte (first byte of the next 32 bytes).\n            v := byte(0, mload(add(_signature, 96)))\n        }\n\n        if (uint256(s) > 0x7FFFFFFFFFFFFFFFFFFFFFFFFFFFFFFF5D576E7357A4501DDFE92F46681B20A0) {\n            revert(\"ECDSA: invalid signature 's' value\");\n        }\n\n        if (v != 27 && v != 28) {\n            revert(\"ECDSA: invalid signature 'v' value\");\n        }\n\n        return (v, r, s);\n    }\n\n    function recoverSigner(bytes32 _message, bytes memory _signature) internal pure returns (address) {\n        (uint8 v, bytes32 r, bytes32 s) = splitSignature(_signature);\n        return ecrecover(_message, v, r, s);\n    }\n\n    // Signature Part\n\n    // Gas Station \n\n    function getBalance(address _account) public view returns(uint256) {\n        return balances[_account];\n    }\n\n    function sendPayement() public payable {\n        balances[msg.sender] = balances[msg.sender] + msg.value;\n    }\n\n    function transactionWillExecute(string memory _cid, uint256 _gasEstimate, uint256 _gasPrice) public view returns(bool) {\n        return balances[getDocumentOwner(_cid)] > _gasPrice.mul(_gasEstimate);\n    }\n\n    function setPaymaster(address _paymaster) public onlyOwner() {\n        paymaster = _paymaster;\n    }\n\n    function getFeeByPaymaster(uint256 _fee) public onlyPaymaster() {\n        msg.sender.transfer(_fee);\n    }\n\n    modifier onlyPaymaster() {\n        require(paymaster == msg.sender, \"\");\n        _;\n    }\n\n    // Gas Station\n\n    // Ownable\n\n    /**\n     * @dev Returns the address of the current owner.\n     */\n    function owner() public view returns (address) {\n        return _owner;\n    }\n\n    /**\n     * @dev Throws if called by any account other than the owner.\n     */\n    modifier onlyOwner() {\n        require(_owner == _msgSender(), \"Ownable: caller is not the owner\");\n        _;\n    }\n\n    /**\n     * @dev Leaves the contract without owner. It will not be possible to call\n     * `onlyOwner` functions anymore. Can only be called by the current owner.\n     *\n     * NOTE: Renouncing ownership will leave the contract without an owner,\n     * thereby removing any functionality that is only available to the owner.\n     */\n    function renounceOwnership() public virtual onlyOwner {\n        emit OwnershipTransferred(_owner, address(0));\n        _owner = address(0);\n    }\n\n    /**\n     * @dev Transfers ownership of the contract to a new account (`newOwner`).\n     * Can only be called by the current owner.\n     */\n    function transferOwnership(address newOwner) public virtual onlyOwner {\n        require(newOwner != address(0), \"Ownable: new owner is the zero address\");\n        emit OwnershipTransferred(_owner, newOwner);\n        _owner = newOwner;\n    }\n\n    function _msgData() internal view virtual returns (bytes memory) {\n        this; // silence state mutability warning without generating bytecode - see https://github.com/ethereum/solidity/issues/2691\n        return msg.data;\n    }\n\n    // Ownable\n}",
  "sourcePath": "/Users/mariejoseph/Documents/HackFS/IPFS/contracts/SignDocuTest.sol",
  "compiler": {
    "name": "solc",
    "version": "0.6.3+commit.8dda9521.Emscripten.clang"
  },
  "schemaVersion": "3.2.0",
  "updatedAt": "2020-08-23T14:21:44.453Z",
  "devdoc": {
    "methods": {
      "owner()": {
        "details": "Returns the address of the current owner."
      },
      "renounceOwnership()": {
        "details": "Leaves the contract without owner. It will not be possible to call `onlyOwner` functions anymore. Can only be called by the current owner.     * NOTE: Renouncing ownership will leave the contract without an owner, thereby removing any functionality that is only available to the owner."
      },
      "transferOwnership(address)": {
        "details": "Transfers ownership of the contract to a new account (`newOwner`). Can only be called by the current owner."
      }
    }
  },
  "userdoc": {
    "methods": {}
  }
}