{
  "contractName": "SignDocuProxy",
  "abi": [
    {
      "inputs": [
        {
          "internalType": "address",
          "name": "_forwarder",
          "type": "address"
        },
        {
          "internalType": "address",
          "name": "_bussinessContract",
          "type": "address"
        }
      ],
      "stateMutability": "nonpayable",
      "type": "constructor"
    },
    {
      "anonymous": false,
      "inputs": [
        {
          "indexed": false,
          "internalType": "string",
          "name": "cid",
          "type": "string"
        },
        {
          "indexed": false,
          "internalType": "address",
          "name": "creator",
          "type": "address"
        }
      ],
      "name": "DocumentCreated",
      "type": "event"
    },
    {
      "anonymous": false,
      "inputs": [
        {
          "indexed": true,
          "internalType": "address",
          "name": "previousOwner",
          "type": "address"
        },
        {
          "indexed": true,
          "internalType": "address",
          "name": "newOwner",
          "type": "address"
        }
      ],
      "name": "OwnershipTransferred",
      "type": "event"
    },
    {
      "anonymous": false,
      "inputs": [
        {
          "indexed": false,
          "internalType": "string",
          "name": "cid",
          "type": "string"
        },
        {
          "indexed": false,
          "internalType": "address",
          "name": "signee",
          "type": "address"
        }
      ],
      "name": "Signature",
      "type": "event"
    },
    {
      "stateMutability": "payable",
      "type": "fallback",
      "payable": true
    },
    {
      "inputs": [
        {
          "internalType": "address",
          "name": "",
          "type": "address"
        }
      ],
      "name": "accounts",
      "outputs": [
        {
          "internalType": "string",
          "name": "",
          "type": "string"
        }
      ],
      "stateMutability": "view",
      "type": "function",
      "constant": true
    },
    {
      "inputs": [
        {
          "internalType": "string",
          "name": "",
          "type": "string"
        }
      ],
      "name": "addressStorage",
      "outputs": [
        {
          "internalType": "address",
          "name": "",
          "type": "address"
        }
      ],
      "stateMutability": "view",
      "type": "function",
      "constant": true
    },
    {
      "inputs": [
        {
          "internalType": "address",
          "name": "",
          "type": "address"
        }
      ],
      "name": "allowedBy",
      "outputs": [
        {
          "internalType": "address",
          "name": "",
          "type": "address"
        }
      ],
      "stateMutability": "view",
      "type": "function",
      "constant": true
    },
    {
      "inputs": [
        {
          "internalType": "address",
          "name": "",
          "type": "address"
        }
      ],
      "name": "balances",
      "outputs": [
        {
          "internalType": "uint256",
          "name": "",
          "type": "uint256"
        }
      ],
      "stateMutability": "view",
      "type": "function",
      "constant": true
    },
    {
      "inputs": [
        {
          "internalType": "string",
          "name": "",
          "type": "string"
        }
      ],
      "name": "boolStorage",
      "outputs": [
        {
          "internalType": "bool",
          "name": "",
          "type": "bool"
        }
      ],
      "stateMutability": "view",
      "type": "function",
      "constant": true
    },
    {
      "inputs": [
        {
          "internalType": "string",
          "name": "",
          "type": "string"
        }
      ],
      "name": "bytesStorage",
      "outputs": [
        {
          "internalType": "bytes",
          "name": "",
          "type": "bytes"
        }
      ],
      "stateMutability": "view",
      "type": "function",
      "constant": true
    },
    {
      "inputs": [
        {
          "internalType": "address",
          "name": "",
          "type": "address"
        },
        {
          "internalType": "uint256",
          "name": "",
          "type": "uint256"
        }
      ],
      "name": "creators",
      "outputs": [
        {
          "internalType": "string",
          "name": "",
          "type": "string"
        }
      ],
      "stateMutability": "view",
      "type": "function",
      "constant": true
    },
    {
      "inputs": [
        {
          "internalType": "string",
          "name": "",
          "type": "string"
        }
      ],
      "name": "documents",
      "outputs": [
        {
          "internalType": "string",
          "name": "cid",
          "type": "string"
        },
        {
          "internalType": "address",
          "name": "owner",
          "type": "address"
        },
        {
          "internalType": "address",
          "name": "newSignee",
          "type": "address"
        },
        {
          "internalType": "enum State",
          "name": "state",
          "type": "uint8"
        }
      ],
      "stateMutability": "view",
      "type": "function",
      "constant": true
    },
    {
      "inputs": [
        {
          "internalType": "address",
          "name": "",
          "type": "address"
        },
        {
          "internalType": "uint256",
          "name": "",
          "type": "uint256"
        }
      ],
      "name": "documentsBySignee",
      "outputs": [
        {
          "internalType": "string",
          "name": "",
          "type": "string"
        }
      ],
      "stateMutability": "view",
      "type": "function",
      "constant": true
    },
    {
      "inputs": [
        {
          "internalType": "string",
          "name": "",
          "type": "string"
        }
      ],
      "name": "documentsExist",
      "outputs": [
        {
          "internalType": "bool",
          "name": "",
          "type": "bool"
        }
      ],
      "stateMutability": "view",
      "type": "function",
      "constant": true
    },
    {
      "inputs": [],
      "name": "getCreatedDocument",
      "outputs": [
        {
          "internalType": "string[]",
          "name": "",
          "type": "string[]"
        }
      ],
      "stateMutability": "view",
      "type": "function",
      "constant": true
    },
    {
      "inputs": [
        {
          "internalType": "string",
          "name": "_cid",
          "type": "string"
        }
      ],
      "name": "getDocumentSecret",
      "outputs": [
        {
          "internalType": "string",
          "name": "",
          "type": "string"
        }
      ],
      "stateMutability": "view",
      "type": "function",
      "constant": true
    },
    {
      "inputs": [
        {
          "internalType": "string",
          "name": "_cid",
          "type": "string"
        }
      ],
      "name": "getDocumentState",
      "outputs": [
        {
          "internalType": "uint256",
          "name": "",
          "type": "uint256"
        }
      ],
      "stateMutability": "view",
      "type": "function",
      "constant": true
    },
    {
      "inputs": [
        {
          "internalType": "string",
          "name": "_cid",
          "type": "string"
        }
      ],
      "name": "getOwnerOfDocument",
      "outputs": [
        {
          "internalType": "address",
          "name": "",
          "type": "address"
        }
      ],
      "stateMutability": "view",
      "type": "function",
      "constant": true
    },
    {
      "inputs": [],
      "name": "getSigneeDocument",
      "outputs": [
        {
          "internalType": "string[]",
          "name": "",
          "type": "string[]"
        }
      ],
      "stateMutability": "view",
      "type": "function",
      "constant": true
    },
    {
      "inputs": [
        {
          "internalType": "string",
          "name": "",
          "type": "string"
        }
      ],
      "name": "int256Storage",
      "outputs": [
        {
          "internalType": "int256",
          "name": "",
          "type": "int256"
        }
      ],
      "stateMutability": "view",
      "type": "function",
      "constant": true
    },
    {
      "inputs": [
        {
          "internalType": "address",
          "name": "forwarder",
          "type": "address"
        }
      ],
      "name": "isTrustedForwarder",
      "outputs": [
        {
          "internalType": "bool",
          "name": "",
          "type": "bool"
        }
      ],
      "stateMutability": "view",
      "type": "function",
      "constant": true
    },
    {
      "inputs": [
        {
          "internalType": "string",
          "name": "",
          "type": "string"
        }
      ],
      "name": "stringStorage",
      "outputs": [
        {
          "internalType": "string",
          "name": "",
          "type": "string"
        }
      ],
      "stateMutability": "view",
      "type": "function",
      "constant": true
    },
    {
      "inputs": [
        {
          "internalType": "string",
          "name": "",
          "type": "string"
        }
      ],
      "name": "uint256Storage",
      "outputs": [
        {
          "internalType": "uint256",
          "name": "",
          "type": "uint256"
        }
      ],
      "stateMutability": "view",
      "type": "function",
      "constant": true
    },
    {
      "inputs": [],
      "name": "versionRecipient",
      "outputs": [
        {
          "internalType": "string",
          "name": "",
          "type": "string"
        }
      ],
      "stateMutability": "view",
      "type": "function",
      "constant": true
    },
    {
      "stateMutability": "payable",
      "type": "receive",
      "payable": true
    },
    {
      "inputs": [
        {
          "internalType": "address",
          "name": "_bussinessContract",
          "type": "address"
        }
      ],
      "name": "upgrade",
      "outputs": [],
      "stateMutability": "nonpayable",
      "type": "function"
    },
    {
      "inputs": [],
      "name": "getSender",
      "outputs": [
        {
          "internalType": "address",
          "name": "",
          "type": "address"
        }
      ],
      "stateMutability": "view",
      "type": "function",
      "constant": true
    }
  ],
  "bytecode": "0x60806040523480156200001157600080fd5b5060405162001f2738038062001f27833981810160405281019062000037919062000311565b816000806101000a81548173ffffffffffffffffffffffffffffffffffffffff021916908373ffffffffffffffffffffffffffffffffffffffff1602179055506000620000896200018d60201b60201c565b905080600b6040516200009c90620003d6565b908152602001604051809103902060006101000a81548173ffffffffffffffffffffffffffffffffffffffff021916908373ffffffffffffffffffffffffffffffffffffffff16021790555081600e60006101000a81548173ffffffffffffffffffffffffffffffffffffffff021916908373ffffffffffffffffffffffffffffffffffffffff1602179055508073ffffffffffffffffffffffffffffffffffffffff16600073ffffffffffffffffffffffffffffffffffffffff167f8be0079c531659141344cd1fd0a4f28419497f9722a3daafe3b4186f6b6457e060405160405180910390a350505062000479565b60006018600036905010158015620001b25750620001b1336200022a60201b60201c565b5b1562000223576200021b6000368080601f016020809104026020016040519081016040528093929190818152602001838380828437600081840152601f19601f8201169050808301925050505050505060146000369050036200028360201b620012141760201c565b905062000227565b3390505b90565b60008060009054906101000a900473ffffffffffffffffffffffffffffffffffffffff1673ffffffffffffffffffffffffffffffffffffffff168273ffffffffffffffffffffffffffffffffffffffff16149050919050565b60006014820183511015620002cf576040517f08c379a0000000000000000000000000000000000000000000000000000000008152600401620002c690620003ed565b60405180910390fd5b60148201915073ffffffffffffffffffffffffffffffffffffffff8284015116905080905092915050565b6000815190506200030b816200045f565b92915050565b600080604083850312156200032557600080fd5b60006200033585828601620002fa565b92505060206200034885828601620002fa565b9150509250929050565b600062000361601b836200040f565b91507f72656164416464726573733a206461746120746f6f2073686f727400000000006000830152602082019050919050565b6000620003a360058362000420565b91507f4f776e65720000000000000000000000000000000000000000000000000000006000830152600582019050919050565b6000620003e38262000394565b9150819050919050565b60006020820190508181036000830152620004088162000352565b9050919050565b600082825260208201905092915050565b600081905092915050565b600062000438826200043f565b9050919050565b600073ffffffffffffffffffffffffffffffffffffffff82169050919050565b6200046a816200042b565b81146200047657600080fd5b50565b611a9e80620004896000396000f3fe6080604052600436106101395760003560e01c8063699a2033116100ab578063a44543401161006f578063a4454340146104d8578063b3dd697b14610515578063b5066b6114610555578063ba8ef30314610592578063e5b0b90c146105bd578063ff86e28c146105fa57610148565b8063699a2033146103b957806370a13b48146103f65780637547b64e146104335780639021639c1461047057806398a270eb1461049b57610148565b8063486ff0cd116100fd578063486ff0cd1461026f578063572b6c051461029a57806357677709146102d757806359328eb5146103145780635e01eb5a146103515780635e5c06e21461037c57610148565b80630900f01014610152578063197c9fc51461017b57806324530995146101b857806327e235e3146101f557806332285bda1461023257610148565b3661014857610146610637565b005b610150610637565b005b34801561015e57600080fd5b50610179600480360381019061017491906113dd565b610651565b005b34801561018757600080fd5b506101a2600480360381019061019d9190611442565b610746565b6040516101af919061175c565b60405180910390f35b3480156101c457600080fd5b506101df60048036038101906101da9190611442565b61077c565b6040516101ec9190611777565b60405180910390f35b34801561020157600080fd5b5061021c600480360381019061021791906113dd565b610842565b6040516102299190611862565b60405180910390f35b34801561023e57600080fd5b5061025960048036038101906102549190611442565b61085a565b60405161026691906117b4565b60405180910390f35b34801561027b57600080fd5b50610284610920565b60405161029191906117b4565b60405180910390f35b3480156102a657600080fd5b506102c160048036038101906102bc91906113dd565b61095d565b6040516102ce919061175c565b60405180910390f35b3480156102e357600080fd5b506102fe60048036038101906102f99190611442565b6109b6565b60405161030b9190611862565b60405180910390f35b34801561032057600080fd5b5061033b600480360381019061033691906113dd565b6109f9565b604051610348919061171f565b60405180910390f35b34801561035d57600080fd5b50610366610a2c565b604051610373919061171f565b60405180910390f35b34801561038857600080fd5b506103a3600480360381019061039e91906113dd565b610a3b565b6040516103b091906117b4565b60405180910390f35b3480156103c557600080fd5b506103e060048036038101906103db9190611406565b610aeb565b6040516103ed91906117b4565b60405180910390f35b34801561040257600080fd5b5061041d60048036038101906104189190611442565b610bb1565b60405161042a9190611799565b60405180910390f35b34801561043f57600080fd5b5061045a60048036038101906104559190611442565b610bdf565b604051610467919061171f565b60405180910390f35b34801561047c57600080fd5b50610485610c28565b604051610492919061173a565b60405180910390f35b3480156104a757600080fd5b506104c260048036038101906104bd9190611442565b610d4e565b6040516104cf91906117b4565b60405180910390f35b3480156104e457600080fd5b506104ff60048036038101906104fa9190611406565b610e4e565b60405161050c91906117b4565b60405180910390f35b34801561052157600080fd5b5061053c60048036038101906105379190611442565b610f14565b60405161054c94939291906117d6565b60405180910390f35b34801561056157600080fd5b5061057c60048036038101906105779190611442565b61103f565b604051610589919061175c565b60405180910390f35b34801561059e57600080fd5b506105a7611075565b6040516105b4919061173a565b60405180910390f35b3480156105c957600080fd5b506105e460048036038101906105df9190611442565b61119b565b6040516105f19190611862565b60405180910390f35b34801561060657600080fd5b50610621600480360381019061061c9190611442565b6111c9565b60405161062e919061171f565b60405180910390f35b61063f611288565b61064f61064a61128a565b6112b4565b565b6106596112da565b73ffffffffffffffffffffffffffffffffffffffff16600b60405161067d9061170a565b908152602001604051809103902060009054906101000a900473ffffffffffffffffffffffffffffffffffffffff1673ffffffffffffffffffffffffffffffffffffffff1614610702576040517f08c379a00000000000000000000000000000000000000000000000000000000081526004016106f990611842565b60405180910390fd5b80600e60006101000a81548173ffffffffffffffffffffffffffffffffffffffff021916908373ffffffffffffffffffffffffffffffffffffffff16021790555050565b6003818051602081018201805184825260208301602085012081835280955050505050506000915054906101000a900460ff1681565b600c818051602081018201805184825260208301602085012081835280955050505050506000915090508054600181600116156101000203166002900480601f01602080910402602001604051908101604052809291908181526020018280546001816001161561010002031660029004801561083a5780601f1061080f5761010080835404028352916020019161083a565b820191906000526020600020905b81548152906001019060200180831161081d57829003601f168201915b505050505081565b60016020528060005260406000206000915090505481565b600d818051602081018201805184825260208301602085012081835280955050505050506000915090508054600181600116156101000203166002900480601f0160208091040260200160405190810160405280929190818152602001828054600181600116156101000203166002900480156109185780601f106108ed57610100808354040283529160200191610918565b820191906000526020600020905b8154815290600101906020018083116108fb57829003601f168201915b505050505081565b60606040518060400160405280600581526020017f302e302e31000000000000000000000000000000000000000000000000000000815250905090565b60008060009054906101000a900473ffffffffffffffffffffffffffffffffffffffff1673ffffffffffffffffffffffffffffffffffffffff168273ffffffffffffffffffffffffffffffffffffffff16149050919050565b60006002826040516109c891906116f3565b908152602001604051809103902060020160149054906101000a900460ff1660038111156109f257fe5b9050919050565b60056020528060005260406000206000915054906101000a900473ffffffffffffffffffffffffffffffffffffffff1681565b6000610a366112da565b905090565b60046020528060005260406000206000915090508054600181600116156101000203166002900480601f016020809104026020016040519081016040528092919081815260200182805460018160011615610100020316600290048015610ae35780601f10610ab857610100808354040283529160200191610ae3565b820191906000526020600020905b815481529060010190602001808311610ac657829003601f168201915b505050505081565b60076020528160005260406000208181548110610b0457fe5b90600052602060002001600091509150508054600181600116156101000203166002900480601f016020809104026020016040519081016040528092919081815260200182805460018160011615610100020316600290048015610ba95780601f10610b7e57610100808354040283529160200191610ba9565b820191906000526020600020905b815481529060010190602001808311610b8c57829003601f168201915b505050505081565b6009818051602081018201805184825260208301602085012081835280955050505050506000915090505481565b600b818051602081018201805184825260208301602085012081835280955050505050506000915054906101000a900473ffffffffffffffffffffffffffffffffffffffff1681565b6060600660003373ffffffffffffffffffffffffffffffffffffffff1673ffffffffffffffffffffffffffffffffffffffff168152602001908152602001600020805480602002602001604051908101604052809291908181526020016000905b82821015610d45578382906000526020600020018054600181600116156101000203166002900480601f016020809104026020016040519081016040528092919081815260200182805460018160011615610100020316600290048015610d315780601f10610d0657610100808354040283529160200191610d31565b820191906000526020600020905b815481529060010190602001808311610d1457829003601f168201915b505050505081526020019060010190610c89565b50505050905090565b6060600282604051610d6091906116f3565b908152602001604051809103902060030160003373ffffffffffffffffffffffffffffffffffffffff1673ffffffffffffffffffffffffffffffffffffffff1681526020019081526020016000208054600181600116156101000203166002900480601f016020809104026020016040519081016040528092919081815260200182805460018160011615610100020316600290048015610e425780601f10610e1757610100808354040283529160200191610e42565b820191906000526020600020905b815481529060010190602001808311610e2557829003601f168201915b50505050509050919050565b60066020528160005260406000208181548110610e6757fe5b90600052602060002001600091509150508054600181600116156101000203166002900480601f016020809104026020016040519081016040528092919081815260200182805460018160011615610100020316600290048015610f0c5780601f10610ee157610100808354040283529160200191610f0c565b820191906000526020600020905b815481529060010190602001808311610eef57829003601f168201915b505050505081565b600281805160208101820180518482526020830160208501208183528095505050505050600091509050806000018054600181600116156101000203166002900480601f016020809104026020016040519081016040528092919081815260200182805460018160011615610100020316600290048015610fd65780601f10610fab57610100808354040283529160200191610fd6565b820191906000526020600020905b815481529060010190602001808311610fb957829003601f168201915b5050505050908060010160009054906101000a900473ffffffffffffffffffffffffffffffffffffffff16908060020160009054906101000a900473ffffffffffffffffffffffffffffffffffffffff16908060020160149054906101000a900460ff16905084565b600a818051602081018201805184825260208301602085012081835280955050505050506000915054906101000a900460ff1681565b6060600760003373ffffffffffffffffffffffffffffffffffffffff1673ffffffffffffffffffffffffffffffffffffffff168152602001908152602001600020805480602002602001604051908101604052809291908181526020016000905b82821015611192578382906000526020600020018054600181600116156101000203166002900480601f01602080910402602001604051908101604052809291908181526020018280546001816001161561010002031660029004801561117e5780601f106111535761010080835404028352916020019161117e565b820191906000526020600020905b81548152906001019060200180831161116157829003601f168201915b5050505050815260200190600101906110d6565b50505050905090565b6008818051602081018201805184825260208301602085012081835280955050505050506000915090505481565b60006002826040516111db91906116f3565b908152602001604051809103902060010160009054906101000a900473ffffffffffffffffffffffffffffffffffffffff169050919050565b6000601482018351101561125d576040517f08c379a000000000000000000000000000000000000000000000000000000000815260040161125490611822565b60405180910390fd5b60148201915073ffffffffffffffffffffffffffffffffffffffff8284015116905080905092915050565b565b6000600e60009054906101000a900473ffffffffffffffffffffffffffffffffffffffff16905090565b3660008037600080366000845af43d6000803e80600081146112d5573d6000f35b3d6000fd5b600060186000369050101580156112f657506112f53361095d565b5b15611358576113516000368080601f016020809104026020016040519081016040528093929190818152602001838380828437600081840152601f19601f820116905080830192505050505050506014600036905003611214565b905061135c565b3390505b90565b60008135905061136e81611a3a565b92915050565b600082601f83011261138557600080fd5b8135611398611393826118aa565b61187d565b915080825260208301602083018583830111156113b457600080fd5b6113bf8382846119da565b50505092915050565b6000813590506113d781611a51565b92915050565b6000602082840312156113ef57600080fd5b60006113fd8482850161135f565b91505092915050565b6000806040838503121561141957600080fd5b60006114278582860161135f565b9250506020611438858286016113c8565b9150509250929050565b60006020828403121561145457600080fd5b600082013567ffffffffffffffff81111561146e57600080fd5b61147a84828501611374565b91505092915050565b600061148f8383611581565b905092915050565b6114a081611963565b82525050565b60006114b1826118e6565b6114bb8185611914565b9350836020820285016114cd856118d6565b8060005b8581101561150957848403895281516114ea8582611483565b94506114f583611907565b925060208a019950506001810190506114d1565b50829750879550505050505092915050565b61152481611975565b82525050565b6000611535826118f1565b61153f8185611925565b935061154f8185602086016119e9565b61155881611a1c565b840191505092915050565b61156c816119c8565b82525050565b61157b81611994565b82525050565b600061158c826118fc565b6115968185611936565b93506115a68185602086016119e9565b6115af81611a1c565b840191505092915050565b60006115c5826118fc565b6115cf8185611947565b93506115df8185602086016119e9565b6115e881611a1c565b840191505092915050565b60006115fe826118fc565b6116088185611958565b93506116188185602086016119e9565b80840191505092915050565b6000611631601b83611947565b91507f72656164416464726573733a206461746120746f6f2073686f727400000000006000830152602082019050919050565b6000611671600583611958565b91507f4f776e65720000000000000000000000000000000000000000000000000000006000830152600582019050919050565b60006116b1602083611947565b91507f4f776e61626c653a2063616c6c6572206973206e6f7420746865206f776e65726000830152602082019050919050565b6116ed816119be565b82525050565b60006116ff82846115f3565b915081905092915050565b600061171582611664565b9150819050919050565b60006020820190506117346000830184611497565b92915050565b6000602082019050818103600083015261175481846114a6565b905092915050565b6000602082019050611771600083018461151b565b92915050565b60006020820190508181036000830152611791818461152a565b905092915050565b60006020820190506117ae6000830184611572565b92915050565b600060208201905081810360008301526117ce81846115ba565b905092915050565b600060808201905081810360008301526117f081876115ba565b90506117ff6020830186611497565b61180c6040830185611497565b6118196060830184611563565b95945050505050565b6000602082019050818103600083015261183b81611624565b9050919050565b6000602082019050818103600083015261185b816116a4565b9050919050565b600060208201905061187760008301846116e4565b92915050565b6000604051905081810181811067ffffffffffffffff821117156118a057600080fd5b8060405250919050565b600067ffffffffffffffff8211156118c157600080fd5b601f19601f8301169050602081019050919050565b6000819050602082019050919050565b600081519050919050565b600081519050919050565b600081519050919050565b6000602082019050919050565b600082825260208201905092915050565b600082825260208201905092915050565b600082825260208201905092915050565b600082825260208201905092915050565b600081905092915050565b600061196e8261199e565b9050919050565b60008115159050919050565b600081905061198f82611a2d565b919050565b6000819050919050565b600073ffffffffffffffffffffffffffffffffffffffff82169050919050565b6000819050919050565b60006119d382611981565b9050919050565b82818337600083830152505050565b60005b83811015611a075780820151818401526020810190506119ec565b83811115611a16576000848401525b50505050565b6000601f19601f8301169050919050565b60048110611a3757fe5b50565b611a4381611963565b8114611a4e57600080fd5b50565b611a5a816119be565b8114611a6557600080fd5b5056fea26469706673582212206361eb8ebcabea1355ca9b58b4fad5436fa091a5187b32b09a7774726101a3b864736f6c634300060a0033",
  "immutableReferences": {},
  "source": "pragma solidity 0.6.10;\npragma experimental ABIEncoderV2;\n\nimport \"@opengsn/gsn/contracts/BaseRelayRecipient.sol\";\nimport \"./Proxy.sol\";\nimport { SignDocuBase, State, Action } from \"./SignDocuBase.sol\";\n\ncontract SignDocuProxy is SignDocuBase, Proxy {\n\n    address bussinessContract;\n\n    constructor(address _forwarder, address _bussinessContract) public {\n        trustedForwarder = _forwarder;\n\n        address msgSender = _msgSender();\n        addressStorage['Owner'] = msgSender;\n\n        bussinessContract = _bussinessContract;\n\n        emit OwnershipTransferred(address(0), msgSender);\n    }\n\n    function _implementation() internal override view returns(address) {\n        return bussinessContract;\n    }\n\n    function upgrade(address _bussinessContract) public onlyOwner {\n        bussinessContract = _bussinessContract;\n    }\n\n    // to delete after validation.\n    function getSender() public view returns(address) {\n        return _msgSender();\n    }\n\n    modifier onlyOwner() {\n        require(addressStorage['Owner'] == _msgSender(), \"Ownable: caller is not the owner\");\n        _;\n    }\n}",
  "sourcePath": "/Users/mariejoseph/Documents/HackFS/IPFS/contracts/SignDocuProxy.sol",
  "compiler": {
    "name": "solc",
    "version": "0.6.10+commit.00c0fcaf.Emscripten.clang"
  },
  "schemaVersion": "3.2.4",
  "updatedAt": "2020-08-31T13:38:57.893Z",
  "networkType": "ethereum",
  "devdoc": {
    "methods": {}
  },
  "userdoc": {
    "methods": {}
  }
}