{
  "contractName": "SignDocuStorage",
  "abi": [
    {
      "anonymous": false,
      "inputs": [
        {
          "indexed": false,
          "internalType": "string",
          "name": "cid",
          "type": "string"
        },
        {
          "indexed": false,
          "internalType": "address",
          "name": "creator",
          "type": "address"
        }
      ],
      "name": "DocumentCreated",
      "type": "event"
    },
    {
      "anonymous": false,
      "inputs": [
        {
          "indexed": true,
          "internalType": "address",
          "name": "previousOwner",
          "type": "address"
        },
        {
          "indexed": true,
          "internalType": "address",
          "name": "newOwner",
          "type": "address"
        }
      ],
      "name": "OwnershipTransferred",
      "type": "event"
    },
    {
      "anonymous": false,
      "inputs": [
        {
          "indexed": false,
          "internalType": "string",
          "name": "cid",
          "type": "string"
        },
        {
          "indexed": false,
          "internalType": "address",
          "name": "signee",
          "type": "address"
        }
      ],
      "name": "Signature",
      "type": "event"
    },
    {
      "inputs": [
        {
          "internalType": "address",
          "name": "",
          "type": "address"
        }
      ],
      "name": "accounts",
      "outputs": [
        {
          "internalType": "string",
          "name": "",
          "type": "string"
        }
      ],
      "stateMutability": "view",
      "type": "function"
    },
    {
      "inputs": [
        {
          "internalType": "string",
          "name": "",
          "type": "string"
        }
      ],
      "name": "addressStorage",
      "outputs": [
        {
          "internalType": "address",
          "name": "",
          "type": "address"
        }
      ],
      "stateMutability": "view",
      "type": "function"
    },
    {
      "inputs": [
        {
          "internalType": "address",
          "name": "",
          "type": "address"
        }
      ],
      "name": "allowedBy",
      "outputs": [
        {
          "internalType": "address",
          "name": "",
          "type": "address"
        }
      ],
      "stateMutability": "view",
      "type": "function"
    },
    {
      "inputs": [
        {
          "internalType": "address",
          "name": "",
          "type": "address"
        }
      ],
      "name": "balances",
      "outputs": [
        {
          "internalType": "uint256",
          "name": "",
          "type": "uint256"
        }
      ],
      "stateMutability": "view",
      "type": "function"
    },
    {
      "inputs": [
        {
          "internalType": "string",
          "name": "",
          "type": "string"
        }
      ],
      "name": "boolStorage",
      "outputs": [
        {
          "internalType": "bool",
          "name": "",
          "type": "bool"
        }
      ],
      "stateMutability": "view",
      "type": "function"
    },
    {
      "inputs": [
        {
          "internalType": "string",
          "name": "",
          "type": "string"
        }
      ],
      "name": "bytesStorage",
      "outputs": [
        {
          "internalType": "bytes",
          "name": "",
          "type": "bytes"
        }
      ],
      "stateMutability": "view",
      "type": "function"
    },
    {
      "inputs": [
        {
          "internalType": "address",
          "name": "",
          "type": "address"
        },
        {
          "internalType": "uint256",
          "name": "",
          "type": "uint256"
        }
      ],
      "name": "creators",
      "outputs": [
        {
          "internalType": "string",
          "name": "",
          "type": "string"
        }
      ],
      "stateMutability": "view",
      "type": "function"
    },
    {
      "inputs": [
        {
          "internalType": "string",
          "name": "",
          "type": "string"
        }
      ],
      "name": "documents",
      "outputs": [
        {
          "internalType": "string",
          "name": "cid",
          "type": "string"
        },
        {
          "internalType": "address",
          "name": "owner",
          "type": "address"
        },
        {
          "internalType": "address",
          "name": "newSignee",
          "type": "address"
        },
        {
          "internalType": "enum State",
          "name": "state",
          "type": "uint8"
        }
      ],
      "stateMutability": "view",
      "type": "function"
    },
    {
      "inputs": [
        {
          "internalType": "address",
          "name": "",
          "type": "address"
        },
        {
          "internalType": "uint256",
          "name": "",
          "type": "uint256"
        }
      ],
      "name": "documentsBySignee",
      "outputs": [
        {
          "internalType": "string",
          "name": "",
          "type": "string"
        }
      ],
      "stateMutability": "view",
      "type": "function"
    },
    {
      "inputs": [
        {
          "internalType": "string",
          "name": "",
          "type": "string"
        }
      ],
      "name": "documentsExist",
      "outputs": [
        {
          "internalType": "bool",
          "name": "",
          "type": "bool"
        }
      ],
      "stateMutability": "view",
      "type": "function"
    },
    {
      "inputs": [
        {
          "internalType": "string",
          "name": "",
          "type": "string"
        }
      ],
      "name": "int256Storage",
      "outputs": [
        {
          "internalType": "int256",
          "name": "",
          "type": "int256"
        }
      ],
      "stateMutability": "view",
      "type": "function"
    },
    {
      "inputs": [
        {
          "internalType": "address",
          "name": "forwarder",
          "type": "address"
        }
      ],
      "name": "isTrustedForwarder",
      "outputs": [
        {
          "internalType": "bool",
          "name": "",
          "type": "bool"
        }
      ],
      "stateMutability": "view",
      "type": "function"
    },
    {
      "inputs": [
        {
          "internalType": "string",
          "name": "",
          "type": "string"
        }
      ],
      "name": "stringStorage",
      "outputs": [
        {
          "internalType": "string",
          "name": "",
          "type": "string"
        }
      ],
      "stateMutability": "view",
      "type": "function"
    },
    {
      "inputs": [
        {
          "internalType": "string",
          "name": "",
          "type": "string"
        }
      ],
      "name": "uint256Storage",
      "outputs": [
        {
          "internalType": "uint256",
          "name": "",
          "type": "uint256"
        }
      ],
      "stateMutability": "view",
      "type": "function"
    },
    {
      "inputs": [],
      "name": "versionRecipient",
      "outputs": [
        {
          "internalType": "string",
          "name": "",
          "type": "string"
        }
      ],
      "stateMutability": "view",
      "type": "function"
    }
  ],
  "bytecode": "0x608060405234801561001057600080fd5b50610f49806100206000396000f3fe608060405234801561001057600080fd5b50600436106100f55760003560e01c80635e5c06e211610097578063a445434011610066578063a4454340146102f8578063b3dd697b14610328578063b5066b611461035b578063e5b0b90c1461038b576100f5565b80635e5c06e214610238578063699a20331461026857806370a13b48146102985780637547b64e146102c8576100f5565b806332285bda116100d357806332285bda1461018a578063486ff0cd146101ba578063572b6c05146101d857806359328eb514610208576100f5565b8063197c9fc5146100fa578063245309951461012a57806327e235e31461015a575b600080fd5b610114600480360381019061010f9190610b83565b6103bb565b6040516101219190610c9c565b60405180910390f35b610144600480360381019061013f9190610b83565b6103f1565b6040516101519190610cb7565b60405180910390f35b610174600480360381019061016f9190610b1e565b6104b7565b6040516101819190610d62565b60405180910390f35b6101a4600480360381019061019f9190610b83565b6104cf565b6040516101b19190610cf4565b60405180910390f35b6101c2610595565b6040516101cf9190610cf4565b60405180910390f35b6101f260048036038101906101ed9190610b1e565b6105d2565b6040516101ff9190610c9c565b60405180910390f35b610222600480360381019061021d9190610b1e565b61062b565b60405161022f9190610c81565b60405180910390f35b610252600480360381019061024d9190610b1e565b61065e565b60405161025f9190610cf4565b60405180910390f35b610282600480360381019061027d9190610b47565b61070e565b60405161028f9190610cf4565b60405180910390f35b6102b260048036038101906102ad9190610b83565b6107d4565b6040516102bf9190610cd9565b60405180910390f35b6102e260048036038101906102dd9190610b83565b610802565b6040516102ef9190610c81565b60405180910390f35b610312600480360381019061030d9190610b47565b61084b565b60405161031f9190610cf4565b60405180910390f35b610342600480360381019061033d9190610b83565b610911565b6040516103529493929190610d16565b60405180910390f35b61037560048036038101906103709190610b83565b610a3c565b6040516103829190610c9c565b60405180910390f35b6103a560048036038101906103a09190610b83565b610a72565b6040516103b29190610d62565b60405180910390f35b6003818051602081018201805184825260208301602085012081835280955050505050506000915054906101000a900460ff1681565b600c818051602081018201805184825260208301602085012081835280955050505050506000915090508054600181600116156101000203166002900480601f0160208091040260200160405190810160405280929190818152602001828054600181600116156101000203166002900480156104af5780601f10610484576101008083540402835291602001916104af565b820191906000526020600020905b81548152906001019060200180831161049257829003601f168201915b505050505081565b60016020528060005260406000206000915090505481565b600d818051602081018201805184825260208301602085012081835280955050505050506000915090508054600181600116156101000203166002900480601f01602080910402602001604051908101604052809291908181526020018280546001816001161561010002031660029004801561058d5780601f106105625761010080835404028352916020019161058d565b820191906000526020600020905b81548152906001019060200180831161057057829003601f168201915b505050505081565b60606040518060400160405280600581526020017f302e302e31000000000000000000000000000000000000000000000000000000815250905090565b60008060009054906101000a900473ffffffffffffffffffffffffffffffffffffffff1673ffffffffffffffffffffffffffffffffffffffff168273ffffffffffffffffffffffffffffffffffffffff16149050919050565b60056020528060005260406000206000915054906101000a900473ffffffffffffffffffffffffffffffffffffffff1681565b60046020528060005260406000206000915090508054600181600116156101000203166002900480601f0160208091040260200160405190810160405280929190818152602001828054600181600116156101000203166002900480156107065780601f106106db57610100808354040283529160200191610706565b820191906000526020600020905b8154815290600101906020018083116106e957829003601f168201915b505050505081565b6007602052816000526040600020818154811061072757fe5b90600052602060002001600091509150508054600181600116156101000203166002900480601f0160208091040260200160405190810160405280929190818152602001828054600181600116156101000203166002900480156107cc5780601f106107a1576101008083540402835291602001916107cc565b820191906000526020600020905b8154815290600101906020018083116107af57829003601f168201915b505050505081565b6009818051602081018201805184825260208301602085012081835280955050505050506000915090505481565b600b818051602081018201805184825260208301602085012081835280955050505050506000915054906101000a900473ffffffffffffffffffffffffffffffffffffffff1681565b6006602052816000526040600020818154811061086457fe5b90600052602060002001600091509150508054600181600116156101000203166002900480601f0160208091040260200160405190810160405280929190818152602001828054600181600116156101000203166002900480156109095780601f106108de57610100808354040283529160200191610909565b820191906000526020600020905b8154815290600101906020018083116108ec57829003601f168201915b505050505081565b600281805160208101820180518482526020830160208501208183528095505050505050600091509050806000018054600181600116156101000203166002900480601f0160208091040260200160405190810160405280929190818152602001828054600181600116156101000203166002900480156109d35780601f106109a8576101008083540402835291602001916109d3565b820191906000526020600020905b8154815290600101906020018083116109b657829003601f168201915b5050505050908060010160009054906101000a900473ffffffffffffffffffffffffffffffffffffffff16908060020160009054906101000a900473ffffffffffffffffffffffffffffffffffffffff16908060020160149054906101000a900460ff16905084565b600a818051602081018201805184825260208301602085012081835280955050505050506000915054906101000a900460ff1681565b6008818051602081018201805184825260208301602085012081835280955050505050506000915090505481565b600081359050610aaf81610ee5565b92915050565b600082601f830112610ac657600080fd5b8135610ad9610ad482610daa565b610d7d565b91508082526020830160208301858383011115610af557600080fd5b610b00838284610e85565b50505092915050565b600081359050610b1881610efc565b92915050565b600060208284031215610b3057600080fd5b6000610b3e84828501610aa0565b91505092915050565b60008060408385031215610b5a57600080fd5b6000610b6885828601610aa0565b9250506020610b7985828601610b09565b9150509250929050565b600060208284031215610b9557600080fd5b600082013567ffffffffffffffff811115610baf57600080fd5b610bbb84828501610ab5565b91505092915050565b610bcd81610e0e565b82525050565b610bdc81610e20565b82525050565b6000610bed82610dd6565b610bf78185610dec565b9350610c07818560208601610e94565b610c1081610ec7565b840191505092915050565b610c2481610e73565b82525050565b610c3381610e3f565b82525050565b6000610c4482610de1565b610c4e8185610dfd565b9350610c5e818560208601610e94565b610c6781610ec7565b840191505092915050565b610c7b81610e69565b82525050565b6000602082019050610c966000830184610bc4565b92915050565b6000602082019050610cb16000830184610bd3565b92915050565b60006020820190508181036000830152610cd18184610be2565b905092915050565b6000602082019050610cee6000830184610c2a565b92915050565b60006020820190508181036000830152610d0e8184610c39565b905092915050565b60006080820190508181036000830152610d308187610c39565b9050610d3f6020830186610bc4565b610d4c6040830185610bc4565b610d596060830184610c1b565b95945050505050565b6000602082019050610d776000830184610c72565b92915050565b6000604051905081810181811067ffffffffffffffff82111715610da057600080fd5b8060405250919050565b600067ffffffffffffffff821115610dc157600080fd5b601f19601f8301169050602081019050919050565b600081519050919050565b600081519050919050565b600082825260208201905092915050565b600082825260208201905092915050565b6000610e1982610e49565b9050919050565b60008115159050919050565b6000819050610e3a82610ed8565b919050565b6000819050919050565b600073ffffffffffffffffffffffffffffffffffffffff82169050919050565b6000819050919050565b6000610e7e82610e2c565b9050919050565b82818337600083830152505050565b60005b83811015610eb2578082015181840152602081019050610e97565b83811115610ec1576000848401525b50505050565b6000601f19601f8301169050919050565b60048110610ee257fe5b50565b610eee81610e0e565b8114610ef957600080fd5b50565b610f0581610e69565b8114610f1057600080fd5b5056fea26469706673582212200ae3e942d2a8667dfb16e4677501d0646f9be42dad14fab4b953e695799da4f864736f6c634300060a0033",
  "immutableReferences": {},
  "source": "pragma solidity 0.6.10;\npragma experimental ABIEncoderV2;\n\nimport \"@opengsn/gsn/contracts/BaseRelayRecipient.sol\";\nimport \"@openzeppelin/contracts/math/SafeMath.sol\";\nimport \"./EnumAndStruct.sol\";\n\ncontract SignDocuStorage is BaseRelayRecipient {\n\n    using SafeMath for uint256;\n\n    // Balances for Gas Station Network\n\n    mapping(address => uint256) public balances;\n\n    // Balances for Gas Station Network\n\n    mapping(string => Document) public documents;\n    mapping(string => bool) public documentsExist;\n    mapping(address => string) public accounts;\n    mapping(address => address) public allowedBy;\n\n    mapping(address => string[]) public creators;\n    mapping(address => string[])  public documentsBySignee;\n\n    event Signature(string cid, address signee);\n    event DocumentCreated(string cid, address creator);\n    event OwnershipTransferred(address indexed previousOwner, address indexed newOwner);\n\n    mapping(string => uint256) public uint256Storage;\n    mapping(string => int256) public int256Storage;\n    mapping(string => bool) public boolStorage;\n    mapping(string => address) public addressStorage;\n    mapping(string => bytes) public bytesStorage;\n    mapping(string => string) public stringStorage;\n\n    function versionRecipient() external override view returns (string memory) {\n        return '0.0.1';\n    }\n}",
  "sourcePath": "/Users/mariejoseph/Documents/HackFS/IPFS/contracts/SignDocuStorage.sol",
  "compiler": {
    "name": "solc",
    "version": "0.6.10+commit.00c0fcaf.Emscripten.clang"
  },
  "schemaVersion": "3.2.4",
  "updatedAt": "2020-08-31T13:38:03.831Z",
  "devdoc": {
    "methods": {}
  },
  "userdoc": {
    "methods": {}
  }
}