{
  "contractName": "SignDocuBase",
  "abi": [
    {
      "anonymous": false,
      "inputs": [
        {
          "indexed": false,
          "internalType": "string",
          "name": "cid",
          "type": "string"
        },
        {
          "indexed": false,
          "internalType": "address",
          "name": "creator",
          "type": "address"
        }
      ],
      "name": "DocumentCreated",
      "type": "event"
    },
    {
      "anonymous": false,
      "inputs": [
        {
          "indexed": true,
          "internalType": "address",
          "name": "previousOwner",
          "type": "address"
        },
        {
          "indexed": true,
          "internalType": "address",
          "name": "newOwner",
          "type": "address"
        }
      ],
      "name": "OwnershipTransferred",
      "type": "event"
    },
    {
      "anonymous": false,
      "inputs": [
        {
          "indexed": false,
          "internalType": "string",
          "name": "cid",
          "type": "string"
        },
        {
          "indexed": false,
          "internalType": "address",
          "name": "signee",
          "type": "address"
        }
      ],
      "name": "Signature",
      "type": "event"
    },
    {
      "inputs": [
        {
          "internalType": "address",
          "name": "",
          "type": "address"
        }
      ],
      "name": "accounts",
      "outputs": [
        {
          "internalType": "string",
          "name": "",
          "type": "string"
        }
      ],
      "stateMutability": "view",
      "type": "function"
    },
    {
      "inputs": [
        {
          "internalType": "string",
          "name": "",
          "type": "string"
        }
      ],
      "name": "addressStorage",
      "outputs": [
        {
          "internalType": "address",
          "name": "",
          "type": "address"
        }
      ],
      "stateMutability": "view",
      "type": "function"
    },
    {
      "inputs": [
        {
          "internalType": "address",
          "name": "",
          "type": "address"
        }
      ],
      "name": "allowedBy",
      "outputs": [
        {
          "internalType": "address",
          "name": "",
          "type": "address"
        }
      ],
      "stateMutability": "view",
      "type": "function"
    },
    {
      "inputs": [
        {
          "internalType": "address",
          "name": "",
          "type": "address"
        }
      ],
      "name": "balances",
      "outputs": [
        {
          "internalType": "uint256",
          "name": "",
          "type": "uint256"
        }
      ],
      "stateMutability": "view",
      "type": "function"
    },
    {
      "inputs": [
        {
          "internalType": "string",
          "name": "",
          "type": "string"
        }
      ],
      "name": "boolStorage",
      "outputs": [
        {
          "internalType": "bool",
          "name": "",
          "type": "bool"
        }
      ],
      "stateMutability": "view",
      "type": "function"
    },
    {
      "inputs": [
        {
          "internalType": "string",
          "name": "",
          "type": "string"
        }
      ],
      "name": "bytesStorage",
      "outputs": [
        {
          "internalType": "bytes",
          "name": "",
          "type": "bytes"
        }
      ],
      "stateMutability": "view",
      "type": "function"
    },
    {
      "inputs": [
        {
          "internalType": "address",
          "name": "",
          "type": "address"
        },
        {
          "internalType": "uint256",
          "name": "",
          "type": "uint256"
        }
      ],
      "name": "creators",
      "outputs": [
        {
          "internalType": "string",
          "name": "",
          "type": "string"
        }
      ],
      "stateMutability": "view",
      "type": "function"
    },
    {
      "inputs": [
        {
          "internalType": "string",
          "name": "",
          "type": "string"
        }
      ],
      "name": "documents",
      "outputs": [
        {
          "internalType": "string",
          "name": "cid",
          "type": "string"
        },
        {
          "internalType": "address",
          "name": "owner",
          "type": "address"
        },
        {
          "internalType": "address",
          "name": "newSignee",
          "type": "address"
        },
        {
          "internalType": "enum State",
          "name": "state",
          "type": "uint8"
        }
      ],
      "stateMutability": "view",
      "type": "function"
    },
    {
      "inputs": [
        {
          "internalType": "address",
          "name": "",
          "type": "address"
        },
        {
          "internalType": "uint256",
          "name": "",
          "type": "uint256"
        }
      ],
      "name": "documentsBySignee",
      "outputs": [
        {
          "internalType": "string",
          "name": "",
          "type": "string"
        }
      ],
      "stateMutability": "view",
      "type": "function"
    },
    {
      "inputs": [
        {
          "internalType": "string",
          "name": "",
          "type": "string"
        }
      ],
      "name": "documentsExist",
      "outputs": [
        {
          "internalType": "bool",
          "name": "",
          "type": "bool"
        }
      ],
      "stateMutability": "view",
      "type": "function"
    },
    {
      "inputs": [
        {
          "internalType": "string",
          "name": "",
          "type": "string"
        }
      ],
      "name": "int256Storage",
      "outputs": [
        {
          "internalType": "int256",
          "name": "",
          "type": "int256"
        }
      ],
      "stateMutability": "view",
      "type": "function"
    },
    {
      "inputs": [
        {
          "internalType": "address",
          "name": "forwarder",
          "type": "address"
        }
      ],
      "name": "isTrustedForwarder",
      "outputs": [
        {
          "internalType": "bool",
          "name": "",
          "type": "bool"
        }
      ],
      "stateMutability": "view",
      "type": "function"
    },
    {
      "inputs": [
        {
          "internalType": "string",
          "name": "",
          "type": "string"
        }
      ],
      "name": "stringStorage",
      "outputs": [
        {
          "internalType": "string",
          "name": "",
          "type": "string"
        }
      ],
      "stateMutability": "view",
      "type": "function"
    },
    {
      "inputs": [
        {
          "internalType": "string",
          "name": "",
          "type": "string"
        }
      ],
      "name": "uint256Storage",
      "outputs": [
        {
          "internalType": "uint256",
          "name": "",
          "type": "uint256"
        }
      ],
      "stateMutability": "view",
      "type": "function"
    },
    {
      "inputs": [],
      "name": "versionRecipient",
      "outputs": [
        {
          "internalType": "string",
          "name": "",
          "type": "string"
        }
      ],
      "stateMutability": "view",
      "type": "function"
    },
    {
      "inputs": [
        {
          "internalType": "string",
          "name": "_cid",
          "type": "string"
        }
      ],
      "name": "getOwnerOfDocument",
      "outputs": [
        {
          "internalType": "address",
          "name": "",
          "type": "address"
        }
      ],
      "stateMutability": "view",
      "type": "function"
    },
    {
      "inputs": [
        {
          "internalType": "string",
          "name": "_cid",
          "type": "string"
        }
      ],
      "name": "getDocumentState",
      "outputs": [
        {
          "internalType": "uint256",
          "name": "",
          "type": "uint256"
        }
      ],
      "stateMutability": "view",
      "type": "function"
    },
    {
      "inputs": [
        {
          "internalType": "string",
          "name": "_cid",
          "type": "string"
        }
      ],
      "name": "getDocumentSecret",
      "outputs": [
        {
          "internalType": "string",
          "name": "",
          "type": "string"
        }
      ],
      "stateMutability": "view",
      "type": "function"
    },
    {
      "inputs": [],
      "name": "getCreatedDocument",
      "outputs": [
        {
          "internalType": "string[]",
          "name": "",
          "type": "string[]"
        }
      ],
      "stateMutability": "view",
      "type": "function"
    },
    {
      "inputs": [],
      "name": "getSigneeDocument",
      "outputs": [
        {
          "internalType": "string[]",
          "name": "",
          "type": "string[]"
        }
      ],
      "stateMutability": "view",
      "type": "function"
    }
  ],
  "bytecode": "0x608060405234801561001057600080fd5b506115a7806100206000396000f3fe608060405234801561001057600080fd5b506004361061012c5760003560e01c806370a13b48116100ad578063b3dd697b11610071578063b3dd697b146103dd578063b5066b6114610410578063ba8ef30314610440578063e5b0b90c1461045e578063ff86e28c1461048e5761012c565b806370a13b48146102ff5780637547b64e1461032f5780639021639c1461035f57806398a270eb1461037d578063a4454340146103ad5761012c565b8063572b6c05116100f4578063572b6c051461020f578063576777091461023f57806359328eb51461026f5780635e5c06e21461029f578063699a2033146102cf5761012c565b8063197c9fc514610131578063245309951461016157806327e235e31461019157806332285bda146101c1578063486ff0cd146101f1575b600080fd5b61014b60048036038101906101469190611060565b6104be565b60405161015891906112a5565b60405180910390f35b61017b60048036038101906101769190611060565b6104f4565b60405161018891906112c0565b60405180910390f35b6101ab60048036038101906101a69190610ffb565b6105ba565b6040516101b8919061136b565b60405180910390f35b6101db60048036038101906101d69190611060565b6105d2565b6040516101e891906112fd565b60405180910390f35b6101f9610698565b60405161020691906112fd565b60405180910390f35b61022960048036038101906102249190610ffb565b6106d5565b60405161023691906112a5565b60405180910390f35b61025960048036038101906102549190611060565b61072e565b604051610266919061136b565b60405180910390f35b61028960048036038101906102849190610ffb565b610771565b6040516102969190611268565b60405180910390f35b6102b960048036038101906102b49190610ffb565b6107a4565b6040516102c691906112fd565b60405180910390f35b6102e960048036038101906102e49190611024565b610854565b6040516102f691906112fd565b60405180910390f35b61031960048036038101906103149190611060565b61091a565b60405161032691906112e2565b60405180910390f35b61034960048036038101906103449190611060565b610948565b6040516103569190611268565b60405180910390f35b610367610991565b6040516103749190611283565b60405180910390f35b61039760048036038101906103929190611060565b610ab7565b6040516103a491906112fd565b60405180910390f35b6103c760048036038101906103c29190611024565b610bb7565b6040516103d491906112fd565b60405180910390f35b6103f760048036038101906103f29190611060565b610c7d565b604051610407949392919061131f565b60405180910390f35b61042a60048036038101906104259190611060565b610da8565b60405161043791906112a5565b60405180910390f35b610448610dde565b6040516104559190611283565b60405180910390f35b61047860048036038101906104739190611060565b610f04565b604051610485919061136b565b60405180910390f35b6104a860048036038101906104a39190611060565b610f32565b6040516104b59190611268565b60405180910390f35b6003818051602081018201805184825260208301602085012081835280955050505050506000915054906101000a900460ff1681565b600c818051602081018201805184825260208301602085012081835280955050505050506000915090508054600181600116156101000203166002900480601f0160208091040260200160405190810160405280929190818152602001828054600181600116156101000203166002900480156105b25780601f10610587576101008083540402835291602001916105b2565b820191906000526020600020905b81548152906001019060200180831161059557829003601f168201915b505050505081565b60016020528060005260406000206000915090505481565b600d818051602081018201805184825260208301602085012081835280955050505050506000915090508054600181600116156101000203166002900480601f0160208091040260200160405190810160405280929190818152602001828054600181600116156101000203166002900480156106905780601f1061066557610100808354040283529160200191610690565b820191906000526020600020905b81548152906001019060200180831161067357829003601f168201915b505050505081565b60606040518060400160405280600581526020017f302e302e31000000000000000000000000000000000000000000000000000000815250905090565b60008060009054906101000a900473ffffffffffffffffffffffffffffffffffffffff1673ffffffffffffffffffffffffffffffffffffffff168273ffffffffffffffffffffffffffffffffffffffff16149050919050565b60006002826040516107409190611251565b908152602001604051809103902060020160149054906101000a900460ff16600381111561076a57fe5b9050919050565b60056020528060005260406000206000915054906101000a900473ffffffffffffffffffffffffffffffffffffffff1681565b60046020528060005260406000206000915090508054600181600116156101000203166002900480601f01602080910402602001604051908101604052809291908181526020018280546001816001161561010002031660029004801561084c5780601f106108215761010080835404028352916020019161084c565b820191906000526020600020905b81548152906001019060200180831161082f57829003601f168201915b505050505081565b6007602052816000526040600020818154811061086d57fe5b90600052602060002001600091509150508054600181600116156101000203166002900480601f0160208091040260200160405190810160405280929190818152602001828054600181600116156101000203166002900480156109125780601f106108e757610100808354040283529160200191610912565b820191906000526020600020905b8154815290600101906020018083116108f557829003601f168201915b505050505081565b6009818051602081018201805184825260208301602085012081835280955050505050506000915090505481565b600b818051602081018201805184825260208301602085012081835280955050505050506000915054906101000a900473ffffffffffffffffffffffffffffffffffffffff1681565b6060600660003373ffffffffffffffffffffffffffffffffffffffff1673ffffffffffffffffffffffffffffffffffffffff168152602001908152602001600020805480602002602001604051908101604052809291908181526020016000905b82821015610aae578382906000526020600020018054600181600116156101000203166002900480601f016020809104026020016040519081016040528092919081815260200182805460018160011615610100020316600290048015610a9a5780601f10610a6f57610100808354040283529160200191610a9a565b820191906000526020600020905b815481529060010190602001808311610a7d57829003601f168201915b5050505050815260200190600101906109f2565b50505050905090565b6060600282604051610ac99190611251565b908152602001604051809103902060030160003373ffffffffffffffffffffffffffffffffffffffff1673ffffffffffffffffffffffffffffffffffffffff1681526020019081526020016000208054600181600116156101000203166002900480601f016020809104026020016040519081016040528092919081815260200182805460018160011615610100020316600290048015610bab5780601f10610b8057610100808354040283529160200191610bab565b820191906000526020600020905b815481529060010190602001808311610b8e57829003601f168201915b50505050509050919050565b60066020528160005260406000208181548110610bd057fe5b90600052602060002001600091509150508054600181600116156101000203166002900480601f016020809104026020016040519081016040528092919081815260200182805460018160011615610100020316600290048015610c755780601f10610c4a57610100808354040283529160200191610c75565b820191906000526020600020905b815481529060010190602001808311610c5857829003601f168201915b505050505081565b600281805160208101820180518482526020830160208501208183528095505050505050600091509050806000018054600181600116156101000203166002900480601f016020809104026020016040519081016040528092919081815260200182805460018160011615610100020316600290048015610d3f5780601f10610d1457610100808354040283529160200191610d3f565b820191906000526020600020905b815481529060010190602001808311610d2257829003601f168201915b5050505050908060010160009054906101000a900473ffffffffffffffffffffffffffffffffffffffff16908060020160009054906101000a900473ffffffffffffffffffffffffffffffffffffffff16908060020160149054906101000a900460ff16905084565b600a818051602081018201805184825260208301602085012081835280955050505050506000915054906101000a900460ff1681565b6060600760003373ffffffffffffffffffffffffffffffffffffffff1673ffffffffffffffffffffffffffffffffffffffff168152602001908152602001600020805480602002602001604051908101604052809291908181526020016000905b82821015610efb578382906000526020600020018054600181600116156101000203166002900480601f016020809104026020016040519081016040528092919081815260200182805460018160011615610100020316600290048015610ee75780601f10610ebc57610100808354040283529160200191610ee7565b820191906000526020600020905b815481529060010190602001808311610eca57829003601f168201915b505050505081526020019060010190610e3f565b50505050905090565b6008818051602081018201805184825260208301602085012081835280955050505050506000915090505481565b6000600282604051610f449190611251565b908152602001604051809103902060010160009054906101000a900473ffffffffffffffffffffffffffffffffffffffff169050919050565b600081359050610f8c81611543565b92915050565b600082601f830112610fa357600080fd5b8135610fb6610fb1826113b3565b611386565b91508082526020830160208301858383011115610fd257600080fd5b610fdd8382846114e3565b50505092915050565b600081359050610ff58161155a565b92915050565b60006020828403121561100d57600080fd5b600061101b84828501610f7d565b91505092915050565b6000806040838503121561103757600080fd5b600061104585828601610f7d565b925050602061105685828601610fe6565b9150509250929050565b60006020828403121561107257600080fd5b600082013567ffffffffffffffff81111561108c57600080fd5b61109884828501610f92565b91505092915050565b60006110ad838361119f565b905092915050565b6110be8161146c565b82525050565b60006110cf826113ef565b6110d9818561141d565b9350836020820285016110eb856113df565b8060005b85811015611127578484038952815161110885826110a1565b945061111383611410565b925060208a019950506001810190506110ef565b50829750879550505050505092915050565b6111428161147e565b82525050565b6000611153826113fa565b61115d818561142e565b935061116d8185602086016114f2565b61117681611525565b840191505092915050565b61118a816114d1565b82525050565b6111998161149d565b82525050565b60006111aa82611405565b6111b4818561143f565b93506111c48185602086016114f2565b6111cd81611525565b840191505092915050565b60006111e382611405565b6111ed8185611450565b93506111fd8185602086016114f2565b61120681611525565b840191505092915050565b600061121c82611405565b6112268185611461565b93506112368185602086016114f2565b80840191505092915050565b61124b816114c7565b82525050565b600061125d8284611211565b915081905092915050565b600060208201905061127d60008301846110b5565b92915050565b6000602082019050818103600083015261129d81846110c4565b905092915050565b60006020820190506112ba6000830184611139565b92915050565b600060208201905081810360008301526112da8184611148565b905092915050565b60006020820190506112f76000830184611190565b92915050565b6000602082019050818103600083015261131781846111d8565b905092915050565b6000608082019050818103600083015261133981876111d8565b905061134860208301866110b5565b61135560408301856110b5565b6113626060830184611181565b95945050505050565b60006020820190506113806000830184611242565b92915050565b6000604051905081810181811067ffffffffffffffff821117156113a957600080fd5b8060405250919050565b600067ffffffffffffffff8211156113ca57600080fd5b601f19601f8301169050602081019050919050565b6000819050602082019050919050565b600081519050919050565b600081519050919050565b600081519050919050565b6000602082019050919050565b600082825260208201905092915050565b600082825260208201905092915050565b600082825260208201905092915050565b600082825260208201905092915050565b600081905092915050565b6000611477826114a7565b9050919050565b60008115159050919050565b600081905061149882611536565b919050565b6000819050919050565b600073ffffffffffffffffffffffffffffffffffffffff82169050919050565b6000819050919050565b60006114dc8261148a565b9050919050565b82818337600083830152505050565b60005b838110156115105780820151818401526020810190506114f5565b8381111561151f576000848401525b50505050565b6000601f19601f8301169050919050565b6004811061154057fe5b50565b61154c8161146c565b811461155757600080fd5b50565b611563816114c7565b811461156e57600080fd5b5056fea264697066735822122082aa8168979b89babba7a5eb98dbcad02002ab40ad3562ea1b1880f6f78ca01064736f6c634300060a0033",
  "immutableReferences": {},
  "source": "pragma solidity 0.6.10;\npragma experimental ABIEncoderV2;\n\nimport \"./SignDocuStorage.sol\";\n\ncontract SignDocuBase is SignDocuStorage {\n    // Documents Accesseur\n\n    function getOwnerOfDocument(string memory _cid) public view returns(address) {\n        return documents[_cid].owner;\n    }\n\n    function getDocumentState(string memory _cid) public view returns(uint256) {\n        return uint(documents[_cid].state);\n    }\n\n    function getDocumentSecret(string memory _cid) public view returns(string memory) {\n        return documents[_cid].secrets[msg.sender];\n    }\n\n    function getCreatedDocument() public view returns(string[] memory) {\n        return creators[msg.sender];\n    }\n\n    function getSigneeDocument() public view returns(string[] memory) {\n        return documentsBySignee[msg.sender];\n    }\n\n    // Documents Accesseur\n}",
  "sourcePath": "/Users/mariejoseph/Documents/HackFS/IPFS/contracts/SignDocuBase.sol",
  "compiler": {
    "name": "solc",
    "version": "0.6.10+commit.00c0fcaf.Emscripten.clang"
  },
  "schemaVersion": "3.2.4",
  "updatedAt": "2020-08-31T13:38:03.807Z",
  "devdoc": {
    "methods": {}
  },
  "userdoc": {
    "methods": {}
  }
}