{
  "contractName": "SignDocuBussinessMock",
  "abi": [
    {
      "inputs": [],
      "stateMutability": "nonpayable",
      "type": "constructor"
    },
    {
      "anonymous": false,
      "inputs": [
        {
          "indexed": false,
          "internalType": "string",
          "name": "cid",
          "type": "string"
        },
        {
          "indexed": false,
          "internalType": "address",
          "name": "creator",
          "type": "address"
        }
      ],
      "name": "DocumentCreated",
      "type": "event"
    },
    {
      "anonymous": false,
      "inputs": [
        {
          "indexed": true,
          "internalType": "address",
          "name": "previousOwner",
          "type": "address"
        },
        {
          "indexed": true,
          "internalType": "address",
          "name": "newOwner",
          "type": "address"
        }
      ],
      "name": "OwnershipTransferred",
      "type": "event"
    },
    {
      "anonymous": false,
      "inputs": [
        {
          "indexed": false,
          "internalType": "string",
          "name": "cid",
          "type": "string"
        },
        {
          "indexed": false,
          "internalType": "address",
          "name": "signee",
          "type": "address"
        }
      ],
      "name": "Signature",
      "type": "event"
    },
    {
      "stateMutability": "payable",
      "type": "fallback"
    },
    {
      "inputs": [
        {
          "internalType": "address",
          "name": "",
          "type": "address"
        }
      ],
      "name": "accounts",
      "outputs": [
        {
          "internalType": "string",
          "name": "",
          "type": "string"
        }
      ],
      "stateMutability": "view",
      "type": "function"
    },
    {
      "inputs": [
        {
          "internalType": "string",
          "name": "",
          "type": "string"
        }
      ],
      "name": "addressStorage",
      "outputs": [
        {
          "internalType": "address",
          "name": "",
          "type": "address"
        }
      ],
      "stateMutability": "view",
      "type": "function"
    },
    {
      "inputs": [
        {
          "internalType": "address",
          "name": "",
          "type": "address"
        }
      ],
      "name": "allowedBy",
      "outputs": [
        {
          "internalType": "address",
          "name": "",
          "type": "address"
        }
      ],
      "stateMutability": "view",
      "type": "function"
    },
    {
      "inputs": [
        {
          "internalType": "address",
          "name": "",
          "type": "address"
        }
      ],
      "name": "balances",
      "outputs": [
        {
          "internalType": "uint256",
          "name": "",
          "type": "uint256"
        }
      ],
      "stateMutability": "view",
      "type": "function"
    },
    {
      "inputs": [
        {
          "internalType": "string",
          "name": "",
          "type": "string"
        }
      ],
      "name": "boolStorage",
      "outputs": [
        {
          "internalType": "bool",
          "name": "",
          "type": "bool"
        }
      ],
      "stateMutability": "view",
      "type": "function"
    },
    {
      "inputs": [
        {
          "internalType": "string",
          "name": "",
          "type": "string"
        }
      ],
      "name": "bytesStorage",
      "outputs": [
        {
          "internalType": "bytes",
          "name": "",
          "type": "bytes"
        }
      ],
      "stateMutability": "view",
      "type": "function"
    },
    {
      "inputs": [
        {
          "internalType": "address",
          "name": "",
          "type": "address"
        },
        {
          "internalType": "uint256",
          "name": "",
          "type": "uint256"
        }
      ],
      "name": "creators",
      "outputs": [
        {
          "internalType": "string",
          "name": "",
          "type": "string"
        }
      ],
      "stateMutability": "view",
      "type": "function"
    },
    {
      "inputs": [
        {
          "internalType": "string",
          "name": "",
          "type": "string"
        }
      ],
      "name": "documents",
      "outputs": [
        {
          "internalType": "string",
          "name": "cid",
          "type": "string"
        },
        {
          "internalType": "address",
          "name": "owner",
          "type": "address"
        },
        {
          "internalType": "address",
          "name": "newSignee",
          "type": "address"
        },
        {
          "internalType": "enum State",
          "name": "state",
          "type": "uint8"
        }
      ],
      "stateMutability": "view",
      "type": "function"
    },
    {
      "inputs": [
        {
          "internalType": "address",
          "name": "",
          "type": "address"
        },
        {
          "internalType": "uint256",
          "name": "",
          "type": "uint256"
        }
      ],
      "name": "documentsBySignee",
      "outputs": [
        {
          "internalType": "string",
          "name": "",
          "type": "string"
        }
      ],
      "stateMutability": "view",
      "type": "function"
    },
    {
      "inputs": [
        {
          "internalType": "string",
          "name": "",
          "type": "string"
        }
      ],
      "name": "documentsExist",
      "outputs": [
        {
          "internalType": "bool",
          "name": "",
          "type": "bool"
        }
      ],
      "stateMutability": "view",
      "type": "function"
    },
    {
      "inputs": [
        {
          "internalType": "string",
          "name": "_cid",
          "type": "string"
        },
        {
          "internalType": "address",
          "name": "_sender",
          "type": "address"
        }
      ],
      "name": "getDocumentSecret",
      "outputs": [
        {
          "internalType": "string",
          "name": "",
          "type": "string"
        }
      ],
      "stateMutability": "view",
      "type": "function"
    },
    {
      "inputs": [
        {
          "internalType": "string",
          "name": "_cid",
          "type": "string"
        }
      ],
      "name": "getDocumentState",
      "outputs": [
        {
          "internalType": "uint256",
          "name": "",
          "type": "uint256"
        }
      ],
      "stateMutability": "view",
      "type": "function"
    },
    {
      "inputs": [
        {
          "internalType": "string",
          "name": "_cid",
          "type": "string"
        }
      ],
      "name": "getOwnerOfDocument",
      "outputs": [
        {
          "internalType": "address",
          "name": "",
          "type": "address"
        }
      ],
      "stateMutability": "view",
      "type": "function"
    },
    {
      "inputs": [],
      "name": "getTrustedForwarder",
      "outputs": [
        {
          "internalType": "address",
          "name": "",
          "type": "address"
        }
      ],
      "stateMutability": "view",
      "type": "function"
    },
    {
      "inputs": [
        {
          "internalType": "string",
          "name": "",
          "type": "string"
        }
      ],
      "name": "int256Storage",
      "outputs": [
        {
          "internalType": "int256",
          "name": "",
          "type": "int256"
        }
      ],
      "stateMutability": "view",
      "type": "function"
    },
    {
      "inputs": [
        {
          "internalType": "string",
          "name": "",
          "type": "string"
        }
      ],
      "name": "stringStorage",
      "outputs": [
        {
          "internalType": "string",
          "name": "",
          "type": "string"
        }
      ],
      "stateMutability": "view",
      "type": "function"
    },
    {
      "inputs": [
        {
          "internalType": "string",
          "name": "",
          "type": "string"
        }
      ],
      "name": "uint256Storage",
      "outputs": [
        {
          "internalType": "uint256",
          "name": "",
          "type": "uint256"
        }
      ],
      "stateMutability": "view",
      "type": "function"
    },
    {
      "inputs": [],
      "name": "setForAccountCreation",
      "outputs": [],
      "stateMutability": "nonpayable",
      "type": "function"
    },
    {
      "inputs": [],
      "name": "setForApprovalAccountCreation",
      "outputs": [],
      "stateMutability": "nonpayable",
      "type": "function"
    },
    {
      "inputs": [],
      "name": "setForDocumentCreation",
      "outputs": [],
      "stateMutability": "nonpayable",
      "type": "function"
    },
    {
      "inputs": [],
      "name": "setForSigningCreation",
      "outputs": [],
      "stateMutability": "nonpayable",
      "type": "function"
    }
  ],
  "bytecode": "0x608060405234801561001057600080fd5b50600060405161001f90610085565b604051809103906000f08015801561003b573d6000803e3d6000fd5b50905080600e60006101000a81548173ffffffffffffffffffffffffffffffffffffffff021916908373ffffffffffffffffffffffffffffffffffffffff16021790555050610093565b61454a806201793b83390190565b6201789780620000a46000396000f3fe60806040526004361061012e5760003560e01c806370a13b48116100ab578063b5066b611161006f578063b5066b6114610e2d578063c47b7c3314610f0d578063ce1b815f14610f24578063e5b0b90c14610f7b578063e71e376314611057578063ff86e28c1461106e5761012f565b806370a13b48146108585780637547b64e146109345780638173c1ee14610a3c578063a445434014610b9d578063b3dd697b14610c715761012f565b80634690c548116100f25780634690c54814610536578063576777091461054d57806359328eb5146106295780635e5c06e2146106ba578063699a2033146107845761012f565b8063197c9fc514610158578063232ef52d14610238578063245309951461024f57806327e235e31461039057806332285bda146103f55761012f565b5b6000543660008037600080366000845af43d6000803e8060008114610153573d6000f35b600080fd5b34801561016457600080fd5b5061021e6004803603602081101561017b57600080fd5b810190808035906020019064010000000081111561019857600080fd5b8201836020820111156101aa57600080fd5b803590602001918460018302840111640100000000831117156101cc57600080fd5b91908080601f016020809104026020016040519081016040528093929190818152602001838380828437600081840152601f19601f820116905080830192505050505050509192919290505050611176565b604051808215151515815260200191505060405180910390f35b34801561024457600080fd5b5061024d6111ac565b005b34801561025b57600080fd5b506103156004803603602081101561027257600080fd5b810190808035906020019064010000000081111561028f57600080fd5b8201836020820111156102a157600080fd5b803590602001918460018302840111640100000000831117156102c357600080fd5b91908080601f016020809104026020016040519081016040528093929190818152602001838380828437600081840152601f19601f820116905080830192505050505050509192919290505050611217565b6040518080602001828103825283818151815260200191508051906020019080838360005b8381101561035557808201518184015260208101905061033a565b50505050905090810190601f1680156103825780820380516001836020036101000a031916815260200191505b509250505060405180910390f35b34801561039c57600080fd5b506103df600480360360208110156103b357600080fd5b81019080803573ffffffffffffffffffffffffffffffffffffffff1690602001909291905050506112dd565b6040518082815260200191505060405180910390f35b34801561040157600080fd5b506104bb6004803603602081101561041857600080fd5b810190808035906020019064010000000081111561043557600080fd5b82018360208201111561044757600080fd5b8035906020019184600183028401116401000000008311171561046957600080fd5b91908080601f016020809104026020016040519081016040528093929190818152602001838380828437600081840152601f19601f8201169050808301925050505050505091929192905050506112f5565b6040518080602001828103825283818151815260200191508051906020019080838360005b838110156104fb5780820151818401526020810190506104e0565b50505050905090810190601f1680156105285780820380516001836020036101000a031916815260200191505b509250505060405180910390f35b34801561054257600080fd5b5061054b6113bb565b005b34801561055957600080fd5b506106136004803603602081101561057057600080fd5b810190808035906020019064010000000081111561058d57600080fd5b82018360208201111561059f57600080fd5b803590602001918460018302840111640100000000831117156105c157600080fd5b91908080601f016020809104026020016040519081016040528093929190818152602001838380828437600081840152601f19601f820116905080830192505050505050509192919290505050611426565b6040518082815260200191505060405180910390f35b34801561063557600080fd5b506106786004803603602081101561064c57600080fd5b81019080803573ffffffffffffffffffffffffffffffffffffffff1690602001909291905050506114b4565b604051808273ffffffffffffffffffffffffffffffffffffffff1673ffffffffffffffffffffffffffffffffffffffff16815260200191505060405180910390f35b3480156106c657600080fd5b50610709600480360360208110156106dd57600080fd5b81019080803573ffffffffffffffffffffffffffffffffffffffff1690602001909291905050506114e7565b6040518080602001828103825283818151815260200191508051906020019080838360005b8381101561074957808201518184015260208101905061072e565b50505050905090810190601f1680156107765780820380516001836020036101000a031916815260200191505b509250505060405180910390f35b34801561079057600080fd5b506107dd600480360360408110156107a757600080fd5b81019080803573ffffffffffffffffffffffffffffffffffffffff16906020019092919080359060200190929190505050611597565b6040518080602001828103825283818151815260200191508051906020019080838360005b8381101561081d578082015181840152602081019050610802565b50505050905090810190601f16801561084a5780820380516001836020036101000a031916815260200191505b509250505060405180910390f35b34801561086457600080fd5b5061091e6004803603602081101561087b57600080fd5b810190808035906020019064010000000081111561089857600080fd5b8201836020820111156108aa57600080fd5b803590602001918460018302840111640100000000831117156108cc57600080fd5b91908080601f016020809104026020016040519081016040528093929190818152602001838380828437600081840152601f19601f82011690508083019250505050505050919291929050505061165d565b6040518082815260200191505060405180910390f35b34801561094057600080fd5b506109fa6004803603602081101561095757600080fd5b810190808035906020019064010000000081111561097457600080fd5b82018360208201111561098657600080fd5b803590602001918460018302840111640100000000831117156109a857600080fd5b91908080601f016020809104026020016040519081016040528093929190818152602001838380828437600081840152601f19601f82011690508083019250505050505050919291929050505061168b565b604051808273ffffffffffffffffffffffffffffffffffffffff1673ffffffffffffffffffffffffffffffffffffffff16815260200191505060405180910390f35b348015610a4857600080fd5b50610b2260048036036040811015610a5f57600080fd5b8101908080359060200190640100000000811115610a7c57600080fd5b820183602082011115610a8e57600080fd5b80359060200191846001830284011164010000000083111715610ab057600080fd5b91908080601f016020809104026020016040519081016040528093929190818152602001838380828437600081840152601f19601f820116905080830192505050505050509192919290803573ffffffffffffffffffffffffffffffffffffffff1690602001909291905050506116d4565b6040518080602001828103825283818151815260200191508051906020019080838360005b83811015610b62578082015181840152602081019050610b47565b50505050905090810190601f168015610b8f5780820380516001836020036101000a031916815260200191505b509250505060405180910390f35b348015610ba957600080fd5b50610bf660048036036040811015610bc057600080fd5b81019080803573ffffffffffffffffffffffffffffffffffffffff16906020019092919080359060200190929190505050611820565b6040518080602001828103825283818151815260200191508051906020019080838360005b83811015610c36578082015181840152602081019050610c1b565b50505050905090810190601f168015610c635780820380516001836020036101000a031916815260200191505b509250505060405180910390f35b348015610c7d57600080fd5b50610d3760048036036020811015610c9457600080fd5b8101908080359060200190640100000000811115610cb157600080fd5b820183602082011115610cc357600080fd5b80359060200191846001830284011164010000000083111715610ce557600080fd5b91908080601f016020809104026020016040519081016040528093929190818152602001838380828437600081840152601f19601f8201169050808301925050505050505091929192905050506118e6565b60405180806020018573ffffffffffffffffffffffffffffffffffffffff1673ffffffffffffffffffffffffffffffffffffffff1681526020018473ffffffffffffffffffffffffffffffffffffffff1673ffffffffffffffffffffffffffffffffffffffff168152602001836003811115610daf57fe5b60ff168152602001828103825286818151815260200191508051906020019080838360005b83811015610def578082015181840152602081019050610dd4565b50505050905090810190601f168015610e1c5780820380516001836020036101000a031916815260200191505b509550505050505060405180910390f35b348015610e3957600080fd5b50610ef360048036036020811015610e5057600080fd5b8101908080359060200190640100000000811115610e6d57600080fd5b820183602082011115610e7f57600080fd5b80359060200191846001830284011164010000000083111715610ea157600080fd5b91908080601f016020809104026020016040519081016040528093929190818152602001838380828437600081840152601f19601f820116905080830192505050505050509192919290505050611a11565b604051808215151515815260200191505060405180910390f35b348015610f1957600080fd5b50610f22611a47565b005b348015610f3057600080fd5b50610f39611ab2565b604051808273ffffffffffffffffffffffffffffffffffffffff1673ffffffffffffffffffffffffffffffffffffffff16815260200191505060405180910390f35b348015610f8757600080fd5b5061104160048036036020811015610f9e57600080fd5b8101908080359060200190640100000000811115610fbb57600080fd5b820183602082011115610fcd57600080fd5b80359060200191846001830284011164010000000083111715610fef57600080fd5b91908080601f016020809104026020016040519081016040528093929190818152602001838380828437600081840152601f19601f820116905080830192505050505050509192919290505050611adb565b6040518082815260200191505060405180910390f35b34801561106357600080fd5b5061106c611b09565b005b34801561107a57600080fd5b506111346004803603602081101561109157600080fd5b81019080803590602001906401000000008111156110ae57600080fd5b8201836020820111156110c057600080fd5b803590602001918460018302840111640100000000831117156110e257600080fd5b91908080601f016020809104026020016040519081016040528093929190818152602001838380828437600081840152601f19601f820116905080830192505050505050509192919290505050611b74565b604051808273ffffffffffffffffffffffffffffffffffffffff1673ffffffffffffffffffffffffffffffffffffffff16815260200191505060405180910390f35b6003818051602081018201805184825260208301602085012081835280955050505050506000915054906101000a900460ff1681565b6040516111b890611c0a565b604051809103906000f0801580156111d4573d6000803e3d6000fd5b50600e60006101000a81548173ffffffffffffffffffffffffffffffffffffffff021916908373ffffffffffffffffffffffffffffffffffffffff160217905550565b600c818051602081018201805184825260208301602085012081835280955050505050506000915090508054600181600116156101000203166002900480601f0160208091040260200160405190810160405280929190818152602001828054600181600116156101000203166002900480156112d55780601f106112aa576101008083540402835291602001916112d5565b820191906000526020600020905b8154815290600101906020018083116112b857829003601f168201915b505050505081565b60016020528060005260406000206000915090505481565b600d818051602081018201805184825260208301602085012081835280955050505050506000915090508054600181600116156101000203166002900480601f0160208091040260200160405190810160405280929190818152602001828054600181600116156101000203166002900480156113b35780601f10611388576101008083540402835291602001916113b3565b820191906000526020600020905b81548152906001019060200180831161139657829003601f168201915b505050505081565b6040516113c790611c18565b604051809103906000f0801580156113e3573d6000803e3d6000fd5b50600e60006101000a81548173ffffffffffffffffffffffffffffffffffffffff021916908373ffffffffffffffffffffffffffffffffffffffff160217905550565b60006002826040518082805190602001908083835b6020831061145e578051825260208201915060208101905060208303925061143b565b6001836020036101000a038019825116818451168082178552505050505050905001915050908152602001604051809103902060020160149054906101000a900460ff1660038111156114ad57fe5b9050919050565b60056020528060005260406000206000915054906101000a900473ffffffffffffffffffffffffffffffffffffffff1681565b60046020528060005260406000206000915090508054600181600116156101000203166002900480601f01602080910402602001604051908101604052809291908181526020018280546001816001161561010002031660029004801561158f5780601f106115645761010080835404028352916020019161158f565b820191906000526020600020905b81548152906001019060200180831161157257829003601f168201915b505050505081565b600760205281600052604060002081815481106115b057fe5b90600052602060002001600091509150508054600181600116156101000203166002900480601f0160208091040260200160405190810160405280929190818152602001828054600181600116156101000203166002900480156116555780601f1061162a57610100808354040283529160200191611655565b820191906000526020600020905b81548152906001019060200180831161163857829003601f168201915b505050505081565b6009818051602081018201805184825260208301602085012081835280955050505050506000915090505481565b600b818051602081018201805184825260208301602085012081835280955050505050506000915054906101000a900473ffffffffffffffffffffffffffffffffffffffff1681565b60606002836040518082805190602001908083835b6020831061170c57805182526020820191506020810190506020830392506116e9565b6001836020036101000a038019825116818451168082178552505050505050905001915050908152602001604051809103902060030160008373ffffffffffffffffffffffffffffffffffffffff1673ffffffffffffffffffffffffffffffffffffffff1681526020019081526020016000208054600181600116156101000203166002900480601f0160208091040260200160405190810160405280929190818152602001828054600181600116156101000203166002900480156118135780601f106117e857610100808354040283529160200191611813565b820191906000526020600020905b8154815290600101906020018083116117f657829003601f168201915b5050505050905092915050565b6006602052816000526040600020818154811061183957fe5b90600052602060002001600091509150508054600181600116156101000203166002900480601f0160208091040260200160405190810160405280929190818152602001828054600181600116156101000203166002900480156118de5780601f106118b3576101008083540402835291602001916118de565b820191906000526020600020905b8154815290600101906020018083116118c157829003601f168201915b505050505081565b600281805160208101820180518482526020830160208501208183528095505050505050600091509050806000018054600181600116156101000203166002900480601f0160208091040260200160405190810160405280929190818152602001828054600181600116156101000203166002900480156119a85780601f1061197d576101008083540402835291602001916119a8565b820191906000526020600020905b81548152906001019060200180831161198b57829003601f168201915b5050505050908060010160009054906101000a900473ffffffffffffffffffffffffffffffffffffffff16908060020160009054906101000a900473ffffffffffffffffffffffffffffffffffffffff16908060020160149054906101000a900460ff16905084565b600a818051602081018201805184825260208301602085012081835280955050505050506000915054906101000a900460ff1681565b604051611a5390611c26565b604051809103906000f080158015611a6f573d6000803e3d6000fd5b50600e60006101000a81548173ffffffffffffffffffffffffffffffffffffffff021916908373ffffffffffffffffffffffffffffffffffffffff160217905550565b60008060009054906101000a900473ffffffffffffffffffffffffffffffffffffffff16905090565b6008818051602081018201805184825260208301602085012081835280955050505050506000915090505481565b604051611b1590611c34565b604051809103906000f080158015611b31573d6000803e3d6000fd5b50600e60006101000a81548173ffffffffffffffffffffffffffffffffffffffff021916908373ffffffffffffffffffffffffffffffffffffffff160217905550565b60006002826040518082805190602001908083835b60208310611bac5780518252602082019150602081019050602083039250611b89565b6001836020036101000a038019825116818451168082178552505050505050905001915050908152602001604051809103902060010160009054906101000a900473ffffffffffffffffffffffffffffffffffffffff169050919050565b6155488062001c4383390190565b615e4a806200718b83390190565b615354806200cfd583390190565b61553980620123298339019056fe608060405234801561001057600080fd5b50615528806100206000396000f3fe6080604052600436106101b75760003560e01c8063699a2033116100ec578063b5066b611161008a578063dd891e4f11610064578063dd891e4f14611709578063e12b6c1d14611888578063e5b0b90c1461194e578063ff86e28c14611a2a576101b7565b8063b5066b61146114ea578063cd3f18db146115ca578063ce1b815f146116b2576101b7565b80638173c1ee116100c65780638173c1ee146110ef5780638e06399214611250578063a44543401461125a578063b3dd697b1461132e576101b7565b8063699a203314610e3757806370a13b4814610f0b5780637547b64e14610fe7576101b7565b806330980857116101595780634c969a34116101335780634c969a3414610ab05780635767770914610c0057806359328eb514610cdc5780635e5c06e214610d6d576101b7565b806330980857146107a457806332285bda146107ff57806349b9855714610940576101b7565b806324da2a821161019557806324da2a82146104d857806326ec90ae1461059e57806327e235e3146106ee5780632a97fa7714610753576101b7565b8063078e84f4146101bc578063197c9fc5146102b75780632453099514610397575b600080fd5b3480156101c857600080fd5b506102b5600480360360608110156101df57600080fd5b81019080803573ffffffffffffffffffffffffffffffffffffffff1690602001909291908035906020019064010000000081111561021c57600080fd5b82018360208201111561022e57600080fd5b8035906020019184600183028401116401000000008311171561025057600080fd5b90919293919293908035906020019064010000000081111561027157600080fd5b82018360208201111561028357600080fd5b803590602001918460018302840111640100000000831117156102a557600080fd5b9091929391929390505050611b32565b005b3480156102c357600080fd5b5061037d600480360360208110156102da57600080fd5b81019080803590602001906401000000008111156102f757600080fd5b82018360208201111561030957600080fd5b8035906020019184600183028401116401000000008311171561032b57600080fd5b91908080601f016020809104026020016040519081016040528093929190818152602001838380828437600081840152601f19601f820116905080830192505050505050509192919290505050611c8c565b604051808215151515815260200191505060405180910390f35b3480156103a357600080fd5b5061045d600480360360208110156103ba57600080fd5b81019080803590602001906401000000008111156103d757600080fd5b8201836020820111156103e957600080fd5b8035906020019184600183028401116401000000008311171561040b57600080fd5b91908080601f016020809104026020016040519081016040528093929190818152602001838380828437600081840152601f19601f820116905080830192505050505050509192919290505050611cc2565b6040518080602001828103825283818151815260200191508051906020019080838360005b8381101561049d578082015181840152602081019050610482565b50505050905090810190601f1680156104ca5780820380516001836020036101000a031916815260200191505b509250505060405180910390f35b3480156104e457600080fd5b5061059c600480360360608110156104fb57600080fd5b810190808035906020019064010000000081111561051857600080fd5b82018360208201111561052a57600080fd5b8035906020019184600183028401116401000000008311171561054c57600080fd5b9091929391929390803573ffffffffffffffffffffffffffffffffffffffff169060200190929190803573ffffffffffffffffffffffffffffffffffffffff169060200190929190505050611d88565b005b3480156105aa57600080fd5b506106ec600480360360808110156105c157600080fd5b81019080803590602001906401000000008111156105de57600080fd5b8201836020820111156105f057600080fd5b8035906020019184600183028401116401000000008311171561061257600080fd5b90919293919293908035906020019064010000000081111561063357600080fd5b82018360208201111561064557600080fd5b8035906020019184600183028401116401000000008311171561066757600080fd5b9091929391929390803573ffffffffffffffffffffffffffffffffffffffff169060200190929190803590602001906401000000008111156106a857600080fd5b8201836020820111156106ba57600080fd5b803590602001918460018302840111640100000000831117156106dc57600080fd5b90919293919293905050506120d6565b005b3480156106fa57600080fd5b5061073d6004803603602081101561071157600080fd5b81019080803573ffffffffffffffffffffffffffffffffffffffff1690602001909291905050506122bc565b6040518082815260200191505060405180910390f35b34801561075f57600080fd5b506107a26004803603602081101561077657600080fd5b81019080803573ffffffffffffffffffffffffffffffffffffffff1690602001909291905050506122d4565b005b3480156107b057600080fd5b506107fd600480360360408110156107c757600080fd5b8101908080359060200190929190803573ffffffffffffffffffffffffffffffffffffffff16906020019092919050505061245a565b005b34801561080b57600080fd5b506108c56004803603602081101561082257600080fd5b810190808035906020019064010000000081111561083f57600080fd5b82018360208201111561085157600080fd5b8035906020019184600183028401116401000000008311171561087357600080fd5b91908080601f016020809104026020016040519081016040528093929190818152602001838380828437600081840152601f19601f820116905080830192505050505050509192919290505050612669565b6040518080602001828103825283818151815260200191508051906020019080838360005b838110156109055780820151818401526020810190506108ea565b50505050905090810190601f1680156109325780820380516001836020036101000a031916815260200191505b509250505060405180910390f35b34801561094c57600080fd5b50610aae600480360360a081101561096357600080fd5b810190808035906020019064010000000081111561098057600080fd5b82018360208201111561099257600080fd5b803590602001918460018302840111640100000000831117156109b457600080fd5b9091929391929390803573ffffffffffffffffffffffffffffffffffffffff169060200190929190803573ffffffffffffffffffffffffffffffffffffffff16906020019092919080359060200190640100000000811115610a1557600080fd5b820183602082011115610a2757600080fd5b80359060200191846001830284011164010000000083111715610a4957600080fd5b909192939192939080359060200190640100000000811115610a6a57600080fd5b820183602082011115610a7c57600080fd5b80359060200191846001830284011164010000000083111715610a9e57600080fd5b909192939192939050505061272f565b005b348015610abc57600080fd5b50610bfe60048036036080811015610ad357600080fd5b8101908080359060200190640100000000811115610af057600080fd5b820183602082011115610b0257600080fd5b80359060200191846001830284011164010000000083111715610b2457600080fd5b909192939192939080359060200190640100000000811115610b4557600080fd5b820183602082011115610b5757600080fd5b80359060200191846001830284011164010000000083111715610b7957600080fd5b9091929391929390803573ffffffffffffffffffffffffffffffffffffffff16906020019092919080359060200190640100000000811115610bba57600080fd5b820183602082011115610bcc57600080fd5b80359060200191846001830284011164010000000083111715610bee57600080fd5b9091929391929390505050612918565b005b348015610c0c57600080fd5b50610cc660048036036020811015610c2357600080fd5b8101908080359060200190640100000000811115610c4057600080fd5b820183602082011115610c5257600080fd5b80359060200191846001830284011164010000000083111715610c7457600080fd5b91908080601f016020809104026020016040519081016040528093929190818152602001838380828437600081840152601f19601f820116905080830192505050505050509192919290505050612afe565b6040518082815260200191505060405180910390f35b348015610ce857600080fd5b50610d2b60048036036020811015610cff57600080fd5b81019080803573ffffffffffffffffffffffffffffffffffffffff169060200190929190505050612b8c565b604051808273ffffffffffffffffffffffffffffffffffffffff1673ffffffffffffffffffffffffffffffffffffffff16815260200191505060405180910390f35b348015610d7957600080fd5b50610dbc60048036036020811015610d9057600080fd5b81019080803573ffffffffffffffffffffffffffffffffffffffff169060200190929190505050612bbf565b6040518080602001828103825283818151815260200191508051906020019080838360005b83811015610dfc578082015181840152602081019050610de1565b50505050905090810190601f168015610e295780820380516001836020036101000a031916815260200191505b509250505060405180910390f35b348015610e4357600080fd5b50610e9060048036036040811015610e5a57600080fd5b81019080803573ffffffffffffffffffffffffffffffffffffffff16906020019092919080359060200190929190505050612c6f565b6040518080602001828103825283818151815260200191508051906020019080838360005b83811015610ed0578082015181840152602081019050610eb5565b50505050905090810190601f168015610efd5780820380516001836020036101000a031916815260200191505b509250505060405180910390f35b348015610f1757600080fd5b50610fd160048036036020811015610f2e57600080fd5b8101908080359060200190640100000000811115610f4b57600080fd5b820183602082011115610f5d57600080fd5b80359060200191846001830284011164010000000083111715610f7f57600080fd5b91908080601f016020809104026020016040519081016040528093929190818152602001838380828437600081840152601f19601f820116905080830192505050505050509192919290505050612d35565b6040518082815260200191505060405180910390f35b348015610ff357600080fd5b506110ad6004803603602081101561100a57600080fd5b810190808035906020019064010000000081111561102757600080fd5b82018360208201111561103957600080fd5b8035906020019184600183028401116401000000008311171561105b57600080fd5b91908080601f016020809104026020016040519081016040528093929190818152602001838380828437600081840152601f19601f820116905080830192505050505050509192919290505050612d63565b604051808273ffffffffffffffffffffffffffffffffffffffff1673ffffffffffffffffffffffffffffffffffffffff16815260200191505060405180910390f35b3480156110fb57600080fd5b506111d56004803603604081101561111257600080fd5b810190808035906020019064010000000081111561112f57600080fd5b82018360208201111561114157600080fd5b8035906020019184600183028401116401000000008311171561116357600080fd5b91908080601f016020809104026020016040519081016040528093929190818152602001838380828437600081840152601f19601f820116905080830192505050505050509192919290803573ffffffffffffffffffffffffffffffffffffffff169060200190929190505050612dac565b6040518080602001828103825283818151815260200191508051906020019080838360005b838110156112155780820151818401526020810190506111fa565b50505050905090810190601f1680156112425780820380516001836020036101000a031916815260200191505b509250505060405180910390f35b611258612ef8565b005b34801561126657600080fd5b506112b36004803603604081101561127d57600080fd5b81019080803573ffffffffffffffffffffffffffffffffffffffff16906020019092919080359060200190929190505050612f8d565b6040518080602001828103825283818151815260200191508051906020019080838360005b838110156112f35780820151818401526020810190506112d8565b50505050905090810190601f1680156113205780820380516001836020036101000a031916815260200191505b509250505060405180910390f35b34801561133a57600080fd5b506113f46004803603602081101561135157600080fd5b810190808035906020019064010000000081111561136e57600080fd5b82018360208201111561138057600080fd5b803590602001918460018302840111640100000000831117156113a257600080fd5b91908080601f016020809104026020016040519081016040528093929190818152602001838380828437600081840152601f19601f820116905080830192505050505050509192919290505050613053565b60405180806020018573ffffffffffffffffffffffffffffffffffffffff1673ffffffffffffffffffffffffffffffffffffffff1681526020018473ffffffffffffffffffffffffffffffffffffffff1673ffffffffffffffffffffffffffffffffffffffff16815260200183600381111561146c57fe5b60ff168152602001828103825286818151815260200191508051906020019080838360005b838110156114ac578082015181840152602081019050611491565b50505050905090810190601f1680156114d95780820380516001836020036101000a031916815260200191505b509550505050505060405180910390f35b3480156114f657600080fd5b506115b06004803603602081101561150d57600080fd5b810190808035906020019064010000000081111561152a57600080fd5b82018360208201111561153c57600080fd5b8035906020019184600183028401116401000000008311171561155e57600080fd5b91908080601f016020809104026020016040519081016040528093929190818152602001838380828437600081840152601f19601f82011690508083019250505050505050919291929050505061317e565b604051808215151515815260200191505060405180910390f35b3480156115d657600080fd5b506116b0600480360360408110156115ed57600080fd5b81019080803573ffffffffffffffffffffffffffffffffffffffff1690602001909291908035906020019064010000000081111561162a57600080fd5b82018360208201111561163c57600080fd5b8035906020019184600183028401116401000000008311171561165e57600080fd5b91908080601f016020809104026020016040519081016040528093929190818152602001838380828437600081840152601f19601f8201169050808301925050505050505091929192905050506131b4565b005b3480156116be57600080fd5b506116c761320c565b604051808273ffffffffffffffffffffffffffffffffffffffff1673ffffffffffffffffffffffffffffffffffffffff16815260200191505060405180910390f35b34801561171557600080fd5b506118866004803603606081101561172c57600080fd5b810190808035906020019064010000000081111561174957600080fd5b82018360208201111561175b57600080fd5b8035906020019184600183028401116401000000008311171561177d57600080fd5b91908080601f016020809104026020016040519081016040528093929190818152602001838380828437600081840152601f19601f820116905080830192505050505050509192919290803590602001906401000000008111156117e057600080fd5b8201836020820111156117f257600080fd5b8035906020019184600183028401116401000000008311171561181457600080fd5b91908080601f016020809104026020016040519081016040528093929190818152602001838380828437600081840152601f19601f820116905080830192505050505050509192919290803573ffffffffffffffffffffffffffffffffffffffff169060200190929190505050613235565b005b34801561189457600080fd5b5061194c600480360360608110156118ab57600080fd5b81019080803573ffffffffffffffffffffffffffffffffffffffff169060200190929190803573ffffffffffffffffffffffffffffffffffffffff1690602001909291908035906020019064010000000081111561190857600080fd5b82018360208201111561191a57600080fd5b8035906020019184600183028401116401000000008311171561193c57600080fd5b9091929391929390505050613245565b005b34801561195a57600080fd5b50611a146004803603602081101561197157600080fd5b810190808035906020019064010000000081111561198e57600080fd5b8201836020820111156119a057600080fd5b803590602001918460018302840111640100000000831117156119c257600080fd5b91908080601f016020809104026020016040519081016040528093929190818152602001838380828437600081840152601f19601f820116905080830192505050505050509192919290505050613316565b6040518082815260200191505060405180910390f35b348015611a3657600080fd5b50611af060048036036020811015611a4d57600080fd5b8101908080359060200190640100000000811115611a6a57600080fd5b820183602082011115611a7c57600080fd5b80359060200191846001830284011164010000000083111715611a9e57600080fd5b91908080601f016020809104026020016040519081016040528093929190818152602001838380828437600081840152601f19601f820116905080830192505050505050509192919290505050613344565b604051808273ffffffffffffffffffffffffffffffffffffffff1673ffffffffffffffffffffffffffffffffffffffff16815260200191505060405180910390f35b611bc58585858080601f016020809104026020016040519081016040528093929190818152602001838380828437600081840152601f19601f8201169050808301925050505050505084848080601f016020809104026020016040519081016040528093929190818152602001838380828437600081840152601f19601f820116905080830192505050505050506133da565b611c37576040517f08c379a00000000000000000000000000000000000000000000000000000000081526004018080602001828103825260178152602001807f5369676e6174757265206973206e6f742076616c69642e00000000000000000081525060200191505060405180910390fd5b611c858585858080601f016020809104026020016040519081016040528093929190818152602001838380828437600081840152601f19601f8201169050808301925050505050505061351d565b5050505050565b6003818051602081018201805184825260208301602085012081835280955050505050506000915054906101000a900460ff1681565b600c818051602081018201805184825260208301602085012081835280955050505050506000915090508054600181600116156101000203166002900480601f016020809104026020016040519081016040528092919081815260200182805460018160011615610100020316600290048015611d805780601f10611d5557610100808354040283529160200191611d80565b820191906000526020600020905b815481529060010190602001808311611d6357829003601f168201915b505050505081565b83838080601f016020809104026020016040519081016040528093929190818152602001838380828437600081840152601f19601f82011690508083019250505050505050828073ffffffffffffffffffffffffffffffffffffffff166002836040518082805190602001908083835b60208310611e1b5780518252602082019150602081019050602083039250611df8565b6001836020036101000a038019825116818451168082178552505050505050905001915050908152602001604051809103902060010160009054906101000a900473ffffffffffffffffffffffffffffffffffffffff1673ffffffffffffffffffffffffffffffffffffffff1614611ede576040517f08c379a00000000000000000000000000000000000000000000000000000000081526004018080602001828103825260328152602001806154026032913960400191505060405180910390fd5b611ee6615243565b600287876040518083838082843780830192505050925050509081526020016040518091039020604051806080016040529081600082018054600181600116156101000203166002900480601f016020809104026020016040519081016040528092919081815260200182805460018160011615610100020316600290048015611fb15780601f10611f8657610100808354040283529160200191611fb1565b820191906000526020600020905b815481529060010190602001808311611f9457829003601f168201915b505050505081526020016001820160009054906101000a900473ffffffffffffffffffffffffffffffffffffffff1673ffffffffffffffffffffffffffffffffffffffff1673ffffffffffffffffffffffffffffffffffffffff1681526020016002820160009054906101000a900473ffffffffffffffffffffffffffffffffffffffff1673ffffffffffffffffffffffffffffffffffffffff1673ffffffffffffffffffffffffffffffffffffffff1681526020016002820160149054906101000a900460ff16600381111561208457fe5b600381111561208f57fe5b81525050905083816020019073ffffffffffffffffffffffffffffffffffffffff16908173ffffffffffffffffffffffffffffffffffffffff168152505050505050505050565b6121ae87878080601f016020809104026020016040519081016040528093929190818152602001838380828437600081840152601f19601f8201169050808301925050505050505086868080601f016020809104026020016040519081016040528093929190818152602001838380828437600081840152601f19601f820116905080830192505050505050508585858080601f016020809104026020016040519081016040528093929190818152602001838380828437600081840152601f19601f820116905080830192505050505050506136c4565b612220576040517f08c379a00000000000000000000000000000000000000000000000000000000081526004018080602001828103825260178152602001807f5369676e6174757265206973206e6f742076616c69642e00000000000000000081525060200191505060405180910390fd5b6122b387878080601f016020809104026020016040519081016040528093929190818152602001838380828437600081840152601f19601f8201169050808301925050505050505086868080601f016020809104026020016040519081016040528093929190818152602001838380828437600081840152601f19601f820116905080830192505050505050508561385b565b50505050505050565b60016020528060005260406000206000915090505481565b6122dc613b07565b73ffffffffffffffffffffffffffffffffffffffff16600b60405180807f4f776e65720000000000000000000000000000000000000000000000000000008152506005019050908152602001604051809103902060009054906101000a900473ffffffffffffffffffffffffffffffffffffffff1673ffffffffffffffffffffffffffffffffffffffff16146123da576040517f08c379a00000000000000000000000000000000000000000000000000000000081526004018080602001828103825260208152602001807f4f776e61626c653a2063616c6c6572206973206e6f7420746865206f776e657281525060200191505060405180910390fd5b80600b60405180807f5061796d617374657200000000000000000000000000000000000000000000008152506009019050908152602001604051809103902060006101000a81548173ffffffffffffffffffffffffffffffffffffffff021916908373ffffffffffffffffffffffffffffffffffffffff16021790555050565b612462613b07565b73ffffffffffffffffffffffffffffffffffffffff16600b60405180807f5061796d617374657200000000000000000000000000000000000000000000008152506009019050908152602001604051809103902060009054906101000a900473ffffffffffffffffffffffffffffffffffffffff1673ffffffffffffffffffffffffffffffffffffffff161461253b576040517f08c379a0000000000000000000000000000000000000000000000000000000008152600401808060200182810382526000815260200160200191505060405180910390fd5b81600160008373ffffffffffffffffffffffffffffffffffffffff1673ffffffffffffffffffffffffffffffffffffffff1681526020019081526020016000205403600160008373ffffffffffffffffffffffffffffffffffffffff1673ffffffffffffffffffffffffffffffffffffffff16815260200190815260200160002081905550600b60405180807f5061796d617374657200000000000000000000000000000000000000000000008152506009019050908152602001604051809103902060009054906101000a900473ffffffffffffffffffffffffffffffffffffffff1673ffffffffffffffffffffffffffffffffffffffff166108fc839081150290604051600060405180830381858888f19350505050158015612664573d6000803e3d6000fd5b505050565b600d818051602081018201805184825260208301602085012081835280955050505050506000915090508054600181600116156101000203166002900480601f0160208091040260200160405190810160405280929190818152602001828054600181600116156101000203166002900480156127275780601f106126fc57610100808354040283529160200191612727565b820191906000526020600020905b81548152906001019060200180831161270a57829003601f168201915b505050505081565b61280888888080601f016020809104026020016040519081016040528093929190818152602001838380828437600081840152601f19601f82011690508083019250505050505050878787878080601f016020809104026020016040519081016040528093929190818152602001838380828437600081840152601f19601f8201169050808301925050505050505086868080601f016020809104026020016040519081016040528093929190818152602001838380828437600081840152601f19601f82011690508083019250505050505050613bb9565b61287a576040517f08c379a00000000000000000000000000000000000000000000000000000000081526004018080602001828103825260178152602001807f5369676e6174757265206973206e6f742076616c69642e00000000000000000081525060200191505060405180910390fd5b61290e88888080601f016020809104026020016040519081016040528093929190818152602001838380828437600081840152601f19601f82011690508083019250505050505050878787878080601f016020809104026020016040519081016040528093929190818152602001838380828437600081840152601f19601f82011690508083019250505050505050613d88565b5050505050505050565b6129f087878080601f016020809104026020016040519081016040528093929190818152602001838380828437600081840152601f19601f8201169050808301925050505050505086868080601f016020809104026020016040519081016040528093929190818152602001838380828437600081840152601f19601f820116905080830192505050505050508585858080601f016020809104026020016040519081016040528093929190818152602001838380828437600081840152601f19601f82011690508083019250505050505050614304565b612a62576040517f08c379a00000000000000000000000000000000000000000000000000000000081526004018080602001828103825260178152602001807f5369676e6174757265206973206e6f742076616c69642e00000000000000000081525060200191505060405180910390fd5b612af587878080601f016020809104026020016040519081016040528093929190818152602001838380828437600081840152601f19601f8201169050808301925050505050505086868080601f016020809104026020016040519081016040528093929190818152602001838380828437600081840152601f19601f820116905080830192505050505050508561449b565b50505050505050565b60006002826040518082805190602001908083835b60208310612b365780518252602082019150602081019050602083039250612b13565b6001836020036101000a038019825116818451168082178552505050505050905001915050908152602001604051809103902060020160149054906101000a900460ff166003811115612b8557fe5b9050919050565b60056020528060005260406000206000915054906101000a900473ffffffffffffffffffffffffffffffffffffffff1681565b60046020528060005260406000206000915090508054600181600116156101000203166002900480601f016020809104026020016040519081016040528092919081815260200182805460018160011615610100020316600290048015612c675780601f10612c3c57610100808354040283529160200191612c67565b820191906000526020600020905b815481529060010190602001808311612c4a57829003601f168201915b505050505081565b60076020528160005260406000208181548110612c8857fe5b90600052602060002001600091509150508054600181600116156101000203166002900480601f016020809104026020016040519081016040528092919081815260200182805460018160011615610100020316600290048015612d2d5780601f10612d0257610100808354040283529160200191612d2d565b820191906000526020600020905b815481529060010190602001808311612d1057829003601f168201915b505050505081565b6009818051602081018201805184825260208301602085012081835280955050505050506000915090505481565b600b818051602081018201805184825260208301602085012081835280955050505050506000915054906101000a900473ffffffffffffffffffffffffffffffffffffffff1681565b60606002836040518082805190602001908083835b60208310612de45780518252602082019150602081019050602083039250612dc1565b6001836020036101000a038019825116818451168082178552505050505050905001915050908152602001604051809103902060030160008373ffffffffffffffffffffffffffffffffffffffff1673ffffffffffffffffffffffffffffffffffffffff1681526020019081526020016000208054600181600116156101000203166002900480601f016020809104026020016040519081016040528092919081815260200182805460018160011615610100020316600290048015612eeb5780601f10612ec057610100808354040283529160200191612eeb565b820191906000526020600020905b815481529060010190602001808311612ece57829003601f168201915b5050505050905092915050565b3460016000612f05613b07565b73ffffffffffffffffffffffffffffffffffffffff1673ffffffffffffffffffffffffffffffffffffffff168152602001908152602001600020540160016000612f4d613b07565b73ffffffffffffffffffffffffffffffffffffffff1673ffffffffffffffffffffffffffffffffffffffff16815260200190815260200160002081905550565b60066020528160005260406000208181548110612fa657fe5b90600052602060002001600091509150508054600181600116156101000203166002900480601f01602080910402602001604051908101604052809291908181526020018280546001816001161561010002031660029004801561304b5780601f106130205761010080835404028352916020019161304b565b820191906000526020600020905b81548152906001019060200180831161302e57829003601f168201915b505050505081565b600281805160208101820180518482526020830160208501208183528095505050505050600091509050806000018054600181600116156101000203166002900480601f0160208091040260200160405190810160405280929190818152602001828054600181600116156101000203166002900480156131155780601f106130ea57610100808354040283529160200191613115565b820191906000526020600020905b8154815290600101906020018083116130f857829003601f168201915b5050505050908060010160009054906101000a900473ffffffffffffffffffffffffffffffffffffffff16908060020160009054906101000a900473ffffffffffffffffffffffffffffffffffffffff16908060020160149054906101000a900460ff16905084565b600a818051602081018201805184825260208301602085012081835280955050505050506000915054906101000a900460ff1681565b80600460008473ffffffffffffffffffffffffffffffffffffffff1673ffffffffffffffffffffffffffffffffffffffff16815260200190815260200160002090805190602001906132079291906152a2565b505050565b60008060009054906101000a900473ffffffffffffffffffffffffffffffffffffffff16905090565b61324083838361449b565b505050565b613294848484848080601f016020809104026020016040519081016040528093929190818152602001838380828437600081840152601f19601f82011690508083019250505050505050614aff565b613306576040517f08c379a00000000000000000000000000000000000000000000000000000000081526004018080602001828103825260178152602001807f5369676e6174757265206973206e6f742076616c69642e00000000000000000081525060200191505060405180910390fd5b6133108484614c25565b50505050565b6008818051602081018201805184825260208301602085012081835280955050505050506000915090505481565b60006002826040518082805190602001908083835b6020831061337c5780518252602082019150602081019050602083039250613359565b6001836020036101000a038019825116818451168082178552505050505050905001915050908152602001604051809103902060010160009054906101000a900473ffffffffffffffffffffffffffffffffffffffff169050919050565b6000806134d98585600360048111156133ef57fe5b30604051602001808573ffffffffffffffffffffffffffffffffffffffff1673ffffffffffffffffffffffffffffffffffffffff1660601b815260140184805190602001908083835b6020831061345b5780518252602082019150602081019050602083039250613438565b6001836020036101000a0380198251168184511680821785525050505050509050018381526020018273ffffffffffffffffffffffffffffffffffffffff1673ffffffffffffffffffffffffffffffffffffffff1660601b815260140194505050505060405160208183030381529060405280519060200120614f46565b90508473ffffffffffffffffffffffffffffffffffffffff166134fc8285614f9e565b73ffffffffffffffffffffffffffffffffffffffff16149150509392505050565b8160405160200180600001905060405160208183030381529060405280519060200120600460008373ffffffffffffffffffffffffffffffffffffffff1673ffffffffffffffffffffffffffffffffffffffff16815260200190815260200160002060405160200180828054600181600116156101000203166002900480156135dd5780601f106135bb5761010080835404028352918201916135dd565b820191906000526020600020905b8154815290600101906020018083116135c9575b5050915050604051602081830303815290604052805190602001201461366b576040517f08c379a00000000000000000000000000000000000000000000000000000000081526004018080602001828103825260168152602001807f4163636f756e7420616c72656164792065786973742e0000000000000000000081525060200191505060405180910390fd5b81600460008573ffffffffffffffffffffffffffffffffffffffff1673ffffffffffffffffffffffffffffffffffffffff16815260200190815260200160002090805190602001906136be9291906152a2565b50505050565b600080613816868686600260048111156136da57fe5b306040516020018086805190602001908083835b6020831061371157805182526020820191506020810190506020830392506136ee565b6001836020036101000a03801982511681845116808217855250505050505090500185805190602001908083835b60208310613762578051825260208201915060208101905060208303925061373f565b6001836020036101000a0380198251168184511680821785525050505050509050018473ffffffffffffffffffffffffffffffffffffffff1673ffffffffffffffffffffffffffffffffffffffff1660601b81526014018381526020018273ffffffffffffffffffffffffffffffffffffffff1673ffffffffffffffffffffffffffffffffffffffff1660601b81526014019550505050505060405160208183030381529060405280519060200120614f46565b90508373ffffffffffffffffffffffffffffffffffffffff166138398285614f9e565b73ffffffffffffffffffffffffffffffffffffffff1614915050949350505050565b826003816040518082805190602001908083835b60208310613892578051825260208201915060208101905060208303925061386f565b6001836020036101000a038019825116818451168082178552505050505050905001915050908152602001604051809103902060009054906101000a900460ff16613945576040517f08c379a00000000000000000000000000000000000000000000000000000000081526004018080602001828103825260168152602001807f446f63756d656e74206469646e27742065786973742e0000000000000000000081525060200191505060405180910390fd5b60006002856040518082805190602001908083835b6020831061397d578051825260208201915060208101905060208303925061395a565b6001836020036101000a03801982511681845116808217855250505050505090500191505090815260200160405180910390209050600260038111156139bf57fe5b8160020160149054906101000a900460ff1660038111156139dc57fe5b14613a32576040517f08c379a000000000000000000000000000000000000000000000000000000000815260040180806020018281038252602e815260200180615456602e913960400191505060405180910390fd5b8273ffffffffffffffffffffffffffffffffffffffff168160020160009054906101000a900473ffffffffffffffffffffffffffffffffffffffff1673ffffffffffffffffffffffffffffffffffffffff1614613ada576040517f08c379a000000000000000000000000000000000000000000000000000000000815260040180806020018281038252603a8152602001806153c8603a913960400191505060405180910390fd5b60038160020160146101000a81548160ff02191690836003811115613afb57fe5b02179055505050505050565b60006018600036905010158015613b505750613b2161320c565b73ffffffffffffffffffffffffffffffffffffffff163373ffffffffffffffffffffffffffffffffffffffff16145b15613bb257613bab6000368080601f016020809104026020016040519081016040528093929190818152602001838380828437600081840152601f19601f820116905080830192505050505050506014600036905003615025565b9050613bb6565b3390505b90565b600080613d428787878760016004811115613bd057fe5b306040516020018087805190602001908083835b60208310613c075780518252602082019150602081019050602083039250613be4565b6001836020036101000a0380198251168184511680821785525050505050509050018673ffffffffffffffffffffffffffffffffffffffff1673ffffffffffffffffffffffffffffffffffffffff1660601b81526014018573ffffffffffffffffffffffffffffffffffffffff1673ffffffffffffffffffffffffffffffffffffffff1660601b815260140184805190602001908083835b60208310613cc25780518252602082019150602081019050602083039250613c9f565b6001836020036101000a0380198251168184511680821785525050505050509050018381526020018273ffffffffffffffffffffffffffffffffffffffff1673ffffffffffffffffffffffffffffffffffffffff1660601b8152601401965050505050505060405160208183030381529060405280519060200120614f46565b90508573ffffffffffffffffffffffffffffffffffffffff16613d658285614f9e565b73ffffffffffffffffffffffffffffffffffffffff161491505095945050505050565b836003816040518082805190602001908083835b60208310613dbf5780518252602082019150602081019050602083039250613d9c565b6001836020036101000a038019825116818451168082178552505050505050905001915050908152602001604051809103902060009054906101000a900460ff16613e72576040517f08c379a00000000000000000000000000000000000000000000000000000000081526004018080602001828103825260168152602001807f446f63756d656e74206469646e27742065786973742e0000000000000000000081525060200191505060405180910390fd5b84848073ffffffffffffffffffffffffffffffffffffffff166002836040518082805190602001908083835b60208310613ec15780518252602082019150602081019050602083039250613e9e565b6001836020036101000a038019825116818451168082178552505050505050905001915050908152602001604051809103902060010160009054906101000a900473ffffffffffffffffffffffffffffffffffffffff1673ffffffffffffffffffffffffffffffffffffffff1614613f84576040517f08c379a00000000000000000000000000000000000000000000000000000000081526004018080602001828103825260328152602001806154026032913960400191505060405180910390fd5b8460405160200180600001905060405160208183030381529060405280519060200120600460008373ffffffffffffffffffffffffffffffffffffffff1673ffffffffffffffffffffffffffffffffffffffff16815260200190815260200160002060405160200180828054600181600116156101000203166002900480156140445780601f10614022576101008083540402835291820191614044565b820191906000526020600020905b815481529060010190602001808311614030575b50509150506040516020818303038152906040528051906020012014156140d3576040517f08c379a00000000000000000000000000000000000000000000000000000000081526004018080602001828103825260158152602001807f4163636f756e74206469646e27742065786973742e000000000000000000000081525060200191505060405180910390fd5b60006002896040518082805190602001908083835b6020831061410b57805182526020820191506020810190506020830392506140e8565b6001836020036101000a038019825116818451168082178552505050505050905001915050908152602001604051809103902090506002600381111561414d57fe5b8160020160149054906101000a900460ff16600381111561416a57fe5b14156141c1576040517f08c379a000000000000000000000000000000000000000000000000000000000815260040180806020018281038252604d8152602001806154a6604d913960600191505060405180910390fd5b868160020160006101000a81548173ffffffffffffffffffffffffffffffffffffffff021916908373ffffffffffffffffffffffffffffffffffffffff160217905550858160030160008973ffffffffffffffffffffffffffffffffffffffff1673ffffffffffffffffffffffffffffffffffffffff16815260200190815260200160002090805190602001906142599291906152a2565b5060028160020160146101000a81548160ff0219169083600381111561427b57fe5b0217905550600760008873ffffffffffffffffffffffffffffffffffffffff1673ffffffffffffffffffffffffffffffffffffffff168152602001908152602001600020899080600181540180825580915050600190039060005260206000200160009091909190915090805190602001906142f89291906152a2565b50505050505050505050565b6000806144568686866000600481111561431a57fe5b306040516020018086805190602001908083835b60208310614351578051825260208201915060208101905060208303925061432e565b6001836020036101000a03801982511681845116808217855250505050505090500185805190602001908083835b602083106143a2578051825260208201915060208101905060208303925061437f565b6001836020036101000a0380198251168184511680821785525050505050509050018473ffffffffffffffffffffffffffffffffffffffff1673ffffffffffffffffffffffffffffffffffffffff1660601b81526014018381526020018273ffffffffffffffffffffffffffffffffffffffff1673ffffffffffffffffffffffffffffffffffffffff1660601b81526014019550505050505060405160208183030381529060405280519060200120614f46565b90508373ffffffffffffffffffffffffffffffffffffffff166144798285614f9e565b73ffffffffffffffffffffffffffffffffffffffff1614915050949350505050565b826003816040518082805190602001908083835b602083106144d257805182526020820191506020810190506020830392506144af565b6001836020036101000a038019825116818451168082178552505050505050905001915050908152602001604051809103902060009054906101000a900460ff1615614586576040517f08c379a00000000000000000000000000000000000000000000000000000000081526004018080602001828103825260178152602001807f446f63756d656e7420616c72656164792065786973742e00000000000000000081525060200191505060405180910390fd5b8160405160200180600001905060405160208183030381529060405280519060200120600460008373ffffffffffffffffffffffffffffffffffffffff1673ffffffffffffffffffffffffffffffffffffffff16815260200190815260200160002060405160200180828054600181600116156101000203166002900480156146465780601f10614624576101008083540402835291820191614646565b820191906000526020600020905b815481529060010190602001808311614632575b50509150506040516020818303038152906040528051906020012014156146d5576040517f08c379a00000000000000000000000000000000000000000000000000000000081526004018080602001828103825260158152602001807f4163636f756e74206469646e27742065786973742e000000000000000000000081525060200191505060405180910390fd5b60405180608001604052808681526020018473ffffffffffffffffffffffffffffffffffffffff168152602001600073ffffffffffffffffffffffffffffffffffffffff1681526020016001600381111561472c57fe5b8152506002866040518082805190602001908083835b602083106147655780518252602082019150602081019050602083039250614742565b6001836020036101000a038019825116818451168082178552505050505050905001915050908152602001604051809103902060008201518160000190805190602001906147b4929190615322565b5060208201518160010160006101000a81548173ffffffffffffffffffffffffffffffffffffffff021916908373ffffffffffffffffffffffffffffffffffffffff16021790555060408201518160020160006101000a81548173ffffffffffffffffffffffffffffffffffffffff021916908373ffffffffffffffffffffffffffffffffffffffff16021790555060608201518160020160146101000a81548160ff0219169083600381111561486757fe5b0217905550905050836002866040518082805190602001908083835b602083106148a65780518252602082019150602081019050602083039250614883565b6001836020036101000a038019825116818451168082178552505050505050905001915050908152602001604051809103902060030160008573ffffffffffffffffffffffffffffffffffffffff1673ffffffffffffffffffffffffffffffffffffffff168152602001908152602001600020908051906020019061492c9291906152a2565b5060016003866040518082805190602001908083835b602083106149655780518252602082019150602081019050602083039250614942565b6001836020036101000a038019825116818451168082178552505050505050905001915050908152602001604051809103902060006101000a81548160ff021916908315150217905550600660008473ffffffffffffffffffffffffffffffffffffffff1673ffffffffffffffffffffffffffffffffffffffff16815260200190815260200160002085908060018154018082558091505060019003906000526020600020016000909190919091509080519060200190614a279291906152a2565b507f144ced1a295f096707ac7e7d8aa1a5a89bc1fd73ea6c8d75de34bba0fe0b132e858460405180806020018373ffffffffffffffffffffffffffffffffffffffff1673ffffffffffffffffffffffffffffffffffffffff168152602001828103825284818151815260200191508051906020019080838360005b83811015614abd578082015181840152602081019050614aa2565b50505050905090810190601f168015614aea5780820380516001836020036101000a031916815260200191505b50935050505060405180910390a15050505050565b600080614be18585600480811115614b1357fe5b30604051602001808573ffffffffffffffffffffffffffffffffffffffff1673ffffffffffffffffffffffffffffffffffffffff1660601b81526014018473ffffffffffffffffffffffffffffffffffffffff1673ffffffffffffffffffffffffffffffffffffffff1660601b81526014018381526020018273ffffffffffffffffffffffffffffffffffffffff1673ffffffffffffffffffffffffffffffffffffffff1660601b815260140194505050505060405160208183030381529060405280519060200120614f46565b90508473ffffffffffffffffffffffffffffffffffffffff16614c048285614f9e565b73ffffffffffffffffffffffffffffffffffffffff16149150509392505050565b8160405160200180600001905060405160208183030381529060405280519060200120600460008373ffffffffffffffffffffffffffffffffffffffff1673ffffffffffffffffffffffffffffffffffffffff1681526020019081526020016000206040516020018082805460018160011615610100020316600290048015614ce55780601f10614cc3576101008083540402835291820191614ce5565b820191906000526020600020905b815481529060010190602001808311614cd1575b5050915050604051602081830303815290604052805190602001201415614d74576040517f08c379a00000000000000000000000000000000000000000000000000000000081526004018080602001828103825260158152602001807f4163636f756e74206469646e27742065786973742e000000000000000000000081525060200191505060405180910390fd5b8160405160200180600001905060405160208183030381529060405280519060200120600460008373ffffffffffffffffffffffffffffffffffffffff1673ffffffffffffffffffffffffffffffffffffffff1681526020019081526020016000206040516020018082805460018160011615610100020316600290048015614e345780601f10614e12576101008083540402835291820191614e34565b820191906000526020600020905b815481529060010190602001808311614e20575b50509150506040516020818303038152906040528051906020012014614ec2576040517f08c379a00000000000000000000000000000000000000000000000000000000081526004018080602001828103825260168152602001807f4163636f756e7420616c72656164792065786973742e0000000000000000000081525060200191505060405180910390fd5b83600560008573ffffffffffffffffffffffffffffffffffffffff1673ffffffffffffffffffffffffffffffffffffffff16815260200190815260200160002060006101000a81548173ffffffffffffffffffffffffffffffffffffffff021916908373ffffffffffffffffffffffffffffffffffffffff16021790555050505050565b60008160405160200180807f19457468657265756d205369676e6564204d6573736167653a0a333200000000815250601c01828152602001915050604051602081830303815290604052805190602001209050919050565b600080600080614fad85615077565b92509250925060018684848460405160008152602001604052604051808581526020018460ff1660ff1681526020018381526020018281526020019450505050506020604051602081039080840390855afa158015615010573d6000803e3d6000fd5b50505060206040510351935050505092915050565b6000601482018351101561504c5761504b615046600485516014860161519c565b61523b565b5b60148201915073ffffffffffffffffffffffffffffffffffffffff8284015116905080905092915050565b6000806000604184511461508a57600080fd5b6020840151915060408401519050606084015160001a92507f7fffffffffffffffffffffffffffffff5d576e7357a4501ddfe92f46681b20a08160001c111561511e576040517f08c379a00000000000000000000000000000000000000000000000000000000081526004018080602001828103825260228152602001806154346022913960400191505060405180910390fd5b601b8360ff16141580156151365750601c8360ff1614155b1561518c576040517f08c379a00000000000000000000000000000000000000000000000000000000081526004018080602001828103825260228152602001806154846022913960400191505060405180910390fd5b8282829250925092509193909250565b6060632800659560e01b848484604051602401808460078111156151bc57fe5b60ff1681526020018381526020018281526020019350505050604051602081830303815290604052907bffffffffffffffffffffffffffffffffffffffffffffffffffffffff19166020820180517bffffffffffffffffffffffffffffffffffffffffffffffffffffffff838183161783525050505090509392505050565b805160208201fd5b604051806080016040528060608152602001600073ffffffffffffffffffffffffffffffffffffffff168152602001600073ffffffffffffffffffffffffffffffffffffffff1681526020016000600381111561529c57fe5b81525090565b828054600181600116156101000203166002900490600052602060002090601f016020900481019282601f106152e357805160ff1916838001178555615311565b82800160010185558215615311579182015b828111156153105782518255916020019190600101906152f5565b5b50905061531e91906153a2565b5090565b828054600181600116156101000203166002900490600052602060002090601f016020900481019282601f1061536357805160ff1916838001178555615391565b82800160010185558215615391579182015b82811115615390578251825591602001919060010190615375565b5b50905061539e91906153a2565b5090565b6153c491905b808211156153c05760008160009055506001016153a8565b5090565b9056fe4f6e6c79207468652061737369676e207369676e656520627920746865206f776e65722063616e207369676e2074686520646f63756d656e742e4f6e6c7920746865206f776e6572206f662074686520646f63756d656e742063616e20646f207468697320616374696f6e2e45434453413a20696e76616c6964207369676e6174757265202773272076616c7565446f63756d656e742073746174652069736e277420696e205369676e696e672050656e64696e672053746174652e45434453413a20696e76616c6964207369676e6174757265202776272076616c756543616e6e6f742061736b20666f7220616e6f74686572207369676e617475726520696620746865206c617374207369676e6565206469646e2074207369676e2074686520646f63756d656e742ea2646970667358221220deca57ca89646ec27b4655d53903ade1c33d9578ac868b320ad643cc834197f764736f6c63430006030033608060405234801561001057600080fd5b50615e2980620000216000396000f3fe6080604052600436106101d75760003560e01c80635e5c06e211610102578063a445434011610095578063e12b6c1d11610064578063e12b6c1d146119ed578063e5b0b90c14611ab3578063e97cfa0114611b8f578063ff86e28c14611c61576101d7565b8063a445434014611626578063b3dd697b146116fa578063b5066b61146118b6578063ce1b815f14611996576101d7565b80637547b64e116100d15780637547b64e146112cb5780638173c1ee146113d35780638e0639921461153457806396ad13e81461153e576101d7565b80635e5c06e214610ff457806365e3ddbf146110be578063699a20331461111b57806370a13b48146111ef576101d7565b80632a97fa771161017a57806349b985571161014957806349b9855714610bc75780634c969a3414610d375780635767770914610e8757806359328eb514610f63576101d7565b80632a97fa77146108f2578063309808571461094357806332285bda1461099e578063491caa7414610adf576101d7565b806324530995116101b6578063245309951461053657806324da2a821461067757806326ec90ae1461073d57806327e235e31461088d576101d7565b8062122a10146101dc578063078e84f41461035b578063197c9fc514610456575b600080fd5b3480156101e857600080fd5b50610359600480360360608110156101ff57600080fd5b810190808035906020019064010000000081111561021c57600080fd5b82018360208201111561022e57600080fd5b8035906020019184600183028401116401000000008311171561025057600080fd5b91908080601f016020809104026020016040519081016040528093929190818152602001838380828437600081840152601f19601f820116905080830192505050505050509192919290803590602001906401000000008111156102b357600080fd5b8201836020820111156102c557600080fd5b803590602001918460018302840111640100000000831117156102e757600080fd5b91908080601f016020809104026020016040519081016040528093929190818152602001838380828437600081840152601f19601f820116905080830192505050505050509192919290803573ffffffffffffffffffffffffffffffffffffffff169060200190929190505050611d69565b005b34801561036757600080fd5b506104546004803603606081101561037e57600080fd5b81019080803573ffffffffffffffffffffffffffffffffffffffff169060200190929190803590602001906401000000008111156103bb57600080fd5b8201836020820111156103cd57600080fd5b803590602001918460018302840111640100000000831117156103ef57600080fd5b90919293919293908035906020019064010000000081111561041057600080fd5b82018360208201111561042257600080fd5b8035906020019184600183028401116401000000008311171561044457600080fd5b9091929391929390505050611d79565b005b34801561046257600080fd5b5061051c6004803603602081101561047957600080fd5b810190808035906020019064010000000081111561049657600080fd5b8201836020820111156104a857600080fd5b803590602001918460018302840111640100000000831117156104ca57600080fd5b91908080601f016020809104026020016040519081016040528093929190818152602001838380828437600081840152601f19601f820116905080830192505050505050509192919290505050611ed3565b604051808215151515815260200191505060405180910390f35b34801561054257600080fd5b506105fc6004803603602081101561055957600080fd5b810190808035906020019064010000000081111561057657600080fd5b82018360208201111561058857600080fd5b803590602001918460018302840111640100000000831117156105aa57600080fd5b91908080601f016020809104026020016040519081016040528093929190818152602001838380828437600081840152601f19601f820116905080830192505050505050509192919290505050611f09565b6040518080602001828103825283818151815260200191508051906020019080838360005b8381101561063c578082015181840152602081019050610621565b50505050905090810190601f1680156106695780820380516001836020036101000a031916815260200191505b509250505060405180910390f35b34801561068357600080fd5b5061073b6004803603606081101561069a57600080fd5b81019080803590602001906401000000008111156106b757600080fd5b8201836020820111156106c957600080fd5b803590602001918460018302840111640100000000831117156106eb57600080fd5b9091929391929390803573ffffffffffffffffffffffffffffffffffffffff169060200190929190803573ffffffffffffffffffffffffffffffffffffffff169060200190929190505050611fcf565b005b34801561074957600080fd5b5061088b6004803603608081101561076057600080fd5b810190808035906020019064010000000081111561077d57600080fd5b82018360208201111561078f57600080fd5b803590602001918460018302840111640100000000831117156107b157600080fd5b9091929391929390803590602001906401000000008111156107d257600080fd5b8201836020820111156107e457600080fd5b8035906020019184600183028401116401000000008311171561080657600080fd5b9091929391929390803573ffffffffffffffffffffffffffffffffffffffff1690602001909291908035906020019064010000000081111561084757600080fd5b82018360208201111561085957600080fd5b8035906020019184600183028401116401000000008311171561087b57600080fd5b909192939192939050505061231d565b005b34801561089957600080fd5b506108dc600480360360208110156108b057600080fd5b81019080803573ffffffffffffffffffffffffffffffffffffffff169060200190929190505050612503565b6040518082815260200191505060405180910390f35b3480156108fe57600080fd5b506109416004803603602081101561091557600080fd5b81019080803573ffffffffffffffffffffffffffffffffffffffff16906020019092919050505061251b565b005b34801561094f57600080fd5b5061099c6004803603604081101561096657600080fd5b8101908080359060200190929190803573ffffffffffffffffffffffffffffffffffffffff1690602001909291905050506126a1565b005b3480156109aa57600080fd5b50610a64600480360360208110156109c157600080fd5b81019080803590602001906401000000008111156109de57600080fd5b8201836020820111156109f057600080fd5b80359060200191846001830284011164010000000083111715610a1257600080fd5b91908080601f016020809104026020016040519081016040528093929190818152602001838380828437600081840152601f19601f8201169050808301925050505050505091929192905050506128b0565b6040518080602001828103825283818151815260200191508051906020019080838360005b83811015610aa4578082015181840152602081019050610a89565b50505050905090810190601f168015610ad15780820380516001836020036101000a031916815260200191505b509250505060405180910390f35b348015610aeb57600080fd5b50610bc560048036036040811015610b0257600080fd5b8101908080359060200190640100000000811115610b1f57600080fd5b820183602082011115610b3157600080fd5b80359060200191846001830284011164010000000083111715610b5357600080fd5b91908080601f016020809104026020016040519081016040528093929190818152602001838380828437600081840152601f19601f820116905080830192505050505050509192919290803573ffffffffffffffffffffffffffffffffffffffff169060200190929190505050612976565b005b348015610bd357600080fd5b50610d35600480360360a0811015610bea57600080fd5b8101908080359060200190640100000000811115610c0757600080fd5b820183602082011115610c1957600080fd5b80359060200191846001830284011164010000000083111715610c3b57600080fd5b9091929391929390803573ffffffffffffffffffffffffffffffffffffffff169060200190929190803573ffffffffffffffffffffffffffffffffffffffff16906020019092919080359060200190640100000000811115610c9c57600080fd5b820183602082011115610cae57600080fd5b80359060200191846001830284011164010000000083111715610cd057600080fd5b909192939192939080359060200190640100000000811115610cf157600080fd5b820183602082011115610d0357600080fd5b80359060200191846001830284011164010000000083111715610d2557600080fd5b9091929391929390505050612e43565b005b348015610d4357600080fd5b50610e8560048036036080811015610d5a57600080fd5b8101908080359060200190640100000000811115610d7757600080fd5b820183602082011115610d8957600080fd5b80359060200191846001830284011164010000000083111715610dab57600080fd5b909192939192939080359060200190640100000000811115610dcc57600080fd5b820183602082011115610dde57600080fd5b80359060200191846001830284011164010000000083111715610e0057600080fd5b9091929391929390803573ffffffffffffffffffffffffffffffffffffffff16906020019092919080359060200190640100000000811115610e4157600080fd5b820183602082011115610e5357600080fd5b80359060200191846001830284011164010000000083111715610e7557600080fd5b909192939192939050505061302c565b005b348015610e9357600080fd5b50610f4d60048036036020811015610eaa57600080fd5b8101908080359060200190640100000000811115610ec757600080fd5b820183602082011115610ed957600080fd5b80359060200191846001830284011164010000000083111715610efb57600080fd5b91908080601f016020809104026020016040519081016040528093929190818152602001838380828437600081840152601f19601f820116905080830192505050505050509192919290505050613212565b6040518082815260200191505060405180910390f35b348015610f6f57600080fd5b50610fb260048036036020811015610f8657600080fd5b81019080803573ffffffffffffffffffffffffffffffffffffffff1690602001909291905050506132a0565b604051808273ffffffffffffffffffffffffffffffffffffffff1673ffffffffffffffffffffffffffffffffffffffff16815260200191505060405180910390f35b34801561100057600080fd5b506110436004803603602081101561101757600080fd5b81019080803573ffffffffffffffffffffffffffffffffffffffff1690602001909291905050506132d3565b6040518080602001828103825283818151815260200191508051906020019080838360005b83811015611083578082015181840152602081019050611068565b50505050905090810190601f1680156110b05780820380516001836020036101000a031916815260200191505b509250505060405180910390f35b3480156110ca57600080fd5b506110f7600480360360208110156110e157600080fd5b8101908080359060200190929190505050613383565b6040518082600381111561110757fe5b60ff16815260200191505060405180910390f35b34801561112757600080fd5b506111746004803603604081101561113e57600080fd5b81019080803573ffffffffffffffffffffffffffffffffffffffff169060200190929190803590602001909291905050506133c1565b6040518080602001828103825283818151815260200191508051906020019080838360005b838110156111b4578082015181840152602081019050611199565b50505050905090810190601f1680156111e15780820380516001836020036101000a031916815260200191505b509250505060405180910390f35b3480156111fb57600080fd5b506112b56004803603602081101561121257600080fd5b810190808035906020019064010000000081111561122f57600080fd5b82018360208201111561124157600080fd5b8035906020019184600183028401116401000000008311171561126357600080fd5b91908080601f016020809104026020016040519081016040528093929190818152602001838380828437600081840152601f19601f820116905080830192505050505050509192919290505050613487565b6040518082815260200191505060405180910390f35b3480156112d757600080fd5b50611391600480360360208110156112ee57600080fd5b810190808035906020019064010000000081111561130b57600080fd5b82018360208201111561131d57600080fd5b8035906020019184600183028401116401000000008311171561133f57600080fd5b91908080601f016020809104026020016040519081016040528093929190818152602001838380828437600081840152601f19601f8201169050808301925050505050505091929192905050506134b5565b604051808273ffffffffffffffffffffffffffffffffffffffff1673ffffffffffffffffffffffffffffffffffffffff16815260200191505060405180910390f35b3480156113df57600080fd5b506114b9600480360360408110156113f657600080fd5b810190808035906020019064010000000081111561141357600080fd5b82018360208201111561142557600080fd5b8035906020019184600183028401116401000000008311171561144757600080fd5b91908080601f016020809104026020016040519081016040528093929190818152602001838380828437600081840152601f19601f820116905080830192505050505050509192919290803573ffffffffffffffffffffffffffffffffffffffff1690602001909291905050506134fe565b6040518080602001828103825283818151815260200191508051906020019080838360005b838110156114f95780820151818401526020810190506114de565b50505050905090810190601f1680156115265780820380516001836020036101000a031916815260200191505b509250505060405180910390f35b61153c61364a565b005b34801561154a57600080fd5b506116246004803603604081101561156157600080fd5b810190808035906020019064010000000081111561157e57600080fd5b82018360208201111561159057600080fd5b803590602001918460018302840111640100000000831117156115b257600080fd5b91908080601f016020809104026020016040519081016040528093929190818152602001838380828437600081840152601f19601f820116905080830192505050505050509192919290803573ffffffffffffffffffffffffffffffffffffffff1690602001909291905050506136df565b005b34801561163257600080fd5b5061167f6004803603604081101561164957600080fd5b81019080803573ffffffffffffffffffffffffffffffffffffffff1690602001909291908035906020019092919050505061378e565b6040518080602001828103825283818151815260200191508051906020019080838360005b838110156116bf5780820151818401526020810190506116a4565b50505050905090810190601f1680156116ec5780820380516001836020036101000a031916815260200191505b509250505060405180910390f35b34801561170657600080fd5b506117c06004803603602081101561171d57600080fd5b810190808035906020019064010000000081111561173a57600080fd5b82018360208201111561174c57600080fd5b8035906020019184600183028401116401000000008311171561176e57600080fd5b91908080601f016020809104026020016040519081016040528093929190818152602001838380828437600081840152601f19601f820116905080830192505050505050509192919290505050613854565b60405180806020018573ffffffffffffffffffffffffffffffffffffffff1673ffffffffffffffffffffffffffffffffffffffff1681526020018473ffffffffffffffffffffffffffffffffffffffff1673ffffffffffffffffffffffffffffffffffffffff16815260200183600381111561183857fe5b60ff168152602001828103825286818151815260200191508051906020019080838360005b8381101561187857808201518184015260208101905061185d565b50505050905090810190601f1680156118a55780820380516001836020036101000a031916815260200191505b509550505050505060405180910390f35b3480156118c257600080fd5b5061197c600480360360208110156118d957600080fd5b81019080803590602001906401000000008111156118f657600080fd5b82018360208201111561190857600080fd5b8035906020019184600183028401116401000000008311171561192a57600080fd5b91908080601f016020809104026020016040519081016040528093929190818152602001838380828437600081840152601f19601f82011690508083019250505050505050919291929050505061397f565b604051808215151515815260200191505060405180910390f35b3480156119a257600080fd5b506119ab6139b5565b604051808273ffffffffffffffffffffffffffffffffffffffff1673ffffffffffffffffffffffffffffffffffffffff16815260200191505060405180910390f35b3480156119f957600080fd5b50611ab160048036036060811015611a1057600080fd5b81019080803573ffffffffffffffffffffffffffffffffffffffff169060200190929190803573ffffffffffffffffffffffffffffffffffffffff16906020019092919080359060200190640100000000811115611a6d57600080fd5b820183602082011115611a7f57600080fd5b80359060200191846001830284011164010000000083111715611aa157600080fd5b90919293919293905050506139de565b005b348015611abf57600080fd5b50611b7960048036036020811015611ad657600080fd5b8101908080359060200190640100000000811115611af357600080fd5b820183602082011115611b0557600080fd5b80359060200191846001830284011164010000000083111715611b2757600080fd5b91908080601f016020809104026020016040519081016040528093929190818152602001838380828437600081840152601f19601f820116905080830192505050505050509192919290505050613aaf565b6040518082815260200191505060405180910390f35b348015611b9b57600080fd5b50611c5f60048036036040811015611bb257600080fd5b8101908080359060200190640100000000811115611bcf57600080fd5b820183602082011115611be157600080fd5b80359060200191846001830284011164010000000083111715611c0357600080fd5b91908080601f016020809104026020016040519081016040528093929190818152602001838380828437600081840152601f19601f82011690508083019250505050505050919291929080359060200190929190505050613add565b005b348015611c6d57600080fd5b50611d2760048036036020811015611c8457600080fd5b8101908080359060200190640100000000811115611ca157600080fd5b820183602082011115611cb357600080fd5b80359060200191846001830284011164010000000083111715611cd557600080fd5b91908080601f016020809104026020016040519081016040528093929190818152602001838380828437600081840152601f19601f820116905080830192505050505050509192919290505050613b76565b604051808273ffffffffffffffffffffffffffffffffffffffff1673ffffffffffffffffffffffffffffffffffffffff16815260200191505060405180910390f35b611d74838383613c0c565b505050565b611e0c8585858080601f016020809104026020016040519081016040528093929190818152602001838380828437600081840152601f19601f8201169050808301925050505050505084848080601f016020809104026020016040519081016040528093929190818152602001838380828437600081840152601f19601f82011690508083019250505050505050613eb8565b611e7e576040517f08c379a00000000000000000000000000000000000000000000000000000000081526004018080602001828103825260178152602001807f5369676e6174757265206973206e6f742076616c69642e00000000000000000081525060200191505060405180910390fd5b611ecc8585858080601f016020809104026020016040519081016040528093929190818152602001838380828437600081840152601f19601f82011690508083019250505050505050613ffb565b5050505050565b6003818051602081018201805184825260208301602085012081835280955050505050506000915054906101000a900460ff1681565b600c818051602081018201805184825260208301602085012081835280955050505050506000915090508054600181600116156101000203166002900480601f016020809104026020016040519081016040528092919081815260200182805460018160011615610100020316600290048015611fc75780601f10611f9c57610100808354040283529160200191611fc7565b820191906000526020600020905b815481529060010190602001808311611faa57829003601f168201915b505050505081565b83838080601f016020809104026020016040519081016040528093929190818152602001838380828437600081840152601f19601f82011690508083019250505050505050828073ffffffffffffffffffffffffffffffffffffffff166002836040518082805190602001908083835b60208310612062578051825260208201915060208101905060208303925061203f565b6001836020036101000a038019825116818451168082178552505050505050905001915050908152602001604051809103902060010160009054906101000a900473ffffffffffffffffffffffffffffffffffffffff1673ffffffffffffffffffffffffffffffffffffffff1614612125576040517f08c379a0000000000000000000000000000000000000000000000000000000008152600401808060200182810382526032815260200180615d036032913960400191505060405180910390fd5b61212d615a75565b600287876040518083838082843780830192505050925050509081526020016040518091039020604051806080016040529081600082018054600181600116156101000203166002900480601f0160208091040260200160405190810160405280929190818152602001828054600181600116156101000203166002900480156121f85780601f106121cd576101008083540402835291602001916121f8565b820191906000526020600020905b8154815290600101906020018083116121db57829003601f168201915b505050505081526020016001820160009054906101000a900473ffffffffffffffffffffffffffffffffffffffff1673ffffffffffffffffffffffffffffffffffffffff1673ffffffffffffffffffffffffffffffffffffffff1681526020016002820160009054906101000a900473ffffffffffffffffffffffffffffffffffffffff1673ffffffffffffffffffffffffffffffffffffffff1673ffffffffffffffffffffffffffffffffffffffff1681526020016002820160149054906101000a900460ff1660038111156122cb57fe5b60038111156122d657fe5b81525050905083816020019073ffffffffffffffffffffffffffffffffffffffff16908173ffffffffffffffffffffffffffffffffffffffff168152505050505050505050565b6123f587878080601f016020809104026020016040519081016040528093929190818152602001838380828437600081840152601f19601f8201169050808301925050505050505086868080601f016020809104026020016040519081016040528093929190818152602001838380828437600081840152601f19601f820116905080830192505050505050508585858080601f016020809104026020016040519081016040528093929190818152602001838380828437600081840152601f19601f820116905080830192505050505050506141a2565b612467576040517f08c379a00000000000000000000000000000000000000000000000000000000081526004018080602001828103825260178152602001807f5369676e6174757265206973206e6f742076616c69642e00000000000000000081525060200191505060405180910390fd5b6124fa87878080601f016020809104026020016040519081016040528093929190818152602001838380828437600081840152601f19601f8201169050808301925050505050505086868080601f016020809104026020016040519081016040528093929190818152602001838380828437600081840152601f19601f8201169050808301925050505050505085613c0c565b50505050505050565b60016020528060005260406000206000915090505481565b612523614339565b73ffffffffffffffffffffffffffffffffffffffff16600b60405180807f4f776e65720000000000000000000000000000000000000000000000000000008152506005019050908152602001604051809103902060009054906101000a900473ffffffffffffffffffffffffffffffffffffffff1673ffffffffffffffffffffffffffffffffffffffff1614612621576040517f08c379a00000000000000000000000000000000000000000000000000000000081526004018080602001828103825260208152602001807f4f776e61626c653a2063616c6c6572206973206e6f7420746865206f776e657281525060200191505060405180910390fd5b80600b60405180807f5061796d617374657200000000000000000000000000000000000000000000008152506009019050908152602001604051809103902060006101000a81548173ffffffffffffffffffffffffffffffffffffffff021916908373ffffffffffffffffffffffffffffffffffffffff16021790555050565b6126a9614339565b73ffffffffffffffffffffffffffffffffffffffff16600b60405180807f5061796d617374657200000000000000000000000000000000000000000000008152506009019050908152602001604051809103902060009054906101000a900473ffffffffffffffffffffffffffffffffffffffff1673ffffffffffffffffffffffffffffffffffffffff1614612782576040517f08c379a0000000000000000000000000000000000000000000000000000000008152600401808060200182810382526000815260200160200191505060405180910390fd5b81600160008373ffffffffffffffffffffffffffffffffffffffff1673ffffffffffffffffffffffffffffffffffffffff1681526020019081526020016000205403600160008373ffffffffffffffffffffffffffffffffffffffff1673ffffffffffffffffffffffffffffffffffffffff16815260200190815260200160002081905550600b60405180807f5061796d617374657200000000000000000000000000000000000000000000008152506009019050908152602001604051809103902060009054906101000a900473ffffffffffffffffffffffffffffffffffffffff1673ffffffffffffffffffffffffffffffffffffffff166108fc839081150290604051600060405180830381858888f193505050501580156128ab573d6000803e3d6000fd5b505050565b600d818051602081018201805184825260208301602085012081835280955050505050506000915090508054600181600116156101000203166002900480601f01602080910402602001604051908101604052809291908181526020018280546001816001161561010002031660029004801561296e5780601f106129435761010080835404028352916020019161296e565b820191906000526020600020905b81548152906001019060200180831161295157829003601f168201915b505050505081565b6002826040518082805190602001908083835b602083106129ac5780518252602082019150602081019050602083039250612989565b6001836020036101000a0380198251168184511680821785525050505050509050019150509081526020016040518091039020600080820160006129f09190615ad4565b6001820160006101000a81549073ffffffffffffffffffffffffffffffffffffffff02191690556002820160006101000a81549073ffffffffffffffffffffffffffffffffffffffff02191690556002820160146101000a81549060ff021916905550506003826040518082805190602001908083835b60208310612a8a5780518252602082019150602081019050602083039250612a67565b6001836020036101000a038019825116818451168082178552505050505050905001915050908152602001604051809103902060006101000a81549060ff021916905560008090505b600660008373ffffffffffffffffffffffffffffffffffffffff1673ffffffffffffffffffffffffffffffffffffffff16815260200190815260200160002080549050811015612e3e57826040516020018082805190602001908083835b60208310612b545780518252602082019150602081019050602083039250612b31565b6001836020036101000a03801982511681845116808217855250505050505090500191505060405160208183030381529060405280519060200120600660008473ffffffffffffffffffffffffffffffffffffffff1673ffffffffffffffffffffffffffffffffffffffff1681526020019081526020016000208281548110612bd957fe5b906000526020600020016040516020018082805460018160011615610100020316600290048015612c415780601f10612c1f576101008083540402835291820191612c41565b820191906000526020600020905b815481529060010190602001808311612c2d575b5050915050604051602081830303815290604052805190602001201415612e315760008190505b6001600660008573ffffffffffffffffffffffffffffffffffffffff1673ffffffffffffffffffffffffffffffffffffffff1681526020019081526020016000208054905003811015612d8d57600660008473ffffffffffffffffffffffffffffffffffffffff1673ffffffffffffffffffffffffffffffffffffffff1681526020019081526020016000206001820181548110612d0257fe5b90600052602060002001600660008573ffffffffffffffffffffffffffffffffffffffff1673ffffffffffffffffffffffffffffffffffffffff1681526020019081526020016000208281548110612d5657fe5b906000526020600020019080546001816001161561010002031660029004612d7f929190615b1c565b508080600101915050612c68565b50600660008373ffffffffffffffffffffffffffffffffffffffff1673ffffffffffffffffffffffffffffffffffffffff168152602001908152602001600020600660008473ffffffffffffffffffffffffffffffffffffffff1673ffffffffffffffffffffffffffffffffffffffff1681526020019081526020016000208054905081548110612e1a57fe5b906000526020600020016000612e309190615ad4565b5b8080600101915050612ad3565b505050565b612f1c88888080601f016020809104026020016040519081016040528093929190818152602001838380828437600081840152601f19601f82011690508083019250505050505050878787878080601f016020809104026020016040519081016040528093929190818152602001838380828437600081840152601f19601f8201169050808301925050505050505086868080601f016020809104026020016040519081016040528093929190818152602001838380828437600081840152601f19601f820116905080830192505050505050506143eb565b612f8e576040517f08c379a00000000000000000000000000000000000000000000000000000000081526004018080602001828103825260178152602001807f5369676e6174757265206973206e6f742076616c69642e00000000000000000081525060200191505060405180910390fd5b61302288888080601f016020809104026020016040519081016040528093929190818152602001838380828437600081840152601f19601f82011690508083019250505050505050878787878080601f016020809104026020016040519081016040528093929190818152602001838380828437600081840152601f19601f820116905080830192505050505050506145ba565b5050505050505050565b61310487878080601f016020809104026020016040519081016040528093929190818152602001838380828437600081840152601f19601f8201169050808301925050505050505086868080601f016020809104026020016040519081016040528093929190818152602001838380828437600081840152601f19601f820116905080830192505050505050508585858080601f016020809104026020016040519081016040528093929190818152602001838380828437600081840152601f19601f82011690508083019250505050505050614b36565b613176576040517f08c379a00000000000000000000000000000000000000000000000000000000081526004018080602001828103825260178152602001807f5369676e6174757265206973206e6f742076616c69642e00000000000000000081525060200191505060405180910390fd5b61320987878080601f016020809104026020016040519081016040528093929190818152602001838380828437600081840152601f19601f8201169050808301925050505050505086868080601f016020809104026020016040519081016040528093929190818152602001838380828437600081840152601f19601f8201169050808301925050505050505085614ccd565b50505050505050565b60006002826040518082805190602001908083835b6020831061324a5780518252602082019150602081019050602083039250613227565b6001836020036101000a038019825116818451168082178552505050505050905001915050908152602001604051809103902060020160149054906101000a900460ff16600381111561329957fe5b9050919050565b60056020528060005260406000206000915054906101000a900473ffffffffffffffffffffffffffffffffffffffff1681565b60046020528060005260406000206000915090508054600181600116156101000203166002900480601f01602080910402602001604051908101604052809291908181526020018280546001816001161561010002031660029004801561337b5780601f106133505761010080835404028352916020019161337b565b820191906000526020600020905b81548152906001019060200180831161335e57829003601f168201915b505050505081565b6000600182141561339757600190506133bc565b60028214156133a957600290506133bc565b60038214156133bb57600390506133bc565b5b919050565b600760205281600052604060002081815481106133da57fe5b90600052602060002001600091509150508054600181600116156101000203166002900480601f01602080910402602001604051908101604052809291908181526020018280546001816001161561010002031660029004801561347f5780601f106134545761010080835404028352916020019161347f565b820191906000526020600020905b81548152906001019060200180831161346257829003601f168201915b505050505081565b6009818051602081018201805184825260208301602085012081835280955050505050506000915090505481565b600b818051602081018201805184825260208301602085012081835280955050505050506000915054906101000a900473ffffffffffffffffffffffffffffffffffffffff1681565b60606002836040518082805190602001908083835b602083106135365780518252602082019150602081019050602083039250613513565b6001836020036101000a038019825116818451168082178552505050505050905001915050908152602001604051809103902060030160008373ffffffffffffffffffffffffffffffffffffffff1673ffffffffffffffffffffffffffffffffffffffff1681526020019081526020016000208054600181600116156101000203166002900480601f01602080910402602001604051908101604052809291908181526020018280546001816001161561010002031660029004801561363d5780601f106136125761010080835404028352916020019161363d565b820191906000526020600020905b81548152906001019060200180831161362057829003601f168201915b5050505050905092915050565b3460016000613657614339565b73ffffffffffffffffffffffffffffffffffffffff1673ffffffffffffffffffffffffffffffffffffffff16815260200190815260200160002054016001600061369f614339565b73ffffffffffffffffffffffffffffffffffffffff1673ffffffffffffffffffffffffffffffffffffffff16815260200190815260200160002081905550565b806002836040518082805190602001908083835b6020831061371657805182526020820191506020810190506020830392506136f3565b6001836020036101000a038019825116818451168082178552505050505050905001915050908152602001604051809103902060020160006101000a81548173ffffffffffffffffffffffffffffffffffffffff021916908373ffffffffffffffffffffffffffffffffffffffff1602179055505050565b600660205281600052604060002081815481106137a757fe5b90600052602060002001600091509150508054600181600116156101000203166002900480601f01602080910402602001604051908101604052809291908181526020018280546001816001161561010002031660029004801561384c5780601f106138215761010080835404028352916020019161384c565b820191906000526020600020905b81548152906001019060200180831161382f57829003601f168201915b505050505081565b600281805160208101820180518482526020830160208501208183528095505050505050600091509050806000018054600181600116156101000203166002900480601f0160208091040260200160405190810160405280929190818152602001828054600181600116156101000203166002900480156139165780601f106138eb57610100808354040283529160200191613916565b820191906000526020600020905b8154815290600101906020018083116138f957829003601f168201915b5050505050908060010160009054906101000a900473ffffffffffffffffffffffffffffffffffffffff16908060020160009054906101000a900473ffffffffffffffffffffffffffffffffffffffff16908060020160149054906101000a900460ff16905084565b600a818051602081018201805184825260208301602085012081835280955050505050506000915054906101000a900460ff1681565b60008060009054906101000a900473ffffffffffffffffffffffffffffffffffffffff16905090565b613a2d848484848080601f016020809104026020016040519081016040528093929190818152602001838380828437600081840152601f19601f82011690508083019250505050505050615331565b613a9f576040517f08c379a00000000000000000000000000000000000000000000000000000000081526004018080602001828103825260178152602001807f5369676e6174757265206973206e6f742076616c69642e00000000000000000081525060200191505060405180910390fd5b613aa98484615457565b50505050565b6008818051602081018201805184825260208301602085012081835280955050505050506000915090505481565b613ae681613383565b6002836040518082805190602001908083835b60208310613b1c5780518252602082019150602081019050602083039250613af9565b6001836020036101000a038019825116818451168082178552505050505050905001915050908152602001604051809103902060020160146101000a81548160ff02191690836003811115613b6d57fe5b02179055505050565b60006002826040518082805190602001908083835b60208310613bae5780518252602082019150602081019050602083039250613b8b565b6001836020036101000a038019825116818451168082178552505050505050905001915050908152602001604051809103902060010160009054906101000a900473ffffffffffffffffffffffffffffffffffffffff169050919050565b826003816040518082805190602001908083835b60208310613c435780518252602082019150602081019050602083039250613c20565b6001836020036101000a038019825116818451168082178552505050505050905001915050908152602001604051809103902060009054906101000a900460ff16613cf6576040517f08c379a00000000000000000000000000000000000000000000000000000000081526004018080602001828103825260168152602001807f446f63756d656e74206469646e27742065786973742e0000000000000000000081525060200191505060405180910390fd5b60006002856040518082805190602001908083835b60208310613d2e5780518252602082019150602081019050602083039250613d0b565b6001836020036101000a0380198251168184511680821785525050505050509050019150509081526020016040518091039020905060026003811115613d7057fe5b8160020160149054906101000a900460ff166003811115613d8d57fe5b14613de3576040517f08c379a000000000000000000000000000000000000000000000000000000000815260040180806020018281038252602e815260200180615d57602e913960400191505060405180910390fd5b8273ffffffffffffffffffffffffffffffffffffffff168160020160009054906101000a900473ffffffffffffffffffffffffffffffffffffffff1673ffffffffffffffffffffffffffffffffffffffff1614613e8b576040517f08c379a000000000000000000000000000000000000000000000000000000000815260040180806020018281038252603a815260200180615cc9603a913960400191505060405180910390fd5b60038160020160146101000a81548160ff02191690836003811115613eac57fe5b02179055505050505050565b600080613fb7858560036004811115613ecd57fe5b30604051602001808573ffffffffffffffffffffffffffffffffffffffff1673ffffffffffffffffffffffffffffffffffffffff1660601b815260140184805190602001908083835b60208310613f395780518252602082019150602081019050602083039250613f16565b6001836020036101000a0380198251168184511680821785525050505050509050018381526020018273ffffffffffffffffffffffffffffffffffffffff1673ffffffffffffffffffffffffffffffffffffffff1660601b815260140194505050505060405160208183030381529060405280519060200120615778565b90508473ffffffffffffffffffffffffffffffffffffffff16613fda82856157d0565b73ffffffffffffffffffffffffffffffffffffffff16149150509392505050565b8160405160200180600001905060405160208183030381529060405280519060200120600460008373ffffffffffffffffffffffffffffffffffffffff1673ffffffffffffffffffffffffffffffffffffffff16815260200190815260200160002060405160200180828054600181600116156101000203166002900480156140bb5780601f106140995761010080835404028352918201916140bb565b820191906000526020600020905b8154815290600101906020018083116140a7575b50509150506040516020818303038152906040528051906020012014614149576040517f08c379a00000000000000000000000000000000000000000000000000000000081526004018080602001828103825260168152602001807f4163636f756e7420616c72656164792065786973742e0000000000000000000081525060200191505060405180910390fd5b81600460008573ffffffffffffffffffffffffffffffffffffffff1673ffffffffffffffffffffffffffffffffffffffff168152602001908152602001600020908051906020019061419c929190615ba3565b50505050565b6000806142f4868686600260048111156141b857fe5b306040516020018086805190602001908083835b602083106141ef57805182526020820191506020810190506020830392506141cc565b6001836020036101000a03801982511681845116808217855250505050505090500185805190602001908083835b60208310614240578051825260208201915060208101905060208303925061421d565b6001836020036101000a0380198251168184511680821785525050505050509050018473ffffffffffffffffffffffffffffffffffffffff1673ffffffffffffffffffffffffffffffffffffffff1660601b81526014018381526020018273ffffffffffffffffffffffffffffffffffffffff1673ffffffffffffffffffffffffffffffffffffffff1660601b81526014019550505050505060405160208183030381529060405280519060200120615778565b90508373ffffffffffffffffffffffffffffffffffffffff1661431782856157d0565b73ffffffffffffffffffffffffffffffffffffffff1614915050949350505050565b6000601860003690501015801561438257506143536139b5565b73ffffffffffffffffffffffffffffffffffffffff163373ffffffffffffffffffffffffffffffffffffffff16145b156143e4576143dd6000368080601f016020809104026020016040519081016040528093929190818152602001838380828437600081840152601f19601f820116905080830192505050505050506014600036905003615857565b90506143e8565b3390505b90565b600080614574878787876001600481111561440257fe5b306040516020018087805190602001908083835b602083106144395780518252602082019150602081019050602083039250614416565b6001836020036101000a0380198251168184511680821785525050505050509050018673ffffffffffffffffffffffffffffffffffffffff1673ffffffffffffffffffffffffffffffffffffffff1660601b81526014018573ffffffffffffffffffffffffffffffffffffffff1673ffffffffffffffffffffffffffffffffffffffff1660601b815260140184805190602001908083835b602083106144f457805182526020820191506020810190506020830392506144d1565b6001836020036101000a0380198251168184511680821785525050505050509050018381526020018273ffffffffffffffffffffffffffffffffffffffff1673ffffffffffffffffffffffffffffffffffffffff1660601b8152601401965050505050505060405160208183030381529060405280519060200120615778565b90508573ffffffffffffffffffffffffffffffffffffffff1661459782856157d0565b73ffffffffffffffffffffffffffffffffffffffff161491505095945050505050565b836003816040518082805190602001908083835b602083106145f157805182526020820191506020810190506020830392506145ce565b6001836020036101000a038019825116818451168082178552505050505050905001915050908152602001604051809103902060009054906101000a900460ff166146a4576040517f08c379a00000000000000000000000000000000000000000000000000000000081526004018080602001828103825260168152602001807f446f63756d656e74206469646e27742065786973742e0000000000000000000081525060200191505060405180910390fd5b84848073ffffffffffffffffffffffffffffffffffffffff166002836040518082805190602001908083835b602083106146f357805182526020820191506020810190506020830392506146d0565b6001836020036101000a038019825116818451168082178552505050505050905001915050908152602001604051809103902060010160009054906101000a900473ffffffffffffffffffffffffffffffffffffffff1673ffffffffffffffffffffffffffffffffffffffff16146147b6576040517f08c379a0000000000000000000000000000000000000000000000000000000008152600401808060200182810382526032815260200180615d036032913960400191505060405180910390fd5b8460405160200180600001905060405160208183030381529060405280519060200120600460008373ffffffffffffffffffffffffffffffffffffffff1673ffffffffffffffffffffffffffffffffffffffff16815260200190815260200160002060405160200180828054600181600116156101000203166002900480156148765780601f10614854576101008083540402835291820191614876565b820191906000526020600020905b815481529060010190602001808311614862575b5050915050604051602081830303815290604052805190602001201415614905576040517f08c379a00000000000000000000000000000000000000000000000000000000081526004018080602001828103825260158152602001807f4163636f756e74206469646e27742065786973742e000000000000000000000081525060200191505060405180910390fd5b60006002896040518082805190602001908083835b6020831061493d578051825260208201915060208101905060208303925061491a565b6001836020036101000a038019825116818451168082178552505050505050905001915050908152602001604051809103902090506002600381111561497f57fe5b8160020160149054906101000a900460ff16600381111561499c57fe5b14156149f3576040517f08c379a000000000000000000000000000000000000000000000000000000000815260040180806020018281038252604d815260200180615da7604d913960600191505060405180910390fd5b868160020160006101000a81548173ffffffffffffffffffffffffffffffffffffffff021916908373ffffffffffffffffffffffffffffffffffffffff160217905550858160030160008973ffffffffffffffffffffffffffffffffffffffff1673ffffffffffffffffffffffffffffffffffffffff1681526020019081526020016000209080519060200190614a8b929190615ba3565b5060028160020160146101000a81548160ff02191690836003811115614aad57fe5b0217905550600760008873ffffffffffffffffffffffffffffffffffffffff1673ffffffffffffffffffffffffffffffffffffffff16815260200190815260200160002089908060018154018082558091505060019003906000526020600020016000909190919091509080519060200190614b2a929190615ba3565b50505050505050505050565b600080614c8886868660006004811115614b4c57fe5b306040516020018086805190602001908083835b60208310614b835780518252602082019150602081019050602083039250614b60565b6001836020036101000a03801982511681845116808217855250505050505090500185805190602001908083835b60208310614bd45780518252602082019150602081019050602083039250614bb1565b6001836020036101000a0380198251168184511680821785525050505050509050018473ffffffffffffffffffffffffffffffffffffffff1673ffffffffffffffffffffffffffffffffffffffff1660601b81526014018381526020018273ffffffffffffffffffffffffffffffffffffffff1673ffffffffffffffffffffffffffffffffffffffff1660601b81526014019550505050505060405160208183030381529060405280519060200120615778565b90508373ffffffffffffffffffffffffffffffffffffffff16614cab82856157d0565b73ffffffffffffffffffffffffffffffffffffffff1614915050949350505050565b826003816040518082805190602001908083835b60208310614d045780518252602082019150602081019050602083039250614ce1565b6001836020036101000a038019825116818451168082178552505050505050905001915050908152602001604051809103902060009054906101000a900460ff1615614db8576040517f08c379a00000000000000000000000000000000000000000000000000000000081526004018080602001828103825260178152602001807f446f63756d656e7420616c72656164792065786973742e00000000000000000081525060200191505060405180910390fd5b8160405160200180600001905060405160208183030381529060405280519060200120600460008373ffffffffffffffffffffffffffffffffffffffff1673ffffffffffffffffffffffffffffffffffffffff1681526020019081526020016000206040516020018082805460018160011615610100020316600290048015614e785780601f10614e56576101008083540402835291820191614e78565b820191906000526020600020905b815481529060010190602001808311614e64575b5050915050604051602081830303815290604052805190602001201415614f07576040517f08c379a00000000000000000000000000000000000000000000000000000000081526004018080602001828103825260158152602001807f4163636f756e74206469646e27742065786973742e000000000000000000000081525060200191505060405180910390fd5b60405180608001604052808681526020018473ffffffffffffffffffffffffffffffffffffffff168152602001600073ffffffffffffffffffffffffffffffffffffffff16815260200160016003811115614f5e57fe5b8152506002866040518082805190602001908083835b60208310614f975780518252602082019150602081019050602083039250614f74565b6001836020036101000a03801982511681845116808217855250505050505090500191505090815260200160405180910390206000820151816000019080519060200190614fe6929190615c23565b5060208201518160010160006101000a81548173ffffffffffffffffffffffffffffffffffffffff021916908373ffffffffffffffffffffffffffffffffffffffff16021790555060408201518160020160006101000a81548173ffffffffffffffffffffffffffffffffffffffff021916908373ffffffffffffffffffffffffffffffffffffffff16021790555060608201518160020160146101000a81548160ff0219169083600381111561509957fe5b0217905550905050836002866040518082805190602001908083835b602083106150d857805182526020820191506020810190506020830392506150b5565b6001836020036101000a038019825116818451168082178552505050505050905001915050908152602001604051809103902060030160008573ffffffffffffffffffffffffffffffffffffffff1673ffffffffffffffffffffffffffffffffffffffff168152602001908152602001600020908051906020019061515e929190615ba3565b5060016003866040518082805190602001908083835b602083106151975780518252602082019150602081019050602083039250615174565b6001836020036101000a038019825116818451168082178552505050505050905001915050908152602001604051809103902060006101000a81548160ff021916908315150217905550600660008473ffffffffffffffffffffffffffffffffffffffff1673ffffffffffffffffffffffffffffffffffffffff16815260200190815260200160002085908060018154018082558091505060019003906000526020600020016000909190919091509080519060200190615259929190615ba3565b507f144ced1a295f096707ac7e7d8aa1a5a89bc1fd73ea6c8d75de34bba0fe0b132e858460405180806020018373ffffffffffffffffffffffffffffffffffffffff1673ffffffffffffffffffffffffffffffffffffffff168152602001828103825284818151815260200191508051906020019080838360005b838110156152ef5780820151818401526020810190506152d4565b50505050905090810190601f16801561531c5780820380516001836020036101000a031916815260200191505b50935050505060405180910390a15050505050565b600080615413858560048081111561534557fe5b30604051602001808573ffffffffffffffffffffffffffffffffffffffff1673ffffffffffffffffffffffffffffffffffffffff1660601b81526014018473ffffffffffffffffffffffffffffffffffffffff1673ffffffffffffffffffffffffffffffffffffffff1660601b81526014018381526020018273ffffffffffffffffffffffffffffffffffffffff1673ffffffffffffffffffffffffffffffffffffffff1660601b815260140194505050505060405160208183030381529060405280519060200120615778565b90508473ffffffffffffffffffffffffffffffffffffffff1661543682856157d0565b73ffffffffffffffffffffffffffffffffffffffff16149150509392505050565b8160405160200180600001905060405160208183030381529060405280519060200120600460008373ffffffffffffffffffffffffffffffffffffffff1673ffffffffffffffffffffffffffffffffffffffff16815260200190815260200160002060405160200180828054600181600116156101000203166002900480156155175780601f106154f5576101008083540402835291820191615517565b820191906000526020600020905b815481529060010190602001808311615503575b50509150506040516020818303038152906040528051906020012014156155a6576040517f08c379a00000000000000000000000000000000000000000000000000000000081526004018080602001828103825260158152602001807f4163636f756e74206469646e27742065786973742e000000000000000000000081525060200191505060405180910390fd5b8160405160200180600001905060405160208183030381529060405280519060200120600460008373ffffffffffffffffffffffffffffffffffffffff1673ffffffffffffffffffffffffffffffffffffffff16815260200190815260200160002060405160200180828054600181600116156101000203166002900480156156665780601f10615644576101008083540402835291820191615666565b820191906000526020600020905b815481529060010190602001808311615652575b505091505060405160208183030381529060405280519060200120146156f4576040517f08c379a00000000000000000000000000000000000000000000000000000000081526004018080602001828103825260168152602001807f4163636f756e7420616c72656164792065786973742e0000000000000000000081525060200191505060405180910390fd5b83600560008573ffffffffffffffffffffffffffffffffffffffff1673ffffffffffffffffffffffffffffffffffffffff16815260200190815260200160002060006101000a81548173ffffffffffffffffffffffffffffffffffffffff021916908373ffffffffffffffffffffffffffffffffffffffff16021790555050505050565b60008160405160200180807f19457468657265756d205369676e6564204d6573736167653a0a333200000000815250601c01828152602001915050604051602081830303815290604052805190602001209050919050565b6000806000806157df856158a9565b92509250925060018684848460405160008152602001604052604051808581526020018460ff1660ff1681526020018381526020018281526020019450505050506020604051602081039080840390855afa158015615842573d6000803e3d6000fd5b50505060206040510351935050505092915050565b6000601482018351101561587e5761587d61587860048551601486016159ce565b615a6d565b5b60148201915073ffffffffffffffffffffffffffffffffffffffff8284015116905080905092915050565b600080600060418451146158bc57600080fd5b6020840151915060408401519050606084015160001a92507f7fffffffffffffffffffffffffffffff5d576e7357a4501ddfe92f46681b20a08160001c1115615950576040517f08c379a0000000000000000000000000000000000000000000000000000000008152600401808060200182810382526022815260200180615d356022913960400191505060405180910390fd5b601b8360ff16141580156159685750601c8360ff1614155b156159be576040517f08c379a0000000000000000000000000000000000000000000000000000000008152600401808060200182810382526022815260200180615d856022913960400191505060405180910390fd5b8282829250925092509193909250565b6060632800659560e01b848484604051602401808460078111156159ee57fe5b60ff1681526020018381526020018281526020019350505050604051602081830303815290604052907bffffffffffffffffffffffffffffffffffffffffffffffffffffffff19166020820180517bffffffffffffffffffffffffffffffffffffffffffffffffffffffff838183161783525050505090509392505050565b805160208201fd5b604051806080016040528060608152602001600073ffffffffffffffffffffffffffffffffffffffff168152602001600073ffffffffffffffffffffffffffffffffffffffff16815260200160006003811115615ace57fe5b81525090565b50805460018160011615610100020316600290046000825580601f10615afa5750615b19565b601f016020900490600052602060002090810190615b189190615ca3565b5b50565b828054600181600116156101000203166002900490600052602060002090601f016020900481019282601f10615b555780548555615b92565b82800160010185558215615b9257600052602060002091601f016020900482015b82811115615b91578254825591600101919060010190615b76565b5b509050615b9f9190615ca3565b5090565b828054600181600116156101000203166002900490600052602060002090601f016020900481019282601f10615be457805160ff1916838001178555615c12565b82800160010185558215615c12579182015b82811115615c11578251825591602001919060010190615bf6565b5b509050615c1f9190615ca3565b5090565b828054600181600116156101000203166002900490600052602060002090601f016020900481019282601f10615c6457805160ff1916838001178555615c92565b82800160010185558215615c92579182015b82811115615c91578251825591602001919060010190615c76565b5b509050615c9f9190615ca3565b5090565b615cc591905b80821115615cc1576000816000905550600101615ca9565b5090565b9056fe4f6e6c79207468652061737369676e207369676e656520627920746865206f776e65722063616e207369676e2074686520646f63756d656e742e4f6e6c7920746865206f776e6572206f662074686520646f63756d656e742063616e20646f207468697320616374696f6e2e45434453413a20696e76616c6964207369676e6174757265202773272076616c7565446f63756d656e742073746174652069736e277420696e205369676e696e672050656e64696e672053746174652e45434453413a20696e76616c6964207369676e6174757265202776272076616c756543616e6e6f742061736b20666f7220616e6f74686572207369676e617475726520696620746865206c617374207369676e6565206469646e2074207369676e2074686520646f63756d656e742ea2646970667358221220271fa5a59a40b3bac478011c9ac640a2f0a19c68bdb705dddd5d881dc30d11c864736f6c63430006030033608060405234801561001057600080fd5b50615334806100206000396000f3fe60806040526004361061019c5760003560e01c80635e5c06e2116100ec578063b3dd697b1161008a578063ce1b815f11610064578063ce1b815f14611697578063e12b6c1d146116ee578063e5b0b90c146117b4578063ff86e28c146118905761019c565b8063b3dd697b14611313578063b5066b61146114cf578063be0edc83146115af5761019c565b80637547b64e116100c65780637547b64e14610fcc5780638173c1ee146110d45780638e06399214611235578063a44543401461123f5761019c565b80635e5c06e214610d52578063699a203314610e1c57806370a13b4814610ef05761019c565b80632a97fa771161015957806349b985571161013357806349b98557146109255780634c969a3414610a955780635767770914610be557806359328eb514610cc15761019c565b80632a97fa7714610738578063309808571461078957806332285bda146107e45761019c565b8063078e84f4146101a1578063197c9fc51461029c578063245309951461037c57806324da2a82146104bd57806326ec90ae1461058357806327e235e3146106d3575b600080fd5b3480156101ad57600080fd5b5061029a600480360360608110156101c457600080fd5b81019080803573ffffffffffffffffffffffffffffffffffffffff1690602001909291908035906020019064010000000081111561020157600080fd5b82018360208201111561021357600080fd5b8035906020019184600183028401116401000000008311171561023557600080fd5b90919293919293908035906020019064010000000081111561025657600080fd5b82018360208201111561026857600080fd5b8035906020019184600183028401116401000000008311171561028a57600080fd5b9091929391929390505050611998565b005b3480156102a857600080fd5b50610362600480360360208110156102bf57600080fd5b81019080803590602001906401000000008111156102dc57600080fd5b8201836020820111156102ee57600080fd5b8035906020019184600183028401116401000000008311171561031057600080fd5b91908080601f016020809104026020016040519081016040528093929190818152602001838380828437600081840152601f19601f820116905080830192505050505050509192919290505050611af2565b604051808215151515815260200191505060405180910390f35b34801561038857600080fd5b506104426004803603602081101561039f57600080fd5b81019080803590602001906401000000008111156103bc57600080fd5b8201836020820111156103ce57600080fd5b803590602001918460018302840111640100000000831117156103f057600080fd5b91908080601f016020809104026020016040519081016040528093929190818152602001838380828437600081840152601f19601f820116905080830192505050505050509192919290505050611b28565b6040518080602001828103825283818151815260200191508051906020019080838360005b83811015610482578082015181840152602081019050610467565b50505050905090810190601f1680156104af5780820380516001836020036101000a031916815260200191505b509250505060405180910390f35b3480156104c957600080fd5b50610581600480360360608110156104e057600080fd5b81019080803590602001906401000000008111156104fd57600080fd5b82018360208201111561050f57600080fd5b8035906020019184600183028401116401000000008311171561053157600080fd5b9091929391929390803573ffffffffffffffffffffffffffffffffffffffff169060200190929190803573ffffffffffffffffffffffffffffffffffffffff169060200190929190505050611bee565b005b34801561058f57600080fd5b506106d1600480360360808110156105a657600080fd5b81019080803590602001906401000000008111156105c357600080fd5b8201836020820111156105d557600080fd5b803590602001918460018302840111640100000000831117156105f757600080fd5b90919293919293908035906020019064010000000081111561061857600080fd5b82018360208201111561062a57600080fd5b8035906020019184600183028401116401000000008311171561064c57600080fd5b9091929391929390803573ffffffffffffffffffffffffffffffffffffffff1690602001909291908035906020019064010000000081111561068d57600080fd5b82018360208201111561069f57600080fd5b803590602001918460018302840111640100000000831117156106c157600080fd5b9091929391929390505050611f3c565b005b3480156106df57600080fd5b50610722600480360360208110156106f657600080fd5b81019080803573ffffffffffffffffffffffffffffffffffffffff169060200190929190505050612122565b6040518082815260200191505060405180910390f35b34801561074457600080fd5b506107876004803603602081101561075b57600080fd5b81019080803573ffffffffffffffffffffffffffffffffffffffff16906020019092919050505061213a565b005b34801561079557600080fd5b506107e2600480360360408110156107ac57600080fd5b8101908080359060200190929190803573ffffffffffffffffffffffffffffffffffffffff1690602001909291905050506122c0565b005b3480156107f057600080fd5b506108aa6004803603602081101561080757600080fd5b810190808035906020019064010000000081111561082457600080fd5b82018360208201111561083657600080fd5b8035906020019184600183028401116401000000008311171561085857600080fd5b91908080601f016020809104026020016040519081016040528093929190818152602001838380828437600081840152601f19601f8201169050808301925050505050505091929192905050506124cf565b6040518080602001828103825283818151815260200191508051906020019080838360005b838110156108ea5780820151818401526020810190506108cf565b50505050905090810190601f1680156109175780820380516001836020036101000a031916815260200191505b509250505060405180910390f35b34801561093157600080fd5b50610a93600480360360a081101561094857600080fd5b810190808035906020019064010000000081111561096557600080fd5b82018360208201111561097757600080fd5b8035906020019184600183028401116401000000008311171561099957600080fd5b9091929391929390803573ffffffffffffffffffffffffffffffffffffffff169060200190929190803573ffffffffffffffffffffffffffffffffffffffff169060200190929190803590602001906401000000008111156109fa57600080fd5b820183602082011115610a0c57600080fd5b80359060200191846001830284011164010000000083111715610a2e57600080fd5b909192939192939080359060200190640100000000811115610a4f57600080fd5b820183602082011115610a6157600080fd5b80359060200191846001830284011164010000000083111715610a8357600080fd5b9091929391929390505050612595565b005b348015610aa157600080fd5b50610be360048036036080811015610ab857600080fd5b8101908080359060200190640100000000811115610ad557600080fd5b820183602082011115610ae757600080fd5b80359060200191846001830284011164010000000083111715610b0957600080fd5b909192939192939080359060200190640100000000811115610b2a57600080fd5b820183602082011115610b3c57600080fd5b80359060200191846001830284011164010000000083111715610b5e57600080fd5b9091929391929390803573ffffffffffffffffffffffffffffffffffffffff16906020019092919080359060200190640100000000811115610b9f57600080fd5b820183602082011115610bb157600080fd5b80359060200191846001830284011164010000000083111715610bd357600080fd5b909192939192939050505061277e565b005b348015610bf157600080fd5b50610cab60048036036020811015610c0857600080fd5b8101908080359060200190640100000000811115610c2557600080fd5b820183602082011115610c3757600080fd5b80359060200191846001830284011164010000000083111715610c5957600080fd5b91908080601f016020809104026020016040519081016040528093929190818152602001838380828437600081840152601f19601f820116905080830192505050505050509192919290505050612964565b6040518082815260200191505060405180910390f35b348015610ccd57600080fd5b50610d1060048036036020811015610ce457600080fd5b81019080803573ffffffffffffffffffffffffffffffffffffffff1690602001909291905050506129f2565b604051808273ffffffffffffffffffffffffffffffffffffffff1673ffffffffffffffffffffffffffffffffffffffff16815260200191505060405180910390f35b348015610d5e57600080fd5b50610da160048036036020811015610d7557600080fd5b81019080803573ffffffffffffffffffffffffffffffffffffffff169060200190929190505050612a25565b6040518080602001828103825283818151815260200191508051906020019080838360005b83811015610de1578082015181840152602081019050610dc6565b50505050905090810190601f168015610e0e5780820380516001836020036101000a031916815260200191505b509250505060405180910390f35b348015610e2857600080fd5b50610e7560048036036040811015610e3f57600080fd5b81019080803573ffffffffffffffffffffffffffffffffffffffff16906020019092919080359060200190929190505050612ad5565b6040518080602001828103825283818151815260200191508051906020019080838360005b83811015610eb5578082015181840152602081019050610e9a565b50505050905090810190601f168015610ee25780820380516001836020036101000a031916815260200191505b509250505060405180910390f35b348015610efc57600080fd5b50610fb660048036036020811015610f1357600080fd5b8101908080359060200190640100000000811115610f3057600080fd5b820183602082011115610f4257600080fd5b80359060200191846001830284011164010000000083111715610f6457600080fd5b91908080601f016020809104026020016040519081016040528093929190818152602001838380828437600081840152601f19601f820116905080830192505050505050509192919290505050612b9b565b6040518082815260200191505060405180910390f35b348015610fd857600080fd5b5061109260048036036020811015610fef57600080fd5b810190808035906020019064010000000081111561100c57600080fd5b82018360208201111561101e57600080fd5b8035906020019184600183028401116401000000008311171561104057600080fd5b91908080601f016020809104026020016040519081016040528093929190818152602001838380828437600081840152601f19601f820116905080830192505050505050509192919290505050612bc9565b604051808273ffffffffffffffffffffffffffffffffffffffff1673ffffffffffffffffffffffffffffffffffffffff16815260200191505060405180910390f35b3480156110e057600080fd5b506111ba600480360360408110156110f757600080fd5b810190808035906020019064010000000081111561111457600080fd5b82018360208201111561112657600080fd5b8035906020019184600183028401116401000000008311171561114857600080fd5b91908080601f016020809104026020016040519081016040528093929190818152602001838380828437600081840152601f19601f820116905080830192505050505050509192919290803573ffffffffffffffffffffffffffffffffffffffff169060200190929190505050612c12565b6040518080602001828103825283818151815260200191508051906020019080838360005b838110156111fa5780820151818401526020810190506111df565b50505050905090810190601f1680156112275780820380516001836020036101000a031916815260200191505b509250505060405180910390f35b61123d612d5e565b005b34801561124b57600080fd5b506112986004803603604081101561126257600080fd5b81019080803573ffffffffffffffffffffffffffffffffffffffff16906020019092919080359060200190929190505050612df3565b6040518080602001828103825283818151815260200191508051906020019080838360005b838110156112d85780820151818401526020810190506112bd565b50505050905090810190601f1680156113055780820380516001836020036101000a031916815260200191505b509250505060405180910390f35b34801561131f57600080fd5b506113d96004803603602081101561133657600080fd5b810190808035906020019064010000000081111561135357600080fd5b82018360208201111561136557600080fd5b8035906020019184600183028401116401000000008311171561138757600080fd5b91908080601f016020809104026020016040519081016040528093929190818152602001838380828437600081840152601f19601f820116905080830192505050505050509192919290505050612eb9565b60405180806020018573ffffffffffffffffffffffffffffffffffffffff1673ffffffffffffffffffffffffffffffffffffffff1681526020018473ffffffffffffffffffffffffffffffffffffffff1673ffffffffffffffffffffffffffffffffffffffff16815260200183600381111561145157fe5b60ff168152602001828103825286818151815260200191508051906020019080838360005b83811015611491578082015181840152602081019050611476565b50505050905090810190601f1680156114be5780820380516001836020036101000a031916815260200191505b509550505050505060405180910390f35b3480156114db57600080fd5b50611595600480360360208110156114f257600080fd5b810190808035906020019064010000000081111561150f57600080fd5b82018360208201111561152157600080fd5b8035906020019184600183028401116401000000008311171561154357600080fd5b91908080601f016020809104026020016040519081016040528093929190818152602001838380828437600081840152601f19601f820116905080830192505050505050509192919290505050612fe4565b604051808215151515815260200191505060405180910390f35b3480156115bb57600080fd5b50611695600480360360408110156115d257600080fd5b81019080803573ffffffffffffffffffffffffffffffffffffffff1690602001909291908035906020019064010000000081111561160f57600080fd5b82018360208201111561162157600080fd5b8035906020019184600183028401116401000000008311171561164357600080fd5b91908080601f016020809104026020016040519081016040528093929190818152602001838380828437600081840152601f19601f82011690508083019250505050505050919291929050505061301a565b005b3480156116a357600080fd5b506116ac613028565b604051808273ffffffffffffffffffffffffffffffffffffffff1673ffffffffffffffffffffffffffffffffffffffff16815260200191505060405180910390f35b3480156116fa57600080fd5b506117b26004803603606081101561171157600080fd5b81019080803573ffffffffffffffffffffffffffffffffffffffff169060200190929190803573ffffffffffffffffffffffffffffffffffffffff1690602001909291908035906020019064010000000081111561176e57600080fd5b82018360208201111561178057600080fd5b803590602001918460018302840111640100000000831117156117a257600080fd5b9091929391929390505050613051565b005b3480156117c057600080fd5b5061187a600480360360208110156117d757600080fd5b81019080803590602001906401000000008111156117f457600080fd5b82018360208201111561180657600080fd5b8035906020019184600183028401116401000000008311171561182857600080fd5b91908080601f016020809104026020016040519081016040528093929190818152602001838380828437600081840152601f19601f820116905080830192505050505050509192919290505050613122565b6040518082815260200191505060405180910390f35b34801561189c57600080fd5b50611956600480360360208110156118b357600080fd5b81019080803590602001906401000000008111156118d057600080fd5b8201836020820111156118e257600080fd5b8035906020019184600183028401116401000000008311171561190457600080fd5b91908080601f016020809104026020016040519081016040528093929190818152602001838380828437600081840152601f19601f820116905080830192505050505050509192919290505050613150565b604051808273ffffffffffffffffffffffffffffffffffffffff1673ffffffffffffffffffffffffffffffffffffffff16815260200191505060405180910390f35b611a2b8585858080601f016020809104026020016040519081016040528093929190818152602001838380828437600081840152601f19601f8201169050808301925050505050505084848080601f016020809104026020016040519081016040528093929190818152602001838380828437600081840152601f19601f820116905080830192505050505050506131e6565b611a9d576040517f08c379a00000000000000000000000000000000000000000000000000000000081526004018080602001828103825260178152602001807f5369676e6174757265206973206e6f742076616c69642e00000000000000000081525060200191505060405180910390fd5b611aeb8585858080601f016020809104026020016040519081016040528093929190818152602001838380828437600081840152601f19601f82011690508083019250505050505050613329565b5050505050565b6003818051602081018201805184825260208301602085012081835280955050505050506000915054906101000a900460ff1681565b600c818051602081018201805184825260208301602085012081835280955050505050506000915090508054600181600116156101000203166002900480601f016020809104026020016040519081016040528092919081815260200182805460018160011615610100020316600290048015611be65780601f10611bbb57610100808354040283529160200191611be6565b820191906000526020600020905b815481529060010190602001808311611bc957829003601f168201915b505050505081565b83838080601f016020809104026020016040519081016040528093929190818152602001838380828437600081840152601f19601f82011690508083019250505050505050828073ffffffffffffffffffffffffffffffffffffffff166002836040518082805190602001908083835b60208310611c815780518252602082019150602081019050602083039250611c5e565b6001836020036101000a038019825116818451168082178552505050505050905001915050908152602001604051809103902060010160009054906101000a900473ffffffffffffffffffffffffffffffffffffffff1673ffffffffffffffffffffffffffffffffffffffff1614611d44576040517f08c379a000000000000000000000000000000000000000000000000000000000815260040180806020018281038252603281526020018061520e6032913960400191505060405180910390fd5b611d4c61504f565b600287876040518083838082843780830192505050925050509081526020016040518091039020604051806080016040529081600082018054600181600116156101000203166002900480601f016020809104026020016040519081016040528092919081815260200182805460018160011615610100020316600290048015611e175780601f10611dec57610100808354040283529160200191611e17565b820191906000526020600020905b815481529060010190602001808311611dfa57829003601f168201915b505050505081526020016001820160009054906101000a900473ffffffffffffffffffffffffffffffffffffffff1673ffffffffffffffffffffffffffffffffffffffff1673ffffffffffffffffffffffffffffffffffffffff1681526020016002820160009054906101000a900473ffffffffffffffffffffffffffffffffffffffff1673ffffffffffffffffffffffffffffffffffffffff1673ffffffffffffffffffffffffffffffffffffffff1681526020016002820160149054906101000a900460ff166003811115611eea57fe5b6003811115611ef557fe5b81525050905083816020019073ffffffffffffffffffffffffffffffffffffffff16908173ffffffffffffffffffffffffffffffffffffffff168152505050505050505050565b61201487878080601f016020809104026020016040519081016040528093929190818152602001838380828437600081840152601f19601f8201169050808301925050505050505086868080601f016020809104026020016040519081016040528093929190818152602001838380828437600081840152601f19601f820116905080830192505050505050508585858080601f016020809104026020016040519081016040528093929190818152602001838380828437600081840152601f19601f820116905080830192505050505050506134d0565b612086576040517f08c379a00000000000000000000000000000000000000000000000000000000081526004018080602001828103825260178152602001807f5369676e6174757265206973206e6f742076616c69642e00000000000000000081525060200191505060405180910390fd5b61211987878080601f016020809104026020016040519081016040528093929190818152602001838380828437600081840152601f19601f8201169050808301925050505050505086868080601f016020809104026020016040519081016040528093929190818152602001838380828437600081840152601f19601f8201169050808301925050505050505085613667565b50505050505050565b60016020528060005260406000206000915090505481565b612142613913565b73ffffffffffffffffffffffffffffffffffffffff16600b60405180807f4f776e65720000000000000000000000000000000000000000000000000000008152506005019050908152602001604051809103902060009054906101000a900473ffffffffffffffffffffffffffffffffffffffff1673ffffffffffffffffffffffffffffffffffffffff1614612240576040517f08c379a00000000000000000000000000000000000000000000000000000000081526004018080602001828103825260208152602001807f4f776e61626c653a2063616c6c6572206973206e6f7420746865206f776e657281525060200191505060405180910390fd5b80600b60405180807f5061796d617374657200000000000000000000000000000000000000000000008152506009019050908152602001604051809103902060006101000a81548173ffffffffffffffffffffffffffffffffffffffff021916908373ffffffffffffffffffffffffffffffffffffffff16021790555050565b6122c8613913565b73ffffffffffffffffffffffffffffffffffffffff16600b60405180807f5061796d617374657200000000000000000000000000000000000000000000008152506009019050908152602001604051809103902060009054906101000a900473ffffffffffffffffffffffffffffffffffffffff1673ffffffffffffffffffffffffffffffffffffffff16146123a1576040517f08c379a0000000000000000000000000000000000000000000000000000000008152600401808060200182810382526000815260200160200191505060405180910390fd5b81600160008373ffffffffffffffffffffffffffffffffffffffff1673ffffffffffffffffffffffffffffffffffffffff1681526020019081526020016000205403600160008373ffffffffffffffffffffffffffffffffffffffff1673ffffffffffffffffffffffffffffffffffffffff16815260200190815260200160002081905550600b60405180807f5061796d617374657200000000000000000000000000000000000000000000008152506009019050908152602001604051809103902060009054906101000a900473ffffffffffffffffffffffffffffffffffffffff1673ffffffffffffffffffffffffffffffffffffffff166108fc839081150290604051600060405180830381858888f193505050501580156124ca573d6000803e3d6000fd5b505050565b600d818051602081018201805184825260208301602085012081835280955050505050506000915090508054600181600116156101000203166002900480601f01602080910402602001604051908101604052809291908181526020018280546001816001161561010002031660029004801561258d5780601f106125625761010080835404028352916020019161258d565b820191906000526020600020905b81548152906001019060200180831161257057829003601f168201915b505050505081565b61266e88888080601f016020809104026020016040519081016040528093929190818152602001838380828437600081840152601f19601f82011690508083019250505050505050878787878080601f016020809104026020016040519081016040528093929190818152602001838380828437600081840152601f19601f8201169050808301925050505050505086868080601f016020809104026020016040519081016040528093929190818152602001838380828437600081840152601f19601f820116905080830192505050505050506139c5565b6126e0576040517f08c379a00000000000000000000000000000000000000000000000000000000081526004018080602001828103825260178152602001807f5369676e6174757265206973206e6f742076616c69642e00000000000000000081525060200191505060405180910390fd5b61277488888080601f016020809104026020016040519081016040528093929190818152602001838380828437600081840152601f19601f82011690508083019250505050505050878787878080601f016020809104026020016040519081016040528093929190818152602001838380828437600081840152601f19601f82011690508083019250505050505050613b94565b5050505050505050565b61285687878080601f016020809104026020016040519081016040528093929190818152602001838380828437600081840152601f19601f8201169050808301925050505050505086868080601f016020809104026020016040519081016040528093929190818152602001838380828437600081840152601f19601f820116905080830192505050505050508585858080601f016020809104026020016040519081016040528093929190818152602001838380828437600081840152601f19601f82011690508083019250505050505050614110565b6128c8576040517f08c379a00000000000000000000000000000000000000000000000000000000081526004018080602001828103825260178152602001807f5369676e6174757265206973206e6f742076616c69642e00000000000000000081525060200191505060405180910390fd5b61295b87878080601f016020809104026020016040519081016040528093929190818152602001838380828437600081840152601f19601f8201169050808301925050505050505086868080601f016020809104026020016040519081016040528093929190818152602001838380828437600081840152601f19601f82011690508083019250505050505050856142a7565b50505050505050565b60006002826040518082805190602001908083835b6020831061299c5780518252602082019150602081019050602083039250612979565b6001836020036101000a038019825116818451168082178552505050505050905001915050908152602001604051809103902060020160149054906101000a900460ff1660038111156129eb57fe5b9050919050565b60056020528060005260406000206000915054906101000a900473ffffffffffffffffffffffffffffffffffffffff1681565b60046020528060005260406000206000915090508054600181600116156101000203166002900480601f016020809104026020016040519081016040528092919081815260200182805460018160011615610100020316600290048015612acd5780601f10612aa257610100808354040283529160200191612acd565b820191906000526020600020905b815481529060010190602001808311612ab057829003601f168201915b505050505081565b60076020528160005260406000208181548110612aee57fe5b90600052602060002001600091509150508054600181600116156101000203166002900480601f016020809104026020016040519081016040528092919081815260200182805460018160011615610100020316600290048015612b935780601f10612b6857610100808354040283529160200191612b93565b820191906000526020600020905b815481529060010190602001808311612b7657829003601f168201915b505050505081565b6009818051602081018201805184825260208301602085012081835280955050505050506000915090505481565b600b818051602081018201805184825260208301602085012081835280955050505050506000915054906101000a900473ffffffffffffffffffffffffffffffffffffffff1681565b60606002836040518082805190602001908083835b60208310612c4a5780518252602082019150602081019050602083039250612c27565b6001836020036101000a038019825116818451168082178552505050505050905001915050908152602001604051809103902060030160008373ffffffffffffffffffffffffffffffffffffffff1673ffffffffffffffffffffffffffffffffffffffff1681526020019081526020016000208054600181600116156101000203166002900480601f016020809104026020016040519081016040528092919081815260200182805460018160011615610100020316600290048015612d515780601f10612d2657610100808354040283529160200191612d51565b820191906000526020600020905b815481529060010190602001808311612d3457829003601f168201915b5050505050905092915050565b3460016000612d6b613913565b73ffffffffffffffffffffffffffffffffffffffff1673ffffffffffffffffffffffffffffffffffffffff168152602001908152602001600020540160016000612db3613913565b73ffffffffffffffffffffffffffffffffffffffff1673ffffffffffffffffffffffffffffffffffffffff16815260200190815260200160002081905550565b60066020528160005260406000208181548110612e0c57fe5b90600052602060002001600091509150508054600181600116156101000203166002900480601f016020809104026020016040519081016040528092919081815260200182805460018160011615610100020316600290048015612eb15780601f10612e8657610100808354040283529160200191612eb1565b820191906000526020600020905b815481529060010190602001808311612e9457829003601f168201915b505050505081565b600281805160208101820180518482526020830160208501208183528095505050505050600091509050806000018054600181600116156101000203166002900480601f016020809104026020016040519081016040528092919081815260200182805460018160011615610100020316600290048015612f7b5780601f10612f5057610100808354040283529160200191612f7b565b820191906000526020600020905b815481529060010190602001808311612f5e57829003601f168201915b5050505050908060010160009054906101000a900473ffffffffffffffffffffffffffffffffffffffff16908060020160009054906101000a900473ffffffffffffffffffffffffffffffffffffffff16908060020160149054906101000a900460ff16905084565b600a818051602081018201805184825260208301602085012081835280955050505050506000915054906101000a900460ff1681565b6130248282613329565b5050565b60008060009054906101000a900473ffffffffffffffffffffffffffffffffffffffff16905090565b6130a0848484848080601f016020809104026020016040519081016040528093929190818152602001838380828437600081840152601f19601f8201169050808301925050505050505061490b565b613112576040517f08c379a00000000000000000000000000000000000000000000000000000000081526004018080602001828103825260178152602001807f5369676e6174757265206973206e6f742076616c69642e00000000000000000081525060200191505060405180910390fd5b61311c8484614a31565b50505050565b6008818051602081018201805184825260208301602085012081835280955050505050506000915090505481565b60006002826040518082805190602001908083835b602083106131885780518252602082019150602081019050602083039250613165565b6001836020036101000a038019825116818451168082178552505050505050905001915050908152602001604051809103902060010160009054906101000a900473ffffffffffffffffffffffffffffffffffffffff169050919050565b6000806132e58585600360048111156131fb57fe5b30604051602001808573ffffffffffffffffffffffffffffffffffffffff1673ffffffffffffffffffffffffffffffffffffffff1660601b815260140184805190602001908083835b602083106132675780518252602082019150602081019050602083039250613244565b6001836020036101000a0380198251168184511680821785525050505050509050018381526020018273ffffffffffffffffffffffffffffffffffffffff1673ffffffffffffffffffffffffffffffffffffffff1660601b815260140194505050505060405160208183030381529060405280519060200120614d52565b90508473ffffffffffffffffffffffffffffffffffffffff166133088285614daa565b73ffffffffffffffffffffffffffffffffffffffff16149150509392505050565b8160405160200180600001905060405160208183030381529060405280519060200120600460008373ffffffffffffffffffffffffffffffffffffffff1673ffffffffffffffffffffffffffffffffffffffff16815260200190815260200160002060405160200180828054600181600116156101000203166002900480156133e95780601f106133c75761010080835404028352918201916133e9565b820191906000526020600020905b8154815290600101906020018083116133d5575b50509150506040516020818303038152906040528051906020012014613477576040517f08c379a00000000000000000000000000000000000000000000000000000000081526004018080602001828103825260168152602001807f4163636f756e7420616c72656164792065786973742e0000000000000000000081525060200191505060405180910390fd5b81600460008573ffffffffffffffffffffffffffffffffffffffff1673ffffffffffffffffffffffffffffffffffffffff16815260200190815260200160002090805190602001906134ca9291906150ae565b50505050565b600080613622868686600260048111156134e657fe5b306040516020018086805190602001908083835b6020831061351d57805182526020820191506020810190506020830392506134fa565b6001836020036101000a03801982511681845116808217855250505050505090500185805190602001908083835b6020831061356e578051825260208201915060208101905060208303925061354b565b6001836020036101000a0380198251168184511680821785525050505050509050018473ffffffffffffffffffffffffffffffffffffffff1673ffffffffffffffffffffffffffffffffffffffff1660601b81526014018381526020018273ffffffffffffffffffffffffffffffffffffffff1673ffffffffffffffffffffffffffffffffffffffff1660601b81526014019550505050505060405160208183030381529060405280519060200120614d52565b90508373ffffffffffffffffffffffffffffffffffffffff166136458285614daa565b73ffffffffffffffffffffffffffffffffffffffff1614915050949350505050565b826003816040518082805190602001908083835b6020831061369e578051825260208201915060208101905060208303925061367b565b6001836020036101000a038019825116818451168082178552505050505050905001915050908152602001604051809103902060009054906101000a900460ff16613751576040517f08c379a00000000000000000000000000000000000000000000000000000000081526004018080602001828103825260168152602001807f446f63756d656e74206469646e27742065786973742e0000000000000000000081525060200191505060405180910390fd5b60006002856040518082805190602001908083835b602083106137895780518252602082019150602081019050602083039250613766565b6001836020036101000a03801982511681845116808217855250505050505090500191505090815260200160405180910390209050600260038111156137cb57fe5b8160020160149054906101000a900460ff1660038111156137e857fe5b1461383e576040517f08c379a000000000000000000000000000000000000000000000000000000000815260040180806020018281038252602e815260200180615262602e913960400191505060405180910390fd5b8273ffffffffffffffffffffffffffffffffffffffff168160020160009054906101000a900473ffffffffffffffffffffffffffffffffffffffff1673ffffffffffffffffffffffffffffffffffffffff16146138e6576040517f08c379a000000000000000000000000000000000000000000000000000000000815260040180806020018281038252603a8152602001806151d4603a913960400191505060405180910390fd5b60038160020160146101000a81548160ff0219169083600381111561390757fe5b02179055505050505050565b6000601860003690501015801561395c575061392d613028565b73ffffffffffffffffffffffffffffffffffffffff163373ffffffffffffffffffffffffffffffffffffffff16145b156139be576139b76000368080601f016020809104026020016040519081016040528093929190818152602001838380828437600081840152601f19601f820116905080830192505050505050506014600036905003614e31565b90506139c2565b3390505b90565b600080613b4e87878787600160048111156139dc57fe5b306040516020018087805190602001908083835b60208310613a1357805182526020820191506020810190506020830392506139f0565b6001836020036101000a0380198251168184511680821785525050505050509050018673ffffffffffffffffffffffffffffffffffffffff1673ffffffffffffffffffffffffffffffffffffffff1660601b81526014018573ffffffffffffffffffffffffffffffffffffffff1673ffffffffffffffffffffffffffffffffffffffff1660601b815260140184805190602001908083835b60208310613ace5780518252602082019150602081019050602083039250613aab565b6001836020036101000a0380198251168184511680821785525050505050509050018381526020018273ffffffffffffffffffffffffffffffffffffffff1673ffffffffffffffffffffffffffffffffffffffff1660601b8152601401965050505050505060405160208183030381529060405280519060200120614d52565b90508573ffffffffffffffffffffffffffffffffffffffff16613b718285614daa565b73ffffffffffffffffffffffffffffffffffffffff161491505095945050505050565b836003816040518082805190602001908083835b60208310613bcb5780518252602082019150602081019050602083039250613ba8565b6001836020036101000a038019825116818451168082178552505050505050905001915050908152602001604051809103902060009054906101000a900460ff16613c7e576040517f08c379a00000000000000000000000000000000000000000000000000000000081526004018080602001828103825260168152602001807f446f63756d656e74206469646e27742065786973742e0000000000000000000081525060200191505060405180910390fd5b84848073ffffffffffffffffffffffffffffffffffffffff166002836040518082805190602001908083835b60208310613ccd5780518252602082019150602081019050602083039250613caa565b6001836020036101000a038019825116818451168082178552505050505050905001915050908152602001604051809103902060010160009054906101000a900473ffffffffffffffffffffffffffffffffffffffff1673ffffffffffffffffffffffffffffffffffffffff1614613d90576040517f08c379a000000000000000000000000000000000000000000000000000000000815260040180806020018281038252603281526020018061520e6032913960400191505060405180910390fd5b8460405160200180600001905060405160208183030381529060405280519060200120600460008373ffffffffffffffffffffffffffffffffffffffff1673ffffffffffffffffffffffffffffffffffffffff1681526020019081526020016000206040516020018082805460018160011615610100020316600290048015613e505780601f10613e2e576101008083540402835291820191613e50565b820191906000526020600020905b815481529060010190602001808311613e3c575b5050915050604051602081830303815290604052805190602001201415613edf576040517f08c379a00000000000000000000000000000000000000000000000000000000081526004018080602001828103825260158152602001807f4163636f756e74206469646e27742065786973742e000000000000000000000081525060200191505060405180910390fd5b60006002896040518082805190602001908083835b60208310613f175780518252602082019150602081019050602083039250613ef4565b6001836020036101000a0380198251168184511680821785525050505050509050019150509081526020016040518091039020905060026003811115613f5957fe5b8160020160149054906101000a900460ff166003811115613f7657fe5b1415613fcd576040517f08c379a000000000000000000000000000000000000000000000000000000000815260040180806020018281038252604d8152602001806152b2604d913960600191505060405180910390fd5b868160020160006101000a81548173ffffffffffffffffffffffffffffffffffffffff021916908373ffffffffffffffffffffffffffffffffffffffff160217905550858160030160008973ffffffffffffffffffffffffffffffffffffffff1673ffffffffffffffffffffffffffffffffffffffff16815260200190815260200160002090805190602001906140659291906150ae565b5060028160020160146101000a81548160ff0219169083600381111561408757fe5b0217905550600760008873ffffffffffffffffffffffffffffffffffffffff1673ffffffffffffffffffffffffffffffffffffffff168152602001908152602001600020899080600181540180825580915050600190039060005260206000200160009091909190915090805190602001906141049291906150ae565b50505050505050505050565b6000806142628686866000600481111561412657fe5b306040516020018086805190602001908083835b6020831061415d578051825260208201915060208101905060208303925061413a565b6001836020036101000a03801982511681845116808217855250505050505090500185805190602001908083835b602083106141ae578051825260208201915060208101905060208303925061418b565b6001836020036101000a0380198251168184511680821785525050505050509050018473ffffffffffffffffffffffffffffffffffffffff1673ffffffffffffffffffffffffffffffffffffffff1660601b81526014018381526020018273ffffffffffffffffffffffffffffffffffffffff1673ffffffffffffffffffffffffffffffffffffffff1660601b81526014019550505050505060405160208183030381529060405280519060200120614d52565b90508373ffffffffffffffffffffffffffffffffffffffff166142858285614daa565b73ffffffffffffffffffffffffffffffffffffffff1614915050949350505050565b826003816040518082805190602001908083835b602083106142de57805182526020820191506020810190506020830392506142bb565b6001836020036101000a038019825116818451168082178552505050505050905001915050908152602001604051809103902060009054906101000a900460ff1615614392576040517f08c379a00000000000000000000000000000000000000000000000000000000081526004018080602001828103825260178152602001807f446f63756d656e7420616c72656164792065786973742e00000000000000000081525060200191505060405180910390fd5b8160405160200180600001905060405160208183030381529060405280519060200120600460008373ffffffffffffffffffffffffffffffffffffffff1673ffffffffffffffffffffffffffffffffffffffff16815260200190815260200160002060405160200180828054600181600116156101000203166002900480156144525780601f10614430576101008083540402835291820191614452565b820191906000526020600020905b81548152906001019060200180831161443e575b50509150506040516020818303038152906040528051906020012014156144e1576040517f08c379a00000000000000000000000000000000000000000000000000000000081526004018080602001828103825260158152602001807f4163636f756e74206469646e27742065786973742e000000000000000000000081525060200191505060405180910390fd5b60405180608001604052808681526020018473ffffffffffffffffffffffffffffffffffffffff168152602001600073ffffffffffffffffffffffffffffffffffffffff1681526020016001600381111561453857fe5b8152506002866040518082805190602001908083835b60208310614571578051825260208201915060208101905060208303925061454e565b6001836020036101000a038019825116818451168082178552505050505050905001915050908152602001604051809103902060008201518160000190805190602001906145c092919061512e565b5060208201518160010160006101000a81548173ffffffffffffffffffffffffffffffffffffffff021916908373ffffffffffffffffffffffffffffffffffffffff16021790555060408201518160020160006101000a81548173ffffffffffffffffffffffffffffffffffffffff021916908373ffffffffffffffffffffffffffffffffffffffff16021790555060608201518160020160146101000a81548160ff0219169083600381111561467357fe5b0217905550905050836002866040518082805190602001908083835b602083106146b2578051825260208201915060208101905060208303925061468f565b6001836020036101000a038019825116818451168082178552505050505050905001915050908152602001604051809103902060030160008573ffffffffffffffffffffffffffffffffffffffff1673ffffffffffffffffffffffffffffffffffffffff16815260200190815260200160002090805190602001906147389291906150ae565b5060016003866040518082805190602001908083835b60208310614771578051825260208201915060208101905060208303925061474e565b6001836020036101000a038019825116818451168082178552505050505050905001915050908152602001604051809103902060006101000a81548160ff021916908315150217905550600660008473ffffffffffffffffffffffffffffffffffffffff1673ffffffffffffffffffffffffffffffffffffffff168152602001908152602001600020859080600181540180825580915050600190039060005260206000200160009091909190915090805190602001906148339291906150ae565b507f144ced1a295f096707ac7e7d8aa1a5a89bc1fd73ea6c8d75de34bba0fe0b132e858460405180806020018373ffffffffffffffffffffffffffffffffffffffff1673ffffffffffffffffffffffffffffffffffffffff168152602001828103825284818151815260200191508051906020019080838360005b838110156148c95780820151818401526020810190506148ae565b50505050905090810190601f1680156148f65780820380516001836020036101000a031916815260200191505b50935050505060405180910390a15050505050565b6000806149ed858560048081111561491f57fe5b30604051602001808573ffffffffffffffffffffffffffffffffffffffff1673ffffffffffffffffffffffffffffffffffffffff1660601b81526014018473ffffffffffffffffffffffffffffffffffffffff1673ffffffffffffffffffffffffffffffffffffffff1660601b81526014018381526020018273ffffffffffffffffffffffffffffffffffffffff1673ffffffffffffffffffffffffffffffffffffffff1660601b815260140194505050505060405160208183030381529060405280519060200120614d52565b90508473ffffffffffffffffffffffffffffffffffffffff16614a108285614daa565b73ffffffffffffffffffffffffffffffffffffffff16149150509392505050565b8160405160200180600001905060405160208183030381529060405280519060200120600460008373ffffffffffffffffffffffffffffffffffffffff1673ffffffffffffffffffffffffffffffffffffffff1681526020019081526020016000206040516020018082805460018160011615610100020316600290048015614af15780601f10614acf576101008083540402835291820191614af1565b820191906000526020600020905b815481529060010190602001808311614add575b5050915050604051602081830303815290604052805190602001201415614b80576040517f08c379a00000000000000000000000000000000000000000000000000000000081526004018080602001828103825260158152602001807f4163636f756e74206469646e27742065786973742e000000000000000000000081525060200191505060405180910390fd5b8160405160200180600001905060405160208183030381529060405280519060200120600460008373ffffffffffffffffffffffffffffffffffffffff1673ffffffffffffffffffffffffffffffffffffffff1681526020019081526020016000206040516020018082805460018160011615610100020316600290048015614c405780601f10614c1e576101008083540402835291820191614c40565b820191906000526020600020905b815481529060010190602001808311614c2c575b50509150506040516020818303038152906040528051906020012014614cce576040517f08c379a00000000000000000000000000000000000000000000000000000000081526004018080602001828103825260168152602001807f4163636f756e7420616c72656164792065786973742e0000000000000000000081525060200191505060405180910390fd5b83600560008573ffffffffffffffffffffffffffffffffffffffff1673ffffffffffffffffffffffffffffffffffffffff16815260200190815260200160002060006101000a81548173ffffffffffffffffffffffffffffffffffffffff021916908373ffffffffffffffffffffffffffffffffffffffff16021790555050505050565b60008160405160200180807f19457468657265756d205369676e6564204d6573736167653a0a333200000000815250601c01828152602001915050604051602081830303815290604052805190602001209050919050565b600080600080614db985614e83565b92509250925060018684848460405160008152602001604052604051808581526020018460ff1660ff1681526020018381526020018281526020019450505050506020604051602081039080840390855afa158015614e1c573d6000803e3d6000fd5b50505060206040510351935050505092915050565b60006014820183511015614e5857614e57614e526004855160148601614fa8565b615047565b5b60148201915073ffffffffffffffffffffffffffffffffffffffff8284015116905080905092915050565b60008060006041845114614e9657600080fd5b6020840151915060408401519050606084015160001a92507f7fffffffffffffffffffffffffffffff5d576e7357a4501ddfe92f46681b20a08160001c1115614f2a576040517f08c379a00000000000000000000000000000000000000000000000000000000081526004018080602001828103825260228152602001806152406022913960400191505060405180910390fd5b601b8360ff1614158015614f425750601c8360ff1614155b15614f98576040517f08c379a00000000000000000000000000000000000000000000000000000000081526004018080602001828103825260228152602001806152906022913960400191505060405180910390fd5b8282829250925092509193909250565b6060632800659560e01b84848460405160240180846007811115614fc857fe5b60ff1681526020018381526020018281526020019350505050604051602081830303815290604052907bffffffffffffffffffffffffffffffffffffffffffffffffffffffff19166020820180517bffffffffffffffffffffffffffffffffffffffffffffffffffffffff838183161783525050505090509392505050565b805160208201fd5b604051806080016040528060608152602001600073ffffffffffffffffffffffffffffffffffffffff168152602001600073ffffffffffffffffffffffffffffffffffffffff168152602001600060038111156150a857fe5b81525090565b828054600181600116156101000203166002900490600052602060002090601f016020900481019282601f106150ef57805160ff191683800117855561511d565b8280016001018555821561511d579182015b8281111561511c578251825591602001919060010190615101565b5b50905061512a91906151ae565b5090565b828054600181600116156101000203166002900490600052602060002090601f016020900481019282601f1061516f57805160ff191683800117855561519d565b8280016001018555821561519d579182015b8281111561519c578251825591602001919060010190615181565b5b5090506151aa91906151ae565b5090565b6151d091905b808211156151cc5760008160009055506001016151b4565b5090565b9056fe4f6e6c79207468652061737369676e207369676e656520627920746865206f776e65722063616e207369676e2074686520646f63756d656e742e4f6e6c7920746865206f776e6572206f662074686520646f63756d656e742063616e20646f207468697320616374696f6e2e45434453413a20696e76616c6964207369676e6174757265202773272076616c7565446f63756d656e742073746174652069736e277420696e205369676e696e672050656e64696e672053746174652e45434453413a20696e76616c6964207369676e6174757265202776272076616c756543616e6e6f742061736b20666f7220616e6f74686572207369676e617475726520696620746865206c617374207369676e6565206469646e2074207369676e2074686520646f63756d656e742ea26469706673582212207d9b6838e062187c1b12b9d930be1d0da40ed9034f4f27fc97f156474d98e5c464736f6c63430006030033608060405234801561001057600080fd5b50615519806100206000396000f3fe6080604052600436106101c25760003560e01c8063699a2033116100f7578063b3dd697b11610095578063ce1b815f11610064578063ce1b815f14611816578063e12b6c1d1461186d578063e5b0b90c14611933578063ff86e28c14611a0f576101c2565b8063b3dd697b146113aa578063b5066b6114611566578063be0edc8314611646578063cd3f18db1461172e576101c2565b80638173c1ee116100d15780638173c1ee146110fa5780638e0639921461125b57806391a62b2514611265578063a4454340146112d6576101c2565b8063699a203314610e4257806370a13b4814610f165780637547b64e14610ff2576101c2565b806330980857116101645780634c969a341161013e5780634c969a3414610abb5780635767770914610c0b57806359328eb514610ce75780635e5c06e214610d78576101c2565b806330980857146107af57806332285bda1461080a57806349b985571461094b576101c2565b806324da2a82116101a057806324da2a82146104e357806326ec90ae146105a957806327e235e3146106f95780632a97fa771461075e576101c2565b8063078e84f4146101c7578063197c9fc5146102c257806324530995146103a2575b600080fd5b3480156101d357600080fd5b506102c0600480360360608110156101ea57600080fd5b81019080803573ffffffffffffffffffffffffffffffffffffffff1690602001909291908035906020019064010000000081111561022757600080fd5b82018360208201111561023957600080fd5b8035906020019184600183028401116401000000008311171561025b57600080fd5b90919293919293908035906020019064010000000081111561027c57600080fd5b82018360208201111561028e57600080fd5b803590602001918460018302840111640100000000831117156102b057600080fd5b9091929391929390505050611b17565b005b3480156102ce57600080fd5b50610388600480360360208110156102e557600080fd5b810190808035906020019064010000000081111561030257600080fd5b82018360208201111561031457600080fd5b8035906020019184600183028401116401000000008311171561033657600080fd5b91908080601f016020809104026020016040519081016040528093929190818152602001838380828437600081840152601f19601f820116905080830192505050505050509192919290505050611c71565b604051808215151515815260200191505060405180910390f35b3480156103ae57600080fd5b50610468600480360360208110156103c557600080fd5b81019080803590602001906401000000008111156103e257600080fd5b8201836020820111156103f457600080fd5b8035906020019184600183028401116401000000008311171561041657600080fd5b91908080601f016020809104026020016040519081016040528093929190818152602001838380828437600081840152601f19601f820116905080830192505050505050509192919290505050611ca7565b6040518080602001828103825283818151815260200191508051906020019080838360005b838110156104a857808201518184015260208101905061048d565b50505050905090810190601f1680156104d55780820380516001836020036101000a031916815260200191505b509250505060405180910390f35b3480156104ef57600080fd5b506105a76004803603606081101561050657600080fd5b810190808035906020019064010000000081111561052357600080fd5b82018360208201111561053557600080fd5b8035906020019184600183028401116401000000008311171561055757600080fd5b9091929391929390803573ffffffffffffffffffffffffffffffffffffffff169060200190929190803573ffffffffffffffffffffffffffffffffffffffff169060200190929190505050611d6d565b005b3480156105b557600080fd5b506106f7600480360360808110156105cc57600080fd5b81019080803590602001906401000000008111156105e957600080fd5b8201836020820111156105fb57600080fd5b8035906020019184600183028401116401000000008311171561061d57600080fd5b90919293919293908035906020019064010000000081111561063e57600080fd5b82018360208201111561065057600080fd5b8035906020019184600183028401116401000000008311171561067257600080fd5b9091929391929390803573ffffffffffffffffffffffffffffffffffffffff169060200190929190803590602001906401000000008111156106b357600080fd5b8201836020820111156106c557600080fd5b803590602001918460018302840111640100000000831117156106e757600080fd5b90919293919293905050506120bb565b005b34801561070557600080fd5b506107486004803603602081101561071c57600080fd5b81019080803573ffffffffffffffffffffffffffffffffffffffff1690602001909291905050506122a1565b6040518082815260200191505060405180910390f35b34801561076a57600080fd5b506107ad6004803603602081101561078157600080fd5b81019080803573ffffffffffffffffffffffffffffffffffffffff1690602001909291905050506122b9565b005b3480156107bb57600080fd5b50610808600480360360408110156107d257600080fd5b8101908080359060200190929190803573ffffffffffffffffffffffffffffffffffffffff16906020019092919050505061243f565b005b34801561081657600080fd5b506108d06004803603602081101561082d57600080fd5b810190808035906020019064010000000081111561084a57600080fd5b82018360208201111561085c57600080fd5b8035906020019184600183028401116401000000008311171561087e57600080fd5b91908080601f016020809104026020016040519081016040528093929190818152602001838380828437600081840152601f19601f82011690508083019250505050505050919291929050505061264e565b6040518080602001828103825283818151815260200191508051906020019080838360005b838110156109105780820151818401526020810190506108f5565b50505050905090810190601f16801561093d5780820380516001836020036101000a031916815260200191505b509250505060405180910390f35b34801561095757600080fd5b50610ab9600480360360a081101561096e57600080fd5b810190808035906020019064010000000081111561098b57600080fd5b82018360208201111561099d57600080fd5b803590602001918460018302840111640100000000831117156109bf57600080fd5b9091929391929390803573ffffffffffffffffffffffffffffffffffffffff169060200190929190803573ffffffffffffffffffffffffffffffffffffffff16906020019092919080359060200190640100000000811115610a2057600080fd5b820183602082011115610a3257600080fd5b80359060200191846001830284011164010000000083111715610a5457600080fd5b909192939192939080359060200190640100000000811115610a7557600080fd5b820183602082011115610a8757600080fd5b80359060200191846001830284011164010000000083111715610aa957600080fd5b9091929391929390505050612714565b005b348015610ac757600080fd5b50610c0960048036036080811015610ade57600080fd5b8101908080359060200190640100000000811115610afb57600080fd5b820183602082011115610b0d57600080fd5b80359060200191846001830284011164010000000083111715610b2f57600080fd5b909192939192939080359060200190640100000000811115610b5057600080fd5b820183602082011115610b6257600080fd5b80359060200191846001830284011164010000000083111715610b8457600080fd5b9091929391929390803573ffffffffffffffffffffffffffffffffffffffff16906020019092919080359060200190640100000000811115610bc557600080fd5b820183602082011115610bd757600080fd5b80359060200191846001830284011164010000000083111715610bf957600080fd5b90919293919293905050506128fd565b005b348015610c1757600080fd5b50610cd160048036036020811015610c2e57600080fd5b8101908080359060200190640100000000811115610c4b57600080fd5b820183602082011115610c5d57600080fd5b80359060200191846001830284011164010000000083111715610c7f57600080fd5b91908080601f016020809104026020016040519081016040528093929190818152602001838380828437600081840152601f19601f820116905080830192505050505050509192919290505050612ae3565b6040518082815260200191505060405180910390f35b348015610cf357600080fd5b50610d3660048036036020811015610d0a57600080fd5b81019080803573ffffffffffffffffffffffffffffffffffffffff169060200190929190505050612b71565b604051808273ffffffffffffffffffffffffffffffffffffffff1673ffffffffffffffffffffffffffffffffffffffff16815260200191505060405180910390f35b348015610d8457600080fd5b50610dc760048036036020811015610d9b57600080fd5b81019080803573ffffffffffffffffffffffffffffffffffffffff169060200190929190505050612ba4565b6040518080602001828103825283818151815260200191508051906020019080838360005b83811015610e07578082015181840152602081019050610dec565b50505050905090810190601f168015610e345780820380516001836020036101000a031916815260200191505b509250505060405180910390f35b348015610e4e57600080fd5b50610e9b60048036036040811015610e6557600080fd5b81019080803573ffffffffffffffffffffffffffffffffffffffff16906020019092919080359060200190929190505050612c54565b6040518080602001828103825283818151815260200191508051906020019080838360005b83811015610edb578082015181840152602081019050610ec0565b50505050905090810190601f168015610f085780820380516001836020036101000a031916815260200191505b509250505060405180910390f35b348015610f2257600080fd5b50610fdc60048036036020811015610f3957600080fd5b8101908080359060200190640100000000811115610f5657600080fd5b820183602082011115610f6857600080fd5b80359060200191846001830284011164010000000083111715610f8a57600080fd5b91908080601f016020809104026020016040519081016040528093929190818152602001838380828437600081840152601f19601f820116905080830192505050505050509192919290505050612d1a565b6040518082815260200191505060405180910390f35b348015610ffe57600080fd5b506110b86004803603602081101561101557600080fd5b810190808035906020019064010000000081111561103257600080fd5b82018360208201111561104457600080fd5b8035906020019184600183028401116401000000008311171561106657600080fd5b91908080601f016020809104026020016040519081016040528093929190818152602001838380828437600081840152601f19601f820116905080830192505050505050509192919290505050612d48565b604051808273ffffffffffffffffffffffffffffffffffffffff1673ffffffffffffffffffffffffffffffffffffffff16815260200191505060405180910390f35b34801561110657600080fd5b506111e06004803603604081101561111d57600080fd5b810190808035906020019064010000000081111561113a57600080fd5b82018360208201111561114c57600080fd5b8035906020019184600183028401116401000000008311171561116e57600080fd5b91908080601f016020809104026020016040519081016040528093929190818152602001838380828437600081840152601f19601f820116905080830192505050505050509192919290803573ffffffffffffffffffffffffffffffffffffffff169060200190929190505050612d91565b6040518080602001828103825283818151815260200191508051906020019080838360005b83811015611220578082015181840152602081019050611205565b50505050905090810190601f16801561124d5780820380516001836020036101000a031916815260200191505b509250505060405180910390f35b611263612edd565b005b34801561127157600080fd5b506112d46004803603604081101561128857600080fd5b81019080803573ffffffffffffffffffffffffffffffffffffffff169060200190929190803573ffffffffffffffffffffffffffffffffffffffff169060200190929190505050612f72565b005b3480156112e257600080fd5b5061132f600480360360408110156112f957600080fd5b81019080803573ffffffffffffffffffffffffffffffffffffffff16906020019092919080359060200190929190505050612f80565b6040518080602001828103825283818151815260200191508051906020019080838360005b8381101561136f578082015181840152602081019050611354565b50505050905090810190601f16801561139c5780820380516001836020036101000a031916815260200191505b509250505060405180910390f35b3480156113b657600080fd5b50611470600480360360208110156113cd57600080fd5b81019080803590602001906401000000008111156113ea57600080fd5b8201836020820111156113fc57600080fd5b8035906020019184600183028401116401000000008311171561141e57600080fd5b91908080601f016020809104026020016040519081016040528093929190818152602001838380828437600081840152601f19601f820116905080830192505050505050509192919290505050613046565b60405180806020018573ffffffffffffffffffffffffffffffffffffffff1673ffffffffffffffffffffffffffffffffffffffff1681526020018473ffffffffffffffffffffffffffffffffffffffff1673ffffffffffffffffffffffffffffffffffffffff1681526020018360038111156114e857fe5b60ff168152602001828103825286818151815260200191508051906020019080838360005b8381101561152857808201518184015260208101905061150d565b50505050905090810190601f1680156115555780820380516001836020036101000a031916815260200191505b509550505050505060405180910390f35b34801561157257600080fd5b5061162c6004803603602081101561158957600080fd5b81019080803590602001906401000000008111156115a657600080fd5b8201836020820111156115b857600080fd5b803590602001918460018302840111640100000000831117156115da57600080fd5b91908080601f016020809104026020016040519081016040528093929190818152602001838380828437600081840152601f19601f820116905080830192505050505050509192919290505050613171565b604051808215151515815260200191505060405180910390f35b34801561165257600080fd5b5061172c6004803603604081101561166957600080fd5b81019080803573ffffffffffffffffffffffffffffffffffffffff169060200190929190803590602001906401000000008111156116a657600080fd5b8201836020820111156116b857600080fd5b803590602001918460018302840111640100000000831117156116da57600080fd5b91908080601f016020809104026020016040519081016040528093929190818152602001838380828437600081840152601f19601f8201169050808301925050505050505091929192905050506131a7565b005b34801561173a57600080fd5b506118146004803603604081101561175157600080fd5b81019080803573ffffffffffffffffffffffffffffffffffffffff1690602001909291908035906020019064010000000081111561178e57600080fd5b8201836020820111156117a057600080fd5b803590602001918460018302840111640100000000831117156117c257600080fd5b91908080601f016020809104026020016040519081016040528093929190818152602001838380828437600081840152601f19601f8201169050808301925050505050505091929192905050506131b5565b005b34801561182257600080fd5b5061182b61320d565b604051808273ffffffffffffffffffffffffffffffffffffffff1673ffffffffffffffffffffffffffffffffffffffff16815260200191505060405180910390f35b34801561187957600080fd5b506119316004803603606081101561189057600080fd5b81019080803573ffffffffffffffffffffffffffffffffffffffff169060200190929190803573ffffffffffffffffffffffffffffffffffffffff169060200190929190803590602001906401000000008111156118ed57600080fd5b8201836020820111156118ff57600080fd5b8035906020019184600183028401116401000000008311171561192157600080fd5b9091929391929390505050613236565b005b34801561193f57600080fd5b506119f96004803603602081101561195657600080fd5b810190808035906020019064010000000081111561197357600080fd5b82018360208201111561198557600080fd5b803590602001918460018302840111640100000000831117156119a757600080fd5b91908080601f016020809104026020016040519081016040528093929190818152602001838380828437600081840152601f19601f820116905080830192505050505050509192919290505050613307565b6040518082815260200191505060405180910390f35b348015611a1b57600080fd5b50611ad560048036036020811015611a3257600080fd5b8101908080359060200190640100000000811115611a4f57600080fd5b820183602082011115611a6157600080fd5b80359060200191846001830284011164010000000083111715611a8357600080fd5b91908080601f016020809104026020016040519081016040528093929190818152602001838380828437600081840152601f19601f820116905080830192505050505050509192919290505050613335565b604051808273ffffffffffffffffffffffffffffffffffffffff1673ffffffffffffffffffffffffffffffffffffffff16815260200191505060405180910390f35b611baa8585858080601f016020809104026020016040519081016040528093929190818152602001838380828437600081840152601f19601f8201169050808301925050505050505084848080601f016020809104026020016040519081016040528093929190818152602001838380828437600081840152601f19601f820116905080830192505050505050506133cb565b611c1c576040517f08c379a00000000000000000000000000000000000000000000000000000000081526004018080602001828103825260178152602001807f5369676e6174757265206973206e6f742076616c69642e00000000000000000081525060200191505060405180910390fd5b611c6a8585858080601f016020809104026020016040519081016040528093929190818152602001838380828437600081840152601f19601f8201169050808301925050505050505061350e565b5050505050565b6003818051602081018201805184825260208301602085012081835280955050505050506000915054906101000a900460ff1681565b600c818051602081018201805184825260208301602085012081835280955050505050506000915090508054600181600116156101000203166002900480601f016020809104026020016040519081016040528092919081815260200182805460018160011615610100020316600290048015611d655780601f10611d3a57610100808354040283529160200191611d65565b820191906000526020600020905b815481529060010190602001808311611d4857829003601f168201915b505050505081565b83838080601f016020809104026020016040519081016040528093929190818152602001838380828437600081840152601f19601f82011690508083019250505050505050828073ffffffffffffffffffffffffffffffffffffffff166002836040518082805190602001908083835b60208310611e005780518252602082019150602081019050602083039250611ddd565b6001836020036101000a038019825116818451168082178552505050505050905001915050908152602001604051809103902060010160009054906101000a900473ffffffffffffffffffffffffffffffffffffffff1673ffffffffffffffffffffffffffffffffffffffff1614611ec3576040517f08c379a00000000000000000000000000000000000000000000000000000000081526004018080602001828103825260328152602001806153f36032913960400191505060405180910390fd5b611ecb615234565b600287876040518083838082843780830192505050925050509081526020016040518091039020604051806080016040529081600082018054600181600116156101000203166002900480601f016020809104026020016040519081016040528092919081815260200182805460018160011615610100020316600290048015611f965780601f10611f6b57610100808354040283529160200191611f96565b820191906000526020600020905b815481529060010190602001808311611f7957829003601f168201915b505050505081526020016001820160009054906101000a900473ffffffffffffffffffffffffffffffffffffffff1673ffffffffffffffffffffffffffffffffffffffff1673ffffffffffffffffffffffffffffffffffffffff1681526020016002820160009054906101000a900473ffffffffffffffffffffffffffffffffffffffff1673ffffffffffffffffffffffffffffffffffffffff1673ffffffffffffffffffffffffffffffffffffffff1681526020016002820160149054906101000a900460ff16600381111561206957fe5b600381111561207457fe5b81525050905083816020019073ffffffffffffffffffffffffffffffffffffffff16908173ffffffffffffffffffffffffffffffffffffffff168152505050505050505050565b61219387878080601f016020809104026020016040519081016040528093929190818152602001838380828437600081840152601f19601f8201169050808301925050505050505086868080601f016020809104026020016040519081016040528093929190818152602001838380828437600081840152601f19601f820116905080830192505050505050508585858080601f016020809104026020016040519081016040528093929190818152602001838380828437600081840152601f19601f820116905080830192505050505050506136b5565b612205576040517f08c379a00000000000000000000000000000000000000000000000000000000081526004018080602001828103825260178152602001807f5369676e6174757265206973206e6f742076616c69642e00000000000000000081525060200191505060405180910390fd5b61229887878080601f016020809104026020016040519081016040528093929190818152602001838380828437600081840152601f19601f8201169050808301925050505050505086868080601f016020809104026020016040519081016040528093929190818152602001838380828437600081840152601f19601f820116905080830192505050505050508561384c565b50505050505050565b60016020528060005260406000206000915090505481565b6122c1613af8565b73ffffffffffffffffffffffffffffffffffffffff16600b60405180807f4f776e65720000000000000000000000000000000000000000000000000000008152506005019050908152602001604051809103902060009054906101000a900473ffffffffffffffffffffffffffffffffffffffff1673ffffffffffffffffffffffffffffffffffffffff16146123bf576040517f08c379a00000000000000000000000000000000000000000000000000000000081526004018080602001828103825260208152602001807f4f776e61626c653a2063616c6c6572206973206e6f7420746865206f776e657281525060200191505060405180910390fd5b80600b60405180807f5061796d617374657200000000000000000000000000000000000000000000008152506009019050908152602001604051809103902060006101000a81548173ffffffffffffffffffffffffffffffffffffffff021916908373ffffffffffffffffffffffffffffffffffffffff16021790555050565b612447613af8565b73ffffffffffffffffffffffffffffffffffffffff16600b60405180807f5061796d617374657200000000000000000000000000000000000000000000008152506009019050908152602001604051809103902060009054906101000a900473ffffffffffffffffffffffffffffffffffffffff1673ffffffffffffffffffffffffffffffffffffffff1614612520576040517f08c379a0000000000000000000000000000000000000000000000000000000008152600401808060200182810382526000815260200160200191505060405180910390fd5b81600160008373ffffffffffffffffffffffffffffffffffffffff1673ffffffffffffffffffffffffffffffffffffffff1681526020019081526020016000205403600160008373ffffffffffffffffffffffffffffffffffffffff1673ffffffffffffffffffffffffffffffffffffffff16815260200190815260200160002081905550600b60405180807f5061796d617374657200000000000000000000000000000000000000000000008152506009019050908152602001604051809103902060009054906101000a900473ffffffffffffffffffffffffffffffffffffffff1673ffffffffffffffffffffffffffffffffffffffff166108fc839081150290604051600060405180830381858888f19350505050158015612649573d6000803e3d6000fd5b505050565b600d818051602081018201805184825260208301602085012081835280955050505050506000915090508054600181600116156101000203166002900480601f01602080910402602001604051908101604052809291908181526020018280546001816001161561010002031660029004801561270c5780601f106126e15761010080835404028352916020019161270c565b820191906000526020600020905b8154815290600101906020018083116126ef57829003601f168201915b505050505081565b6127ed88888080601f016020809104026020016040519081016040528093929190818152602001838380828437600081840152601f19601f82011690508083019250505050505050878787878080601f016020809104026020016040519081016040528093929190818152602001838380828437600081840152601f19601f8201169050808301925050505050505086868080601f016020809104026020016040519081016040528093929190818152602001838380828437600081840152601f19601f82011690508083019250505050505050613baa565b61285f576040517f08c379a00000000000000000000000000000000000000000000000000000000081526004018080602001828103825260178152602001807f5369676e6174757265206973206e6f742076616c69642e00000000000000000081525060200191505060405180910390fd5b6128f388888080601f016020809104026020016040519081016040528093929190818152602001838380828437600081840152601f19601f82011690508083019250505050505050878787878080601f016020809104026020016040519081016040528093929190818152602001838380828437600081840152601f19601f82011690508083019250505050505050613d79565b5050505050505050565b6129d587878080601f016020809104026020016040519081016040528093929190818152602001838380828437600081840152601f19601f8201169050808301925050505050505086868080601f016020809104026020016040519081016040528093929190818152602001838380828437600081840152601f19601f820116905080830192505050505050508585858080601f016020809104026020016040519081016040528093929190818152602001838380828437600081840152601f19601f820116905080830192505050505050506142f5565b612a47576040517f08c379a00000000000000000000000000000000000000000000000000000000081526004018080602001828103825260178152602001807f5369676e6174757265206973206e6f742076616c69642e00000000000000000081525060200191505060405180910390fd5b612ada87878080601f016020809104026020016040519081016040528093929190818152602001838380828437600081840152601f19601f8201169050808301925050505050505086868080601f016020809104026020016040519081016040528093929190818152602001838380828437600081840152601f19601f820116905080830192505050505050508561448c565b50505050505050565b60006002826040518082805190602001908083835b60208310612b1b5780518252602082019150602081019050602083039250612af8565b6001836020036101000a038019825116818451168082178552505050505050905001915050908152602001604051809103902060020160149054906101000a900460ff166003811115612b6a57fe5b9050919050565b60056020528060005260406000206000915054906101000a900473ffffffffffffffffffffffffffffffffffffffff1681565b60046020528060005260406000206000915090508054600181600116156101000203166002900480601f016020809104026020016040519081016040528092919081815260200182805460018160011615610100020316600290048015612c4c5780601f10612c2157610100808354040283529160200191612c4c565b820191906000526020600020905b815481529060010190602001808311612c2f57829003601f168201915b505050505081565b60076020528160005260406000208181548110612c6d57fe5b90600052602060002001600091509150508054600181600116156101000203166002900480601f016020809104026020016040519081016040528092919081815260200182805460018160011615610100020316600290048015612d125780601f10612ce757610100808354040283529160200191612d12565b820191906000526020600020905b815481529060010190602001808311612cf557829003601f168201915b505050505081565b6009818051602081018201805184825260208301602085012081835280955050505050506000915090505481565b600b818051602081018201805184825260208301602085012081835280955050505050506000915054906101000a900473ffffffffffffffffffffffffffffffffffffffff1681565b60606002836040518082805190602001908083835b60208310612dc95780518252602082019150602081019050602083039250612da6565b6001836020036101000a038019825116818451168082178552505050505050905001915050908152602001604051809103902060030160008373ffffffffffffffffffffffffffffffffffffffff1673ffffffffffffffffffffffffffffffffffffffff1681526020019081526020016000208054600181600116156101000203166002900480601f016020809104026020016040519081016040528092919081815260200182805460018160011615610100020316600290048015612ed05780601f10612ea557610100808354040283529160200191612ed0565b820191906000526020600020905b815481529060010190602001808311612eb357829003601f168201915b5050505050905092915050565b3460016000612eea613af8565b73ffffffffffffffffffffffffffffffffffffffff1673ffffffffffffffffffffffffffffffffffffffff168152602001908152602001600020540160016000612f32613af8565b73ffffffffffffffffffffffffffffffffffffffff1673ffffffffffffffffffffffffffffffffffffffff16815260200190815260200160002081905550565b612f7c8282614af0565b5050565b60066020528160005260406000208181548110612f9957fe5b90600052602060002001600091509150508054600181600116156101000203166002900480601f01602080910402602001604051908101604052809291908181526020018280546001816001161561010002031660029004801561303e5780601f106130135761010080835404028352916020019161303e565b820191906000526020600020905b81548152906001019060200180831161302157829003601f168201915b505050505081565b600281805160208101820180518482526020830160208501208183528095505050505050600091509050806000018054600181600116156101000203166002900480601f0160208091040260200160405190810160405280929190818152602001828054600181600116156101000203166002900480156131085780601f106130dd57610100808354040283529160200191613108565b820191906000526020600020905b8154815290600101906020018083116130eb57829003601f168201915b5050505050908060010160009054906101000a900473ffffffffffffffffffffffffffffffffffffffff16908060020160009054906101000a900473ffffffffffffffffffffffffffffffffffffffff16908060020160149054906101000a900460ff16905084565b600a818051602081018201805184825260208301602085012081835280955050505050506000915054906101000a900460ff1681565b6131b1828261350e565b5050565b80600460008473ffffffffffffffffffffffffffffffffffffffff1673ffffffffffffffffffffffffffffffffffffffff1681526020019081526020016000209080519060200190613208929190615293565b505050565b60008060009054906101000a900473ffffffffffffffffffffffffffffffffffffffff16905090565b613285848484848080601f016020809104026020016040519081016040528093929190818152602001838380828437600081840152601f19601f82011690508083019250505050505050614e11565b6132f7576040517f08c379a00000000000000000000000000000000000000000000000000000000081526004018080602001828103825260178152602001807f5369676e6174757265206973206e6f742076616c69642e00000000000000000081525060200191505060405180910390fd5b6133018484614af0565b50505050565b6008818051602081018201805184825260208301602085012081835280955050505050506000915090505481565b60006002826040518082805190602001908083835b6020831061336d578051825260208201915060208101905060208303925061334a565b6001836020036101000a038019825116818451168082178552505050505050905001915050908152602001604051809103902060010160009054906101000a900473ffffffffffffffffffffffffffffffffffffffff169050919050565b6000806134ca8585600360048111156133e057fe5b30604051602001808573ffffffffffffffffffffffffffffffffffffffff1673ffffffffffffffffffffffffffffffffffffffff1660601b815260140184805190602001908083835b6020831061344c5780518252602082019150602081019050602083039250613429565b6001836020036101000a0380198251168184511680821785525050505050509050018381526020018273ffffffffffffffffffffffffffffffffffffffff1673ffffffffffffffffffffffffffffffffffffffff1660601b815260140194505050505060405160208183030381529060405280519060200120614f37565b90508473ffffffffffffffffffffffffffffffffffffffff166134ed8285614f8f565b73ffffffffffffffffffffffffffffffffffffffff16149150509392505050565b8160405160200180600001905060405160208183030381529060405280519060200120600460008373ffffffffffffffffffffffffffffffffffffffff1673ffffffffffffffffffffffffffffffffffffffff16815260200190815260200160002060405160200180828054600181600116156101000203166002900480156135ce5780601f106135ac5761010080835404028352918201916135ce565b820191906000526020600020905b8154815290600101906020018083116135ba575b5050915050604051602081830303815290604052805190602001201461365c576040517f08c379a00000000000000000000000000000000000000000000000000000000081526004018080602001828103825260168152602001807f4163636f756e7420616c72656164792065786973742e0000000000000000000081525060200191505060405180910390fd5b81600460008573ffffffffffffffffffffffffffffffffffffffff1673ffffffffffffffffffffffffffffffffffffffff16815260200190815260200160002090805190602001906136af929190615293565b50505050565b600080613807868686600260048111156136cb57fe5b306040516020018086805190602001908083835b6020831061370257805182526020820191506020810190506020830392506136df565b6001836020036101000a03801982511681845116808217855250505050505090500185805190602001908083835b602083106137535780518252602082019150602081019050602083039250613730565b6001836020036101000a0380198251168184511680821785525050505050509050018473ffffffffffffffffffffffffffffffffffffffff1673ffffffffffffffffffffffffffffffffffffffff1660601b81526014018381526020018273ffffffffffffffffffffffffffffffffffffffff1673ffffffffffffffffffffffffffffffffffffffff1660601b81526014019550505050505060405160208183030381529060405280519060200120614f37565b90508373ffffffffffffffffffffffffffffffffffffffff1661382a8285614f8f565b73ffffffffffffffffffffffffffffffffffffffff1614915050949350505050565b826003816040518082805190602001908083835b602083106138835780518252602082019150602081019050602083039250613860565b6001836020036101000a038019825116818451168082178552505050505050905001915050908152602001604051809103902060009054906101000a900460ff16613936576040517f08c379a00000000000000000000000000000000000000000000000000000000081526004018080602001828103825260168152602001807f446f63756d656e74206469646e27742065786973742e0000000000000000000081525060200191505060405180910390fd5b60006002856040518082805190602001908083835b6020831061396e578051825260208201915060208101905060208303925061394b565b6001836020036101000a03801982511681845116808217855250505050505090500191505090815260200160405180910390209050600260038111156139b057fe5b8160020160149054906101000a900460ff1660038111156139cd57fe5b14613a23576040517f08c379a000000000000000000000000000000000000000000000000000000000815260040180806020018281038252602e815260200180615447602e913960400191505060405180910390fd5b8273ffffffffffffffffffffffffffffffffffffffff168160020160009054906101000a900473ffffffffffffffffffffffffffffffffffffffff1673ffffffffffffffffffffffffffffffffffffffff1614613acb576040517f08c379a000000000000000000000000000000000000000000000000000000000815260040180806020018281038252603a8152602001806153b9603a913960400191505060405180910390fd5b60038160020160146101000a81548160ff02191690836003811115613aec57fe5b02179055505050505050565b60006018600036905010158015613b415750613b1261320d565b73ffffffffffffffffffffffffffffffffffffffff163373ffffffffffffffffffffffffffffffffffffffff16145b15613ba357613b9c6000368080601f016020809104026020016040519081016040528093929190818152602001838380828437600081840152601f19601f820116905080830192505050505050506014600036905003615016565b9050613ba7565b3390505b90565b600080613d338787878760016004811115613bc157fe5b306040516020018087805190602001908083835b60208310613bf85780518252602082019150602081019050602083039250613bd5565b6001836020036101000a0380198251168184511680821785525050505050509050018673ffffffffffffffffffffffffffffffffffffffff1673ffffffffffffffffffffffffffffffffffffffff1660601b81526014018573ffffffffffffffffffffffffffffffffffffffff1673ffffffffffffffffffffffffffffffffffffffff1660601b815260140184805190602001908083835b60208310613cb35780518252602082019150602081019050602083039250613c90565b6001836020036101000a0380198251168184511680821785525050505050509050018381526020018273ffffffffffffffffffffffffffffffffffffffff1673ffffffffffffffffffffffffffffffffffffffff1660601b8152601401965050505050505060405160208183030381529060405280519060200120614f37565b90508573ffffffffffffffffffffffffffffffffffffffff16613d568285614f8f565b73ffffffffffffffffffffffffffffffffffffffff161491505095945050505050565b836003816040518082805190602001908083835b60208310613db05780518252602082019150602081019050602083039250613d8d565b6001836020036101000a038019825116818451168082178552505050505050905001915050908152602001604051809103902060009054906101000a900460ff16613e63576040517f08c379a00000000000000000000000000000000000000000000000000000000081526004018080602001828103825260168152602001807f446f63756d656e74206469646e27742065786973742e0000000000000000000081525060200191505060405180910390fd5b84848073ffffffffffffffffffffffffffffffffffffffff166002836040518082805190602001908083835b60208310613eb25780518252602082019150602081019050602083039250613e8f565b6001836020036101000a038019825116818451168082178552505050505050905001915050908152602001604051809103902060010160009054906101000a900473ffffffffffffffffffffffffffffffffffffffff1673ffffffffffffffffffffffffffffffffffffffff1614613f75576040517f08c379a00000000000000000000000000000000000000000000000000000000081526004018080602001828103825260328152602001806153f36032913960400191505060405180910390fd5b8460405160200180600001905060405160208183030381529060405280519060200120600460008373ffffffffffffffffffffffffffffffffffffffff1673ffffffffffffffffffffffffffffffffffffffff16815260200190815260200160002060405160200180828054600181600116156101000203166002900480156140355780601f10614013576101008083540402835291820191614035565b820191906000526020600020905b815481529060010190602001808311614021575b50509150506040516020818303038152906040528051906020012014156140c4576040517f08c379a00000000000000000000000000000000000000000000000000000000081526004018080602001828103825260158152602001807f4163636f756e74206469646e27742065786973742e000000000000000000000081525060200191505060405180910390fd5b60006002896040518082805190602001908083835b602083106140fc57805182526020820191506020810190506020830392506140d9565b6001836020036101000a038019825116818451168082178552505050505050905001915050908152602001604051809103902090506002600381111561413e57fe5b8160020160149054906101000a900460ff16600381111561415b57fe5b14156141b2576040517f08c379a000000000000000000000000000000000000000000000000000000000815260040180806020018281038252604d815260200180615497604d913960600191505060405180910390fd5b868160020160006101000a81548173ffffffffffffffffffffffffffffffffffffffff021916908373ffffffffffffffffffffffffffffffffffffffff160217905550858160030160008973ffffffffffffffffffffffffffffffffffffffff1673ffffffffffffffffffffffffffffffffffffffff168152602001908152602001600020908051906020019061424a929190615293565b5060028160020160146101000a81548160ff0219169083600381111561426c57fe5b0217905550600760008873ffffffffffffffffffffffffffffffffffffffff1673ffffffffffffffffffffffffffffffffffffffff168152602001908152602001600020899080600181540180825580915050600190039060005260206000200160009091909190915090805190602001906142e9929190615293565b50505050505050505050565b6000806144478686866000600481111561430b57fe5b306040516020018086805190602001908083835b60208310614342578051825260208201915060208101905060208303925061431f565b6001836020036101000a03801982511681845116808217855250505050505090500185805190602001908083835b602083106143935780518252602082019150602081019050602083039250614370565b6001836020036101000a0380198251168184511680821785525050505050509050018473ffffffffffffffffffffffffffffffffffffffff1673ffffffffffffffffffffffffffffffffffffffff1660601b81526014018381526020018273ffffffffffffffffffffffffffffffffffffffff1673ffffffffffffffffffffffffffffffffffffffff1660601b81526014019550505050505060405160208183030381529060405280519060200120614f37565b90508373ffffffffffffffffffffffffffffffffffffffff1661446a8285614f8f565b73ffffffffffffffffffffffffffffffffffffffff1614915050949350505050565b826003816040518082805190602001908083835b602083106144c357805182526020820191506020810190506020830392506144a0565b6001836020036101000a038019825116818451168082178552505050505050905001915050908152602001604051809103902060009054906101000a900460ff1615614577576040517f08c379a00000000000000000000000000000000000000000000000000000000081526004018080602001828103825260178152602001807f446f63756d656e7420616c72656164792065786973742e00000000000000000081525060200191505060405180910390fd5b8160405160200180600001905060405160208183030381529060405280519060200120600460008373ffffffffffffffffffffffffffffffffffffffff1673ffffffffffffffffffffffffffffffffffffffff16815260200190815260200160002060405160200180828054600181600116156101000203166002900480156146375780601f10614615576101008083540402835291820191614637565b820191906000526020600020905b815481529060010190602001808311614623575b50509150506040516020818303038152906040528051906020012014156146c6576040517f08c379a00000000000000000000000000000000000000000000000000000000081526004018080602001828103825260158152602001807f4163636f756e74206469646e27742065786973742e000000000000000000000081525060200191505060405180910390fd5b60405180608001604052808681526020018473ffffffffffffffffffffffffffffffffffffffff168152602001600073ffffffffffffffffffffffffffffffffffffffff1681526020016001600381111561471d57fe5b8152506002866040518082805190602001908083835b602083106147565780518252602082019150602081019050602083039250614733565b6001836020036101000a038019825116818451168082178552505050505050905001915050908152602001604051809103902060008201518160000190805190602001906147a5929190615313565b5060208201518160010160006101000a81548173ffffffffffffffffffffffffffffffffffffffff021916908373ffffffffffffffffffffffffffffffffffffffff16021790555060408201518160020160006101000a81548173ffffffffffffffffffffffffffffffffffffffff021916908373ffffffffffffffffffffffffffffffffffffffff16021790555060608201518160020160146101000a81548160ff0219169083600381111561485857fe5b0217905550905050836002866040518082805190602001908083835b602083106148975780518252602082019150602081019050602083039250614874565b6001836020036101000a038019825116818451168082178552505050505050905001915050908152602001604051809103902060030160008573ffffffffffffffffffffffffffffffffffffffff1673ffffffffffffffffffffffffffffffffffffffff168152602001908152602001600020908051906020019061491d929190615293565b5060016003866040518082805190602001908083835b602083106149565780518252602082019150602081019050602083039250614933565b6001836020036101000a038019825116818451168082178552505050505050905001915050908152602001604051809103902060006101000a81548160ff021916908315150217905550600660008473ffffffffffffffffffffffffffffffffffffffff1673ffffffffffffffffffffffffffffffffffffffff16815260200190815260200160002085908060018154018082558091505060019003906000526020600020016000909190919091509080519060200190614a18929190615293565b507f144ced1a295f096707ac7e7d8aa1a5a89bc1fd73ea6c8d75de34bba0fe0b132e858460405180806020018373ffffffffffffffffffffffffffffffffffffffff1673ffffffffffffffffffffffffffffffffffffffff168152602001828103825284818151815260200191508051906020019080838360005b83811015614aae578082015181840152602081019050614a93565b50505050905090810190601f168015614adb5780820380516001836020036101000a031916815260200191505b50935050505060405180910390a15050505050565b8160405160200180600001905060405160208183030381529060405280519060200120600460008373ffffffffffffffffffffffffffffffffffffffff1673ffffffffffffffffffffffffffffffffffffffff1681526020019081526020016000206040516020018082805460018160011615610100020316600290048015614bb05780601f10614b8e576101008083540402835291820191614bb0565b820191906000526020600020905b815481529060010190602001808311614b9c575b5050915050604051602081830303815290604052805190602001201415614c3f576040517f08c379a00000000000000000000000000000000000000000000000000000000081526004018080602001828103825260158152602001807f4163636f756e74206469646e27742065786973742e000000000000000000000081525060200191505060405180910390fd5b8160405160200180600001905060405160208183030381529060405280519060200120600460008373ffffffffffffffffffffffffffffffffffffffff1673ffffffffffffffffffffffffffffffffffffffff1681526020019081526020016000206040516020018082805460018160011615610100020316600290048015614cff5780601f10614cdd576101008083540402835291820191614cff565b820191906000526020600020905b815481529060010190602001808311614ceb575b50509150506040516020818303038152906040528051906020012014614d8d576040517f08c379a00000000000000000000000000000000000000000000000000000000081526004018080602001828103825260168152602001807f4163636f756e7420616c72656164792065786973742e0000000000000000000081525060200191505060405180910390fd5b83600560008573ffffffffffffffffffffffffffffffffffffffff1673ffffffffffffffffffffffffffffffffffffffff16815260200190815260200160002060006101000a81548173ffffffffffffffffffffffffffffffffffffffff021916908373ffffffffffffffffffffffffffffffffffffffff16021790555050505050565b600080614ef38585600480811115614e2557fe5b30604051602001808573ffffffffffffffffffffffffffffffffffffffff1673ffffffffffffffffffffffffffffffffffffffff1660601b81526014018473ffffffffffffffffffffffffffffffffffffffff1673ffffffffffffffffffffffffffffffffffffffff1660601b81526014018381526020018273ffffffffffffffffffffffffffffffffffffffff1673ffffffffffffffffffffffffffffffffffffffff1660601b815260140194505050505060405160208183030381529060405280519060200120614f37565b90508473ffffffffffffffffffffffffffffffffffffffff16614f168285614f8f565b73ffffffffffffffffffffffffffffffffffffffff16149150509392505050565b60008160405160200180807f19457468657265756d205369676e6564204d6573736167653a0a333200000000815250601c01828152602001915050604051602081830303815290604052805190602001209050919050565b600080600080614f9e85615068565b92509250925060018684848460405160008152602001604052604051808581526020018460ff1660ff1681526020018381526020018281526020019450505050506020604051602081039080840390855afa158015615001573d6000803e3d6000fd5b50505060206040510351935050505092915050565b6000601482018351101561503d5761503c615037600485516014860161518d565b61522c565b5b60148201915073ffffffffffffffffffffffffffffffffffffffff8284015116905080905092915050565b6000806000604184511461507b57600080fd5b6020840151915060408401519050606084015160001a92507f7fffffffffffffffffffffffffffffff5d576e7357a4501ddfe92f46681b20a08160001c111561510f576040517f08c379a00000000000000000000000000000000000000000000000000000000081526004018080602001828103825260228152602001806154256022913960400191505060405180910390fd5b601b8360ff16141580156151275750601c8360ff1614155b1561517d576040517f08c379a00000000000000000000000000000000000000000000000000000000081526004018080602001828103825260228152602001806154756022913960400191505060405180910390fd5b8282829250925092509193909250565b6060632800659560e01b848484604051602401808460078111156151ad57fe5b60ff1681526020018381526020018281526020019350505050604051602081830303815290604052907bffffffffffffffffffffffffffffffffffffffffffffffffffffffff19166020820180517bffffffffffffffffffffffffffffffffffffffffffffffffffffffff838183161783525050505090509392505050565b805160208201fd5b604051806080016040528060608152602001600073ffffffffffffffffffffffffffffffffffffffff168152602001600073ffffffffffffffffffffffffffffffffffffffff1681526020016000600381111561528d57fe5b81525090565b828054600181600116156101000203166002900490600052602060002090601f016020900481019282601f106152d457805160ff1916838001178555615302565b82800160010185558215615302579182015b828111156153015782518255916020019190600101906152e6565b5b50905061530f9190615393565b5090565b828054600181600116156101000203166002900490600052602060002090601f016020900481019282601f1061535457805160ff1916838001178555615382565b82800160010185558215615382579182015b82811115615381578251825591602001919060010190615366565b5b50905061538f9190615393565b5090565b6153b591905b808211156153b1576000816000905550600101615399565b5090565b9056fe4f6e6c79207468652061737369676e207369676e656520627920746865206f776e65722063616e207369676e2074686520646f63756d656e742e4f6e6c7920746865206f776e6572206f662074686520646f63756d656e742063616e20646f207468697320616374696f6e2e45434453413a20696e76616c6964207369676e6174757265202773272076616c7565446f63756d656e742073746174652069736e277420696e205369676e696e672050656e64696e672053746174652e45434453413a20696e76616c6964207369676e6174757265202776272076616c756543616e6e6f742061736b20666f7220616e6f74686572207369676e617475726520696620746865206c617374207369676e6565206469646e2074207369676e2074686520646f63756d656e742ea26469706673582212206cdd81afd727c63c129b3d28e9b7e4f8105a2662124b28e46f6011818ba5b1b364736f6c63430006030033a26469706673582212204b483a305d07017fe336ae7de391cd52997ba3424de73cd3f0aa068d4ba28e0064736f6c63430006030033608060405234801561001057600080fd5b5061452a806100206000396000f3fe6080604052600436106101815760003560e01c80635e5c06e2116100d1578063a44543401161008a578063ce1b815f11610064578063ce1b815f14610608578063e12b6c1d14610633578063e5b0b90c1461065c578063ff86e28c1461069957610181565b8063a44543401461054e578063b3dd697b1461058b578063b5066b61146105cb57610181565b80635e5c06e214610413578063699a20331461045057806370a13b481461048d5780637547b64e146104ca5780638173c1ee146105075780638e0639921461054457610181565b80632a97fa771161013e57806349b985571161011857806349b98557146103475780634c969a3414610370578063576777091461039957806359328eb5146103d657610181565b80632a97fa77146102b857806330980857146102e157806332285bda1461030a57610181565b8063078e84f414610186578063197c9fc5146101af57806324530995146101ec57806324da2a821461022957806326ec90ae1461025257806327e235e31461027b575b600080fd5b34801561019257600080fd5b506101ad60048036036101a891908101906131fa565b6106d6565b005b3480156101bb57600080fd5b506101d660048036036101d191908101906134b0565b6107fd565b6040516101e39190613f2a565b60405180910390f35b3480156101f857600080fd5b50610213600480360361020e91908101906134b0565b610833565b6040516102209190613f8a565b60405180910390f35b34801561023557600080fd5b50610250600480360361024b91908101906132bf565b6108f9565b005b34801561025e57600080fd5b50610279600480360361027491908101906133f7565b610bdf565b005b34801561028757600080fd5b506102a2600480360361029d9190810190613165565b610d92565b6040516102af919061425e565b60405180910390f35b3480156102c457600080fd5b506102df60048036036102da9190810190613165565b610daa565b005b3480156102ed57600080fd5b5061030860048036036103039190810190613586565b610eb9565b005b34801561031657600080fd5b50610331600480360361032c91908101906134b0565b611076565b60405161033e9190613ffe565b60405180910390f35b34801561035357600080fd5b5061036e6004803603610369919081019061332b565b61113c565b005b34801561037c57600080fd5b50610397600480360361039291908101906133f7565b6112f2565b005b3480156103a557600080fd5b506103c060048036036103bb91908101906134f1565b6114a5565b6040516103cd919061425e565b60405180910390f35b3480156103e257600080fd5b506103fd60048036036103f89190810190613165565b6114e8565b60405161040a9190613f0f565b60405180910390f35b34801561041f57600080fd5b5061043a60048036036104359190810190613165565b61151b565b6040516104479190613ffe565b60405180910390f35b34801561045c57600080fd5b5061047760048036036104729190810190613283565b6115cb565b6040516104849190613ffe565b60405180910390f35b34801561049957600080fd5b506104b460048036036104af91908101906134b0565b611691565b6040516104c19190613fe3565b60405180910390f35b3480156104d657600080fd5b506104f160048036036104ec91908101906134b0565b6116bf565b6040516104fe9190613f0f565b60405180910390f35b34801561051357600080fd5b5061052e60048036036105299190810190613532565b611708565b60405161053b9190614020565b60405180910390f35b61054c611809565b005b34801561055a57600080fd5b5061057560048036036105709190810190613283565b61189e565b6040516105829190613ffe565b60405180910390f35b34801561059757600080fd5b506105b260048036036105ad91908101906134b0565b611964565b6040516105c29493929190614072565b60405180910390f35b3480156105d757600080fd5b506105f260048036036105ed91908101906134b0565b611a8f565b6040516105ff9190613f2a565b60405180910390f35b34801561061457600080fd5b5061061d611ac5565b60405161062a9190613f0f565b60405180910390f35b34801561063f57600080fd5b5061065a6004803603610655919081019061318e565b611aee565b005b34801561066857600080fd5b50610683600480360361067e91908101906134b0565b611b8c565b604051610690919061425e565b60405180910390f35b3480156106a557600080fd5b506106c060048036036106bb91908101906134f1565b611bba565b6040516106cd9190613f0f565b60405180910390f35b6107698585858080601f016020809104026020016040519081016040528093929190818152602001838380828437600081840152601f19601f8201169050808301925050505050505084848080601f016020809104026020016040519081016040528093929190818152602001838380828437600081840152601f19601f82011690508083019250505050505050611c05565b6107a8576040517f08c379a000000000000000000000000000000000000000000000000000000000815260040161079f906141fe565b60405180910390fd5b6107f68585858080601f016020809104026020016040519081016040528093929190818152602001838380828437600081840152601f19601f82011690508083019250505050505050611c8d565b5050505050565b6003818051602081018201805184825260208301602085012081835280955050505050506000915054906101000a900460ff1681565b600c818051602081018201805184825260208301602085012081835280955050505050506000915090508054600181600116156101000203166002900480601f0160208091040260200160405190810160405280929190818152602001828054600181600116156101000203166002900480156108f15780601f106108c6576101008083540402835291602001916108f1565b820191906000526020600020905b8154815290600101906020018083116108d457829003601f168201915b505050505081565b83838080601f016020809104026020016040519081016040528093929190818152602001838380828437600081840152601f19601f82011690508083019250505050505050828073ffffffffffffffffffffffffffffffffffffffff166002836040516109669190613dbd565b908152602001604051809103902060010160009054906101000a900473ffffffffffffffffffffffffffffffffffffffff1673ffffffffffffffffffffffffffffffffffffffff16146109ee576040517f08c379a00000000000000000000000000000000000000000000000000000000081526004016109e5906140fe565b60405180910390fd5b6109f6612e7b565b60028787604051610a08929190613da4565b9081526020016040518091039020604051806080016040529081600082018054600181600116156101000203166002900480601f016020809104026020016040519081016040528092919081815260200182805460018160011615610100020316600290048015610aba5780601f10610a8f57610100808354040283529160200191610aba565b820191906000526020600020905b815481529060010190602001808311610a9d57829003601f168201915b505050505081526020016001820160009054906101000a900473ffffffffffffffffffffffffffffffffffffffff1673ffffffffffffffffffffffffffffffffffffffff1673ffffffffffffffffffffffffffffffffffffffff1681526020016002820160009054906101000a900473ffffffffffffffffffffffffffffffffffffffff1673ffffffffffffffffffffffffffffffffffffffff1673ffffffffffffffffffffffffffffffffffffffff1681526020016002820160149054906101000a900460ff166003811115610b8d57fe5b6003811115610b9857fe5b81525050905083816020019073ffffffffffffffffffffffffffffffffffffffff16908173ffffffffffffffffffffffffffffffffffffffff168152505050505050505050565b610cb787878080601f016020809104026020016040519081016040528093929190818152602001838380828437600081840152601f19601f8201169050808301925050505050505086868080601f016020809104026020016040519081016040528093929190818152602001838380828437600081840152601f19601f820116905080830192505050505050508585858080601f016020809104026020016040519081016040528093929190818152602001838380828437600081840152601f19601f82011690508083019250505050505050611db1565b610cf6576040517f08c379a0000000000000000000000000000000000000000000000000000000008152600401610ced906141fe565b60405180910390fd5b610d8987878080601f016020809104026020016040519081016040528093929190818152602001838380828437600081840152601f19601f8201169050808301925050505050505086868080601f016020809104026020016040519081016040528093929190818152602001838380828437600081840152601f19601f8201169050808301925050505050505085611e3c565b50505050505050565b60016020528060005260406000206000915090505481565b610db2611ff3565b73ffffffffffffffffffffffffffffffffffffffff16600b604051610dd690613ee5565b908152602001604051809103902060009054906101000a900473ffffffffffffffffffffffffffffffffffffffff1673ffffffffffffffffffffffffffffffffffffffff1614610e5b576040517f08c379a0000000000000000000000000000000000000000000000000000000008152600401610e52906141be565b60405180910390fd5b80600b604051610e6a90613ed0565b908152602001604051809103902060006101000a81548173ffffffffffffffffffffffffffffffffffffffff021916908373ffffffffffffffffffffffffffffffffffffffff16021790555050565b610ec1611ff3565b73ffffffffffffffffffffffffffffffffffffffff16600b604051610ee590613ed0565b908152602001604051809103902060009054906101000a900473ffffffffffffffffffffffffffffffffffffffff1673ffffffffffffffffffffffffffffffffffffffff1614610f6a576040517f08c379a0000000000000000000000000000000000000000000000000000000008152600401610f619061421e565b60405180910390fd5b81600160008373ffffffffffffffffffffffffffffffffffffffff1673ffffffffffffffffffffffffffffffffffffffff1681526020019081526020016000205403600160008373ffffffffffffffffffffffffffffffffffffffff1673ffffffffffffffffffffffffffffffffffffffff16815260200190815260200160002081905550600b604051610ffd90613ed0565b908152602001604051809103902060009054906101000a900473ffffffffffffffffffffffffffffffffffffffff1673ffffffffffffffffffffffffffffffffffffffff166108fc839081150290604051600060405180830381858888f19350505050158015611071573d6000803e3d6000fd5b505050565b600d818051602081018201805184825260208301602085012081835280955050505050506000915090508054600181600116156101000203166002900480601f0160208091040260200160405190810160405280929190818152602001828054600181600116156101000203166002900480156111345780601f1061110957610100808354040283529160200191611134565b820191906000526020600020905b81548152906001019060200180831161111757829003601f168201915b505050505081565b61121588888080601f016020809104026020016040519081016040528093929190818152602001838380828437600081840152601f19601f82011690508083019250505050505050878787878080601f016020809104026020016040519081016040528093929190818152602001838380828437600081840152601f19601f8201169050808301925050505050505086868080601f016020809104026020016040519081016040528093929190818152602001838380828437600081840152601f19601f820116905080830192505050505050506120a5565b611254576040517f08c379a000000000000000000000000000000000000000000000000000000000815260040161124b906141fe565b60405180910390fd5b6112e888888080601f016020809104026020016040519081016040528093929190818152602001838380828437600081840152601f19601f82011690508083019250505050505050878787878080601f016020809104026020016040519081016040528093929190818152602001838380828437600081840152601f19601f82011690508083019250505050505050612133565b5050505050505050565b6113ca87878080601f016020809104026020016040519081016040528093929190818152602001838380828437600081840152601f19601f8201169050808301925050505050505086868080601f016020809104026020016040519081016040528093929190818152602001838380828437600081840152601f19601f820116905080830192505050505050508585858080601f016020809104026020016040519081016040528093929190818152602001838380828437600081840152601f19601f820116905080830192505050505050506124ec565b611409576040517f08c379a0000000000000000000000000000000000000000000000000000000008152600401611400906141fe565b60405180910390fd5b61149c87878080601f016020809104026020016040519081016040528093929190818152602001838380828437600081840152601f19601f8201169050808301925050505050505086868080601f016020809104026020016040519081016040528093929190818152602001838380828437600081840152601f19601f8201169050808301925050505050505085612577565b50505050505050565b60006002826040516114b79190613dbd565b908152602001604051809103902060020160149054906101000a900460ff1660038111156114e157fe5b9050919050565b60056020528060005260406000206000915054906101000a900473ffffffffffffffffffffffffffffffffffffffff1681565b60046020528060005260406000206000915090508054600181600116156101000203166002900480601f0160208091040260200160405190810160405280929190818152602001828054600181600116156101000203166002900480156115c35780601f10611598576101008083540402835291602001916115c3565b820191906000526020600020905b8154815290600101906020018083116115a657829003601f168201915b505050505081565b600760205281600052604060002081815481106115e457fe5b90600052602060002001600091509150508054600181600116156101000203166002900480601f0160208091040260200160405190810160405280929190818152602001828054600181600116156101000203166002900480156116895780601f1061165e57610100808354040283529160200191611689565b820191906000526020600020905b81548152906001019060200180831161166c57829003601f168201915b505050505081565b6009818051602081018201805184825260208301602085012081835280955050505050506000915090505481565b600b818051602081018201805184825260208301602085012081835280955050505050506000915054906101000a900473ffffffffffffffffffffffffffffffffffffffff1681565b606060028360405161171a9190613dbd565b908152602001604051809103902060030160008373ffffffffffffffffffffffffffffffffffffffff1673ffffffffffffffffffffffffffffffffffffffff1681526020019081526020016000208054600181600116156101000203166002900480601f0160208091040260200160405190810160405280929190818152602001828054600181600116156101000203166002900480156117fc5780601f106117d1576101008083540402835291602001916117fc565b820191906000526020600020905b8154815290600101906020018083116117df57829003601f168201915b5050505050905092915050565b3460016000611816611ff3565b73ffffffffffffffffffffffffffffffffffffffff1673ffffffffffffffffffffffffffffffffffffffff16815260200190815260200160002054016001600061185e611ff3565b73ffffffffffffffffffffffffffffffffffffffff1673ffffffffffffffffffffffffffffffffffffffff16815260200190815260200160002081905550565b600660205281600052604060002081815481106118b757fe5b90600052602060002001600091509150508054600181600116156101000203166002900480601f01602080910402602001604051908101604052809291908181526020018280546001816001161561010002031660029004801561195c5780601f106119315761010080835404028352916020019161195c565b820191906000526020600020905b81548152906001019060200180831161193f57829003601f168201915b505050505081565b600281805160208101820180518482526020830160208501208183528095505050505050600091509050806000018054600181600116156101000203166002900480601f016020809104026020016040519081016040528092919081815260200182805460018160011615610100020316600290048015611a265780601f106119fb57610100808354040283529160200191611a26565b820191906000526020600020905b815481529060010190602001808311611a0957829003601f168201915b5050505050908060010160009054906101000a900473ffffffffffffffffffffffffffffffffffffffff16908060020160009054906101000a900473ffffffffffffffffffffffffffffffffffffffff16908060020160149054906101000a900460ff16905084565b600a818051602081018201805184825260208301602085012081835280955050505050506000915054906101000a900460ff1681565b60008060009054906101000a900473ffffffffffffffffffffffffffffffffffffffff16905090565b611b3d848484848080601f016020809104026020016040519081016040528093929190818152602001838380828437600081840152601f19601f82011690508083019250505050505050612962565b611b7c576040517f08c379a0000000000000000000000000000000000000000000000000000000008152600401611b73906141fe565b60405180910390fd5b611b8684846129e9565b50505050565b6008818051602081018201805184825260208301602085012081835280955050505050506000915090505481565b6000600282604051611bcc9190613dbd565b908152602001604051809103902060010160009054906101000a900473ffffffffffffffffffffffffffffffffffffffff169050919050565b600080611c49858560036004811115611c1a57fe5b30604051602001611c2e9493929190613d5a565b60405160208183030381529060405280519060200120612c04565b90508473ffffffffffffffffffffffffffffffffffffffff16611c6c8285612c34565b73ffffffffffffffffffffffffffffffffffffffff16149150509392505050565b81604051602001611c9d90613efa565b60405160208183030381529060405280519060200120600460008373ffffffffffffffffffffffffffffffffffffffff1673ffffffffffffffffffffffffffffffffffffffff168152602001908152602001600020604051602001611d029190613e93565b6040516020818303038152906040528051906020012014611d58576040517f08c379a0000000000000000000000000000000000000000000000000000000008152600401611d4f9061423e565b60405180910390fd5b81600460008573ffffffffffffffffffffffffffffffffffffffff1673ffffffffffffffffffffffffffffffffffffffff1681526020019081526020016000209080519060200190611dab929190612eda565b50505050565b600080611df786868660026004811115611dc757fe5b30604051602001611ddc959493929190613e3c565b60405160208183030381529060405280519060200120612c04565b90508373ffffffffffffffffffffffffffffffffffffffff16611e1a8285612c34565b73ffffffffffffffffffffffffffffffffffffffff1614915050949350505050565b82600381604051611e4d9190613dbd565b908152602001604051809103902060009054906101000a900460ff16611ea8576040517f08c379a0000000000000000000000000000000000000000000000000000000008152600401611e9f9061415e565b60405180910390fd5b6000600285604051611eba9190613dbd565b9081526020016040518091039020905060026003811115611ed757fe5b8160020160149054906101000a900460ff166003811115611ef457fe5b14611f34576040517f08c379a0000000000000000000000000000000000000000000000000000000008152600401611f2b9061413e565b60405180910390fd5b8273ffffffffffffffffffffffffffffffffffffffff168160020160009054906101000a900473ffffffffffffffffffffffffffffffffffffffff1673ffffffffffffffffffffffffffffffffffffffff1614611fc6576040517f08c379a0000000000000000000000000000000000000000000000000000000008152600401611fbd906140be565b60405180910390fd5b60038160020160146101000a81548160ff02191690836003811115611fe757fe5b02179055505050505050565b6000601860003690501015801561203c575061200d611ac5565b73ffffffffffffffffffffffffffffffffffffffff163373ffffffffffffffffffffffffffffffffffffffff16145b1561209e576120976000368080601f016020809104026020016040519081016040528093929190818152602001838380828437600081840152601f19601f820116905080830192505050505050506014600036905003612ca3565b90506120a2565b3390505b90565b6000806120ed87878787600160048111156120bc57fe5b306040516020016120d296959493929190613dd4565b60405160208183030381529060405280519060200120612c04565b90508573ffffffffffffffffffffffffffffffffffffffff166121108285612c34565b73ffffffffffffffffffffffffffffffffffffffff161491505095945050505050565b836003816040516121449190613dbd565b908152602001604051809103902060009054906101000a900460ff1661219f576040517f08c379a00000000000000000000000000000000000000000000000000000000081526004016121969061415e565b60405180910390fd5b84848073ffffffffffffffffffffffffffffffffffffffff166002836040516121c89190613dbd565b908152602001604051809103902060010160009054906101000a900473ffffffffffffffffffffffffffffffffffffffff1673ffffffffffffffffffffffffffffffffffffffff1614612250576040517f08c379a0000000000000000000000000000000000000000000000000000000008152600401612247906140fe565b60405180910390fd5b8460405160200161226090613efa565b60405160208183030381529060405280519060200120600460008373ffffffffffffffffffffffffffffffffffffffff1673ffffffffffffffffffffffffffffffffffffffff1681526020019081526020016000206040516020016122c59190613e93565b60405160208183030381529060405280519060200120141561231c576040517f08c379a00000000000000000000000000000000000000000000000000000000081526004016123139061417e565b60405180910390fd5b600060028960405161232e9190613dbd565b908152602001604051809103902090506002600381111561234b57fe5b8160020160149054906101000a900460ff16600381111561236857fe5b14156123a9576040517f08c379a00000000000000000000000000000000000000000000000000000000081526004016123a0906141de565b60405180910390fd5b868160020160006101000a81548173ffffffffffffffffffffffffffffffffffffffff021916908373ffffffffffffffffffffffffffffffffffffffff160217905550858160030160008973ffffffffffffffffffffffffffffffffffffffff1673ffffffffffffffffffffffffffffffffffffffff1681526020019081526020016000209080519060200190612441929190612eda565b5060028160020160146101000a81548160ff0219169083600381111561246357fe5b0217905550600760008873ffffffffffffffffffffffffffffffffffffffff1673ffffffffffffffffffffffffffffffffffffffff168152602001908152602001600020899080600181540180825580915050600190039060005260206000200160009091909190915090805190602001906124e0929190612eda565b50505050505050505050565b6000806125328686866000600481111561250257fe5b30604051602001612517959493929190613e3c565b60405160208183030381529060405280519060200120612c04565b90508373ffffffffffffffffffffffffffffffffffffffff166125558285612c34565b73ffffffffffffffffffffffffffffffffffffffff1614915050949350505050565b826003816040516125889190613dbd565b908152602001604051809103902060009054906101000a900460ff16156125e4576040517f08c379a00000000000000000000000000000000000000000000000000000000081526004016125db906140de565b60405180910390fd5b816040516020016125f490613efa565b60405160208183030381529060405280519060200120600460008373ffffffffffffffffffffffffffffffffffffffff1673ffffffffffffffffffffffffffffffffffffffff1681526020019081526020016000206040516020016126599190613e93565b6040516020818303038152906040528051906020012014156126b0576040517f08c379a00000000000000000000000000000000000000000000000000000000081526004016126a79061417e565b60405180910390fd5b60405180608001604052808681526020018473ffffffffffffffffffffffffffffffffffffffff168152602001600073ffffffffffffffffffffffffffffffffffffffff1681526020016001600381111561270757fe5b81525060028660405161271a9190613dbd565b90815260200160405180910390206000820151816000019080519060200190612744929190612f5a565b5060208201518160010160006101000a81548173ffffffffffffffffffffffffffffffffffffffff021916908373ffffffffffffffffffffffffffffffffffffffff16021790555060408201518160020160006101000a81548173ffffffffffffffffffffffffffffffffffffffff021916908373ffffffffffffffffffffffffffffffffffffffff16021790555060608201518160020160146101000a81548160ff021916908360038111156127f757fe5b0217905550905050836002866040516128109190613dbd565b908152602001604051809103902060030160008573ffffffffffffffffffffffffffffffffffffffff1673ffffffffffffffffffffffffffffffffffffffff1681526020019081526020016000209080519060200190612871929190612eda565b5060016003866040516128849190613dbd565b908152602001604051809103902060006101000a81548160ff021916908315150217905550600660008473ffffffffffffffffffffffffffffffffffffffff1673ffffffffffffffffffffffffffffffffffffffff16815260200190815260200160002085908060018154018082558091505060019003906000526020600020016000909190919091509080519060200190612921929190612eda565b507f144ced1a295f096707ac7e7d8aa1a5a89bc1fd73ea6c8d75de34bba0fe0b132e8584604051612953929190614042565b60405180910390a15050505050565b6000806129a5858560048081111561297657fe5b3060405160200161298a9493929190613d0c565b60405160208183030381529060405280519060200120612c04565b90508473ffffffffffffffffffffffffffffffffffffffff166129c88285612c34565b73ffffffffffffffffffffffffffffffffffffffff16149150509392505050565b816040516020016129f990613efa565b60405160208183030381529060405280519060200120600460008373ffffffffffffffffffffffffffffffffffffffff1673ffffffffffffffffffffffffffffffffffffffff168152602001908152602001600020604051602001612a5e9190613e93565b604051602081830303815290604052805190602001201415612ab5576040517f08c379a0000000000000000000000000000000000000000000000000000000008152600401612aac9061417e565b60405180910390fd5b81604051602001612ac590613efa565b60405160208183030381529060405280519060200120600460008373ffffffffffffffffffffffffffffffffffffffff1673ffffffffffffffffffffffffffffffffffffffff168152602001908152602001600020604051602001612b2a9190613e93565b6040516020818303038152906040528051906020012014612b80576040517f08c379a0000000000000000000000000000000000000000000000000000000008152600401612b779061423e565b60405180910390fd5b83600560008573ffffffffffffffffffffffffffffffffffffffff1673ffffffffffffffffffffffffffffffffffffffff16815260200190815260200160002060006101000a81548173ffffffffffffffffffffffffffffffffffffffff021916908373ffffffffffffffffffffffffffffffffffffffff16021790555050505050565b600081604051602001612c179190613eaa565b604051602081830303815290604052805190602001209050919050565b600080600080612c4385612cf5565b92509250925060018684848460405160008152602001604052604051612c6c9493929190613f45565b6020604051602081039080840390855afa158015612c8e573d6000803e3d6000fd5b50505060206040510351935050505092915050565b60006014820183511015612cca57612cc9612cc46004855160148601612dee565b612e73565b5b60148201915073ffffffffffffffffffffffffffffffffffffffff8284015116905080905092915050565b60008060006041845114612d0857600080fd5b6020840151915060408401519050606084015160001a92507f7fffffffffffffffffffffffffffffff5d576e7357a4501ddfe92f46681b20a08160001c1115612d86576040517f08c379a0000000000000000000000000000000000000000000000000000000008152600401612d7d9061411e565b60405180910390fd5b601b8360ff1614158015612d9e5750601c8360ff1614155b15612dde576040517f08c379a0000000000000000000000000000000000000000000000000000000008152600401612dd59061419e565b60405180910390fd5b8282829250925092509193909250565b6060632800659560e01b848484604051602401612e0d93929190613fac565b604051602081830303815290604052907bffffffffffffffffffffffffffffffffffffffffffffffffffffffff19166020820180517bffffffffffffffffffffffffffffffffffffffffffffffffffffffff838183161783525050505090509392505050565b805160208201fd5b604051806080016040528060608152602001600073ffffffffffffffffffffffffffffffffffffffff168152602001600073ffffffffffffffffffffffffffffffffffffffff16815260200160006003811115612ed457fe5b81525090565b828054600181600116156101000203166002900490600052602060002090601f016020900481019282601f10612f1b57805160ff1916838001178555612f49565b82800160010185558215612f49579182015b82811115612f48578251825591602001919060010190612f2d565b5b509050612f569190612fda565b5090565b828054600181600116156101000203166002900490600052602060002090601f016020900481019282601f10612f9b57805160ff1916838001178555612fc9565b82800160010185558215612fc9579182015b82811115612fc8578251825591602001919060010190612fad565b5b509050612fd69190612fda565b5090565b612ffc91905b80821115612ff8576000816000905550600101612fe0565b5090565b90565b60008135905061300e816144c6565b92915050565b60008083601f84011261302657600080fd5b8235905067ffffffffffffffff81111561303f57600080fd5b60208301915083600182028301111561305757600080fd5b9250929050565b60008083601f84011261307057600080fd5b8235905067ffffffffffffffff81111561308957600080fd5b6020830191508360018202830111156130a157600080fd5b9250929050565b600082601f8301126130b957600080fd5b81356130cc6130c7826142a6565b614279565b915080825260208301602083018583830111156130e857600080fd5b6130f3838284614414565b50505092915050565b600082601f83011261310d57600080fd5b813561312061311b826142d2565b614279565b9150808252602083016020830185838301111561313c57600080fd5b613147838284614414565b50505092915050565b60008135905061315f816144dd565b92915050565b60006020828403121561317757600080fd5b600061318584828501612fff565b91505092915050565b600080600080606085870312156131a457600080fd5b60006131b287828801612fff565b94505060206131c387828801612fff565b935050604085013567ffffffffffffffff8111156131e057600080fd5b6131ec87828801613014565b925092505092959194509250565b60008060008060006060868803121561321257600080fd5b600061322088828901612fff565b955050602086013567ffffffffffffffff81111561323d57600080fd5b6132498882890161305e565b9450945050604086013567ffffffffffffffff81111561326857600080fd5b61327488828901613014565b92509250509295509295909350565b6000806040838503121561329657600080fd5b60006132a485828601612fff565b92505060206132b585828601613150565b9150509250929050565b600080600080606085870312156132d557600080fd5b600085013567ffffffffffffffff8111156132ef57600080fd5b6132fb8782880161305e565b9450945050602061330e87828801612fff565b925050604061331f87828801612fff565b91505092959194509250565b60008060008060008060008060a0898b03121561334757600080fd5b600089013567ffffffffffffffff81111561336157600080fd5b61336d8b828c0161305e565b985098505060206133808b828c01612fff565b96505060406133918b828c01612fff565b955050606089013567ffffffffffffffff8111156133ae57600080fd5b6133ba8b828c0161305e565b9450945050608089013567ffffffffffffffff8111156133d957600080fd5b6133e58b828c01613014565b92509250509295985092959890939650565b60008060008060008060006080888a03121561341257600080fd5b600088013567ffffffffffffffff81111561342c57600080fd5b6134388a828b0161305e565b9750975050602088013567ffffffffffffffff81111561345757600080fd5b6134638a828b0161305e565b955095505060406134768a828b01612fff565b935050606088013567ffffffffffffffff81111561349357600080fd5b61349f8a828b01613014565b925092505092959891949750929550565b6000602082840312156134c257600080fd5b600082013567ffffffffffffffff8111156134dc57600080fd5b6134e8848285016130a8565b91505092915050565b60006020828403121561350357600080fd5b600082013567ffffffffffffffff81111561351d57600080fd5b613529848285016130fc565b91505092915050565b6000806040838503121561354557600080fd5b600083013567ffffffffffffffff81111561355f57600080fd5b61356b858286016130fc565b925050602061357c85828601612fff565b9150509250929050565b6000806040838503121561359957600080fd5b60006135a785828601613150565b92505060206135b885828601612fff565b9150509250929050565b6135cb81614361565b82525050565b6135e26135dd82614361565b614456565b82525050565b6135f181614373565b82525050565b6136008161437f565b82525050565b6136176136128261437f565b614468565b82525050565b600061362882614313565b6136328185614334565b9350613642818560208601614423565b61364b8161448e565b840191505092915050565b61365f816143f0565b82525050565b61366e81614402565b82525050565b61367d816143af565b82525050565b600061368f8385614356565b935061369c838584614414565b82840190509392505050565b60006136b382614329565b6136bd8185614345565b93506136cd818560208601614423565b6136d68161448e565b840191505092915050565b60006136ec82614329565b6136f68185614356565b9350613706818560208601614423565b80840191505092915050565b600061371d8261431e565b6137278185614345565b9350613737818560208601614423565b6137408161448e565b840191505092915050565b600081546001811660008114613768576001811461378d576137d1565b607f60028304166137798187614356565b955060ff19831686528086019350506137d1565b6002820461379b8187614356565b95506137a6856142fe565b60005b828110156137c8578154818901526001820191506020810190506137a9565b82880195505050505b505092915050565b60006137e6601c83614356565b91507f19457468657265756d205369676e6564204d6573736167653a0a3332000000006000830152601c82019050919050565b6000613826603a83614345565b91507f4f6e6c79207468652061737369676e207369676e656520627920746865206f7760008301527f6e65722063616e207369676e2074686520646f63756d656e742e0000000000006020830152604082019050919050565b600061388c600983614356565b91507f5061796d617374657200000000000000000000000000000000000000000000006000830152600982019050919050565b60006138cc601783614345565b91507f446f63756d656e7420616c72656164792065786973742e0000000000000000006000830152602082019050919050565b600061390c603283614345565b91507f4f6e6c7920746865206f776e6572206f662074686520646f63756d656e74206360008301527f616e20646f207468697320616374696f6e2e00000000000000000000000000006020830152604082019050919050565b6000613972602283614345565b91507f45434453413a20696e76616c6964207369676e6174757265202773272076616c60008301527f75650000000000000000000000000000000000000000000000000000000000006020830152604082019050919050565b60006139d8602e83614345565b91507f446f63756d656e742073746174652069736e277420696e205369676e696e672060008301527f50656e64696e672053746174652e0000000000000000000000000000000000006020830152604082019050919050565b6000613a3e601683614345565b91507f446f63756d656e74206469646e27742065786973742e000000000000000000006000830152602082019050919050565b6000613a7e601583614345565b91507f4163636f756e74206469646e27742065786973742e00000000000000000000006000830152602082019050919050565b6000613abe602283614345565b91507f45434453413a20696e76616c6964207369676e6174757265202776272076616c60008301527f75650000000000000000000000000000000000000000000000000000000000006020830152604082019050919050565b6000613b24600583614356565b91507f4f776e65720000000000000000000000000000000000000000000000000000006000830152600582019050919050565b6000613b64602083614345565b91507f4f776e61626c653a2063616c6c6572206973206e6f7420746865206f776e65726000830152602082019050919050565b6000613ba4604d83614345565b91507f43616e6e6f742061736b20666f7220616e6f74686572207369676e617475726560008301527f20696620746865206c617374207369676e6565206469646e2074207369676e2060208301527f74686520646f63756d656e742e000000000000000000000000000000000000006040830152606082019050919050565b6000613c30601783614345565b91507f5369676e6174757265206973206e6f742076616c69642e0000000000000000006000830152602082019050919050565b6000613c70600083614345565b9150600082019050919050565b6000613c8a600083614356565b9150600082019050919050565b6000613ca4601683614345565b91507f4163636f756e7420616c72656164792065786973742e000000000000000000006000830152602082019050919050565b613ce0816143d9565b82525050565b613cf7613cf2826143d9565b614484565b82525050565b613d06816143e3565b82525050565b6000613d1882876135d1565b601482019150613d2882866135d1565b601482019150613d388285613ce6565b602082019150613d4882846135d1565b60148201915081905095945050505050565b6000613d6682876135d1565b601482019150613d7682866136e1565b9150613d828285613ce6565b602082019150613d9282846135d1565b60148201915081905095945050505050565b6000613db1828486613683565b91508190509392505050565b6000613dc982846136e1565b915081905092915050565b6000613de082896136e1565b9150613dec82886135d1565b601482019150613dfc82876135d1565b601482019150613e0c82866136e1565b9150613e188285613ce6565b602082019150613e2882846135d1565b601482019150819050979650505050505050565b6000613e4882886136e1565b9150613e5482876136e1565b9150613e6082866135d1565b601482019150613e708285613ce6565b602082019150613e8082846135d1565b6014820191508190509695505050505050565b6000613e9f828461374b565b915081905092915050565b6000613eb5826137d9565b9150613ec18284613606565b60208201915081905092915050565b6000613edb8261387f565b9150819050919050565b6000613ef082613b17565b9150819050919050565b6000613f0582613c7d565b9150819050919050565b6000602082019050613f2460008301846135c2565b92915050565b6000602082019050613f3f60008301846135e8565b92915050565b6000608082019050613f5a60008301876135f7565b613f676020830186613cfd565b613f7460408301856135f7565b613f8160608301846135f7565b95945050505050565b60006020820190508181036000830152613fa4818461361d565b905092915050565b6000606082019050613fc16000830186613656565b613fce6020830185613cd7565b613fdb6040830184613cd7565b949350505050565b6000602082019050613ff86000830184613674565b92915050565b600060208201905081810360008301526140188184613712565b905092915050565b6000602082019050818103600083015261403a81846136a8565b905092915050565b6000604082019050818103600083015261405c81856136a8565b905061406b60208301846135c2565b9392505050565b6000608082019050818103600083015261408c8187613712565b905061409b60208301866135c2565b6140a860408301856135c2565b6140b56060830184613665565b95945050505050565b600060208201905081810360008301526140d781613819565b9050919050565b600060208201905081810360008301526140f7816138bf565b9050919050565b60006020820190508181036000830152614117816138ff565b9050919050565b6000602082019050818103600083015261413781613965565b9050919050565b60006020820190508181036000830152614157816139cb565b9050919050565b6000602082019050818103600083015261417781613a31565b9050919050565b6000602082019050818103600083015261419781613a71565b9050919050565b600060208201905081810360008301526141b781613ab1565b9050919050565b600060208201905081810360008301526141d781613b57565b9050919050565b600060208201905081810360008301526141f781613b97565b9050919050565b6000602082019050818103600083015261421781613c23565b9050919050565b6000602082019050818103600083015261423781613c63565b9050919050565b6000602082019050818103600083015261425781613c97565b9050919050565b60006020820190506142736000830184613cd7565b92915050565b6000604051905081810181811067ffffffffffffffff8211171561429c57600080fd5b8060405250919050565b600067ffffffffffffffff8211156142bd57600080fd5b601f19601f8301169050602081019050919050565b600067ffffffffffffffff8211156142e957600080fd5b601f19601f8301169050602081019050919050565b60008190508160005260206000209050919050565b600081519050919050565b600081519050919050565b600081519050919050565b600082825260208201905092915050565b600082825260208201905092915050565b600081905092915050565b600061436c826143b9565b9050919050565b60008115159050919050565b6000819050919050565b6000819050614397826144ac565b919050565b60008190506143aa826144b9565b919050565b6000819050919050565b600073ffffffffffffffffffffffffffffffffffffffff82169050919050565b6000819050919050565b600060ff82169050919050565b60006143fb82614389565b9050919050565b600061440d8261439c565b9050919050565b82818337600083830152505050565b60005b83811015614441578082015181840152602081019050614426565b83811115614450576000848401525b50505050565b600061446182614472565b9050919050565b6000819050919050565b600061447d8261449f565b9050919050565b6000819050919050565b6000601f19601f8301169050919050565b60008160601b9050919050565b600881106144b657fe5b50565b600481106144c357fe5b50565b6144cf81614361565b81146144da57600080fd5b50565b6144e6816143d9565b81146144f157600080fd5b5056fea2646970667358221220d3a118b1c2b2d78d1ee07cba50661294350a516faa3cddaf8ac82a30a2ff939564736f6c63430006030033",
  "source": "pragma solidity ^0.6.2;\n\nimport \"./../SignDocuBussiness.sol\";\nimport \"./../SignDocuStorage.sol\";\n\nlibrary Utils {\n    function getStateFromUint(uint256 _state) public pure returns(State) {\n        if (_state == 1) {\n            return State.Created;\n        }\n        if (_state == 2) {\n            return State.SignPending;\n        }\n        if (_state == 3) {\n            return State.Signed;\n        }\n    }\n}\n\ncontract SignDocuBussinessMock is SignDocuStorage {\n\n    address bussinessContract;\n\n    constructor() public {\n        SignDocuBussiness signDocu = new SignDocuBussiness();\n        bussinessContract = address(signDocu);\n    }\n\n    function setForAccountCreation() public {\n        bussinessContract = address(new ProxyForAccountCreation());\n    }\n    \n    function setForApprovalAccountCreation() public {\n        bussinessContract = address(new ProxyForApprovingAccountCreation());\n    }\n    \n    function setForDocumentCreation() public {\n        bussinessContract = address(new ProxyForDocumentCreation());\n    }\n    \n    function setForSigningCreation() public {\n        bussinessContract = address(new ProxyForDocumentSigning());\n    }\n\n    fallback() external payable {\n        assembly {\n            let _target := sload(0)\n            calldatacopy(0x0, 0x0, calldatasize())\n            let result := delegatecall(gas(), _target, 0x0, calldatasize(), 0x0, 0)\n            returndatacopy(0x0, 0x0, returndatasize())\n            switch result case 0 {revert(0, 0)} default {return (0, returndatasize())}\n        }\n    } \n}\n\n// To deal with 24576 bytes limit\n\ncontract ProxyForAccountCreation is SignDocuBussiness {\n    function createAccountMock(address _sender, string memory _accountPubKey) public {\n        createAccount(_sender, _accountPubKey);\n    }\n}\n\ncontract ProxyForApprovingAccountCreation is SignDocuBussiness {\n    function createAccountMock(address _sender, string memory _accountPubKey) public {\n        createAccount(_sender, _accountPubKey);\n    }\n\n    function resetAccountMock(address _sender, string memory _accountPubKey) public {\n        accounts[_sender] = _accountPubKey;\n    }\n\n    function allowAccountCreationMock(address _sender, address _allowed) public {\n        allowAccountCreation(_sender, _allowed);\n    }\n}\n\ncontract ProxyForDocumentCreation is SignDocuBussiness {\n    function resetAccountMock(address _sender, string memory _accountPubKey) public {\n        accounts[_sender] = _accountPubKey;\n    }\n\n    function createDocumentMock(string memory _cid, string memory _secret, address _sender) public {\n        createDocument(_cid, _secret, _sender);\n    }\n}\n\ncontract ProxyForDocumentSignatureApproval is SignDocuBussiness {\n\n}\n\ncontract ProxyForDocumentSigning is SignDocuBussiness {\n    function setDocumentState(string memory _cid, uint256 _state) public {\n        documents[_cid].state = getStateFromUint(_state);\n    }\n\n    function setSignee(string memory _cid, address _signee) public {\n        documents[_cid].newSignee = _signee;\n    }\n\n    function signMock(string memory _cid, string memory _secret, address _sender) public {\n        sign(_cid, _secret, _sender);\n    }\n\n    function getStateFromUint(uint256 _state) public pure returns(State) {\n        if (_state == 1) {\n            return State.Created;\n        }\n        if (_state == 2) {\n            return State.SignPending;\n        }\n        if (_state == 3) {\n            return State.Signed;\n        }\n    }\n\n    function deleteDocument(string memory _cid, address _sender) public {\n        delete documents[_cid];\n        delete documentsExist[_cid];\n        for(uint i=0; i<creators[_sender].length; i++) {\n            if(keccak256(abi.encodePacked(creators[_sender][i])) == keccak256(abi.encodePacked(_cid))) {\n                for (uint j = i; j<creators[_sender].length-1; j++){\n                    creators[_sender][j] = creators[_sender][j+1];\n                }\n                delete creators[_sender][creators[_sender].length];\n            }\n        }\n    }\n}",
  "sourcePath": "/Users/mariejoseph/Documents/HackFS/IPFS/contracts/Mocks/SignDocuBussinessMock.sol",
  "compiler": {
    "name": "solc",
    "version": "0.6.3+commit.8dda9521.Emscripten.clang"
  },
  "schemaVersion": "3.2.0",
  "updatedAt": "2020-08-27T15:19:01.486Z",
  "devdoc": {
    "methods": {}
  },
  "userdoc": {
    "methods": {}
  }
}