{
  "contractName": "SignDocuBussiness",
  "abi": [
    {
      "anonymous": false,
      "inputs": [
        {
          "indexed": false,
          "internalType": "string",
          "name": "cid",
          "type": "string"
        },
        {
          "indexed": false,
          "internalType": "address",
          "name": "creator",
          "type": "address"
        }
      ],
      "name": "DocumentCreated",
      "type": "event"
    },
    {
      "anonymous": false,
      "inputs": [
        {
          "indexed": true,
          "internalType": "address",
          "name": "previousOwner",
          "type": "address"
        },
        {
          "indexed": true,
          "internalType": "address",
          "name": "newOwner",
          "type": "address"
        }
      ],
      "name": "OwnershipTransferred",
      "type": "event"
    },
    {
      "anonymous": false,
      "inputs": [
        {
          "indexed": false,
          "internalType": "string",
          "name": "cid",
          "type": "string"
        },
        {
          "indexed": false,
          "internalType": "address",
          "name": "signee",
          "type": "address"
        }
      ],
      "name": "Signature",
      "type": "event"
    },
    {
      "inputs": [
        {
          "internalType": "address",
          "name": "",
          "type": "address"
        }
      ],
      "name": "accounts",
      "outputs": [
        {
          "internalType": "string",
          "name": "",
          "type": "string"
        }
      ],
      "stateMutability": "view",
      "type": "function",
      "constant": true
    },
    {
      "inputs": [
        {
          "internalType": "string",
          "name": "",
          "type": "string"
        }
      ],
      "name": "addressStorage",
      "outputs": [
        {
          "internalType": "address",
          "name": "",
          "type": "address"
        }
      ],
      "stateMutability": "view",
      "type": "function",
      "constant": true
    },
    {
      "inputs": [
        {
          "internalType": "address",
          "name": "",
          "type": "address"
        }
      ],
      "name": "allowedBy",
      "outputs": [
        {
          "internalType": "address",
          "name": "",
          "type": "address"
        }
      ],
      "stateMutability": "view",
      "type": "function",
      "constant": true
    },
    {
      "inputs": [
        {
          "internalType": "address",
          "name": "",
          "type": "address"
        }
      ],
      "name": "balances",
      "outputs": [
        {
          "internalType": "uint256",
          "name": "",
          "type": "uint256"
        }
      ],
      "stateMutability": "view",
      "type": "function",
      "constant": true
    },
    {
      "inputs": [
        {
          "internalType": "string",
          "name": "",
          "type": "string"
        }
      ],
      "name": "boolStorage",
      "outputs": [
        {
          "internalType": "bool",
          "name": "",
          "type": "bool"
        }
      ],
      "stateMutability": "view",
      "type": "function",
      "constant": true
    },
    {
      "inputs": [
        {
          "internalType": "string",
          "name": "",
          "type": "string"
        }
      ],
      "name": "bytesStorage",
      "outputs": [
        {
          "internalType": "bytes",
          "name": "",
          "type": "bytes"
        }
      ],
      "stateMutability": "view",
      "type": "function",
      "constant": true
    },
    {
      "inputs": [
        {
          "internalType": "address",
          "name": "",
          "type": "address"
        },
        {
          "internalType": "uint256",
          "name": "",
          "type": "uint256"
        }
      ],
      "name": "creators",
      "outputs": [
        {
          "internalType": "string",
          "name": "",
          "type": "string"
        }
      ],
      "stateMutability": "view",
      "type": "function",
      "constant": true
    },
    {
      "inputs": [
        {
          "internalType": "string",
          "name": "",
          "type": "string"
        }
      ],
      "name": "documents",
      "outputs": [
        {
          "internalType": "string",
          "name": "cid",
          "type": "string"
        },
        {
          "internalType": "address",
          "name": "owner",
          "type": "address"
        },
        {
          "internalType": "address",
          "name": "newSignee",
          "type": "address"
        },
        {
          "internalType": "enum State",
          "name": "state",
          "type": "uint8"
        }
      ],
      "stateMutability": "view",
      "type": "function",
      "constant": true
    },
    {
      "inputs": [
        {
          "internalType": "address",
          "name": "",
          "type": "address"
        },
        {
          "internalType": "uint256",
          "name": "",
          "type": "uint256"
        }
      ],
      "name": "documentsBySignee",
      "outputs": [
        {
          "internalType": "string",
          "name": "",
          "type": "string"
        }
      ],
      "stateMutability": "view",
      "type": "function",
      "constant": true
    },
    {
      "inputs": [
        {
          "internalType": "string",
          "name": "",
          "type": "string"
        }
      ],
      "name": "documentsExist",
      "outputs": [
        {
          "internalType": "bool",
          "name": "",
          "type": "bool"
        }
      ],
      "stateMutability": "view",
      "type": "function",
      "constant": true
    },
    {
      "inputs": [],
      "name": "getCreatedDocument",
      "outputs": [
        {
          "internalType": "string[]",
          "name": "",
          "type": "string[]"
        }
      ],
      "stateMutability": "view",
      "type": "function",
      "constant": true
    },
    {
      "inputs": [
        {
          "internalType": "string",
          "name": "_cid",
          "type": "string"
        }
      ],
      "name": "getDocumentSecret",
      "outputs": [
        {
          "internalType": "string",
          "name": "",
          "type": "string"
        }
      ],
      "stateMutability": "view",
      "type": "function",
      "constant": true
    },
    {
      "inputs": [
        {
          "internalType": "string",
          "name": "_cid",
          "type": "string"
        }
      ],
      "name": "getDocumentState",
      "outputs": [
        {
          "internalType": "uint256",
          "name": "",
          "type": "uint256"
        }
      ],
      "stateMutability": "view",
      "type": "function",
      "constant": true
    },
    {
      "inputs": [
        {
          "internalType": "string",
          "name": "_cid",
          "type": "string"
        }
      ],
      "name": "getOwnerOfDocument",
      "outputs": [
        {
          "internalType": "address",
          "name": "",
          "type": "address"
        }
      ],
      "stateMutability": "view",
      "type": "function",
      "constant": true
    },
    {
      "inputs": [],
      "name": "getSigneeDocument",
      "outputs": [
        {
          "internalType": "string[]",
          "name": "",
          "type": "string[]"
        }
      ],
      "stateMutability": "view",
      "type": "function",
      "constant": true
    },
    {
      "inputs": [
        {
          "internalType": "string",
          "name": "",
          "type": "string"
        }
      ],
      "name": "int256Storage",
      "outputs": [
        {
          "internalType": "int256",
          "name": "",
          "type": "int256"
        }
      ],
      "stateMutability": "view",
      "type": "function",
      "constant": true
    },
    {
      "inputs": [
        {
          "internalType": "address",
          "name": "forwarder",
          "type": "address"
        }
      ],
      "name": "isTrustedForwarder",
      "outputs": [
        {
          "internalType": "bool",
          "name": "",
          "type": "bool"
        }
      ],
      "stateMutability": "view",
      "type": "function",
      "constant": true
    },
    {
      "inputs": [
        {
          "internalType": "string",
          "name": "",
          "type": "string"
        }
      ],
      "name": "stringStorage",
      "outputs": [
        {
          "internalType": "string",
          "name": "",
          "type": "string"
        }
      ],
      "stateMutability": "view",
      "type": "function",
      "constant": true
    },
    {
      "inputs": [
        {
          "internalType": "string",
          "name": "",
          "type": "string"
        }
      ],
      "name": "uint256Storage",
      "outputs": [
        {
          "internalType": "uint256",
          "name": "",
          "type": "uint256"
        }
      ],
      "stateMutability": "view",
      "type": "function",
      "constant": true
    },
    {
      "inputs": [],
      "name": "versionRecipient",
      "outputs": [
        {
          "internalType": "string",
          "name": "",
          "type": "string"
        }
      ],
      "stateMutability": "view",
      "type": "function",
      "constant": true
    },
    {
      "inputs": [
        {
          "internalType": "address",
          "name": "_sender",
          "type": "address"
        },
        {
          "internalType": "string",
          "name": "_accountPubKey",
          "type": "string"
        },
        {
          "internalType": "bytes",
          "name": "_signature",
          "type": "bytes"
        }
      ],
      "name": "createAccount",
      "outputs": [],
      "stateMutability": "nonpayable",
      "type": "function"
    },
    {
      "inputs": [
        {
          "internalType": "address",
          "name": "_sender",
          "type": "address"
        },
        {
          "internalType": "address",
          "name": "_allowedAccount",
          "type": "address"
        },
        {
          "internalType": "bytes",
          "name": "_signature",
          "type": "bytes"
        }
      ],
      "name": "allowAccountCreation",
      "outputs": [],
      "stateMutability": "nonpayable",
      "type": "function"
    },
    {
      "inputs": [
        {
          "internalType": "string",
          "name": "_cid",
          "type": "string"
        },
        {
          "internalType": "string",
          "name": "_secret",
          "type": "string"
        },
        {
          "internalType": "address",
          "name": "_sender",
          "type": "address"
        },
        {
          "internalType": "bytes",
          "name": "_signature",
          "type": "bytes"
        }
      ],
      "name": "createDocument",
      "outputs": [],
      "stateMutability": "nonpayable",
      "type": "function"
    },
    {
      "inputs": [
        {
          "internalType": "string",
          "name": "_cid",
          "type": "string"
        },
        {
          "internalType": "string",
          "name": "_secret",
          "type": "string"
        },
        {
          "internalType": "address",
          "name": "_sender",
          "type": "address"
        },
        {
          "internalType": "bytes",
          "name": "_signature",
          "type": "bytes"
        }
      ],
      "name": "sign",
      "outputs": [],
      "stateMutability": "nonpayable",
      "type": "function"
    },
    {
      "inputs": [
        {
          "internalType": "string",
          "name": "_cid",
          "type": "string"
        },
        {
          "internalType": "address",
          "name": "_sender",
          "type": "address"
        },
        {
          "internalType": "address",
          "name": "_newSignee",
          "type": "address"
        },
        {
          "internalType": "string",
          "name": "_secret",
          "type": "string"
        },
        {
          "internalType": "bytes",
          "name": "_signature",
          "type": "bytes"
        }
      ],
      "name": "approveToSign",
      "outputs": [],
      "stateMutability": "nonpayable",
      "type": "function"
    },
    {
      "inputs": [],
      "name": "sendPayement",
      "outputs": [],
      "stateMutability": "payable",
      "type": "function",
      "payable": true
    },
    {
      "inputs": [
        {
          "internalType": "address",
          "name": "_paymaster",
          "type": "address"
        }
      ],
      "name": "setPaymaster",
      "outputs": [],
      "stateMutability": "nonpayable",
      "type": "function"
    },
    {
      "inputs": [
        {
          "internalType": "uint256",
          "name": "_fee",
          "type": "uint256"
        },
        {
          "internalType": "address",
          "name": "_accountPayingFees",
          "type": "address"
        }
      ],
      "name": "getFeeByPaymaster",
      "outputs": [],
      "stateMutability": "nonpayable",
      "type": "function"
    }
  ],
  "bytecode": "0x608060405234801561001057600080fd5b50614316806100206000396000f3fe6080604052600436106101b75760003560e01c80635e5c06e2116100ec578063a44543401161008a578063ba8ef30311610064578063ba8ef303146106a8578063e12b6c1d146106d3578063e5b0b90c146106fc578063ff86e28c14610739576101b7565b8063a4454340146105ee578063b3dd697b1461062b578063b5066b611461066b576101b7565b80637547b64e116100c65780637547b64e1461053f5780638e0639921461057c5780639021639c1461058657806398a270eb146105b1576101b7565b80635e5c06e214610488578063699a2033146104c557806370a13b4814610502576101b7565b806332285bda116101595780634c969a34116101335780634c969a34146103a8578063572b6c05146103d1578063576777091461040e57806359328eb51461044b576101b7565b806332285bda14610317578063486ff0cd1461035457806349b985571461037f576101b7565b806326ec90ae1161019557806326ec90ae1461025f57806327e235e3146102885780632a97fa77146102c557806330980857146102ee576101b7565b8063078e84f4146101bc578063197c9fc5146101e55780632453099514610222575b600080fd5b3480156101c857600080fd5b506101e360048036038101906101de91906130a1565b610776565b005b3480156101f157600080fd5b5061020c600480360381019061020791906132eb565b61089d565b6040516102199190613d6e565b60405180910390f35b34801561022e57600080fd5b50610249600480360381019061024491906132eb565b6108d3565b6040516102569190613dce565b60405180910390f35b34801561026b57600080fd5b5061028660048036038101906102819190613232565b610999565b005b34801561029457600080fd5b506102af60048036038101906102aa919061300c565b610b4c565b6040516102bc9190614069565b60405180910390f35b3480156102d157600080fd5b506102ec60048036038101906102e7919061300c565b610b64565b005b3480156102fa57600080fd5b506103156004803603810190610310919061332c565b610c73565b005b34801561032357600080fd5b5061033e600480360381019061033991906132eb565b610e30565b60405161034b9190613e0b565b60405180910390f35b34801561036057600080fd5b50610369610ef6565b6040516103769190613e0b565b60405180910390f35b34801561038b57600080fd5b506103a660048036038101906103a19190613166565b610f33565b005b3480156103b457600080fd5b506103cf60048036038101906103ca9190613232565b6110e9565b005b3480156103dd57600080fd5b506103f860048036038101906103f3919061300c565b61129c565b6040516104059190613d6e565b60405180910390f35b34801561041a57600080fd5b50610435600480360381019061043091906132eb565b6112f5565b6040516104429190614069565b60405180910390f35b34801561045757600080fd5b50610472600480360381019061046d919061300c565b611338565b60405161047f9190613d31565b60405180910390f35b34801561049457600080fd5b506104af60048036038101906104aa919061300c565b61136b565b6040516104bc9190613e0b565b60405180910390f35b3480156104d157600080fd5b506104ec60048036038101906104e7919061312a565b61141b565b6040516104f99190613e0b565b60405180910390f35b34801561050e57600080fd5b50610529600480360381019061052491906132eb565b6114e1565b6040516105369190613df0565b60405180910390f35b34801561054b57600080fd5b50610566600480360381019061056191906132eb565b61150f565b6040516105739190613d31565b60405180910390f35b610584611558565b005b34801561059257600080fd5b5061059b6115ed565b6040516105a89190613d4c565b60405180910390f35b3480156105bd57600080fd5b506105d860048036038101906105d391906132eb565b611713565b6040516105e59190613e0b565b60405180910390f35b3480156105fa57600080fd5b506106156004803603810190610610919061312a565b611813565b6040516106229190613e0b565b60405180910390f35b34801561063757600080fd5b50610652600480360381019061064d91906132eb565b6118d9565b6040516106629493929190613e5d565b60405180910390f35b34801561067757600080fd5b50610692600480360381019061068d91906132eb565b611a04565b60405161069f9190613d6e565b60405180910390f35b3480156106b457600080fd5b506106bd611a3a565b6040516106ca9190613d4c565b60405180910390f35b3480156106df57600080fd5b506106fa60048036038101906106f59190613035565b611b60565b005b34801561070857600080fd5b50610723600480360381019061071e91906132eb565b611bfe565b6040516107309190614069565b60405180910390f35b34801561074557600080fd5b50610760600480360381019061075b91906132eb565b611c2c565b60405161076d9190613d31565b60405180910390f35b6108098585858080601f016020809104026020016040519081016040528093929190818152602001838380828437600081840152601f19601f8201169050808301925050505050505084848080601f016020809104026020016040519081016040528093929190818152602001838380828437600081840152601f19601f82011690508083019250505050505050611c77565b610848576040517f08c379a000000000000000000000000000000000000000000000000000000000815260040161083f90614009565b60405180910390fd5b6108968585858080601f016020809104026020016040519081016040528093929190818152602001838380828437600081840152601f19601f82011690508083019250505050505050611cff565b5050505050565b6003818051602081018201805184825260208301602085012081835280955050505050506000915054906101000a900460ff1681565b600c818051602081018201805184825260208301602085012081835280955050505050506000915090508054600181600116156101000203166002900480601f0160208091040260200160405190810160405280929190818152602001828054600181600116156101000203166002900480156109915780601f1061096657610100808354040283529160200191610991565b820191906000526020600020905b81548152906001019060200180831161097457829003601f168201915b505050505081565b610a7187878080601f016020809104026020016040519081016040528093929190818152602001838380828437600081840152601f19601f8201169050808301925050505050505086868080601f016020809104026020016040519081016040528093929190818152602001838380828437600081840152601f19601f820116905080830192505050505050508585858080601f016020809104026020016040519081016040528093929190818152602001838380828437600081840152601f19601f82011690508083019250505050505050611e23565b610ab0576040517f08c379a0000000000000000000000000000000000000000000000000000000008152600401610aa790614009565b60405180910390fd5b610b4387878080601f016020809104026020016040519081016040528093929190818152602001838380828437600081840152601f19601f8201169050808301925050505050505086868080601f016020809104026020016040519081016040528093929190818152602001838380828437600081840152601f19601f8201169050808301925050505050505085611eae565b50505050505050565b60016020528060005260406000206000915090505481565b610b6c612065565b73ffffffffffffffffffffffffffffffffffffffff16600b604051610b9090613d07565b908152602001604051809103902060009054906101000a900473ffffffffffffffffffffffffffffffffffffffff1673ffffffffffffffffffffffffffffffffffffffff1614610c15576040517f08c379a0000000000000000000000000000000000000000000000000000000008152600401610c0c90613fc9565b60405180910390fd5b80600b604051610c2490613cf2565b908152602001604051809103902060006101000a81548173ffffffffffffffffffffffffffffffffffffffff021916908373ffffffffffffffffffffffffffffffffffffffff16021790555050565b610c7b612065565b73ffffffffffffffffffffffffffffffffffffffff16600b604051610c9f90613cf2565b908152602001604051809103902060009054906101000a900473ffffffffffffffffffffffffffffffffffffffff1673ffffffffffffffffffffffffffffffffffffffff1614610d24576040517f08c379a0000000000000000000000000000000000000000000000000000000008152600401610d1b90614029565b60405180910390fd5b81600160008373ffffffffffffffffffffffffffffffffffffffff1673ffffffffffffffffffffffffffffffffffffffff1681526020019081526020016000205403600160008373ffffffffffffffffffffffffffffffffffffffff1673ffffffffffffffffffffffffffffffffffffffff16815260200190815260200160002081905550600b604051610db790613cf2565b908152602001604051809103902060009054906101000a900473ffffffffffffffffffffffffffffffffffffffff1673ffffffffffffffffffffffffffffffffffffffff166108fc839081150290604051600060405180830381858888f19350505050158015610e2b573d6000803e3d6000fd5b505050565b600d818051602081018201805184825260208301602085012081835280955050505050506000915090508054600181600116156101000203166002900480601f016020809104026020016040519081016040528092919081815260200182805460018160011615610100020316600290048015610eee5780601f10610ec357610100808354040283529160200191610eee565b820191906000526020600020905b815481529060010190602001808311610ed157829003601f168201915b505050505081565b60606040518060400160405280600581526020017f302e302e31000000000000000000000000000000000000000000000000000000815250905090565b61100c88888080601f016020809104026020016040519081016040528093929190818152602001838380828437600081840152601f19601f82011690508083019250505050505050878787878080601f016020809104026020016040519081016040528093929190818152602001838380828437600081840152601f19601f8201169050808301925050505050505086868080601f016020809104026020016040519081016040528093929190818152602001838380828437600081840152601f19601f820116905080830192505050505050506120ea565b61104b576040517f08c379a000000000000000000000000000000000000000000000000000000000815260040161104290614009565b60405180910390fd5b6110df88888080601f016020809104026020016040519081016040528093929190818152602001838380828437600081840152601f19601f82011690508083019250505050505050878787878080601f016020809104026020016040519081016040528093929190818152602001838380828437600081840152601f19601f82011690508083019250505050505050612178565b5050505050505050565b6111c187878080601f016020809104026020016040519081016040528093929190818152602001838380828437600081840152601f19601f8201169050808301925050505050505086868080601f016020809104026020016040519081016040528093929190818152602001838380828437600081840152601f19601f820116905080830192505050505050508585858080601f016020809104026020016040519081016040528093929190818152602001838380828437600081840152601f19601f82011690508083019250505050505050612531565b611200576040517f08c379a00000000000000000000000000000000000000000000000000000000081526004016111f790614009565b60405180910390fd5b61129387878080601f016020809104026020016040519081016040528093929190818152602001838380828437600081840152601f19601f8201169050808301925050505050505086868080601f016020809104026020016040519081016040528093929190818152602001838380828437600081840152601f19601f82011690508083019250505050505050856125bc565b50505050505050565b60008060009054906101000a900473ffffffffffffffffffffffffffffffffffffffff1673ffffffffffffffffffffffffffffffffffffffff168273ffffffffffffffffffffffffffffffffffffffff16149050919050565b60006002826040516113079190613bdf565b908152602001604051809103902060020160149054906101000a900460ff16600381111561133157fe5b9050919050565b60056020528060005260406000206000915054906101000a900473ffffffffffffffffffffffffffffffffffffffff1681565b60046020528060005260406000206000915090508054600181600116156101000203166002900480601f0160208091040260200160405190810160405280929190818152602001828054600181600116156101000203166002900480156114135780601f106113e857610100808354040283529160200191611413565b820191906000526020600020905b8154815290600101906020018083116113f657829003601f168201915b505050505081565b6007602052816000526040600020818154811061143457fe5b90600052602060002001600091509150508054600181600116156101000203166002900480601f0160208091040260200160405190810160405280929190818152602001828054600181600116156101000203166002900480156114d95780601f106114ae576101008083540402835291602001916114d9565b820191906000526020600020905b8154815290600101906020018083116114bc57829003601f168201915b505050505081565b6009818051602081018201805184825260208301602085012081835280955050505050506000915090505481565b600b818051602081018201805184825260208301602085012081835280955050505050506000915054906101000a900473ffffffffffffffffffffffffffffffffffffffff1681565b3460016000611565612065565b73ffffffffffffffffffffffffffffffffffffffff1673ffffffffffffffffffffffffffffffffffffffff1681526020019081526020016000205401600160006115ad612065565b73ffffffffffffffffffffffffffffffffffffffff1673ffffffffffffffffffffffffffffffffffffffff16815260200190815260200160002081905550565b6060600660003373ffffffffffffffffffffffffffffffffffffffff1673ffffffffffffffffffffffffffffffffffffffff168152602001908152602001600020805480602002602001604051908101604052809291908181526020016000905b8282101561170a578382906000526020600020018054600181600116156101000203166002900480601f0160208091040260200160405190810160405280929190818152602001828054600181600116156101000203166002900480156116f65780601f106116cb576101008083540402835291602001916116f6565b820191906000526020600020905b8154815290600101906020018083116116d957829003601f168201915b50505050508152602001906001019061164e565b50505050905090565b60606002826040516117259190613bdf565b908152602001604051809103902060030160003373ffffffffffffffffffffffffffffffffffffffff1673ffffffffffffffffffffffffffffffffffffffff1681526020019081526020016000208054600181600116156101000203166002900480601f0160208091040260200160405190810160405280929190818152602001828054600181600116156101000203166002900480156118075780601f106117dc57610100808354040283529160200191611807565b820191906000526020600020905b8154815290600101906020018083116117ea57829003601f168201915b50505050509050919050565b6006602052816000526040600020818154811061182c57fe5b90600052602060002001600091509150508054600181600116156101000203166002900480601f0160208091040260200160405190810160405280929190818152602001828054600181600116156101000203166002900480156118d15780601f106118a6576101008083540402835291602001916118d1565b820191906000526020600020905b8154815290600101906020018083116118b457829003601f168201915b505050505081565b600281805160208101820180518482526020830160208501208183528095505050505050600091509050806000018054600181600116156101000203166002900480601f01602080910402602001604051908101604052809291908181526020018280546001816001161561010002031660029004801561199b5780601f106119705761010080835404028352916020019161199b565b820191906000526020600020905b81548152906001019060200180831161197e57829003601f168201915b5050505050908060010160009054906101000a900473ffffffffffffffffffffffffffffffffffffffff16908060020160009054906101000a900473ffffffffffffffffffffffffffffffffffffffff16908060020160149054906101000a900460ff16905084565b600a818051602081018201805184825260208301602085012081835280955050505050506000915054906101000a900460ff1681565b6060600760003373ffffffffffffffffffffffffffffffffffffffff1673ffffffffffffffffffffffffffffffffffffffff168152602001908152602001600020805480602002602001604051908101604052809291908181526020016000905b82821015611b57578382906000526020600020018054600181600116156101000203166002900480601f016020809104026020016040519081016040528092919081815260200182805460018160011615610100020316600290048015611b435780601f10611b1857610100808354040283529160200191611b43565b820191906000526020600020905b815481529060010190602001808311611b2657829003601f168201915b505050505081526020019060010190611a9b565b50505050905090565b611baf848484848080601f016020809104026020016040519081016040528093929190818152602001838380828437600081840152601f19601f820116905080830192505050505050506129a7565b611bee576040517f08c379a0000000000000000000000000000000000000000000000000000000008152600401611be590614009565b60405180910390fd5b611bf88484612a2e565b50505050565b6008818051602081018201805184825260208301602085012081835280955050505050506000915090505481565b6000600282604051611c3e9190613bdf565b908152602001604051809103902060010160009054906101000a900473ffffffffffffffffffffffffffffffffffffffff169050919050565b600080611cbb858560036004811115611c8c57fe5b30604051602001611ca09493929190613b95565b60405160208183030381529060405280519060200120612c49565b90508473ffffffffffffffffffffffffffffffffffffffff16611cde8285612c79565b73ffffffffffffffffffffffffffffffffffffffff16149150509392505050565b81604051602001611d0f90613d1c565b60405160208183030381529060405280519060200120600460008373ffffffffffffffffffffffffffffffffffffffff1673ffffffffffffffffffffffffffffffffffffffff168152602001908152602001600020604051602001611d749190613cb5565b6040516020818303038152906040528051906020012014611dca576040517f08c379a0000000000000000000000000000000000000000000000000000000008152600401611dc190614049565b60405180910390fd5b81600460008573ffffffffffffffffffffffffffffffffffffffff1673ffffffffffffffffffffffffffffffffffffffff1681526020019081526020016000209080519060200190611e1d929190612e55565b50505050565b600080611e6986868660026004811115611e3957fe5b30604051602001611e4e959493929190613c5e565b60405160208183030381529060405280519060200120612c49565b90508373ffffffffffffffffffffffffffffffffffffffff16611e8c8285612c79565b73ffffffffffffffffffffffffffffffffffffffff1614915050949350505050565b82600381604051611ebf9190613bdf565b908152602001604051809103902060009054906101000a900460ff16611f1a576040517f08c379a0000000000000000000000000000000000000000000000000000000008152600401611f1190613f69565b60405180910390fd5b6000600285604051611f2c9190613bdf565b9081526020016040518091039020905060026003811115611f4957fe5b8160020160149054906101000a900460ff166003811115611f6657fe5b14611fa6576040517f08c379a0000000000000000000000000000000000000000000000000000000008152600401611f9d90613f49565b60405180910390fd5b8273ffffffffffffffffffffffffffffffffffffffff168160020160009054906101000a900473ffffffffffffffffffffffffffffffffffffffff1673ffffffffffffffffffffffffffffffffffffffff1614612038576040517f08c379a000000000000000000000000000000000000000000000000000000000815260040161202f90613ec9565b60405180910390fd5b60038160020160146101000a81548160ff0219169083600381111561205957fe5b02179055505050505050565b6000601860003690501015801561208157506120803361129c565b5b156120e3576120dc6000368080601f016020809104026020016040519081016040528093929190818152602001838380828437600081840152601f19601f820116905080830192505050505050506014600036905003612ce8565b90506120e7565b3390505b90565b600080612132878787876001600481111561210157fe5b3060405160200161211796959493929190613bf6565b60405160208183030381529060405280519060200120612c49565b90508573ffffffffffffffffffffffffffffffffffffffff166121558285612c79565b73ffffffffffffffffffffffffffffffffffffffff161491505095945050505050565b836003816040516121899190613bdf565b908152602001604051809103902060009054906101000a900460ff166121e4576040517f08c379a00000000000000000000000000000000000000000000000000000000081526004016121db90613f69565b60405180910390fd5b84848073ffffffffffffffffffffffffffffffffffffffff1660028360405161220d9190613bdf565b908152602001604051809103902060010160009054906101000a900473ffffffffffffffffffffffffffffffffffffffff1673ffffffffffffffffffffffffffffffffffffffff1614612295576040517f08c379a000000000000000000000000000000000000000000000000000000000815260040161228c90613f09565b60405180910390fd5b846040516020016122a590613d1c565b60405160208183030381529060405280519060200120600460008373ffffffffffffffffffffffffffffffffffffffff1673ffffffffffffffffffffffffffffffffffffffff16815260200190815260200160002060405160200161230a9190613cb5565b604051602081830303815290604052805190602001201415612361576040517f08c379a000000000000000000000000000000000000000000000000000000000815260040161235890613f89565b60405180910390fd5b60006002896040516123739190613bdf565b908152602001604051809103902090506002600381111561239057fe5b8160020160149054906101000a900460ff1660038111156123ad57fe5b14156123ee576040517f08c379a00000000000000000000000000000000000000000000000000000000081526004016123e590613fe9565b60405180910390fd5b868160020160006101000a81548173ffffffffffffffffffffffffffffffffffffffff021916908373ffffffffffffffffffffffffffffffffffffffff160217905550858160030160008973ffffffffffffffffffffffffffffffffffffffff1673ffffffffffffffffffffffffffffffffffffffff1681526020019081526020016000209080519060200190612486929190612e55565b5060028160020160146101000a81548160ff021916908360038111156124a857fe5b0217905550600760008873ffffffffffffffffffffffffffffffffffffffff1673ffffffffffffffffffffffffffffffffffffffff16815260200190815260200160002089908060018154018082558091505060019003906000526020600020016000909190919091509080519060200190612525929190612e55565b50505050505050505050565b6000806125778686866000600481111561254757fe5b3060405160200161255c959493929190613c5e565b60405160208183030381529060405280519060200120612c49565b90508373ffffffffffffffffffffffffffffffffffffffff1661259a8285612c79565b73ffffffffffffffffffffffffffffffffffffffff1614915050949350505050565b826003816040516125cd9190613bdf565b908152602001604051809103902060009054906101000a900460ff1615612629576040517f08c379a000000000000000000000000000000000000000000000000000000000815260040161262090613ee9565b60405180910390fd5b8160405160200161263990613d1c565b60405160208183030381529060405280519060200120600460008373ffffffffffffffffffffffffffffffffffffffff1673ffffffffffffffffffffffffffffffffffffffff16815260200190815260200160002060405160200161269e9190613cb5565b6040516020818303038152906040528051906020012014156126f5576040517f08c379a00000000000000000000000000000000000000000000000000000000081526004016126ec90613f89565b60405180910390fd5b60405180608001604052808681526020018473ffffffffffffffffffffffffffffffffffffffff168152602001600073ffffffffffffffffffffffffffffffffffffffff1681526020016001600381111561274c57fe5b81525060028660405161275f9190613bdf565b90815260200160405180910390206000820151816000019080519060200190612789929190612e55565b5060208201518160010160006101000a81548173ffffffffffffffffffffffffffffffffffffffff021916908373ffffffffffffffffffffffffffffffffffffffff16021790555060408201518160020160006101000a81548173ffffffffffffffffffffffffffffffffffffffff021916908373ffffffffffffffffffffffffffffffffffffffff16021790555060608201518160020160146101000a81548160ff0219169083600381111561283c57fe5b0217905550905050836002866040516128559190613bdf565b908152602001604051809103902060030160008573ffffffffffffffffffffffffffffffffffffffff1673ffffffffffffffffffffffffffffffffffffffff16815260200190815260200160002090805190602001906128b6929190612e55565b5060016003866040516128c99190613bdf565b908152602001604051809103902060006101000a81548160ff021916908315150217905550600660008473ffffffffffffffffffffffffffffffffffffffff1673ffffffffffffffffffffffffffffffffffffffff16815260200190815260200160002085908060018154018082558091505060019003906000526020600020016000909190919091509080519060200190612966929190612e55565b507f144ced1a295f096707ac7e7d8aa1a5a89bc1fd73ea6c8d75de34bba0fe0b132e8584604051612998929190613e2d565b60405180910390a15050505050565b6000806129ea85856004808111156129bb57fe5b306040516020016129cf9493929190613b47565b60405160208183030381529060405280519060200120612c49565b90508473ffffffffffffffffffffffffffffffffffffffff16612a0d8285612c79565b73ffffffffffffffffffffffffffffffffffffffff16149150509392505050565b81604051602001612a3e90613d1c565b60405160208183030381529060405280519060200120600460008373ffffffffffffffffffffffffffffffffffffffff1673ffffffffffffffffffffffffffffffffffffffff168152602001908152602001600020604051602001612aa39190613cb5565b604051602081830303815290604052805190602001201415612afa576040517f08c379a0000000000000000000000000000000000000000000000000000000008152600401612af190613f89565b60405180910390fd5b81604051602001612b0a90613d1c565b60405160208183030381529060405280519060200120600460008373ffffffffffffffffffffffffffffffffffffffff1673ffffffffffffffffffffffffffffffffffffffff168152602001908152602001600020604051602001612b6f9190613cb5565b6040516020818303038152906040528051906020012014612bc5576040517f08c379a0000000000000000000000000000000000000000000000000000000008152600401612bbc90614049565b60405180910390fd5b83600560008573ffffffffffffffffffffffffffffffffffffffff1673ffffffffffffffffffffffffffffffffffffffff16815260200190815260200160002060006101000a81548173ffffffffffffffffffffffffffffffffffffffff021916908373ffffffffffffffffffffffffffffffffffffffff16021790555050505050565b600081604051602001612c5c9190613ccc565b604051602081830303815290604052805190602001209050919050565b600080600080612c8885612d5c565b92509250925060018684848460405160008152602001604052604051612cb19493929190613d89565b6020604051602081039080840390855afa158015612cd3573d6000803e3d6000fd5b50505060206040510351935050505092915050565b60006014820183511015612d31576040517f08c379a0000000000000000000000000000000000000000000000000000000008152600401612d2890613ea9565b60405180910390fd5b60148201915073ffffffffffffffffffffffffffffffffffffffff8284015116905080905092915050565b60008060006041845114612d6f57600080fd5b6020840151915060408401519050606084015160001a92507f7fffffffffffffffffffffffffffffff5d576e7357a4501ddfe92f46681b20a08160001c1115612ded576040517f08c379a0000000000000000000000000000000000000000000000000000000008152600401612de490613f29565b60405180910390fd5b601b8360ff1614158015612e055750601c8360ff1614155b15612e45576040517f08c379a0000000000000000000000000000000000000000000000000000000008152600401612e3c90613fa9565b60405180910390fd5b8282829250925092509193909250565b828054600181600116156101000203166002900490600052602060002090601f016020900481019282601f10612e9657805160ff1916838001178555612ec4565b82800160010185558215612ec4579182015b82811115612ec3578251825591602001919060010190612ea8565b5b509050612ed19190612ed5565b5090565b612ef791905b80821115612ef3576000816000905550600101612edb565b5090565b90565b600081359050612f09816142b2565b92915050565b60008083601f840112612f2157600080fd5b8235905067ffffffffffffffff811115612f3a57600080fd5b602083019150836001820283011115612f5257600080fd5b9250929050565b60008083601f840112612f6b57600080fd5b8235905067ffffffffffffffff811115612f8457600080fd5b602083019150836001820283011115612f9c57600080fd5b9250929050565b600082601f830112612fb457600080fd5b8135612fc7612fc2826140b1565b614084565b91508082526020830160208301858383011115612fe357600080fd5b612fee83828461420d565b50505092915050565b600081359050613006816142c9565b92915050565b60006020828403121561301e57600080fd5b600061302c84828501612efa565b91505092915050565b6000806000806060858703121561304b57600080fd5b600061305987828801612efa565b945050602061306a87828801612efa565b935050604085013567ffffffffffffffff81111561308757600080fd5b61309387828801612f0f565b925092505092959194509250565b6000806000806000606086880312156130b957600080fd5b60006130c788828901612efa565b955050602086013567ffffffffffffffff8111156130e457600080fd5b6130f088828901612f59565b9450945050604086013567ffffffffffffffff81111561310f57600080fd5b61311b88828901612f0f565b92509250509295509295909350565b6000806040838503121561313d57600080fd5b600061314b85828601612efa565b925050602061315c85828601612ff7565b9150509250929050565b60008060008060008060008060a0898b03121561318257600080fd5b600089013567ffffffffffffffff81111561319c57600080fd5b6131a88b828c01612f59565b985098505060206131bb8b828c01612efa565b96505060406131cc8b828c01612efa565b955050606089013567ffffffffffffffff8111156131e957600080fd5b6131f58b828c01612f59565b9450945050608089013567ffffffffffffffff81111561321457600080fd5b6132208b828c01612f0f565b92509250509295985092959890939650565b60008060008060008060006080888a03121561324d57600080fd5b600088013567ffffffffffffffff81111561326757600080fd5b6132738a828b01612f59565b9750975050602088013567ffffffffffffffff81111561329257600080fd5b61329e8a828b01612f59565b955095505060406132b18a828b01612efa565b935050606088013567ffffffffffffffff8111156132ce57600080fd5b6132da8a828b01612f0f565b925092505092959891949750929550565b6000602082840312156132fd57600080fd5b600082013567ffffffffffffffff81111561331757600080fd5b61332384828501612fa3565b91505092915050565b6000806040838503121561333f57600080fd5b600061334d85828601612ff7565b925050602061335e85828601612efa565b9150509250929050565b600061337483836134a3565b905092915050565b6133858161417f565b82525050565b61339c6133978261417f565b61424f565b82525050565b60006133ad82614102565b6133b78185614130565b9350836020820285016133c9856140dd565b8060005b8581101561340557848403895281516133e68582613368565b94506133f183614123565b925060208a019950506001810190506133cd565b50829750879550505050505092915050565b61342081614191565b82525050565b61342f8161419d565b82525050565b6134466134418261419d565b614261565b82525050565b60006134578261410d565b6134618185614141565b935061347181856020860161421c565b61347a81614287565b840191505092915050565b61348e816141fb565b82525050565b61349d816141ba565b82525050565b60006134ae82614118565b6134b88185614152565b93506134c881856020860161421c565b6134d181614287565b840191505092915050565b60006134e782614118565b6134f18185614163565b935061350181856020860161421c565b61350a81614287565b840191505092915050565b600061352082614118565b61352a8185614174565b935061353a81856020860161421c565b80840191505092915050565b6000815460018116600081146135635760018114613588576135cc565b607f60028304166135748187614174565b955060ff19831686528086019350506135cc565b600282046135968187614174565b95506135a1856140ed565b60005b828110156135c3578154818901526001820191506020810190506135a4565b82880195505050505b505092915050565b60006135e1601b83614163565b91507f72656164416464726573733a206461746120746f6f2073686f727400000000006000830152602082019050919050565b6000613621601c83614174565b91507f19457468657265756d205369676e6564204d6573736167653a0a3332000000006000830152601c82019050919050565b6000613661603a83614163565b91507f4f6e6c79207468652061737369676e207369676e656520627920746865206f7760008301527f6e65722063616e207369676e2074686520646f63756d656e742e0000000000006020830152604082019050919050565b60006136c7600983614174565b91507f5061796d617374657200000000000000000000000000000000000000000000006000830152600982019050919050565b6000613707601783614163565b91507f446f63756d656e7420616c72656164792065786973742e0000000000000000006000830152602082019050919050565b6000613747603283614163565b91507f4f6e6c7920746865206f776e6572206f662074686520646f63756d656e74206360008301527f616e20646f207468697320616374696f6e2e00000000000000000000000000006020830152604082019050919050565b60006137ad602283614163565b91507f45434453413a20696e76616c6964207369676e6174757265202773272076616c60008301527f75650000000000000000000000000000000000000000000000000000000000006020830152604082019050919050565b6000613813602e83614163565b91507f446f63756d656e742073746174652069736e277420696e205369676e696e672060008301527f50656e64696e672053746174652e0000000000000000000000000000000000006020830152604082019050919050565b6000613879601683614163565b91507f446f63756d656e74206469646e27742065786973742e000000000000000000006000830152602082019050919050565b60006138b9601583614163565b91507f4163636f756e74206469646e27742065786973742e00000000000000000000006000830152602082019050919050565b60006138f9602283614163565b91507f45434453413a20696e76616c6964207369676e6174757265202776272076616c60008301527f75650000000000000000000000000000000000000000000000000000000000006020830152604082019050919050565b600061395f600583614174565b91507f4f776e65720000000000000000000000000000000000000000000000000000006000830152600582019050919050565b600061399f602083614163565b91507f4f776e61626c653a2063616c6c6572206973206e6f7420746865206f776e65726000830152602082019050919050565b60006139df604d83614163565b91507f43616e6e6f742061736b20666f7220616e6f74686572207369676e617475726560008301527f20696620746865206c617374207369676e6565206469646e2074207369676e2060208301527f74686520646f63756d656e742e000000000000000000000000000000000000006040830152606082019050919050565b6000613a6b601783614163565b91507f5369676e6174757265206973206e6f742076616c69642e0000000000000000006000830152602082019050919050565b6000613aab600083614163565b9150600082019050919050565b6000613ac5600083614174565b9150600082019050919050565b6000613adf601683614163565b91507f4163636f756e7420616c72656164792065786973742e000000000000000000006000830152602082019050919050565b613b1b816141e4565b82525050565b613b32613b2d826141e4565b61427d565b82525050565b613b41816141ee565b82525050565b6000613b53828761338b565b601482019150613b63828661338b565b601482019150613b738285613b21565b602082019150613b83828461338b565b60148201915081905095945050505050565b6000613ba1828761338b565b601482019150613bb18286613515565b9150613bbd8285613b21565b602082019150613bcd828461338b565b60148201915081905095945050505050565b6000613beb8284613515565b915081905092915050565b6000613c028289613515565b9150613c0e828861338b565b601482019150613c1e828761338b565b601482019150613c2e8286613515565b9150613c3a8285613b21565b602082019150613c4a828461338b565b601482019150819050979650505050505050565b6000613c6a8288613515565b9150613c768287613515565b9150613c82828661338b565b601482019150613c928285613b21565b602082019150613ca2828461338b565b6014820191508190509695505050505050565b6000613cc18284613546565b915081905092915050565b6000613cd782613614565b9150613ce38284613435565b60208201915081905092915050565b6000613cfd826136ba565b9150819050919050565b6000613d1282613952565b9150819050919050565b6000613d2782613ab8565b9150819050919050565b6000602082019050613d46600083018461337c565b92915050565b60006020820190508181036000830152613d6681846133a2565b905092915050565b6000602082019050613d836000830184613417565b92915050565b6000608082019050613d9e6000830187613426565b613dab6020830186613b38565b613db86040830185613426565b613dc56060830184613426565b95945050505050565b60006020820190508181036000830152613de8818461344c565b905092915050565b6000602082019050613e056000830184613494565b92915050565b60006020820190508181036000830152613e2581846134dc565b905092915050565b60006040820190508181036000830152613e4781856134dc565b9050613e56602083018461337c565b9392505050565b60006080820190508181036000830152613e7781876134dc565b9050613e86602083018661337c565b613e93604083018561337c565b613ea06060830184613485565b95945050505050565b60006020820190508181036000830152613ec2816135d4565b9050919050565b60006020820190508181036000830152613ee281613654565b9050919050565b60006020820190508181036000830152613f02816136fa565b9050919050565b60006020820190508181036000830152613f228161373a565b9050919050565b60006020820190508181036000830152613f42816137a0565b9050919050565b60006020820190508181036000830152613f6281613806565b9050919050565b60006020820190508181036000830152613f828161386c565b9050919050565b60006020820190508181036000830152613fa2816138ac565b9050919050565b60006020820190508181036000830152613fc2816138ec565b9050919050565b60006020820190508181036000830152613fe281613992565b9050919050565b60006020820190508181036000830152614002816139d2565b9050919050565b6000602082019050818103600083015261402281613a5e565b9050919050565b6000602082019050818103600083015261404281613a9e565b9050919050565b6000602082019050818103600083015261406281613ad2565b9050919050565b600060208201905061407e6000830184613b12565b92915050565b6000604051905081810181811067ffffffffffffffff821117156140a757600080fd5b8060405250919050565b600067ffffffffffffffff8211156140c857600080fd5b601f19601f8301169050602081019050919050565b6000819050602082019050919050565b60008190508160005260206000209050919050565b600081519050919050565b600081519050919050565b600081519050919050565b6000602082019050919050565b600082825260208201905092915050565b600082825260208201905092915050565b600082825260208201905092915050565b600082825260208201905092915050565b600081905092915050565b600061418a826141c4565b9050919050565b60008115159050919050565b6000819050919050565b60008190506141b5826142a5565b919050565b6000819050919050565b600073ffffffffffffffffffffffffffffffffffffffff82169050919050565b6000819050919050565b600060ff82169050919050565b6000614206826141a7565b9050919050565b82818337600083830152505050565b60005b8381101561423a57808201518184015260208101905061421f565b83811115614249576000848401525b50505050565b600061425a8261426b565b9050919050565b6000819050919050565b600061427682614298565b9050919050565b6000819050919050565b6000601f19601f8301169050919050565b60008160601b9050919050565b600481106142af57fe5b50565b6142bb8161417f565b81146142c657600080fd5b50565b6142d2816141e4565b81146142dd57600080fd5b5056fea2646970667358221220ad096b96853789c303087332a3c0bb4ccb28a3aa5a2a843c364075a889e6605864736f6c634300060a0033",
  "immutableReferences": {},
  "source": "pragma solidity 0.6.10;\npragma experimental ABIEncoderV2;\n\nimport \"@opengsn/gsn/contracts/BaseRelayRecipient.sol\";\nimport \"@openzeppelin/contracts/math/SafeMath.sol\";\nimport { SignDocuBase, State, Document, Action } from \"./SignDocuBase.sol\";\n\ncontract SignDocuBussiness is SignDocuBase {\n\n    using SafeMath for uint256;\n\n    function createAccount(address _sender, string calldata _accountPubKey, bytes calldata _signature) external {\n        require(isValidAccountCreation(_sender, _accountPubKey, _signature), 'Signature is not valid.');\n\n        createAccount(_sender, _accountPubKey);\n    }\n\n    function createAccount(address _sender, string memory _accountPubKey) internal isAccountDontExist(_sender) {\n        accounts[_sender] = _accountPubKey;\n    }\n\n    function allowAccountCreation(address _sender, address _allowedAccount, bytes calldata _signature) external {\n        require(isValidAllowAccountCreation(_sender, _allowedAccount, _signature), 'Signature is not valid.');\n\n        allowAccountCreation(_sender, _allowedAccount);\n    }\n\n    function allowAccountCreation(address _sender, address _allowedAccount) internal isAccountExist(_sender) isAccountDontExist(_allowedAccount) {\n        allowedBy[_allowedAccount] = _sender;\n    }\n\n    function createDocument(string calldata _cid, string calldata _secret, address _sender, bytes calldata _signature) external {\n        require(isValidCreationDocumentSignature(_cid, _secret, _sender, _signature), 'Signature is not valid.');\n\n        createDocument(_cid, _secret, _sender);\n    }\n\n    function createDocument(string memory _cid, string memory _secret, address _sender) internal documentDontExist(_cid) isAccountExist(_sender) {\n        documents[_cid] = Document({cid : _cid, owner : _sender, newSignee : address(0x00), state : State.Created});\n        documents[_cid].secrets[_sender] = _secret;\n        documentsExist[_cid] = true;\n        creators[_sender].push(_cid);\n\n        emit DocumentCreated(_cid, _sender);\n    }\n\n    function sign(string calldata _cid, string calldata _secret, address _sender, bytes calldata _signature) external {\n        require(isValidSignSignature(_cid, _secret, _sender, _signature), 'Signature is not valid.');\n\n        sign(_cid, _secret, _sender);\n    }\n\n    function sign(string memory _cid, string memory _secret, address _sender) internal documentExist(_cid) {\n        Document storage document = documents[_cid];\n        \n        require(document.state == State.SignPending, \"Document state isn't in Signing Pending State.\");\n        require(document.newSignee == _sender, \"Only the assign signee by the owner can sign the document.\");\n\n        document.state = State.Signed;\n    }\n\n    function approveToSign(string calldata _cid, address _sender, address _newSignee, string calldata _secret, bytes calldata _signature) external {\n        require(isValidApproveSignature(_cid, _sender, _newSignee, _secret, _signature), 'Signature is not valid.');\n        \n        approveToSign(_cid, _sender, _newSignee, _secret);\n    }\n\n    function approveToSign(string memory _cid, address _sender, address _newSignee, string memory _secret) internal  documentExist(_cid) onlyDocumentOwner(_cid, _sender) isAccountExist(_newSignee) {\n        Document storage document = documents[_cid];\n\n        require(document.state != State.SignPending, 'Cannot ask for another signature if the last signee didn t sign the document.');\n\n        document.newSignee = _newSignee;\n        document.secrets[_newSignee] = _secret;\n        document.state = State.SignPending;\n        documentsBySignee[_newSignee].push(_cid);\n    }\n\n    // Allow Account Creation\n\n    function isValidAllowAccountCreation(address _sender, address _allowedAccount, bytes memory _signature) internal view returns(bool) {\n        bytes32 message = prefixed(keccak256(abi.encodePacked(_sender, _allowedAccount, uint(Action.AccountCreationAllow), address(this))));\n        \n        return recoverSigner(message, _signature) == _sender;\n    }\n\n    // Allow Account Creation\n\n    // Create Account\n\n    function isValidAccountCreation(address _sender, string memory _accountPubKey, bytes memory _signature) internal view returns(bool) {\n        bytes32 message = prefixed(keccak256(abi.encodePacked(_sender, _accountPubKey, uint(Action.AccountCreation), address(this))));\n        \n        return recoverSigner(message, _signature) == _sender;\n    }\n\n    // Create Account\n\n    // Approve for signing\n\n    function isValidApproveSignature(string memory _cid, address _sender, address _newSignee, string memory _secret, bytes memory _signature)\n    internal view returns(bool) {\n        bytes32 message = prefixed(keccak256(abi.encodePacked(_cid, _sender, _newSignee, _secret, uint(Action.Approve), address(this))));\n        \n        return recoverSigner(message, _signature) == _sender;\n    }\n\n    // Approve for signing\n\n    // Sign Document\n\n    function isValidSignSignature(string memory _cid, string memory _secret, address _sender, bytes memory _signature)\n    internal view returns(bool) {\n        bytes32 message = prefixed(keccak256(abi.encodePacked(_cid, _secret, _sender, uint(Action.Sign), address(this))));\n        \n        return recoverSigner(message, _signature) == _sender;\n    }\n\n    // Sign Document\n\n    // Creating Document\n\n    function isValidCreationDocumentSignature(string memory _cid, string memory _secret, address _sender, bytes memory _signature)\n    internal view returns(bool) {\n        bytes32 message = prefixed(keccak256(abi.encodePacked(_cid, _secret, _sender, uint(Action.Create), address(this))));\n        \n        return recoverSigner(message, _signature) == _sender;\n    }\n\n    // Creating Document\n\n    // Signature Part\n\n    function prefixed(bytes32 hash) internal pure returns (bytes32) {\n        return keccak256(abi.encodePacked(\"\\x19Ethereum Signed Message:\\n32\", hash));\n    }\n\n    function splitSignature(bytes memory _signature) internal pure returns(uint8 v, bytes32 r, bytes32 s) {\n        require(_signature.length == 65);\n\n        assembly {\n            // first 32 bytes, after the length prefix.\n            r := mload(add(_signature, 32))\n            // second 32 bytes.\n            s := mload(add(_signature, 64))\n            // final byte (first byte of the next 32 bytes).\n            v := byte(0, mload(add(_signature, 96)))\n        }\n\n        if (uint256(s) > 0x7FFFFFFFFFFFFFFFFFFFFFFFFFFFFFFF5D576E7357A4501DDFE92F46681B20A0) {\n            revert(\"ECDSA: invalid signature 's' value\");\n        }\n\n        if (v != 27 && v != 28) {\n            revert(\"ECDSA: invalid signature 'v' value\");\n        }\n\n        return (v, r, s);\n    }\n\n    function recoverSigner(bytes32 _message, bytes memory _signature) internal pure returns (address) {\n        (uint8 v, bytes32 r, bytes32 s) = splitSignature(_signature);\n        return ecrecover(_message, v, r, s);\n    }\n\n    // Signature Part\n\n    // Gas Station\n\n    function sendPayement() public payable {\n        balances[_msgSender()] = balances[_msgSender()] + msg.value;\n    }\n\n    function setPaymaster(address _paymaster) public onlyOwner() {\n        addressStorage['Paymaster'] = _paymaster;\n    }\n\n    function getFeeByPaymaster(uint256 _fee, address _accountPayingFees) public onlyPaymaster() {\n        balances[_accountPayingFees] = balances[_accountPayingFees] - _fee;\n        payable(addressStorage['Paymaster']).transfer(_fee);\n    }\n\n    // Gas Station\n\n    // Modifier\n\n    modifier documentExist(string memory _cid) {\n        require(documentsExist[_cid], \"Document didn't exist.\");\n        _;\n    }\n\n    modifier documentDontExist(string memory _cid) {\n        require(!documentsExist[_cid], \"Document already exist.\");\n        _;\n    }\n\n    modifier onlyDocumentOwner(string memory _cid, address _sender) {\n        require(documents[_cid].owner == _sender, \"Only the owner of the document can do this action.\");\n        _;\n    }\n\n    modifier isAccountExist(address _sender) {\n        require(keccak256(abi.encodePacked(accounts[_sender])) != keccak256(abi.encodePacked(\"\")), \"Account didn't exist.\");\n        _;\n    }\n\n    modifier isAccountDontExist(address _sender) {\n        require(keccak256(abi.encodePacked(accounts[_sender])) == keccak256(abi.encodePacked(\"\")), \"Account already exist.\");\n        _;\n    }\n\n    modifier onlyOwner() {\n        require(addressStorage['Owner'] == _msgSender(), \"Ownable: caller is not the owner\");\n        _;\n    }\n\n    modifier onlyPaymaster() {\n        require(addressStorage['Paymaster'] == _msgSender(), \"\");\n        _;\n    }\n\n    // Modifier\n}\n",
  "sourcePath": "/Users/mariejoseph/Documents/HackFS/IPFS/contracts/SignDocuBussiness.sol",
  "compiler": {
    "name": "solc",
    "version": "0.6.10+commit.00c0fcaf.Emscripten.clang"
  },
  "schemaVersion": "3.2.4",
  "updatedAt": "2020-08-31T13:38:57.902Z",
  "networkType": "ethereum",
  "devdoc": {
    "methods": {}
  },
  "userdoc": {
    "methods": {}
  }
}