{
  "contractName": "Storage",
  "abi": [
    {
      "anonymous": false,
      "inputs": [
        {
          "indexed": false,
          "internalType": "string",
          "name": "cid",
          "type": "string"
        },
        {
          "indexed": false,
          "internalType": "address",
          "name": "creator",
          "type": "address"
        }
      ],
      "name": "DocumentCreated",
      "type": "event"
    },
    {
      "anonymous": false,
      "inputs": [
        {
          "indexed": true,
          "internalType": "address",
          "name": "previousOwner",
          "type": "address"
        },
        {
          "indexed": true,
          "internalType": "address",
          "name": "newOwner",
          "type": "address"
        }
      ],
      "name": "OwnershipTransferred",
      "type": "event"
    },
    {
      "anonymous": false,
      "inputs": [
        {
          "indexed": false,
          "internalType": "string",
          "name": "cid",
          "type": "string"
        },
        {
          "indexed": false,
          "internalType": "address",
          "name": "signee",
          "type": "address"
        }
      ],
      "name": "Signature",
      "type": "event"
    },
    {
      "inputs": [
        {
          "internalType": "address",
          "name": "",
          "type": "address"
        }
      ],
      "name": "accounts",
      "outputs": [
        {
          "internalType": "string",
          "name": "",
          "type": "string"
        }
      ],
      "stateMutability": "view",
      "type": "function"
    },
    {
      "inputs": [
        {
          "internalType": "string",
          "name": "",
          "type": "string"
        }
      ],
      "name": "addressStorage",
      "outputs": [
        {
          "internalType": "address",
          "name": "",
          "type": "address"
        }
      ],
      "stateMutability": "view",
      "type": "function"
    },
    {
      "inputs": [
        {
          "internalType": "address",
          "name": "",
          "type": "address"
        }
      ],
      "name": "allowedBy",
      "outputs": [
        {
          "internalType": "address",
          "name": "",
          "type": "address"
        }
      ],
      "stateMutability": "view",
      "type": "function"
    },
    {
      "inputs": [
        {
          "internalType": "address",
          "name": "",
          "type": "address"
        }
      ],
      "name": "balances",
      "outputs": [
        {
          "internalType": "uint256",
          "name": "",
          "type": "uint256"
        }
      ],
      "stateMutability": "view",
      "type": "function"
    },
    {
      "inputs": [
        {
          "internalType": "string",
          "name": "",
          "type": "string"
        }
      ],
      "name": "boolStorage",
      "outputs": [
        {
          "internalType": "bool",
          "name": "",
          "type": "bool"
        }
      ],
      "stateMutability": "view",
      "type": "function"
    },
    {
      "inputs": [
        {
          "internalType": "string",
          "name": "",
          "type": "string"
        }
      ],
      "name": "bytesStorage",
      "outputs": [
        {
          "internalType": "bytes",
          "name": "",
          "type": "bytes"
        }
      ],
      "stateMutability": "view",
      "type": "function"
    },
    {
      "inputs": [
        {
          "internalType": "address",
          "name": "",
          "type": "address"
        },
        {
          "internalType": "uint256",
          "name": "",
          "type": "uint256"
        }
      ],
      "name": "creators",
      "outputs": [
        {
          "internalType": "string",
          "name": "",
          "type": "string"
        }
      ],
      "stateMutability": "view",
      "type": "function"
    },
    {
      "inputs": [
        {
          "internalType": "string",
          "name": "",
          "type": "string"
        }
      ],
      "name": "documents",
      "outputs": [
        {
          "internalType": "string",
          "name": "cid",
          "type": "string"
        },
        {
          "internalType": "address",
          "name": "owner",
          "type": "address"
        },
        {
          "internalType": "address",
          "name": "newSignee",
          "type": "address"
        },
        {
          "internalType": "enum State",
          "name": "state",
          "type": "uint8"
        }
      ],
      "stateMutability": "view",
      "type": "function"
    },
    {
      "inputs": [
        {
          "internalType": "address",
          "name": "",
          "type": "address"
        },
        {
          "internalType": "uint256",
          "name": "",
          "type": "uint256"
        }
      ],
      "name": "documentsBySignee",
      "outputs": [
        {
          "internalType": "string",
          "name": "",
          "type": "string"
        }
      ],
      "stateMutability": "view",
      "type": "function"
    },
    {
      "inputs": [
        {
          "internalType": "string",
          "name": "",
          "type": "string"
        }
      ],
      "name": "documentsExist",
      "outputs": [
        {
          "internalType": "bool",
          "name": "",
          "type": "bool"
        }
      ],
      "stateMutability": "view",
      "type": "function"
    },
    {
      "inputs": [
        {
          "internalType": "string",
          "name": "",
          "type": "string"
        }
      ],
      "name": "int256Storage",
      "outputs": [
        {
          "internalType": "int256",
          "name": "",
          "type": "int256"
        }
      ],
      "stateMutability": "view",
      "type": "function"
    },
    {
      "inputs": [
        {
          "internalType": "string",
          "name": "",
          "type": "string"
        }
      ],
      "name": "stringStorage",
      "outputs": [
        {
          "internalType": "string",
          "name": "",
          "type": "string"
        }
      ],
      "stateMutability": "view",
      "type": "function"
    },
    {
      "inputs": [
        {
          "internalType": "string",
          "name": "",
          "type": "string"
        }
      ],
      "name": "uint256Storage",
      "outputs": [
        {
          "internalType": "uint256",
          "name": "",
          "type": "uint256"
        }
      ],
      "stateMutability": "view",
      "type": "function"
    }
  ],
  "bytecode": "0x608060405234801561001057600080fd5b50610e3f806100206000396000f3fe608060405234801561001057600080fd5b50600436106100cf5760003560e01c8063699a20331161008c578063a445434011610066578063a445434014610284578063b3dd697b146102b4578063b5066b61146102e7578063e5b0b90c14610317576100cf565b8063699a2033146101f457806370a13b48146102245780637547b64e14610254576100cf565b8063197c9fc5146100d4578063245309951461010457806327e235e31461013457806332285bda1461016457806359328eb5146101945780635e5c06e2146101c4575b600080fd5b6100ee60048036036100e99190810190610a79565b610347565b6040516100fb9190610b92565b60405180910390f35b61011e60048036036101199190810190610a79565b61037d565b60405161012b9190610bad565b60405180910390f35b61014e60048036036101499190810190610a14565b610443565b60405161015b9190610c58565b60405180910390f35b61017e60048036036101799190810190610a79565b61045b565b60405161018b9190610bea565b60405180910390f35b6101ae60048036036101a99190810190610a14565b610521565b6040516101bb9190610b77565b60405180910390f35b6101de60048036036101d99190810190610a14565b610554565b6040516101eb9190610bea565b60405180910390f35b61020e60048036036102099190810190610a3d565b610604565b60405161021b9190610bea565b60405180910390f35b61023e60048036036102399190810190610a79565b6106ca565b60405161024b9190610bcf565b60405180910390f35b61026e60048036036102699190810190610a79565b6106f8565b60405161027b9190610b77565b60405180910390f35b61029e60048036036102999190810190610a3d565b610741565b6040516102ab9190610bea565b60405180910390f35b6102ce60048036036102c99190810190610a79565b610807565b6040516102de9493929190610c0c565b60405180910390f35b61030160048036036102fc9190810190610a79565b610932565b60405161030e9190610b92565b60405180910390f35b610331600480360361032c9190810190610a79565b610968565b60405161033e9190610c58565b60405180910390f35b6002818051602081018201805184825260208301602085012081835280955050505050506000915054906101000a900460ff1681565b600b818051602081018201805184825260208301602085012081835280955050505050506000915090508054600181600116156101000203166002900480601f01602080910402602001604051908101604052809291908181526020018280546001816001161561010002031660029004801561043b5780601f106104105761010080835404028352916020019161043b565b820191906000526020600020905b81548152906001019060200180831161041e57829003601f168201915b505050505081565b60006020528060005260406000206000915090505481565b600c818051602081018201805184825260208301602085012081835280955050505050506000915090508054600181600116156101000203166002900480601f0160208091040260200160405190810160405280929190818152602001828054600181600116156101000203166002900480156105195780601f106104ee57610100808354040283529160200191610519565b820191906000526020600020905b8154815290600101906020018083116104fc57829003601f168201915b505050505081565b60046020528060005260406000206000915054906101000a900473ffffffffffffffffffffffffffffffffffffffff1681565b60036020528060005260406000206000915090508054600181600116156101000203166002900480601f0160208091040260200160405190810160405280929190818152602001828054600181600116156101000203166002900480156105fc5780601f106105d1576101008083540402835291602001916105fc565b820191906000526020600020905b8154815290600101906020018083116105df57829003601f168201915b505050505081565b6006602052816000526040600020818154811061061d57fe5b90600052602060002001600091509150508054600181600116156101000203166002900480601f0160208091040260200160405190810160405280929190818152602001828054600181600116156101000203166002900480156106c25780601f10610697576101008083540402835291602001916106c2565b820191906000526020600020905b8154815290600101906020018083116106a557829003601f168201915b505050505081565b6008818051602081018201805184825260208301602085012081835280955050505050506000915090505481565b600a818051602081018201805184825260208301602085012081835280955050505050506000915054906101000a900473ffffffffffffffffffffffffffffffffffffffff1681565b6005602052816000526040600020818154811061075a57fe5b90600052602060002001600091509150508054600181600116156101000203166002900480601f0160208091040260200160405190810160405280929190818152602001828054600181600116156101000203166002900480156107ff5780601f106107d4576101008083540402835291602001916107ff565b820191906000526020600020905b8154815290600101906020018083116107e257829003601f168201915b505050505081565b600181805160208101820180518482526020830160208501208183528095505050505050600091509050806000018054600181600116156101000203166002900480601f0160208091040260200160405190810160405280929190818152602001828054600181600116156101000203166002900480156108c95780601f1061089e576101008083540402835291602001916108c9565b820191906000526020600020905b8154815290600101906020018083116108ac57829003601f168201915b5050505050908060010160009054906101000a900473ffffffffffffffffffffffffffffffffffffffff16908060020160009054906101000a900473ffffffffffffffffffffffffffffffffffffffff16908060020160149054906101000a900460ff16905084565b6009818051602081018201805184825260208301602085012081835280955050505050506000915054906101000a900460ff1681565b6007818051602081018201805184825260208301602085012081835280955050505050506000915090505481565b6000813590506109a581610ddb565b92915050565b600082601f8301126109bc57600080fd5b81356109cf6109ca82610ca0565b610c73565b915080825260208301602083018583830111156109eb57600080fd5b6109f6838284610d7b565b50505092915050565b600081359050610a0e81610df2565b92915050565b600060208284031215610a2657600080fd5b6000610a3484828501610996565b91505092915050565b60008060408385031215610a5057600080fd5b6000610a5e85828601610996565b9250506020610a6f858286016109ff565b9150509250929050565b600060208284031215610a8b57600080fd5b600082013567ffffffffffffffff811115610aa557600080fd5b610ab1848285016109ab565b91505092915050565b610ac381610d04565b82525050565b610ad281610d16565b82525050565b6000610ae382610ccc565b610aed8185610ce2565b9350610afd818560208601610d8a565b610b0681610dbd565b840191505092915050565b610b1a81610d69565b82525050565b610b2981610d35565b82525050565b6000610b3a82610cd7565b610b448185610cf3565b9350610b54818560208601610d8a565b610b5d81610dbd565b840191505092915050565b610b7181610d5f565b82525050565b6000602082019050610b8c6000830184610aba565b92915050565b6000602082019050610ba76000830184610ac9565b92915050565b60006020820190508181036000830152610bc78184610ad8565b905092915050565b6000602082019050610be46000830184610b20565b92915050565b60006020820190508181036000830152610c048184610b2f565b905092915050565b60006080820190508181036000830152610c268187610b2f565b9050610c356020830186610aba565b610c426040830185610aba565b610c4f6060830184610b11565b95945050505050565b6000602082019050610c6d6000830184610b68565b92915050565b6000604051905081810181811067ffffffffffffffff82111715610c9657600080fd5b8060405250919050565b600067ffffffffffffffff821115610cb757600080fd5b601f19601f8301169050602081019050919050565b600081519050919050565b600081519050919050565b600082825260208201905092915050565b600082825260208201905092915050565b6000610d0f82610d3f565b9050919050565b60008115159050919050565b6000819050610d3082610dce565b919050565b6000819050919050565b600073ffffffffffffffffffffffffffffffffffffffff82169050919050565b6000819050919050565b6000610d7482610d22565b9050919050565b82818337600083830152505050565b60005b83811015610da8578082015181840152602081019050610d8d565b83811115610db7576000848401525b50505050565b6000601f19601f8301169050919050565b60048110610dd857fe5b50565b610de481610d04565b8114610def57600080fd5b50565b610dfb81610d5f565b8114610e0657600080fd5b5056fea26469706673582212200e3f3fbd41df33893c5080618dcb797725a20f84b41ce115523793b5e1c79f1c64736f6c63430006020033",
  "source": "pragma solidity 0.6.2;\npragma experimental ABIEncoderV2;\n\nimport { State, Document, Action } from \"./EnumAndStruct.sol\";\n\ncontract Storage {\n\n    // Balances for Gas Station Network\n\n    mapping(address => uint256) public balances;\n\n    // Balances for Gas Station Network\n\n    mapping(string => Document) public documents;\n    mapping(string => bool) public documentsExist;\n    mapping(address => string) public accounts;\n    mapping(address => address) public allowedBy;\n\n    mapping(address => string[]) public creators;\n    mapping(address => string[])  public documentsBySignee;\n\n    event Signature(string cid, address signee);\n    event DocumentCreated(string cid, address creator);\n    event OwnershipTransferred(address indexed previousOwner, address indexed newOwner);\n\n    mapping(string => uint256) public uint256Storage;\n    mapping(string => int256) public int256Storage;\n    mapping(string => bool) public boolStorage;\n    mapping(string => address) public addressStorage;\n    mapping(string => bytes) public bytesStorage;\n    mapping(string => string) public stringStorage;\n}",
  "sourcePath": "/Users/mariejoseph/Documents/HackFS/IPFS/contracts/Storage.sol",
  "compiler": {
    "name": "solc",
    "version": "0.6.2+commit.bacdbe57.Emscripten.clang"
  },
  "schemaVersion": "3.2.0",
  "updatedAt": "2020-08-28T09:22:24.250Z",
  "devdoc": {
    "methods": {}
  },
  "userdoc": {
    "methods": {}
  }
}