{
  "contractName": "Utils",
  "abi": [
    {
      "inputs": [
        {
          "internalType": "uint256",
          "name": "_state",
          "type": "uint256"
        }
      ],
      "name": "getStateFromUint",
      "outputs": [
        {
          "internalType": "enum State",
          "name": "",
          "type": "uint8"
        }
      ],
      "stateMutability": "nonpayable",
      "type": "function"
    }
  ],
  "bytecode": "0x608060405234801561001057600080fd5b5061018f806100206000396000f3fe608060405234801561001057600080fd5b506004361061002b5760003560e01c806365e3ddbf14610030575b600080fd5b61004a600480360361004591908101906100b3565b610060565b60405161005791906100eb565b60405180910390f35b600060018214156100745760019050610099565b60028214156100865760029050610099565b60038214156100985760039050610099565b5b919050565b6000813590506100ad81610142565b92915050565b6000602082840312156100c557600080fd5b60006100d38482850161009e565b91505092915050565b6100e581610123565b82525050565b600060208201905061010060008301846100dc565b92915050565b600081905061011482610135565b919050565b6000819050919050565b600061012e82610106565b9050919050565b6004811061013f57fe5b50565b61014b81610119565b811461015657600080fd5b5056fea264697066735822122047495a02f2e594992e86a93d8e97c9ab2c280233f8fd3f1dcfe9d6d06215f59364736f6c63430006020033",
  "source": "pragma solidity ^0.6.2;\npragma experimental ABIEncoderV2;\n\nimport \"./../SignDocuBussiness.sol\";\nimport \"./../SignDocuStorage.sol\";\n\ncontract Utils {\n    function getStateFromUint(uint256 _state) public returns(State) {\n        if (_state == 1) {\n            return State.Created;\n        }\n        if (_state == 2) {\n            return State.SignPending;\n        }\n        if (_state == 3) {\n            return State.Signed;\n        }\n    }\n}\n\n\n// To deal with 24576 bytes limit\n\ncontract ProxyForAccountCreation is SignDocuBussiness {\n    function createAccountMock(address _sender, string memory _accountPubKey) public {\n        createAccount(_sender, _accountPubKey);\n    }\n}\n\ncontract ProxyForApprovingAccountCreation is SignDocuBussiness {\n    function createAccountMock(address _sender, string memory _accountPubKey) public {\n        createAccount(_sender, _accountPubKey);\n    }\n\n    function resetAccountMock(address _sender, string memory _accountPubKey) public {\n        accounts[_sender] = _accountPubKey;\n    }\n\n    function allowAccountCreationMock(address _sender, address _allowed) public {\n        allowAccountCreation(_sender, _allowed);\n    }\n}\n\ncontract ProxyForDocumentCreation is SignDocuBussiness {\n    function createAccountMock(address _sender, string memory _accountPubKey) public {\n        createAccount(_sender, _accountPubKey);\n    }\n    function resetAccountMock(address _sender, string memory _accountPubKey) public {\n        accounts[_sender] = _accountPubKey;\n    }\n\n    function createDocumentMock(string memory _cid, string memory _secret, address _sender) public {\n        createDocument(_cid, _secret, _sender);\n    }\n}\n\ncontract ProxyForDocumentSignatureApproval is SignDocuBussiness {\n    function createAccountMock(address _sender, string memory _accountPubKey) public {\n        createAccount(_sender, _accountPubKey);\n    }\n\n    function createDocumentMock(string memory _cid, string memory _secret, address _sender) public {\n        documents[_cid] = Document({cid : _cid, owner : _sender, newSignee : address(0x00), state : State.Created});\n        documents[_cid].secrets[_sender] = _secret;\n        documentsExist[_cid] = true;\n        creators[_sender].push(_cid);\n\n        emit DocumentCreated(_cid, _sender);\n    }\n\n    function approveToSignMock(string memory _cid, address _sender, address _newSignee, string memory _secret) public {\n        approveToSign(_cid, _sender, _newSignee, _secret);\n    }\n}\n\ncontract ProxyForDocumentSigning is SignDocuBussiness, Utils {\n\n    function createDocumentMock(string memory _cid, string memory _secret, address _sender) public {\n        documents[_cid] = Document({cid : _cid, owner : _sender, newSignee : address(0x00), state : State.Created});\n        documents[_cid].secrets[_sender] = _secret;\n        documentsExist[_cid] = true;\n        creators[_sender].push(_cid);\n\n        emit DocumentCreated(_cid, _sender);\n    }\n\n    function setDocumentState(string memory _cid, uint256 _state) public {\n        documents[_cid].state = getStateFromUint(_state);\n    }\n\n    function setSignee(string memory _cid, address _signee) public {\n        documents[_cid].newSignee = _signee;\n    }\n\n    function signMock(string memory _cid, string memory _secret, address _sender) public {\n        sign(_cid, _secret, _sender);\n    }\n}",
  "sourcePath": "/Users/mariejoseph/Documents/HackFS/IPFS/contracts/Mocks/SignDocuBussinessMock.sol",
  "compiler": {
    "name": "solc",
    "version": "0.6.2+commit.bacdbe57.Emscripten.clang"
  },
  "schemaVersion": "3.2.0",
  "updatedAt": "2020-08-29T21:23:44.294Z",
  "devdoc": {
    "methods": {}
  },
  "userdoc": {
    "methods": {}
  }
}